:020000040800F2
:2000000080050020A1070008B1070008B30700080000000000000000000000000000000009
:20002000000000000000000000000000B50700080000000000000000B7070008B90700086E
:20004000630700086F070008BD070008BF070008C1070008C3070008C5070008C7070008CA
:2000600000000000C9070008CB070008BB070008CD070008CF070008D1070008D307000888
:20008000D5070008D7070008D90700081506000800000000DB070008DD070008DF070008C7
:2000A000E1070008E3070008E5070008E7070008BD060008E90700080000000000000000B1
:2000C00008B4024B9C4608BC6047C0460D01002080B53A4841683A4A11603A4A11600068E4
:2000E00080F308880846804701BDF8B5012080F3108800F06FF800F08DF800F0D4F800F0D9
:2001000026F9314C2D48606080208005A06004276780002080F310880026F806812149009D
:2001200045182879002802D1E87900280FD0608800F06FF92E71EE712448016808220A43D4
:2001400002600168B94301602F805921816268790028E2D060881F28DFDC012080F310889A
:2001600000F050F9A1686068FFF7AAFF00F03EF9002080F310886068690D401860606E714F
:200180001248016808220A4302600168B94301602F80592181622088401C208080B20828EB
:2001A00006DB26806088401C608080B200F031F960881F28B1DB06480660AEE7002000081C
:2001C0007801002074010020600100200044004000B1004082B0002000900190012080F3F4
:2001E00010880B480168820D0A4302600168020D114001910099491C00910199002904D1EB
:200200000099A022D2019142F0D102B070470000001002400E48016801220A430260016867
:2002200002220A430260A020C00500214161094A0260A8225200C260882252010262064AFF
:200240005161064911600021C94381609160704734100240A55455EB00040050555555550F
:200260000121C006C00E814021480160704710B5020007D51F4A03071B0F083B9B089B00C5
:20028000D21803E01C4B820892009A18C300182018401368FF248440A3438907090E814059
:2002A0001943116010BD80B514480168802292020A43026012481349C160016801220A4315
:2002C0000260016804220A430260016820220A430260C1694906FCD5016A4A220A43026252
:2002E00001211C20FFF7C3FF1C20FFF7B9FF01BD00E100E01CED00E000E400E03C10024044
:2003000000440040830600000121C006C00E81401C480160704710B5020007D51A4A0307CC
:200320001B0F083B9B089B00D21803E0174B820892009A18C300182018401368FF24844060
:20034000A3438907090E81401943116010BD80B50F480168802212020A4302600D480F21D6
:2003600081620D49C162012102680A430260C2681143C1601320FFF7C7FF02211320FFF70C
:20038000CAFF01BD00E100E01CED00E000E400E04010024000200040E703000027480068B5
:2003A0000020704738B50500FFF7F8FF002801D0012032BD224C2068022101432160206818
:2003C000F821884320602068E9000143216020688021490201432160FFF7E0FF0028FBD181
:2003E0002068022188432060002032BD012080210906134A13680B4313601268114000D0F3
:20040000002070470F4810490160104901600020704710B50400012080F31088FFF7F2FF87
:2004200006480168FB220A4302602000FFF7BAFFFFF7DCFF002080F3108810BD102002402F
:20044000142002400820024023016745AB89EFCDF8B52E48802109052D4A1160C30C2D49FD
:200460000A681A430A602C4901228C6814438C604C68150725434D604C68450C25434D6075
:20048000264C24682343254C23604B6A840C1C434C624B6AD4031C434C62214B214C2568B3
:2004A0009D4232D02568204EB5421BD00D68C60B2E430E601D4DAA6000266E601C4E076818
:2004C0002F60001D761EFAD128681A4E3668B04201D0236001E014482060AA600868164A9E
:2004E00002400A602068104A90420ED1486A134A02404A6209480268114B13400360486843
:20050000104A02404A60FFF7E3FDF1BD0020000808ED00E000200240381002400070004078
:20052000FF005AA500B100406699C3C300300240BF370000FCFE0008FFEFFFFFFF7FFFFF75
:20054000FFFEFFFFFFFFFFEF10B51A490A68D2B280239B05880D18180488002C03D0022CD5
:2005600013D00AD310BD432A1CD10021124A9180012202808171427210BD532A12D102216B
:2005800001800121817100210BE00968828899548188491C818089B2FF2903DD002181807E
:2005A0000121C17110BD0548016840220A43026070470000244400406C01002020440040C3
:2005C00030B5124A1368FB241C43146080235B0214681C40FCD154689D00254355604024EE
:2005E0000D680560091D001D641EF9D110681840FCD101201168014002D011680843106014
:20060000506803490140516030BD00BF10200240FFFFFBFF0C480168012291430160500762
:20062000812149004018018800290CD0491E0180090408D10548016804220A430260016827
:200640000822914301607047102000400044004070B40123002413E00168001D194202D07E
:200660004D466918491E0C60091D121F042AFAD20D00960701D50C80AD1C1A4000D02C70A7
:200680000268001D002AE7D170BC704730B401220EE00368C31844680830144202D04D4634
:2006A0002C19641E1D6825601B1D241D091FF9D10168001D0029ECD130BC704710B5084CD6
:2006C0002068800602D5FFF73FFF04E02068000601D5FFF768FF60681A210143616010BD87
:2006E0001C44004010B5074979441831064C7C44163404E0081D0A68891888470100A14214
:20070000F8D110BD080000003000000045FFFFFF0C010000000000201C00000060010020FF
:200720000000000069FFFFFF5400000094FEFFFF0C0100200000000000F00DF8002801D054
:20074000FFF7D0FF00BF00BF002000BF00BFFFF7CCFC00F002F80120704780B500F002F819
:2007600001BDFEE70746384600F002F8FBE7FEE780B500BF00BF024A11001820ABBEFBE7C7
:20078000260002000548014603B4684680F3098800BF00BF00BF00BFFFF7CEFFA5EDF5FEF0
:2007A000014880470148004751040008850700087047FEE77047704770477047FEE7FEE766
:2007C000FEE7FEE7FEE7FEE7FEE7FEE7FEE7FEE7FEE7FEE7FEE7FEE7FEE7FEE7FEE7FEE7C9
:2007E000FEE7FEE7FEE7FEE7FEE7FFFFFFFFFFFFFFFFFFFFFFFFFFFFFFFFFFFFFFFFFFFF96
:20080000FFFFFFFFFFFFFFFFFFFFFFFFFFFFFFFFFFFFFFFFFFFFFFFFFFFFFFFFFFFFFFFFF8
:20082000FFFFFFFFFFFFFFFFFFFFFFFFFFFFFFFFFFFFFFFFFFFFFFFFFFFFFFFFFFFFFFFFD8
:20084000FFFFFFFFFFFFFFFFFFFFFFFFFFFFFFFFFFFFFFFFFFFFFFFFFFFFFFFFFFFFFFFFB8
:20086000FFFFFFFFFFFFFFFFFFFFFFFFFFFFFFFFFFFFFFFFFFFFFFFFFFFFFFFFFFFFFFFF98
:20200000D812002049B4000889B400088BB400080000000000000000000000000000000025
:202020000000000000000000000000008DB4000800000000000000008FB4000891B40008BF
:20204000572C0008932C000843420008F35300086B540008CB7700081F7800085DAD000891
:20206000000000004DAA000813A7000899B4000879B30008A7B30008B3B300089BB40008EF
:202080009DB400089FB40008A1B40008D995000800000000A3B40008A5B40008A7B4000896
:2020A000A9B40008ABB40008ADB40008AFB4000831B30008B1B40008000000000000000027
:2020C000F8B5CC4CA07F002830D1607F022803DABE48008900280ED0A088801C81B26429F4
:2020E00009DB0121A177A080A1810020B74988770881C8806077A080B44CE07F002814D02E
:202100004020205C002810D100F086FC00F088FC002565803020205C00F073FC00F088FC4B
:202120006088401C6080E577A581F1BD00256577A580A64EB07F012800D033E12120305C28
:20214000022826D0052800D123E1092824D00B2841D00C285DD00D2800D18AE0192800D111
:20216000F1E01B2800D104E11D2863D0272800D19DE0292800D1B7E02B2800D109E12C2865
:2021800000D1C5E02D2800D1CFE0662800D100E101E100F09FFAFEE030004530057085705C
:2021A000B8490D728D740572B748C581562145522220305C00022321715C40184142A182F5
:2021C0002420305C00022521715C4018208000F0FFF80920DDE03000453005708570A94954
:2021E0000D728D740572A848C581562145522220305C00022321715C4018A0822420305C79
:2022000000022521715C4018208000F0E1F80B20BFE030004530057085709A4901220A728D
:202220008D7405729848C5815621455200F080FA0C20AEE0300045300570857091490D7266
:202240008D74012101729048C581562145522220305C00022321715C4018A0822420305C91
:2022600000022521715C4018208000F0B1F81D208FE0300045300570857082490D728D74B2
:2022800005728148C581562145522220305C00022321715C4018A0822420305C0002252137
:2022A000715C4018208000F093F80D2071E0300045300570857073490A7A002A02D00D7296
:2022C00001228A7405727048C58156214552A5820A2020806D48C08A002802D000F078F810
:2022E00000E06582272054E0300045300570857064490D728D7405726348C58156214552EA
:20230000A582FF202C30208000F062F8292040E030004530057085705A490D728D7405721F
:2023200001205949C8812C2033E0300045300570857054490D728D7405725348C581562137
:2023400045522D2025E037004537012038704D490D728D743D724C49CD8156228D520521F3
:20236000A182208000F034F82220305C787019200FE0300045300570857042490D728D7486
:2023800005724149CD8156228D522221715CC1711B2000F091F8B577AB4801883C4A0A4029
:2023A000028010E05A203021705431217554FF20322170543322B554342170543521755435
:2023C000082000F0F6FBA57796E600009C080020F8B5084C1420205E1221615E814201D15E
:2023E000002842D1218A0A005342984204DAA38205E000BF340B0020824200DAA182142083
:20240000265E224F300000F007FC00F019FC00F023FCF88225882A001220215E1420205EDC
:2024200000F038F860801420205E002804D116496A23C854C88101E0F00F7882A08A6082B6
:202440002089A8421CD02581FF202C30854217D100F0EEFC02209E49C880C34800212F2285
:202460008154012131228154F1BD22882189914206D022811221615E00F00CF86080E080C9
:20248000F1BD0000D40D0020000500205C060020FFBF000000B50B00110000D1012183429F
:2024A00001DAC01A00E0181A82001018400000F078FD80B200BD0000F1B582B0AB4802004A
:2024C0005032D188002901D1002002E091885023C05A927E012A01D1FE210020A44A538A67
:2024E000012B03D1D38DDC43641C00E0D48D5523D25C002A00D119249E4A1278052A04D148
:202500009D4A1278012A00D10924002700224E4B1B886D462B8001232D881D4200D0012213
:202520006D462D88ED091D4202D0150002222A436D462D882D091D4202D0150004222A43EF
:202540006D462D88AD0A1D4202D0150008222A436D462D880C262E4002D0150010222A43F1
:202560006D462D886D091D4202D0150020222A436D462D886D0A1D4202D0150040222A4394
:202580006D462D882D0A6E4675806D466D881D4202D0130080221A43784DA5233026AB5525
:2025A0006B461B7A3126AB553223EA542204120E3323EA543423EC546A46127A521F17D0E6
:2025C000121F2BD0921E022A28D90E3A2ED0921E31D0921E22D00A3A20D0921E1ED0921ED7
:2025E0000DD0521E14D0521E18D0393A25D017E035202954082000F0DCFA03B0F0BD344857
:202600008088010A3322A954E85435202F54F1E7020A3323EA543422A854E9E735202F54CF
:202620006846007A6628E5D10E20E4E74720285C35216854DEE74C20F9E7B548007800288A
:2026400004D1B44E19E000BFC00E0020B2486221405E00F0E1FA86B2B04801900221405E95
:2026600000F0DAFA864200DA86B201980421405E00F0D2FA864200DA060066203121685468
:20268000684640883221685468460088332168542004000E3421685435202C5436202F547E
:2026A0009F483D21415C3722A954094989883C22805C80010A0A024338202A5439202954BF
:2026C0003004000E3A2168543B202E54ACE700007409002010B5294C2320205C0002242154
:2026E000615C40188F4908802220205C0107090F491E8941C90F8C4AD0759175FA208000C3
:20270000108200F0B8FCA520302160540220312160542221615C3222A15400213322A154DD
:202720003422A05435202154082000F042FA10BD7E487F4922228A5C12022323CB5CD21841
:20274000028024228A5C827025228A5CC27026228A5C027127228A5C427128228A5C8271D4
:202760002922895CC171704730090020000500205C060020B8050020A00900209C080020D6
:20278000F8B584B0694C207A002800D1BBE0A178080032225043227932235A431218019223
:2027A00062795A430392A279130032256B4318180090E3791800684302905E480088002812
:2027C00005D0E07C002802D10120E07402E0E07C01280BD10198002802D0574D40190190F4
:2027E0000098002802D0544D40190090657AE0682E46062E5FD801A7BF5DBF44F4062A5874
:2028000084AADE00401C002A02D00099884252D30025E57444498D82E2780A80E060FFF798
:20282000D7FD0020022546E0401C4449498C002901D100200DE0FA21890088423BD33A4992
:2028400000258D82FF222C320A80E060FFF7C0FD002003252FE0401C002B02D0029A90422A
:2028600029D3374A1278002A25D12F4A0023E35E5D4295821180E060FFF7AAFD00200425E7
:2028800019E0401C2179002902D00199884212D30025E57424498D82E2780A80E060FFF7F1
:2028A00097FD0020052506E0401C2449498C002905D1002006256572E06005B0F0BDFA21D8
:2028C00089008842F7D3184900258D82FF222C320A80E060FFF77CFD0020EBE7401C627965
:2028E000002A02D0039A9042E5D3154A1278002AE1D10D4A238893821180E060FFF768FDAD
:2029000000200125D7E760722074E074D5E70000CD070020FFFF00006C070020CE070020C3
:20292000EC080020B4050020340B0020D40D00209C0800203C070020EE0200005C060020B1
:20294000B80500203E4801688022120201E0016808220A43026070473A48006804212FE0FD
:20296000394801680422F4E73848016801225CE0406A704737480068704737480068704787
:20298000364800687047334B186059609A6070472F48016801220A430260C821C900416332
:2029A0008163C16370472E4808E02D4801684022CFE72C480068202102E02A4800684021CA
:2029C0000840401E8041C043C00F7047264801684022BEE70821234802680A4002D0426865
:2029E00011434160022102680A4002D0426811434160102102680A4002D042681143416044
:202A000070471A490860704719480068C0B270471848016804229CE716480168042204E048
:202A2000144894E71348016808229143016070471048016840228CE70E4801684022F4E753
:202A400014000050000002400400024010200040002C0140342C0140382C01403C2C0140BE
:202A6000101802401C4400402044004028440040244400400044004038B5FFF7C5FF050024
:202A800000F053FC002817D15F4C2089002802D0012816D031BDA52D0FD1A52021002031B3
:202AA000E2888854E088401CE080012020810020564948815549487731BD5448407F401C60
:202AC000F8E720002030E1884554E0880B2836D14F4A0A212000203000F036F8E1886218CE
:202AE000D27F03041B0E9A4221D122002032515CC0B281421BD12120205C801E15D0C01E27
:202B000013D0001F11D0801E02280ED90E380CD0801E0AD0801E08D00A3806D0801E04D089
:202B2000801E022801D93B3801D10120A07701203649887788810020E080208131BD0C288B
:202B4000F9DA401CE08031BD10B4030010000A0010D01A781202424090B20822040403D5C3
:202B600044002C48604000E04000521EF6D15B1C491EEED180B210BC704710B5FFF726FF74
:202B8000214C60886189884208D220183021405CFFF737FF6088401C608010BD0120A081CE
:202BA00000202080FFF734FFFFF73CFFFFF744FF10BD10B5144C2188012916D06081144AD8
:202BC000811E89B220003030FFF7BEFF010A6289A2182E23D154618961182F228854012011
:202BE0002080E07706204021605410BD06484021415C002906D0FE31CAB2012A00D10021C3
:202C000040228154704700009C080020340B0020FFFF000021100000002800D5404270473E
:202C20009D2102000AD002D4491E9218FCD5C905100A1206524100D3012A48417047000071
:202C40009D210200EED55242F446FFF7EBFF0122D20710436047FEE70122D2070118090E3C
:202C60007F3910D449421F310FD4001805D2C0011043C84000D5D0437047C0011043C84034
:202C800005D440427047002070470042F3D510007047FEE702005018002A05DD00290ADD0F
:202CA000002808D59F48704705D5002903D5002801D480200006704780B50A005142FFF774
:202CC000E9FF02BDF8B58348018801248A08224214D181490988002909D193490978012967
:202CE00005D192490A78002A01D000220A8000228E49CA854A816C31CA810EE004228C4B14
:202D00001B88134209D1114207D08A49C978012903D186490C7000224A70008884490880A1
:202D2000854D2F004537F879002804D000F0AAF802208249C8807D4E307808285AD801A16B
:202D4000095C8F440826646A868CAEAE160000247B490C7000F0A4FBF485F1BD0020784ABF
:202D60001070F085774988834883F1BD7448047000F07CFC707807283CD14520285C01284C
:202D800004D10220307000207070F1BD04203070002070700E20305E002801DD6A4801E0D5
:202DA00028D5A0036C217052F1BD00F0FFFCF1BD00F0A8FD707807281CD100205F49886193
:202DC000042131707070B066B061F1BD00F03EFEF1BD00245A490C705A488483448300F0FB
:202DE00089FE7078072805D1F879002802D1042030707470F1BD10B50C001100A04215D0F4
:202E0000002807D4A0420DDB1900FFF755FFA0420DDA0BE0844204DAFFF74EFFA04206DA25
:202E200004E01900FFF736FFA04200DD200010BD3E480178052900D1704710B5002920D02B
:202E4000002442490C803F490A8EC98B914200D30A001101891A89003D4A914202D83D4A1A
:202E6000914200D211003C4A916305210170447001203021505401F0A1F938490C703848B9
:202E8000047710BD29480178052900D1704710B500242E490C802B490A8EC98B914200D358
:202EA0000A001101891A8900294A914202D8294A914200D21100284A9163052101704470D0
:202EC00001203021505401F079F924490C702448047710BDC20E0020C00E002010B41349DE
:202EE0000A007232002010801E4B18821E4CE083E060A060508058821C4AD083D0609060E1
:202F00009882D882886148621880588098801883588313498882C882088348818881C88156
:202F200010BC7047FFFFFF7FB1060020B8050020C40E0020380E00209C0800207409002025
:202F4000620900205C06002000C0FFFFC80E0020905F0100B80B000030090020EB09002090
:202F6000200C0020FC0B0020AC0B0020840B0020F446002804D4494200F013F8404260476F
:202F80004042002905D45FD000F00BF8404249426047494200F005F84942604703460B4396
:202FA000E6D40022030A8B420BD203098B4219D243088B422ED2411A00D201465241104645
:202FC0007047FF2209023FD012068B4205D3121209028B4201D31212090203098B4219D37E
:202FE00000E0090AC3098B4201D3CB01C01A524183098B4201D38B01C01A524143098B42F9
:2030000001D34B01C01A524103098B4201D30B01C01A5241C3088B4201D3CB00C01A524159
:2030200083088B4201D38B00C01A524143088B4201D34B00C01A5241884200D3401A52413E
:20304000CFD201461046704708B501F0F9F808BD80B50800694608804A8011B200B201F073
:20306000F1F86946088068460088FF2801DBFF200880009802BDF8B456485549086056480B
:20308000564908605648574908605748574908605748584908605848584908605848594949
:2030A000086059485949086059485A4908605A485A4908605A485B4908605B485B49086047
:2030C0005B48072120228154212281540C21222281541A21232281540D2125228154484881
:2030E0004B49062200920022524B072400254D5FAA4200DA2A000E254D5F9D4200DC2B0012
:20310000891C641EF2D1D218D30F9A1852108B235B00C252801C009A521E0092E3D13C4B55
:20312000374C072521001A00072016881F88F61B94277F00CE53921C891C401EF5D116340C
:203140000E336D1EEED12E490A00224B304C07200725268816801E8856820E349B1C921CBE
:203160006D1EF6D10A001C4B274CE8261D88958425889553A41C9B1C921C401EF6D1080066
:20318000254A174B0C245226158805871D8885539B1C921C801C641EF6D10800204A124BF7
:2031A0001A2405006C3516882E801E88EE879B1C921C801C641EF4D11B480D22FC2403883F
:2031C0000B53801C891C521EF9D1F1BC70470000780E002000B4000860B400087C0E00208A
:2031E00018B40008840E0020E8B100088C0E0020440200206C0E002032020020700E0020FC
:203200001C010020740E0020BCB00008640E002020B10008680E002030B40008800E0020C0
:20322000A4B20008880E0020C8B30008900E0020580A0020FF7F00000121C006C00E8140C2
:2032400080480160704780B58020000541687E4A11607E4A1160006880F308880846804719
:2032600001BD10B57A48016801229143016000F03AF80C20FFF7E0FF7648016810220A437F
:203280000260754CE06875490140E1600D20FFF7D3FFE06872490140E1601C20FFF7CCFF0C
:2032A000A06870490140A1600520FFF7C5FFE0686D490140E1601320FFF7BEFF206801211C
:2032C0008843206020680221884320600420C0432168014021602168084020602068202121
:2032E0008843206010BD002060490860604801685C4A0A40026041685E4A0A40426070472E
:203300005D488168072291438160816838220A40FBD10168594A0A40026001688901FCD56C
:20332000C168574A0A40C260704720B50020554D6988554A914226DA2988062923DAFFF7D3
:2033400063FB29880A0005D002290BD006D303290CD016E0AA2814D1012112E0A5280FD12A
:2033600002210EE0A6280BD103210AE0A92807D1042028800120E88064202881042100E054
:2033800000212980012020BD80B5404840490860FFF7B6FF012080F31088FFF762FFFFF793
:2033A00052FF01BD37484188374A914200DB704780B50088042801D1FFF7E6FF01BD10B5B7
:2033C000304C2089002814D0801E208180B2322806D1FFF721FBFFF723FB5920FFF711FB79
:2033E0002089002805D1FFF713FBFFF71BFBFFF7D9FF6088274A904202DA801C608001E0E4
:20340000FF2020806088911E88421AD11748016801229143016001681F4A0A40026001689A
:20342000820C0A4302601D49C1600168020D0A4302600168420D0A430260016801220A4361
:20344000026010BD80E100E0580E0020540E002010E000E00824014034100240FFFFEFFF45
:20346000FFF7FFFFFFFFFDFFFF7FFFFF004400403C100240FFBFFFFF00100240FFFFFFFEC7
:20348000FFFFFEEE080E0020E9030000FF005AA500B10040EA030000FFEFFFEF153400001F
:2034A000F8B5664C2078002800D0C6E06078002802D001283CD0F1BD00F080FE0025604986
:2034C0000D7060490D77FFF709FD00F0CBFE6088C005C00D608020006C3045820580656363
:2034E00059480560A5602561656158488582C58257482C2285542D22855456494D7600F047
:20350000CDFEA562A56665660120607052498D85524853490185CA43C28541850286818501
:2035200042865048C5620563456385634E4805806C34E08C2085484D2020A886494EF06A4C
:203540001E21715E4018F062316B2022B25E89183163716B2222B25E89187163B16B491C6A
:20356000B163802911D3FFF71CFDB081306BB16BFFF717FDF081706BB16BFFF712FD30828A
:203580000020F06230637063B063A88D801C81B2C929324936DA294B8A269B5F2827CE5F25
:2035A000B34200DA33000B85244A8A23D25E2E268B5F9A4200DD1A00CA85204B8C269B5FB7
:2035C0002A27CE5FB34200DA33004B851B4A8C23D25E30268B5F9A4200DD1A000A86174B52
:2035E0008E241B5F2C268C5FA34200DA23008B85124A8E23D25E32240B5F9A4200DD1A00A0
:203600004A8619E001206122885400200A0062320B8DCC8D1B1B13804B8D0C8E1B1B53806E
:203620008B8D4C8E1B1B93800D4A0A85D343CB854A850B868A854B86A885F1BDB80500200B
:20364000EB090020200C0020300E0020FC0B002074090020340B0020300900206C0700209D
:203660000080FFFFEC080020680C002070B5444C2078012800D07FE06078002806D0012880
:2036800034D0022869D0072877D070BD60883D490140902000020843608026006C360125A6
:2036A000758200F0DFFD38490D77384800210180374A91835184A1606161364B1D80364A55
:2036C0009161364B9983318061633549097801290AD0818A012902D1C08A012804D031481B
:2036E000007A002800D00725657070BD2C480078012813D129480E21405EFFF78DFA05046D
:2037000026692800FA218900FFF748FC30182061854231DA25610720607070BD1C4DA88B33
:20372000801CA88300F026FE1F4E4C20305A062822D10220607001F021F90020F06130612B
:2037400070617060B06031004C310880A8833C22AA5C002A10D1486170BD0D48818B891C0C
:20376000002222610D4A928B6C23E2528AB2142A01DD07226270818370BD0020206170BD1B
:20378000B8050020FF910000200C00203C07002030090020680C002074090020CC0C00208B
:2037A000E1080020D40D0020F006002038B54A4C2078022800D08DE06078002804D001286A
:2037C0002CD007283DD031BD608844490140B22000020843608002207E216052404D4520A9
:2037E000285C01283F480FD10E21405EFFF714FA0004206101203C49488200204A22A85269
:2038000029004531C87005E00821405EFFF704FA000420610020606101206070304D4520F8
:20382000285C012843D1280045304178012918D14A21695A891C8AB22C4B9A422ADA4A208E
:2038400029522B48007A002807D12A48C089002803D12948C078002834D0284803681A007F
:2038600033E04A21695A891C8AB2254B9A420ADAC078C00705D56C20C043E081194AD0807A
:20388000DDE76D20F9E7C278082A03DC0021521CC270D4E74A22A952012181700021C17064
:2038A000A1602161FFF7C4FA4A20295AC7E70A20205EFFF7B1F9E821C9008842C1DB07208F
:2038C0006070BEE70D48026C1300E168A068FFF792FAA06031BD00BFB8050020FFB300008E
:2038E0009C080020CC0C00205C06002030750000D40D002000050020E60800203009002058
:20390000B80B0000F8B54A4C2078032800D08DE06078002804D0012813D0032863D0F1BDB5
:20392000012060700020434908606188424A0A40B62109021143618003217E22A1523F496D
:2039400088833C4D2F680A20205EFFF765F93C494843391829608020C005814200DD2860C9
:203960003848008801280DD10220285E01F082F80C21695E41434E000220285E01F044F88A
:2039800018210EE0002810D10220285E01F072F80821695E41434E000220285E01F034F86D
:2039A0001621695E4143480000903000FFF734F906000098FFF730F90E21615E002901D5B0
:2039C00041420800266160611C4803681A00E168A068FFF710FAA06028681B49884225DB1C
:2039E00003206070F1BD00262661164F3888012802D11048008B03E0002803D10D48C08AF7
:203A000069464880009860610C4D2A681300E168A068FFF7F0F9A060A88B401CA883298C39
:203A200080B2884202D3072060703E80F1BD00BFB8050020CC0C0020FFB7000030090020AF
:203A400099990000C80E00200000AA2A10B5214C207804283CD16078002802D0012816D086
:203A600010BD60881C490140BE2000020843608020006C300421418218491C22895E018035
:203A8000080460630020E06360640120607014480021405E012813D11248007A002807D143
:203AA0001148C089002803D110480078002803D00F4803681A0006E00D48026C130002E023
:203AC000A36C0B484268E168A068FFF794F9A06010BD00BFB8050020FFBF0000CC0C0020E7
:203AE000680C0020D40D002000050020E908002030090020F8B584B0A94C6078072800D9EC
:203B00008FE102A14000095A8F4400BF100082002C026802AC0244031603B003A14FB88842
:203B2000A02801DB012003E0002100209E4AD184607026006C36708A05280AD000F03EFB9D
:203B400000209A4A10709A490877FFF7C7F90520708295480121302281546188C905C90DFF
:203B6000618000253580656325616561A56385848561F08C30858F4E7576CC490D8001F0F3
:203B8000EBF87582B582CA480580C583BD61864880690390667883488088642801DC00268D
:203BA0007BE0814FBD8CC348007869464870684640780870F88C48803020385C002800D0A1
:203BC00080E00398801CB861B96B884205D300200025022601216A4611700390B88E694627
:203BE0008880B54988891E22895E6A4692888218914206DA6A469288801A884201DA012046
:203C000000E00020AC49C989AB4A2023D25E6B469B88CB189A4206DA6B469B88C91A9142F8
:203C200001DA012100E00021A34A128A6B461A81A14A578CDF80019A12141B896F46BF8823
:203C4000DB199A420ADA6A4612896B469B88D21A019B1B149A4201DA012200E000220140BD
:203C600011422DD0AD1C50483121415C002919D0A9B2FA2908DB0021312281540326A949CD
:203C800041840120694608704748858469460978884A117069464988C18403984249886128
:203CA0006670BEE0A8B2FA2149008842ECDB0020002502260390684600780028E4D1E0E777
:203CC0000025E1E73B481421405EFEF7A5FF6428F88C01DD801C00E0001D69464880924830
:203CE00000780128684604D14088904988421DDA09E0407800286846408802D16428C3DB02
:203D000014E0042812DC20006C302421405EFEF797FF0100864801F03FF80100E0208005EE
:203D200001F03AF8834901F08FF8ADD800203022B85469464880A7E701F060F96088C0051D
:203D4000C00D608000206C22A0526063A4490860A06020616061A3498882C8821249488455
:203D60002E22895C002902D19F49088348610320607056E060889D49014061800020A060BD
:203D8000E0869749086020616061074988834A4AD06210635063906304226270488440E015
:203DA000B80500207409002030090020EB090020200C0020340B0020A34D698C891C3E4E5B
:203DC000F06A1E22B25E8018326B2023F35ED2180392726B2223F35ED2180092B76B7F1C45
:203DE0008AB2C8235B009A4214DB052161703900FFF7D7F8B08103983900FFF7D2F8F0814B
:203E000000983900FFF7CDF8308200210020039100910027F0620398306300987063B763D2
:203E20006984012080F3108887483021415C012948D186480168864A0A40026001688022AB
:203E4000914301608348016803229143016063E07D49488C801C48847F490978002912D105
:203E60007E4960228A5A012A0DD180B2FA22D200904205DA6428D4DB5B48C08A0028D0D04B
:203E80000120622288520025256108490D8074480188744A0A40028000F090F972490D709A
:203EA00072480577FFF71AF8BBE700BFC60E0020680C0020B1060020EC080020042020703C
:203EC000002055E761490A68614B13400B60C28F002A09D10A68802313430B605D490A68BD
:203EE00003239A430A600AE0022A0CD10A68802313430B6057490A68012313430B60C18F45
:203F0000891CC18708E00868802202430A605148016803220A430260002080F3108805B055
:203F2000F0BD0000B80B0000A0090020204E000000C007440100D2434D480178052948D164
:203F40004078002801D0012843D14A480078002836D1494881891E22825E08002030824263
:203F600011DB01204549088044484188002923D10188012920D142490968C1608288022AB5
:203F800008DD032207E020399142EDDB00203B49088011E0521C82808288032A05D18268B8
:203FA0008A4207D2891A016104E00F49CA8B60314A800A80C168816030480188418070475E
:203FC00000202E4988800848C18B603041800180704700202B4908802849888070470000D1
:203FE000300E0020FC0B00205C060020FF9100001F480178052900D0704730B540780028D0
:2040000001D0012817D11D480169002913D01E4D2C0060341D48FEF7C4FF0C21FEF7C1FFB9
:2040200020806020285AE98B884204D26188081A8011081A608014486021415A002901D1B9
:204040006030418030BD00003009002014000050FFF8FFFF14040050A1090020F006002028
:20406000C20E0020F8FF0000EB090020200C0020B805002060090020EC080020E80D00206A
:2040800024000040BC0600205C0600200087930338B55F480168C20C0A4302605D4C206890
:2040A00080210143216020686021014321606068F0210904014361600020A062C8210901CC
:2040C000E162616C4C220A4362646063A063E063C6200001A06520690221884320612069D9
:2040E0000421884320612069082188432061206910218843206120694749014021612069E6
:204100004649014021616820A1690143A161A16902020A43A261E1690843E061606D6C21E7
:2041200001436165206A052101432162206A502101432162206AA021C90001432162206AD7
:204140008021490201432162606C80210902014361640125E0682843E0606069284360611D
:2041600000F02CF8256331BDA020C00501682C4A0A4002600168AA2292030A430260016AC1
:20418000802292050A430262416A264A0A434262254801680F229143016001680A220A430B
:2041A0000260016A22220A430262204820490160016A802212020A43026270471D480021FC
:2041C000016041608160C821C900C16001691A4A0A400261A020C0054169184A0A40426130
:2041E00011494A6903239A434A6102680C4B134003600268AA235B031343036008680F229E
:20420000904308600868052202430A607047000040100240002C0140FFFFFEFFFFFFFDFF72
:20422000FF3FC0FF2202000000040050242C01403F060000342C0140FF7FFFFF7FF8FFFFA1
:204240007047FEE710B50549054C2222A35C0A005232383100F091FFE08010BD1C0100203A
:20426000580A00200B480021018041808180C180018141818181C181018241828182C182B0
:2042800001834183044A11805180918001844184704700BFFC0B0020200E002030B4174D98
:2042A00000232B60164C2C82A4206882A88215496983154AAA83EB822B83EB836B60AB6033
:2042C000EB60124D2B602C8242246C82A8826983AA83EB822B83EB836B60AB60EB600C4C62
:2042E00023600C4D258245006582A0826183A283E3822383E38330BC70470000AC0B0020F9
:2043000066060000F57800000B87FFFF840B0020D40B00203333000030B41A21415EC90396
:204320004A42C38A048B1B1B03841BB21024045F5C4344601225455F6B430568ED18A942CB
:2043400003DB1100A94200DA29006218D4134484C2600160836084842221415E1A22825EEB
:204360008A4203DB1C22825E914200DA1100C18330BC7047F0B587B0AD4C2000683008211A
:20438000455E4220205A210068310622895E401ADB49FEF703FE28186946088068460088B4
:2043A00021004231C880608D218F401A4C384221615A4843C8210901FEF7F3FD6946C8812D
:2043C00020004230418901290FDDA06EF42252005043400A6A46D28953009A18D20080189E
:2043E000C84A1060FF30400A90802000683040896A4650812200683292896B465A806A469E
:20440000578862690592226904920D0022006832128A1A81230042331E89B61C052900D922
:20442000F1E002A349005B5A9F4400BF0C001C0064003201880108020026B3480661266006
:204440000496A6830125DEE0B0B2FF28D64811DC1021405EFEF7E0FB0104AB4A1369881173
:20446000400E4018C01118181061814200DB9CE011619AE01021405EFEF7CEFB0004A249A2
:204480000861002000260225C84F694688608CE0694649896B461980002A20D1210068318C
:2044A0008988884201D26846018068464088814200D20F00C821B0B2FEF773FD89B20029F1
:2044C0000DD168460088C01B6A461180B74F81B20A2901DA0121118121006831C881684600
:2044E000008869464881B0B29621890088422DDB69460989012929D121680091AC4826218E
:20450000405EFEF789FB00990818206020692100683189884018049060684221615A4018CD
:20452000A18B491C6A46118069460988802905DB0026032569460988FEF733FD60606846BF
:204540000088A0830020E06005905BE0C821C9008842F7DB002502206B494870F2E7B0B244
:20456000642820DA90481221405EFEF755FB0690014665480269019200918B481021405E0C
:20458000FEF74AFB0099081A00042D21FEF706FD019A11185C48016106980004884204DAC8
:2045A0005949086101E0042500266846C0894002A06628E0B0B2322825DBE16800917C481F
:2045C0002621405EFEF728FB00990818E060606921006831898840180590A0684221615A3E
:2045E0004018E18B491C6A46118069460988802905DB0525002669460988FEF7D2FCA06035
:2046000068460088E08305986061049820619D48068145813B486946098901828781694656
:20462000498941816846C089208507B0F0BD00BFF0060020E068E18BFEF7B3FC6946888101
:20464000A58B20682900FEF7ACFC6946C8806069E18BFEF7A6FC6946888020692900FEF7BB
:20466000A0FC69464880684640888988884200D389E0084669464988401A6946098882B2FE
:20468000914202D269460988401A2100423108826846C08869468989884274D208466946F7
:2046A000C988401A6946088220004230008AFEF7B7FA7B4900F070FB7A4900F06DFB050015
:2046C0006846008AFEF7ACFA0100280000F0AEFD754900F0ABFDFEF7BFFA0004C00B03214C
:2046E000FEF75CFC050080B2EB21490088420DDB6E4A8018F5225043FEF753FC143010E0BD
:20470000C409000058070020B8050020081AF5225043FEF746FC142802D21421081A00E026
:2047200000206946088025846846008A21004231C8812000423045825D483D2140566946C3
:204740000988814203DA0846FEF76AFA01E0FEF777FA58490861684605882846FEF760FA38
:20476000544908614748818A6A461288531A5B10C918818280200002824200DB0025658444
:204780000020049005906846C088A08468468089E0843C4869464988418069468988818015
:2047A000062500F058F82EE7CC0C0020FFFF0000B809002070B5404C207801284AD13F4D89
:2047C0003F4E3000FEF7D6F828813000FEF7D5F8E8803000FEF7D4F83A498A699223E35EF9
:2047E000D218394BCC6A86B2A41900269E5FA419CC624C6BEE88A41902269E5FA4194C6397
:20480000CC6B2E89A41904269B5FE318CB634023CB5A5B1C9CB2102C18DB40240B538A6177
:2048200012094223CA52CA6A52094A854A6B52090A86CA6B52090A870024CC624C63CC638D
:2048400000230022214E3485214C7485A8808A6140200B5270BD174800218160818170476E
:2048600018485E21415A491C5E30018089B2FF222E32914203DB00210180012141807047A1
:20488000000000003207002001200A4A9076114908804880222008820F48C8817047000077
:2048A00000C007440000C8423A923C412AFEFFFFEC080020EC0C0020B8050020B80900208A
:2048C000002C0140F0060020200C002030090020BC7F0000500700201349000070B5404CF1
:2048E000A08B40490A880123D5091D422BD03E4B1D78002D04D0052D23D15B78052B20D1DD
:20490000238C9B1C394D3D26AD574B2D17DA801C85B2FA263601B54204DB35481040088086
:20492000002000239AB2334DAA4205DB0888304A02400A80002000232384A08370BD00206C
:20494000F0E70023F8E7294D3D26AD57552D13DB801C85B2FA26F600B542EEDB8020104395
:204960000880254D2D202B540020A083FEF760FAA08B3D21E980E0E70020DEE770B5194EB5
:2049800030880124010A214207D01C49498C7D2925DA1B490140318070BD184D688C8C2886
:2049A0000ADBFEF745FA308821020143318012483F21C1802D22845412483C21415C01296E
:2049C00007D15621695A552909DA00213C22815470BD5621695A5A2901DB3C21445470BD28
:2049E000440C0020C00E0020B8050020EC0800207FFF00007017000074090020F0060020B0
:204A0000FFFE00003009002010B44104490C8022D201914202DB414A511A09B20BB2C92264
:204A200092015A4352004B435B001B1453245C43640012194B435B001B14394C5C43640097
:204A400012194B435B001B14364C5C434B4359000914354B4B43E11849005118C900334AEF
:204A6000914200D31100012801DA48420100081410BC704780B58021C901401800B2FFF7B1
:204A8000C3FF02BD30B42A480221415E0422835E284A0024125F80242402121B1404A40DAF
:204AA000E2B2C025AD0025401FD080246400A54227D06400A54204D0C024A400A5420AD02E
:204AC00028E01D4B5100595E544262009A18FF235B00D35E1EE0184B514249005918FF2435
:204AE0006400095F52009A5E09E0134B51005C5E6142544262009A18FF235B00D25E5342BF
:204B000008E00D4B514249005918FE340C5F614252009B5E8380418030BC70470080FFFF98
:204B2000CCAAFFFFB7080000CE1C0000FFFFFF7F200E0020FC0B0020DC9100087C487D4968
:204B400001807D494183704770B57C4C2078042856D12079002801D0012851D17848816835
:204B60007022A25E51434900802212022E23E35E406858434000801800146E23E35E5843E2
:204B8000C000236A5B1A1B1A9A1812147823E2526C4B586019607620205E010041431000E6
:204BA00050430818400000F093FB0600604D686800214F22002300F0C5FB5022002300F017
:204BC000DAFB311489B2401868605021FEF7E9F906000A20205EFEF71FF80021695E4843EB
:204BE0004000000C58494143880A28816E81B6B2864202D200F008F870BD00F037F870BDAD
:204C000000204B49888370BD10B5494CA08B801C4E49097A002907D14D49C989002903D187
:204C20004C49097800290ED081B24F4A91421BDBA083FEF7FDF81F204C49C8800020012157
:204C40004B4A518010E081B24A4A91420CDBA083FEF7EEF81F204549C880002046490A8829
:204C60008023DB0013430B80A08310BD002030498883704780B531480078042808D13B48DC
:204C8000408BC8214900884204DB00F008F801BD00F001F801BD3A4800218161704780B5A8
:204CA00026480079002801D0012825D13548018833481C22825E8A4206DA018B891C0183F5
:204CC000418B891C418305E01E22825E914201DA002181612949CA8A098E511AFF22F632D8
:204CE000914202DB008B284901E0408B2749884204DB00F004F801BDFFF7CDFF01BD80B5E4
:204D0000FEF796F81D480021C1821D4A91612021164AD18008211E4A11705821415A402274
:204D20000A435821425201201149088101BD0000AC0C0020C339000011110000B805002084
:204D40005C0B0020280E002066020000D40D002000050020E908002000200E492423C854FD
:204D60008885C880704700002103000074090020B00A0020A10F0000C00E00205C0600206C
:204D80008C0C0020C207002010270000204E0000D20E0020280A002030B405004D400122E2
:204DA000D20715404B180418240E2ED01B0E32D0FF2C34D0FF2B3AD0E4180002090210432C
:204DC0001143000A090A9446C2B24A43000AC3B24B43000A4843110A5B181A43D2B2190A53
:204DE000091801D44918641E080A7F3C23DBFE2C08DAE40509061143634699416041284328
:204E000030BC7047FF20C005F9E728001B0EFF2BF6D1D043F4E72800FF2CF1D1F9E74002C4
:204E2000F7D1FF2B01D14902F3D1E005E7E7D8054902E4D0EDE743020020641CDFD15B123A
:204E40009B1CDCD9D805DAE70CB4012212060318DA4207D84B18DA4204D802000A439218E3
:204E600002D281420CBC7047FCD088420CBC7047F8B500245D490C705D4DFA20E8835D4840
:204E800068845D486E4901853222AC546D4E34826D490A0084326D4B9381D38113826C4B9D
:204EA0002B606C4B2B642C8496235B004B6596230B65694B6B605B088B64684B4361EB234E
:204EC0008361674BC361674B0360548332205080052010803023EC546348908063480866EE
:204EE0002C8563486885012062490870624884836249018262494182624901814A0082815E
:204F000041816149C18161480D2101606049416060498183604981606049C1606049016155
:204F200060494161604981616049C18349080184292181845E494C815E485F494181C482BF
:204F40008181C1810182BA2141823E2284545B4F3C815B482E2284545A4901865A498186AE
:204F60008B218900C186D0005849088058490C7058485949486159484C217052FFF76BFC87
:204F8000FFF782FC56490C704020A886EC87FFF7D5FD5448544981835449C18330006630D5
:204FA000534901805349C1804900418180218181514901222123CA54C2221201CA834F494E
:204FC000C1814F4800F03FFA4E4800F03CFA4E4800F039FA6D204E21785230008030046050
:204FE000848004828460C460F1BD0000D20E002030090020D6060000840A002010B40020AA
:205000001149C8620A007A321080404C20801A4B58608863C8630864486410849084C8647B
:205020003B498860C86008613A4AD0641065506590655C3210603022885410BC70470000ED
:20504000520800005C060020B805002013490000039D3600CF8B0000711B0D007F040000EF
:2050600010270000CDCCCC3D5B020000000C6BDFBC7F000040080020CC0C00204A100000AF
:20508000261B00006E050000712B00005C0B0020751D0000AE070000AB100000957B010026
:2050A00080E929418016D6BE006FDF3029410000140E0020EC0800206D0200009C08002082
:2050C00074090020E256000042030000D40700205A0B0020B22B0000F4090020DC0500005B
:2050E000CD0700208C0C0020743C00004539000022220000DC0A0000200C00201E0500003D
:205100002C0D0020480D0020640D0020C80E002030090020E00700201CB5040018008C421F
:2051200029DB049BA24201DA180024E0984211DA1B1A641A24B26343511A09B2002900D1DD
:2051400001210400C80F401840101818FDF726FF201810E0C31A641A24B26343511A09B23C
:20516000002900D101210400C80F401840101818FDF714FF201A00B216BD70B584B001251B
:2051800003958C1C060002910192684603800020039A210001E0521C891C009C24B2A2424A
:2051A00011DA0023CB5EB342F5DB50000199095E00910199891E0B5E02990A5E891E095E56
:2051C0003000FFF7A9FF029A019963000093009BD3181B1F02229A5EB24224DA009808184F
:2051E000001F0221445E0021405EA04219880DDA511A0B0400D10121201A00B2B21A12B2B9
:20520000504309B2FDF7CAFE00190CE0511A0B0400D10121001B00B2B21A12B2504309B267
:20522000FDF7BCFE201A00B204B070BD30B405004D400122D20715404B180418240E25D086
:205240001B0E2CD0FF2C31D0FF2B34D0E41A000209021043114343084808D10D1B1A02D29B
:20526000641EDB181B18DB18834200D31B1A4941F9D37F3423DDFF2C05DAE40548086041D9
:20528000284330BC7047FF20C005F9E728001B0E03D0FF2BF5D14902F3D0D043F1E7FF2C04
:2052A00001D14002F9D1FF20C005E9E74002F4D1FF2BF8D1F1E728004902E2D0EDE70B0284
:2052C00000202442DCD15B129B1CD9D9D805D7E700B580210903884202D2000340211EE0C8
:2052E0008900884202D28002202118E08900884202D20002102112E08900884202D28001D8
:2053000008210CE08900884202D20001042106E08900884202D28000022100E00121020E69
:20532000074B52009A1813885288D21A0002000A4243100E1818FDF734FE000400BD00BF31
:2053400058AC000830B4434351435D18010C0C00130C5C432D1980B2434392B251430024FD
:20536000C918644124040B04090C09195043C018694130BC704712422DD0994231D970B526
:2053800000251B4209D00C00002112E01100FDF708FE0A000021002370BD0942F6D00024D8
:2053A000012649186441944200D3A41A7641F8D33100012601E0764109D2001864416D41A1
:2053C000A41A9D41F7D2A4185D41B619F5D3300022002B0070BD1B42CFD108B500F044F8E7
:2053E00008BD01D19042CAD202000B00002100207047FEE710B5040021800846A188884213
:2054000000D2A0806188814200D26080216908182061A18A491CA182E38A8AB29A4211D3F5
:2054200089B2FDF7BEFDA0816088A188401AE08060882081A08860810020A0826080084991
:20544000A180206110BD0749C18200218182044A82804180018381810161C1807047000035
:20546000FFFF0000881300007047FEE7F8B59A480088002800D0ECE0984C278A380008281F
:2054800064D802A1095C49008F4400BF050E70767676767A7F00E08A218B884203D1A08ABB
:2054A000618A884252D00127E08A002801D108274CE08B4900228A5E012A5FD0628AA38ADD
:2054C000934237D0238B002B34D065283EDA01230B80A2822083002A15D1FDF7A1FB81498E
:2054E000FFF75AFC8049FFF7A1FE8E21C905FFF753FC7E49FFF79AFEFDF7AEFB7C49C88140
:205500009049C88022E0FDF78BFB7649FFF744FC7549FFF78BFE8E21C905FFF73DFC734954
:20552000FFF784FEFDF798FB41427148C1818548C1800BE06E480078052807D801A1095CB4
:205540008F4400BF0614181C20240227278200F0D9F800F083F8F1BD0327F7E70427F5E76C
:205560000527F3E70627F1E70727EFE700206149C88001206049087000F084F80027E5E769
:205580005B4800780028E1D1DFE70125B14E2F21755400275948078054216754608A002881
:2055A0001DD15748007A002814D1E08AFDF738FB01004C48FFF7F0FB4B49FFF737FE010010
:2055C0008E20C005FFF7E8FB4849FFF72FFEFDF743FB26E04648C5815A48C58025E00128AA
:2055E00023D14748007A002819D1E08AFDF718FB01003C48FFF7D0FB3B49FFF717FE010055
:205600008E20C005FFF7C8FB3849FFF70FFEFDF723FB41423648C1814A48C18005E00020AD
:20562000C0433349C8814749C8809A480088FF212C31884208D1FDF7FBFB02202D49C88076
:205640002F21775431203554608AA082E08A20837CE722480021C182018378E77D482E2114
:20566000415C012903D08C490978012909D11B494A8A8A82CA8A0A8300222E23C254542014
:205680000A5470471548018B00290DD1818A428A914207D1018E65298941C943C90F542242
:2056A000815470470021FAE7C28A7C4B9A4201DB5A1E02E0322A01DA3222C282828A438A8F
:2056C0009A42EED1C28A914201D20121E7E78A42E7D20121E3E70000C00E00205C0600206C
:2056E000C60E00200000C0410000F04200009643B8050020740900205E090020C80E0020B3
:20570000D40D002038B5664C5420205C012831D1608A0028E08A17D1FDF782FA6149FFF75A
:205720003BFB6149FFF782FD8E21C905FFF734FB5E49FFF77BFDFDF78FFA5D49C8810149A7
:20574000C88017E0CC0C0020FDF76AFA5549FFF723FB5549FFF76AFD8E21C905FFF71CFB83
:205760005249FFF763FDFDF777FA41425048C1819B48C18037482E21415C012968D19949A2
:205780008978012964D14A4D2978002908D005295ED1697805295BD1408C9349884257DB34
:2057A000E08A002854D091490A88914B13400B8090490A88904B134004221A430A80618A7C
:2057C000002921D18D4CFDF72BFA3649FFF7E4FA3549FFF72BFD8E21C905FFF7DDFA334907
:2057E000FFF724FD2100FFF7D7FA9F4900F078F92100FFF71BFDFDF72FFAE8817849C880A3
:205800009A48C882088331BD012921D17B4CFDF707FA2449FFF7C0FA2349FFF707FD8E21D9
:20582000C905FFF7B9FA2149FFF700FD2100FFF7B3FA8D4900F054F92100FFF7F7FCFDF7BF
:205840000BFA4142E9816648C1809749C182018331BD00003009002094480178042917D10F
:205860000E21415E0A0009D40A22825E13000DD48A4209DB994209D1002108E00A22825EF9
:20588000130003DC9142F5DA012100E00221017170470000340B0020B0060020E903000005
:2058A0005C0600200000C0410000F04200009643B805002070B57D4C2078052802D17C4833
:2058C00000881EE04D4D2E20205EFDF7A5F90101081AC000FDF7B4F97649FFF7A7FC7649AE
:2058E000FFF75AFAE0218905FFF756FA2900FFF753FA5D4900F0F4F82900FFF797FCFDF7F5
:20590000ABF96E4D288680B28100081840000A21FDF747FB6884394E0A20205EFDF77CF982
:205920000101081AC000FDF78BF96249FFF77EFC6149FFF731FAE0218905FFF72DFA310048
:20594000FFF72AFA484900F0CBF83100FFF76EFCFDF782F9E8835A4D2F21695C012927D1A0
:20596000584EF1881F2902D00021574A9184B188EB225200914206DBFDF75AFA00202F2113
:2059800068540E2013E05149097A002903D080B2C9280DDA02E080B23D2809DAFDF748FA75
:2059A00001203121685400202F2168540420F08047480021415E012904D12179012901D114
:2059C000444A11802179444A11800223D35E012B03D10B0001D100230380518070BD000018
:2059E000CC0C0020380E0020DC050000C40E0020FBFF0000C20E0020FCFF00000000204130
:205A000010B52E4C4420205A46216052608A002832480DD10421405E24493622895E8142B4
:205A200001DB081A11E0802252028918081A0CE00421405E1D493622895E814201DA081AAA
:205A400003E0802252028018401AFDF7E5F880B21C490A6812180A60216D0818206513487F
:205A6000C08E1E49888010BD0000A0406E05000030B41248418CC26DFF23FE335A43520AC3
:205A80004C006318D2181300FF335B0A80256D01AB4200DB6B1E002901D100220023C265E0
:205AA000C38530BC7047000092FAFFFFB8050020BE0600200000C041000096435C06002054
:205AC0003009002074090020B00A0020D40D0020C60E0020680C0020A40E0020300E00203D
:205AE0000122D20703004B402ED4431A01D2C01AC91830B44B180418240E1B0E22D0FF2C54
:205B000020D0E31A182B1DDC09021143C40D641E0002104394461925ED1A0A00AA40D94029
:205B2000451801D36D08A41CE405D209280A2D062A436546AA41604103181B0EFF2B01D3F0
:205B4000C00DC00530BC7047514006E05140CCE70122D20703004B40F8D4431A03D2C01AF3
:205B6000C9185040514030B44B18090211430418240E1B0E40D0FF2C3AD025009D410BD3E0
:205B80001ED8C50D4002401A0BD3ED050100400AC90591416841D5E7C50D40024918401AB2
:205BA000D0D001214008491C0018FCD58C4204D36D1A000AED054019C4E7E8051040C1E77C
:205BC000182DBFDCAC1C0D00E140E5414D40012D4941C40D00021043451A01D46D199543CC
:205BE000641EE405280A2D069541604130BC7047FF2BA7D1D843A5E72442A3D10020A1E7F0
:205C000038B50024804804600025ED437F4805607F4804607F4805607F4804607F48056018
:205C20007F4804607F4805607F48048044808D4804608D48056000F095FAC1438B4A1160C2
:205C40008B4A14808B490C804C808C800C81CC808C810022D3434B81CB818C82924908601C
:205C600000F00DFB00F0D2FB00F006F98F4804608F4805608F480473C47231BD6448016882
:205C80008D4A914200D07047F8B5624909680024E44302685140A14200D0A9E00021016006
:205CA000824D2868801C2860724E307D012801D00120307500F0C8FB307D0128FAD0F07D74
:205CC00001280DD07B4E3068022101433160C920B549C88000F0F1FBB08840210143B1804C
:205CE000734E3068801E306028681730286000F09DF8002803D13068173830600EE06D4823
:205D000001688022D2000A430260D221A64AD180818880220A43828000F0CFFB2868493006
:205D2000286000F039FB070001D0042803D13068493830600FE05F480168802292010A43B5
:205D40000260D521984AD1808188802252000A43828000F0B2FB00F0D6FC00F05DF9286837
:205D600031684140A14232D12B4909682B4A12684A40A2422BD1042F12D18C4A904207D14F
:205D800048428B49884203D100202860346017E0484801688022D2010A430260D6200BE0D6
:205DA000401AFF21143188420AD042480168802212020A430260D7207B49C88000F07DFBBD
:205DC000286815490860306814490860F1BD394C20688021490201432160D8207249C880A9
:205DE00000F06BFBA088802189010143A180F1BD30480168802292020A430260D9206A4975
:205E0000C88000F05AFBF1BD84000020C400002088000020C80000208C000020CC00002097
:205E200070000020B00000209C00002080B51F490A681D321C480068002805D13D320A6045
:205E40001B4909683D3909E00A608E4800680A21FDF7A7F800F02BFA154909681D39144A10
:205E6000116002BD80000020C0000020BC000020D80000204000002080B5012000F091FC6B
:205E8000412000F066FC0128FAD19F4800F032FC032000F032FC272000F032FC00F033FC91
:205EA00000F035FC01BD00007C0000206C000020AC0000205C000020AAAAAAAAF8B5934863
:205EC00002680024E44392490B685340A34261D1521CD3430B608F4DEB885B1C9EB2042EDE
:205EE0000BDDEB8001232B806B80AB802B892B82AB896B8200232B81AB810260EB800A2AEC
:205F00003ED3002606600C60834884490860C0438349086083480068C01D82490860687D19
:205F2000012801D00120687500F08EFA687D0128FAD07D4F3868C01F3860A87D012807D908
:205F40007A4801688022D2020A43026000F0B5FA7448006839684140A14212D1A97D0029F7
:205F60000ED190218901884207D070480168802212030A43026000F0A0FA6A4806603C60A1
:205F8000F1BD6A480168802252030A43026000F094FAF1BD65480168802292030A4302606A
:205FA000DD206349C880F2E77409002041BF0300CC41FCFF884203D382428041C00F7047C4
:205FC0000120704738B5534C208BC1000A1A5200410009184900208AFFF7ECFF05000E2210
:205FE0000621608AFFF7E6FF2818000612D04F48C188491CC1808188802212010A438280FA
:2060000001688022D2030A430260DE204849C88000F053FA31BD000010B5464CE08AA18A03
:20602000091A89104018E082E18843484843E18AFCF7B7FF2081414AA52109012089FFF7BC
:20604000B9FFC0B200281AD0384C207B401CC1B20A2914D100202073E088401CE080A088FF
:20606000802149010143A18020688021C90401432160E2202E49C88000F01FFA207B2B493C
:20608000087310BDA000002070B52D48008E00280ED12648818800290AD00189891C01819E
:2060A00089B2284A914203DB002101810121C17218488189891C818189B2CA43C281224884
:2060C0000188891C018089B214291CDB002101801E4C20681E4D296841400022D243914287
:2060E00011D11C4E306000F03DF83168CA431A4B1A60C2432A60884201D3184A8918091AC7
:2061000020601748016070BD5555000084000020C400002040000020AAAAAAAA8800002030
:20612000C800002070000020B00000205C00002074090020EC080020B80B0000780F0000A0
:206140005C060020A10F0000D800002080000020C00000207C000020BC000020FF7F00009F
:20616000A0000020344948680968704770B506000124324DCA2068615320686100F018F84C
:20618000012811D0A86840218843A860A86831680143A960B0682860286871680904014361
:2061A000296000F020F80024FF206861200070BD18B4002000904021214A13680B4010D106
:2061C000C04310600C021068009B5B1C0093009BA34201D00840F6D010684106C90F01200A
:2061E000484012BC704716480168802291430160704718B40020009011492022CB6813409F
:2062000018D1CA208861532088610868A02398430860CC0B0868009B5B1C0093009BA34284
:2062200001D01040F6D008688206D20F01205040FF228A6112BC7047042800401028004078
:206240000C28004010B4020007D5334A03071B0F083B9B089B00D21803E0304B8208920092
:206260009A18C300182018401368FF248440A3438907090E81401943116010BC704780B5E4
:206280000120C04300F0B7FA002000F0B4FAFA20400200F0ADFA03210020C043FFF7D2FF7A
:2062A000012000F0BBFA012000F0A5FA01BD10B401001B4A13681B4804683D3404601A48FF
:2062C00000681A4C246844400020C043844220D1174841431748814210D2180080235B0405
:2062E0000343E020144CE0800520144C216014490C683D3C0C60136010BC704711488142CA
:2063000005D3180080239B040343E120EAE70020EBE70620EBE700001CED00E000E400E09C
:206320005C0000206C00002074000020B400002048E80100808D5B007409002098000020FF
:20634000AC0000208196980080B535480168C91D01600121080300F032FA324801214160DA
:206360000021016030480168C91F016001BD000000BF2B4A13680D331360002905D00268E9
:206380002A4B1A60001D491EF9D1274801680D39016026480068704738B52148016847317D
:2063A0000160234C20680021C943224D2B6843408B4224D1204B98420FD20100403199429E
:2063C00001D30F2100E01021FFF7D2FF206840302060C1432960002412E0184C2068184A78
:2063E000126842408A420AD100F041FA2168884201D1042400E0032400F008F800E0012486
:206400000948016847390160200032BD80B50D4807490860C14307480160FFF795FF01BD94
:206420006C00002004300240AC0000200030024090000020D0000020FDFE000894000020C5
:20644000D400002000200008114812490860704711490868012202430A6002200A680240DB
:20646000FCD00E490A68C30213430B604A68830313434B6007490A4A0A600A4A0A60486054
:206480000A208860C8680028FCD1500008607047AAAA00000030004060100240085801403F
:2064A000CCCC000055550000BFF34F8F814882490860BFF34F8F00BFFDE7804881880122E7
:2064C0000A438280C188491CC1807047F8B5012080F3108800F0DEF9002079490860794C18
:2064E00002272760784D0021C9432960734E7060B07230607549888200F072FA012805D00C
:20650000FFF7DBFFB0880743B78002E02868801E28602068401D206000F081F82868401F9D
:20652000286020680B30206000F061F828680B38286020681130206000F099F96449096803
:20654000884206D0FFF7B9FFB08808210143B18009E000F08CF9C0B2C143C8B200F08AF956
:206560002868113828602068296841400022D243914201D12D2801D0FFF79FFF00F050FB4F
:20658000002805D0FFF799FFB08810210143B18000F073F9070000F06AF9C0B27840FF288B
:2065A00007D14C4F00F063F93860C1434A48016001E0FFF782FF20681730206000F08CFB6F
:2065C000002805D0B08820210143B180FFF775FF2E68173E2068310041400022D243914237
:2065E00001D1F92801D0FFF768FF2E60F1BD80B534480168C91D016038480168820C0A4319
:20660000026000F01DF90020354908603549364800F01AF92C480168C91F016001BD80B5F4
:20662000324801689C2212060A4014D00168C022D2050A400FD12E4800F05CF8002000F05D
:206640005CF8002000F05CF800F05DF800F05FF800F078F8FEE78821C90502680A408A42BA
:2066600002D1016889001FD59021890502680A408A4210D1016849000DD40121C00C00F050
:2066800055F8002000F0F6FB402000F0FAFB7F2000F008FCFEE7C821C905006808408842BE
:2066A00002D100F04FF801BD00F04CF8FFF7FCFE01BD00000400FA050CED00E05C000020D8
:2066C000201002406C000020AC00002040000020FCFE000894000020D4000020381002405C
:2066E00004300240BF370000002000086010024055550000084908607047084908607047CA
:206700000749086070470748034908607047064801490860704700000030004004300040B5
:2067200008300040AAAA0000CCCC0000002904D029490A6810430860704727490A688243FB
:206740000A60704725480168802212040A43026070470021420902D12149096808E0012AF7
:2067600002D11F49C96D03E0022A01D11C49096EC006C00EC140C807C00F704719490A682D
:20678000104308607047002805D016480168802212020A4303E013480168134A0A40026010
:2067A0007047002805D00D48016801220A43026070470A48016801229143016070470029EB
:2067C00004D00A490A6810430860704707490A6882430A60704700003C10024060100240C6
:2067E000001002405C100240FF7FFFFF38100240114908607047002802D110498860704727
:20680000012805D10D48016801220A43026070470A4801680122914301607047002805D06B
:206820000648016802220A430260704703480168022291430160704714E000E010E000E0AF
:20684000012010490860704710B40F4A002313600E4C05E09B00C358236013685B1C13600F
:2068600013688B42F6D32046006810BC704707480068704706490860704705480068C0B2B3
:206880007047000008300240A80E002000300240043002401CB4002000900190012080F364
:2068A000108845480168820D0A4302600168020D114001910099491C00910199002904D18A
:2068C0000099A022D2019142F0D101684A05D20F0192019901295CD10168384A0A40026042
:2068E0008021890402680A40FCD10222C3681343C360C368324C1C40C460C368840C1C43DE
:20690000C460C3687024A343C360C36810241C43C460C368DB00DB08C360C3680C011C4306
:20692000C460C368274C1C40C460C3680B43C360C368254C1C40C460C368C024E4021C4309
:20694000C46003684C081C43046003680B40FCD0C1681E4B0B43C3601D490B6813430B6072
:206960000B685B075B0F022BFAD18168194B0B4083608168184B0B408360816807239943FC
:20698000816081680A438260816838220A40102AFAD1416D032291434165416D02220A4300
:2069A0004265416D0D4A0A404265416D89008908416513BC704700BF00100240FFFFFFFE3A
:2069C000FF80FFFFFFFFFFF1FFFFC1FF0000011100200240FF8FFFFFFFF0FFFFFFFFBFFFE5
:2069E000F0B40020C0B200307ED17DD401387BD5023079D378D077D481480068001873D764
:206A000080480168C91C016000B502BC0846C043013086447C4802680068864400B501BC6E
:206A2000904261D1C04301308644784802680068864400B501BC904256D1C043013086448F
:206A40008E4471480168006888424DD16F4801680068884248D101216B480268006890420E
:206A600042D16A480268006890423DD10222664803680068984237D16448036800689842BF
:206A800032D10323604804680068A0422CD15F4804680068A04227D104245B48056800687D
:206AA000A84221D1594805680068A8421CD10525554806680068B04216D1544806680068C5
:206AC000B04211D10626504807680068B8420BD14E4807680068B84206D107274A4800680B
:206AE0008046404500D101E000F084F84748006880464045F8D1082080464348006881467A
:206B00004845F1D14148006881464845ECD1092081463D48006882465045E5D13B48006849
:206B200082465045E0D10A2082463748006883465845D9D13548006883465845D4D10B2043
:206B400083463148006884466045CDD12F48006884466045C8D10C2084462D480129C3D16E
:206B6000022AC1D1032BBFD1042CBDD1052DBBD1062EB9D1072FB7D108204045B4D1092046
:206B80004845B1D10A205045AED10B205845ABD10C206045A8D1EFF309801E49096881F363
:206BA0000988EFF309828A429ED11B49096881F30988EFF309828A4296D180F30988EFF33C
:206BC00008801449096881F30888EFF308828A428AD11149096881F30888EFF308828A42C1
:206BE00082D180F308880D480168C91E0160F0BC0120704709480168C91E016000207047DC
:206C00007CB400086C00002074B4000878B40008ED6A000880B4000884B40008AC000020A5
:206C200080B5802080052449086024482449086000F044F9002002BD10B522480388190104
:206C40008022920589180A000F325B1C03801B4B9A4203D3002404801A00448018480260B5
:206C60001548016000F04BF910BD80B51648C188491CC18080218900818001688022120487
:206C80000A430260DF201149C88004200D494880FFF713FC01BD10B50A4C012060800C482F
:206CA00001680B310160FFF7C7FF0A4801680B390160608810BD0000A4000020FF1F0020FB
:206CC000A80000209C0000205C0000207409002070000020B000002070B5574801681D313C
:206CE000016000F03CF8002801D0012032E000F05AF8002801D002202CE000F063F800F03F
:206D000083F880256D024D4E30682840FCD04C4CFFF728FA206030682840FCD0FFF722FA6F
:206D20002168091AC843474A1060474A4A43D043464B18604648824202D34648824201D314
:206D4000052000E000202160434B196043490A6043490A6043490A681D3A0A6070BD38B5C1
:206D60000124FA25AD00344801681F31016001210807FFF7DBFC012000F020F90120FFF74D
:206D800010FD6D1E4120FFF7E4FC002802D1002DF7D102E0002D00D00024324801681F39F6
:206DA0000160200032BD24480168253101602E4800682C490A68253A0A604105C90F01200A
:206DC0004840704700B583B01B4801682931016080208000FFF7D2FC0120FFF7D4FC2348CF
:206DE0000168020D0A430260FFF703FA0020009001901F4802906846FFF7B8F91948016820
:206E00002939016003B000BD80B50B4801682B310160042000F0E4F8FA204002FFF7E8FC6B
:206E20000020FFF7E8FC0120FFF7E5FC0D4801682B39016001BD00006C00002010E000E0C3
:206E4000AC0E0020B800002048E80100B4000020808D5B008196980078000020B00E0020EE
:206E600074000020AC000020001002403C100240FF7F00000E490A680E4B1340184308601C
:206E8000704781B00021009109490A687F239A430092009A4006400E104300900098086072
:206EA00001B07047802101430348016070470000042C00407FFEFFFF002C0040FFB4000018
:206EC000A4000020A800002072B63848384900680968384B384C0026026803600568AB42D0
:206EE00009D104600568AC4205D10260001D8842F2D3FFBC704702600126FFBC7047F0B404
:206F0000A4000020A800002072B6284828490068096806460F46274B274C02680360056843
:206F2000AB421AD104600568AC4216D10260001D8842F2D338463146401C001F0268036088
:206F40000568AB4209D104600568AC4205D102608842F2D162B6F0BC70470260FFF785FE23
:206F600062B6F0BC7047FFB4A4000020A800002072B60E480E49006809680E4B0E4C02688C
:206F8000036005686D1CAB420AD104600568AC4206D10260001D8842F1D362B6FFBC7047A3
:206FA0000260FFF762FE62B6FFBC7047A4000020A800002055555555AAAAAAAA002804D00B
:206FC00005480168820D0A4303E003480168034A0A400260704700BF00700040FFFEFFFF6E
:206FE000042805D10548016804220A430260704702480168042291430160704710E000E0B8
:20700000F8B584B000F0CEF97A48C269036A446A866A808D7749C98D774D1027ED5F774FB0
:207020003D60754D1227ED5F754F3D60714D6D78002D744D00D08DE02F78052F03D16D78A9
:20704000052D02D115E0002F0FD16F4A127A002A07D16E4AD289002A03D16D4A1278002A64
:2070600035D06C4A6C4BC14C4AE0012F01D0022F11D16548007A002807D16448C08900280F
:2070800003D163480078002802D0B948D221D9E0B848C821D6E0032F05D0042F00D0D1E0F8
:2070A0002D79012D18D15848007A002807D15748C089002803D156480078002805D0AC480E
:2070C000D221544A544BA94C1AE0AA48C821AA4AAA4BAB4CAB4EB5E0002D1AD14A48007A24
:2070E000002807D14948C089002803D148480078002807D09E48D221A34AA44BC8242401ED
:20710000B54E9FE09B48C821B44AB54BB54CB64E98E0022D02D0032D00D093E03A48007A36
:20712000002807D13948C089002803D138480078002807D08E48D221954A964B964CFA2607
:2071400076017FE08B48C8218E4A944BFA24A400934E77E02D79002D1FD0022D37D002D31F
:20716000032D34D06EE02848007A002807D12748C089002803D126480078002806D01D48A6
:20718000407841000D18ED00984E4DE01948407841000D18ED00964E46E01B48007A002856
:2071A00007D11A48C089002803D119480078002806D01048407841000D18ED008D4E33E028
:2071C0000C48407841000D18ED008B4E2CE00E48007A002807D10D48C089002803D10C48AD
:2071E000007800281AD00348407841000D18ED00824E19E0E0070020AC0B0020980E002042
:207200009C0E0020B8050020D40D002000050020E9080020D8590000801A0600CA484078F5
:2072200041000D18ED00AC4E7059311D495932000832525933000C335B59340010346459D6
:2072400014367659C04DEA612B626C62AE62A885E9856020285C01280AD16878002801D1D5
:207260001E2001E0962040006221685200F0C8F8A54C2078002853D1A88A01B26A46118011
:20728000E98A0FB200B2908009B2684641809F4E6868FBF7D5FC01009D48FDF77DFD3100C9
:2072A000FDF7C4FFFBF7D8FC0390A868400200F05FF998A20CCA00F065F90022974B00F0D2
:2072C00061F90022994B00F01FFA00F07FFA0290E868FBF7B5FC3100FDF75EFD9049FDF70A
:2072E000A5FFFBF7B9FC0600286900F041F98DA20CCA00F047F900228C4B00F043F98CA2FA
:207300000CCA00F001FA00F061FA009909B2A182E7820299A160039961602061E66010E0D1
:20732000A08A01B26A461180E18A0FB200B2908009B268464180A068029060680390206999
:20734000E6687D49009A12B20A824F827B49019A12B20A82009A12144A827A49039A4A6019
:20736000029A8A60CE60086105B0F0BDE40C00004321000088130000504600007082030014
:20738000A41F0000983A0000C05D000050A50500F055000010090500B80B0000400D0300CB
:2073A000701700006648C08B422801D200200FE0C92801D201200BE0FF219231884201D2B1
:2073C000022005E0C831884201D2032000E004205D49487070470000F82A000074400000FE
:2073E000605B0300EC13000028230000ECAD000854AF000864AE0008CCAF0008DCAE0008AA
:2074000038B5514C25004435A868E169814205D06268904200D010006063A9606068884278
:2074200003D0626B00F05AF86060E868216A814205D0A268904200D01000A063E960A06827
:20744000884203D0A26B00F049F8A0602869616A814205D0E268904200D01000E063296194
:20746000E068884203D0E26B00F038F8E0606869A16A814205D02269904200D01000206445
:2074800069612069884203D0226C00F027F82061288BA18D814205D0A28A904200D0100087
:2074A00028802983A08A884204D04422A25A00F015F8A082688BE18D814205D0E28A9042F8
:2074C00000D0100068806983E08A884203D06A8800F004F8E08231BD44B0000838B50400D6
:2074E0000D00501BFBF798FB18490988884201DA012303E04908FBF751FD030020001A0023
:207500002900FBF778FC32BD9C0D00200000964300C007442C431CEBE2361A3F00F88040A1
:207520003A923C41FCA9F1D24D62603F00C072400000004047922740AC0B0020840B0020D4
:207540005C060020840A0020E007002042080020010042221201D21E004207D002D4521EC3
:207560000018FCD5C10A400512058918704700000100EED54042F446FFF7EBFF0122D20747
:2075800011436047F0B50E005E400125ED072E40B446AE0ADF184C18F44208D2F7420ED2E1
:2075A000640D01D07F0D12D100206146F0BD05D1F74201D87F0D05D10020C143F0BDFBD1BF
:2075C000640DF9D00020C143490549088FE0E419C902DB0229432B43DB0A460DC002314352
:2075E0008E4630B487B295B27D432E0CADB2140C7C43A419260C240425439CB27C43A419D2
:20760000190C7943270CC919A4B20F043C43090C000C97B247432E0CBE193543ADB2170C8D
:207620004743360CBF19A6B2BF193E043543240C3E0C36199FB24743BF19BCB23E0C8919E6
:207640001F0C47437F183E043443390C704680B297B247432E0CBE193543ADB2170C474390
:20766000360CBF19A6B2BF193E043543240C3E0C36199FB24743BF19BCB23E0C89191F0C05
:2076800047437F183E043443390C77463F0C90B278432E0C80190604ADB22E43050CA0B2B6
:2076A0002D18120C7A435019020C80B2240CA4189AB27A43121914042043120C89181B0C80
:2076C0007B43C91830BCEF0A394203D1B61940414941641E6F12BF0DE41B0BDBFF19BC4233
:2076E00011DA240500274208AE417841614166463143F0BD641C05D1401C6141CF0201D3F5
:207700004908F4E750E75DE7F0B40E005E400125ED072E40B446AE0ADF184C18F4423BD29A
:20772000F74241D2640D43D07F0D38D0E41BC902DB0229432B43CF0ADB0A0600B61A9F41F0
:2077400004D2641EB6197F41B6185F416812800D24180018844222DCE80C0021B6197F4111
:20776000B61A9F4102D2B6185F413F1C40414941F4D3241C21DD2405B6197F41B61A9F4144
:2077800005D33743C60737430026012F7041614166463143F0BC7047FCD1F74205D2002027
:2077A000C14349054908F3E704D00020C143F1E77F0DFAD000206146ECE72442FAD1401CFF
:2077C00061410F03F6D30020E2E7FEE7F4464A1805D200F00FF801D580174008604700F0A8
:2077E00009F80121C907884200D90800404260474A1812D2400DC90208430121C9070843DC
:20780000520D40210901521A521C06D452421F3201D4D0407047C017704700207047FEE71F
:2078200070B5954D7020285E6E21695E0A004A43010041435018FFF79BFE00F047FAFFF79B
:20784000C5FF80B28D490A00563210801223D35E5843800A508090885623C95A091A0831CF
:207860000911401890802E008A36A24C0820305EFBF7E6F98249FDF78FFAE0218905FDF758
:207880008BFAFBF7E9F9A0800A20285EFBF7C4F97C4948434112890D081880124021605212
:2078A00095480021405EFBF7B7F942216052FDF715F8924880889249884201DB00F0F6FA31
:2078C00000F064FA00F0B7F82878002804D005281AD16878052817D10820205E0021715E7C
:2078E000411AC910401A20810A20205E0221715E411AC910401A60810C20205E0421715EB2
:20790000411AC910401AA0817E4800F007F9002805D07D4801888022D2000A4302807B48B1
:2079200000F0FCF8002805D077480188802292000A430280764800F0F1F8002804D07248CE
:20794000018808220A43028000F07AF900F001F870BDF0B46C480388002B5CD046490A78E1
:20796000002A04D0052A40D1497805293DD161498B834C8AA41C0122DD08154258D0CD8AA0
:20798000AD1C4C82AEB2634FBE4203DB624D1D4005800025CD82A4B25E4B9C4225DB00235B
:2079A0004B820488A50A154202D0A04D254005800488650A154204D09D4D2540058027247A
:2079C0000B5501884B0B134202D09A4B0B40038001888B0B134202D0974B0B40038001880F
:2079E000114202D0954A0A40028001880A0AD2070BD5404A938C9B1C9CB2464DAC4203DD52
:207A0000A74B0B400380002393840021A54A1172008800280AD13748818B002906D0A24AD8
:207A2000002111835182516181834182F0BC704700254C82AEE738B59C4CA089002819D04B
:207A40006089801C81B2334A914212DB2E490A888023DB0113430B80264D01212D22A954E7
:207A60000F21934A11706081FBF7E2F93320E8800020608131BD0000B80500206C070020B0
:207A800000C00744660200000A880280CA88C2808A8982814A8A42820A6A0262098D018529
:207AA0007047F0B58BB001246D462C80EC80AC8100266E827F4808900A272F8569461148B0
:207AC000FFF7E2FF2C80EC80AE816E82794808902F8569460E48FFF7D7FF2C80EC80AE8173
:207AE0006E82744808902F8569460848FFF7CCFF0BB0F0BD74090020D00E0020380E002065
:207B0000B80B0000B00A0020C00E0020DC0A0020080B002070170000F7FF000010B401005F
:207B20000888002810D0488800280AD08A88002A07D10A8B002A04D18A8C521C8A8464221B
:207B40000A83888000204880C888002810D0088900280AD04A89002A07D10A8B002A04D154
:207B60008A8C521C8A8464220A834881002008818889002810D0C88900280AD00A8A002AC4
:207B800007D10A8B002A04D18A8C521C8A8464220A8308820020C881488A002810D0888AF5
:207BA00000280AD0CA8A002A07D10A8B002A04D18A8C521C8A8464220A83C88200208882C0
:207BC000088B801E82B2002A02D0022A00DA00200883888C002802D0CA69921C00E00022A2
:207BE000CA61CA8C90421CD00A8D824203D2086ACA69904213D3304A3C20105C002809D076
:207C00002A481423C05E3C2804DD012000233C24135507E025481422805E652801DB01205A
:207C200000E000208A8CCA8410BC7047FFEB0000FFFD0000FFDF0000FFBF0000FEFF0000DE
:207C40001E480078042800D0704730B41A484021415A4222825A914202D20121018302E0E2
:207C6000018B012906D1418BFA235B01994201DA891C4183418BFA22120191420BDB01213D
:207C800000230F4A93840F4CA3840F4DAB84D361E361EB6100E00021018730BC7047000054
:207CA000FFFE0000D40D00205C060020340B0020D20E002060EA000074090020B805002021
:207CC000B00A0020080B0020DC0A0020012252054B1850D2D3424DD25B0D4BD030B41C05D6
:207CE000A14355082943D40AE41E1B195B0801D3001849411B059C466C19091B001849419D
:207D000000184941641900239202491B07D46D081DD2091B641900184941491BF7D56D0802
:207D20000AD20919641B00184941491BEFD56D08F7D301E0520817D0C01861419B1AAC417F
:207D400000184941801AA941F4D452080AD0C01AA1419B186C4100184941801AA941E9D402
:207D60005208F4D15B1C6C415808E20710436108614430BC7047C90FC907580DFAD0C94390
:207D8000D342F7D800B500BF00BF00BDF8B58E480088012102090A4234D08C4A1378002BFB
:207DA00004D0052B2CD15278052A29D1884A138A9B1C884CA488E1256D00AC421EDA548A72
:207DC000A41CA5B2FA263601B54205DB824B03407D4803800023002498B2804DA84209DBDA
:207DE000794B188804090C4202D07B490140198000230024548276480382F1BD0024EBE750
:207E00000023F8E7734CA288FF23F6339A42704D15DBEA89921C93B20A2B0EDB10230343A6
:207E2000694803802D2021540E206D490870EA81FAF7FEFF0B20E0800022EA81F1BD0026AB
:207E4000EE811F3B9A4215DB6A89921C93B2C82B0EDB102303435C4803802D202154052044
:207E60005F4908706A81FAF7E3FF0C20E08000226A81F1BD6E81143B9A4214DBAA89921CF3
:207E800093B2FA27FF00BB420EDB102303434E4803802D202154052051490870AA81FAF7F0
:207EA000C7FF0D20E0800022AA81F1BDF8B546480088012142090A4232D0444A1378002BB2
:207EC00004D0052B2AD15278052A27D1404A938A9B1C404CA488DD2C1EDBD48AA41CA5B225
:207EE000FA263601B54205DB3E4B0340364803800023002498B23C4DA84209DB324B188882
:207F000044090C4202D037490140198000230024D4822F488382F1BD0024EBE70023F8E7DB
:207F20002C4CA288512A16DA294D6A8C921C93B2012B0EDD20230343234803802D20215485
:207F40006A84FAF775FF1520E0800D202449087000226A84F1BD652A1D4D17DA00266E8467
:207F60006A8B921C93B20A2B0EDB20230343164803802D2021546A83FAF75AFF1620E08002
:207F80000D201749087000226A83F1BD00266E846E83BF2A14DA2A8B921C93B2FA27FF0077
:207FA000BB420EDB20230343074803802D2021542A83FAF73DFF1720E0800620084908705E
:207FC00000222A83F1BD0000C00E0020B8050020440C002074090020EFFF0000214E0000EF
:207FE000D20E0020DFFF0000204E000002005018002A05DD00290ADD002808D5AD487047FE
:2080000005D5002903D5002801D480200006704780B50A005142FFF7E9FF02BD002800D5BF
:20802000A44848434000002903DD002806D5A148704703D5002801DD802000067047F8B5F5
:208040009D4C60899D490880608E9D4908806088400BC00700D421E19A4D9B4F3868298D8D
:208060004843E065BF4E1221715E2E22A25E5143C91322007632D180210076310622895E6F
:20808000FFF7CCFFA065E069B9681022B25E51434900401AA16D4018001476216052605EB6
