:020000040800F2
:10000000F012002045980008999800089B98000875
:1000100000000000000000000000000000000000E0
:100020000000000000000000000000009D98000893
:1000300000000000000000009F980008A198000840
:10004000230C00085F0C000853200008F330000860
:100050006B310008CF5A0008235B0008719100083B
:1000600000000000618E00085F700008A998000879
:10007000278B00088D970008BB970008C7970008DA
:10008000AB980008E5980008E79800088D7800080C
:1000900000000000E9980008EB980008ED980008BF
:1000A000EF980008F1980008F3980008F598000808
:1000B00045970008F79800080000000000000000C5
:1000C00070B5C84CA07F002830D1607F022803DAC9
:1000D000BA48008900280ED0A088801C81B264290B
:1000E00009DB0121A177A080A1810020B349887795
:1000F0000881C8806077A080B04CE07F002814D0D1
:100100004020205C002810D100F096FC00F098FC04
:10011000002565803020205C00F083FC00F098FC16
:100120006088401C6080E577A58170BD00256577FB
:10013000A580A24EB07F012800D02CE12120305CA8
:10014000022826D0052800D11CE1092824D00B283C
:1001500041D00C285DD00D2800D18AE0192800D1AB
:10016000EFE01B2800D1FDE01D2863D0272800D137
:100170009DE0292800D1B5E02B2800D102E12C28F0
:1001800000D1C3E02D2800D1CDE0662800D1F9E0F0
:10019000FAE000F097FAF7E030004730057085701C
:1001A000B4490D728D744571B34805825221455290
:1001B0002220305C00022321715C40184142A18260
:1001C0002420305C00022521715C4018208000F062
:1001D000F7F80920D6E03000473005708570A54952
:1001E0000D728D744571A44805825221455222201A
:1001F000305C00022321715C4018A0822420305C16
:1002000000022521715C4018208000F0D9F80B20F5
:10021000B8E03000473005708570964901220A72B7
:100220008D744571944805825221455200F077FA49
:100230000C20A7E030004730057085708D490D72A5
:100240008D74012141718C48058252214552222032
:10025000305C00022321715C4018A0822420305CB5
:1002600000022521715C4018208000F0A9F81D20B3
:1002700088E030004730057085707E490D728D74BE
:1002800045717D480582522145522220305C000292
:100290002321715C4018A0822420305C00022521BB
:1002A000715C4018208000F08BF80D206AE030006F
:1002B0004730057085706F490A7A002A02D00D72A6
:1002C00001228A7445716C48058252214552A582EB
:1002D0000A2020806948C08A002801D000F070F808
:1002E00027204FE0300047300570857061490D725E
:1002F0008D7445716048058252214552A582FF20C8
:100300002C30208000F05CF829203BE030004730A2
:100310000570857057490D728D74457101205649DD
:1003200008822C202EE0300047300570857051493E
:100330000D728D74457150480582522145522D2011
:1003400020E030004730012101704A490D728D7460
:10035000457149490D8252228D522221715C4170B2
:1003600019200FE0300047300570857041490D724B
:100370008D74457140490D8252228D522221715C4B
:1003800001711B2000F090F8B577AB4801883C4A1A
:100390000A40028010E05A203021705431217554F7
:1003A000FF20322170543322B5543421705435214A
:1003B0007554062000F0EFFBA5779DE69C08002011
:1003C000F8B5084C1420205E1221615E814201D1F3
:1003D000002842D1218A0A005342984204DAA382BB
:1003E00005E000BF340B0020824200DAA182142015
:1003F000265E224F300000F0F5FB00F007FC00F015
:1004000011FCF88225882A001220215E1420205E2B
:1004100000F038F860801420205E002804D11649CE
:100420006923C854088201E0F00F7882A08A6082B4
:100430002089A8421CD02581FF202C30854217D16D
:1004400000F0D4FC02209E49C880C34800212F221E
:100450008154012131228154F1BD228821899142A8
:1004600006D022811221615E00F00CF86080E080ED
:10047000F1BD0000D40D0020000500205C06002026
:10048000FFBF000000B50B00110000D10121834225
:1004900001DAC01A00E0181A82001018400000F0BB
:1004A0005EFD80B200BD0000F1B582B0AB4A5220C3
:1004B000105A002801D1002102E0518A5020105A20
:1004C0006923D25C012A01D1FE210020A44A538A6B
:1004D000012B03D1D38DDC43641C00E0D48D552364
:1004E000D25C002A00D119249E4A1278052A04D130
:1004F0009D4A1278012A00D10924002700224E4B80
:100500001B886D462B8001232D881D4200D00122BF
:100510006D462D88ED091D4202D0150002222A43A6
:100520006D462D882D091D4202D0150004222A4354
:100530006D462D88AD0A1D4202D0150008222A43BF
:100540006D462D880C262E4002D0150010222A431D
:100550006D462D886D091D4202D0150020222A43C8
:100560006D462D886D0A1D4202D0150040222A4397
:100570006D462D882D0A6E4675806D466D881D422C
:1005800002D0130080221A43784DA5233026AB55A4
:100590006B461B7A3126AB553223EA542204120EE5
:1005A0003323EA543423EC546A46127A521F17D08C
:1005B000121F2BD0921E022A28D90E3A2ED0921E3C
:1005C00031D0921E22D00A3A20D0921E1ED0921E06
:1005D0000DD0521E14D0521E18D0393A25D017E033
:1005E00035202954062000F0D6FA03B0F0BD344877
:1005F0008088010A3322A954E85435202F54F1E7AA
:10060000020A3323EA543422A854E9E735202F5450
:100610006846007A6628E5D10C20E4E74920285C8A
:1006200035216854DEE74B20F9E7B548007800280B
:1006300004D1B44E19E000BFD40E0020B2486221AC
:10064000405E00F0CFFA86B2B04801900221405ED1
:1006500000F0C8FA864200DA86B201980421405EB2
:1006600000F0C0FA864200DA0600662031216854A4
:1006700068464088322168546846008833216854AF
:100680002004000E3421685435202C5436202F5479
:10069000A9483D21415C3722A954094989883C2257
:1006A000805C80010A0A024338202A5439202954E8
:1006B0003004000E3A2168543B202E54ACE7000071
:1006C0007409002010B5294C2320205C000224214D
:1006D000615C4018994908802220215C9848C175C6
:1006E000090701D000218175FA218900018200F0FB
:1006F000EFFCA520302160540220312160542220DB
:10070000205C3221605400203321605401213422C6
:10071000A15435216054062000F03DFA10BD8948EF
:10072000894922228A5C12022323CB5CD2180280E0
:1007300024228A5C827025228A5CC27026228A5C0E
:10074000027127228A5C427128228A5C82712922E6
:10075000895CC1717047000030090020000500204D
:100760005C060020B8050020A00900209C0800209D
:10077000F8B584B0734C207A002800D1BBE0A17892
:10078000080032225043227932235A431218019230
:1007900062795A430392A279130032256B431818E9
:1007A0000090E379180068430290684800880028A8
:1007B00005D0E07C002802D10120E07402E0E07C5A
:1007C00001280BD10198002802D0614D40190190F9
:1007D0000098002802D05E4D40190090657AE068CC
:1007E0002E46062E5FD801A7BF5DBF44F4062A58E7
:1007F00084AADE00401C002A02D00099884252D30D
:100800000025E5744E498D82E2780A80E060FFF7AA
:10081000D7FD0020022546E0401C4E49498C0029A6
:1008200001D100200DE0FA21890088423BD34449E0
:1008300000258D82FF222C320A80E060FFF7C0FD88
:10084000002003252FE0401C002B02D0029A90428A
:1008500029D3414A1278002A25D1394A0023E35E80
:100860005D4295821180E060FFF7AAFD002004251B
:1008700019E0401C2179002902D00199884212D345
:100880000025E5742E498D82E2780A80E060FFF74A
:1008900097FD0020052506E0401C2E49498C0029C3
:1008A00005D1002006256572E06005B0F0BDFA2193
:1008B00089008842F7D3224900258D82FF222C32FD
:1008C0000A80E060FFF77CFD0020EBE7401C6279C6
:1008D000002A02D0039A9042E5D31F4A1278002AD8
:1008E000E1D1174A238893821180E060FFF768FD09
:1008F00000200125D7E760722074E074D5E700007E
:10090000CD070020FFFF00006C070020CE0700206D
:100910000D484721415C01290BD110490968891C08
:100920000F4A914202D301224923C2540B4801606D
:1009300070470021FAE70000EC080020B405002011
:10094000340B0020D40D00209C0800203C07002020
:10095000EE0200005C060020B8050020640E0020B6
:10096000307500003E4801688022120201E00168F3
:1009700008220A43026070473A48006804212FE0C9
:10098000394801680422F4E73848016801225CE034
:10099000406A7047374800687047374800687047BA
:1009A000364800687047334B186059609A6070474A
:1009B0002F48016801220A430260C821C90041632F
:1009C0008163C16370472E4808E02D4801684022CA
:1009D000CFE72C480068202102E02A480068402127
:1009E0000840401E8041C043C00F70472648016840
:1009F0004022BEE70821234802680A4002D042682C
:100A000011434160022102680A4002D0426811434A
:100A10004160102102680A4002D0426811434160DF
:100A200070471A490860704719480068C0B270479B
:100A30001848016804229CE716480168042204E073
:100A4000144894E7134801680822914301607047F5
:100A50001048016840228CE70E4801684022F4E704
:100A6000140000500000024004000240102000402A
:100A7000002C0140342C0140382C01403C2C01401A
:100A8000101802401C44004020440040284400400C
:100A9000244400400044004010B5FFF7C5FF4F4C10
:100AA0002189002902D0012915D010BDA5280ED119
:100AB00021002031E2888854E088401CE080012039
:100AC00020810020464948814549487710BD444867
:100AD000407F401CF8E721002031E2888854E088FC
:100AE0000A282CD10A212000203000F02CF8210007
:100AF0002031E288895C814219D12120205C801E4E
:100B000013D0C01E11D0001F0FD0801E02280CD998
:100B100010380AD0801E08D00A3806D0801E04D0B3
:100B2000801E022801D93B3801D10120A077012085
:100B30002B49887788810020E080208110BDFADA77
:100B4000401CE08010BD020000200B0005D0030017
:100B500010785840521C491EF9D1C0B2704710B5E8
:100B6000FFF744FF1D4C60886189814208D320183B
:100B70003021405CFFF755FF6088401C608010BD4D
:100B80000120A08100202080FFF752FFFFF75AFFCD
:100B9000FFF762FF10BD10B5104C218801290FD05E
:100BA0006081C1B220003030FFF7CDFF210030312D
:100BB0006289885401202080E0770620402160541B
:100BC00010BD06484021415C002906D0FE31CAB262
:100BD000012A00D100214022815470479C08002046
:100BE000340B0020002800D5404270479D210200B0
:100BF0000AD002D4491E9218FCD5C905100A120663
:100C0000524100D3012A4841704700009D21020053
:100C1000EED55242F446FFF7EBFF0122D207104314
:100C20006047FEE70122D2070118090E7F3910D470
:100C300049421F310FD4001805D2C0011043C840EB
:100C400000D5D0437047C0011043C84005D440428E
:100C50007047002070470042F3D510007047FEE750
:100C600002005018002A05DD00290ADD002808D5F9
:100C70009A48704705D5002903D5002801D4802063
:100C80000006704780B50A005142FFF7E9FF02BD38
:100C900070B57F48018801248A08224214D1904906
:100CA0000988002909D18F490978012905D18E4980
:100CB0000A78002A01D000220A8000228A49CA85C7
:100CC0004A816C31CA810EE00422884B1B88134292
:100CD00009D1114207D08649C978012903D1824937
:100CE0000C7000224A70008880490880814E4B2099
:100CF000305C002804D000F0A3F802207E49C880B0
:100D0000794D2878082853D801A1095C8F4400BF89
:100D10000A28545A767CA0A01800002477490C7049
:100D200000F028FBEC8570BD0020744A1070E88547
:100D300073498883488370BD7048047000F000FCDC
:100D40006878072834D104202870002068700E20AD
:100D5000285E002801DD6B4801E029D5A0036C2145
:100D6000685270BD00F080FC70BD00F0D1FC687866
:100D700007281DD10020604988610421297068700E
:100D8000A866A86170BD00F067FD70BD00245B49D6
:100D90000C705B488483448300F0B2FD68780728B8
:100DA00006D14B20305C002802D1042028706C70E2
:100DB00070BD10B50C001100A04215D0002807D45A
:100DC000A0420DDB1900FFF75DFFA0420DDA0BE03A
:100DD000844204DAFFF756FFA04206DA04E0190065
:100DE000FFF73EFFA04200DD200010BD3E48017825
:100DF000052900D1704710B5002920D000244249B0
:100E00000C803F490A8EC98B914200D30A00110120
:100E1000891A89003D4A914202D83D4A914200D246
:100E200011003C4A9163052101704470012030217A
:100E3000505401F0CDF838490C703848047710BD93
:100E400029480178052900D1704710B500242E49A2
:100E50000C802B490A8EC98B914200D30A001101E4
:100E6000891A8900294A914202D8294A914200D21E
:100E70001100284A9163052101704470012030213E
:100E8000505401F0A5F824490C702448047710BD93
:100E9000D60E002010B414490A00723200201080CF
:100EA0001F4B18821F4CE083E060A0605080588286
:100EB0001D4AD083D06090609882D8828861486251
:100EC0001880588098801883588314498882C88273
:100ED000088348818881C88110BC7047FFFFFF7F6D
:100EE000D40E0020B1060020B8050020D80E002046
:100EF000480E00209C080020740900206209002090
:100F00005C06002000C0FFFFE00E0020905F0100A3
:100F1000B80B000030090020EB090020200C002055
:100F2000FC0B0020AC0B0020840B0020F4460028B2
:100F300004D4494200F013F840426047404200297F
:100F400005D45FD000F00BF8404249426047494267
:100F500000F005F84942604703460B43E6D40022FF
:100F6000030A8B420BD203098B4219D243088B42EE
:100F70002ED2411A00D20146524110467047FF223C
:100F800009023FD012068B4205D3121209028B428E
:100F900001D31212090203098B4219D300E0090A96
:100FA000C3098B4201D3CB01C01A524183098B4242
:100FB00001D38B01C01A524143098B4201D34B012B
:100FC000C01A524103098B4201D30B01C01A52418E
:100FD000C3088B4201D3CB00C01A524183088B4215
:100FE00001D38B00C01A524143088B4201D34B00FE
:100FF000C01A5241884200D3401A5241CFD2014612
:101000001046704708B501F023F808BD30B42548F4
:10101000C17D08090907090F052816D0062814D034
:10102000072812D0022806D0092824D0012802D08F
:1010300004280AD01FE009291DD11B481B4908605C
:101040001B481C4908601C4813E0082902D00A29E3
:1010500008D010E014481549086018481549086080
:10106000174806E010481149086016481149086001
:101070001548A249086015480C4909680D4A1268CC
:101080009E4B1B6803240D8805801588C5801D882C
:1010900085819B1C921C891C801C641EF3D130BC72
:1010A00070470000340B0020AC980008A00E002010
:1010B000D4980008A40E0020DC980008C49800080A
:1010C000CC980008B4980008BC980008E80D0020EF
:1010D000F0B487B08A48C17D08090907090F0528BF
:1010E00001D1042002E0022800D10120854A864B6C
:1010F0001A60864A864B1A60864A874B1A60874A6E
:10110000874B1A60874A884B1A60884A884B1A6056
:10111000884A894B1A60001F01281FD80A291DD14F
:101120008648874908608748874908608748884912
:10113000086088488849086088488C490860884861
:10114000072120228154212281540A212222815404
:101150001A21232281540B21252281540020019041
:101160008048007869464870684640780690401E7E
:101170000590059800283FDD7348006804900390AF
:101180006C48029000207849794A12786B461A70B0
:101190006A461278002A17D0039A049B019C641CAB
:1011A0006D462D786C4364001C192B460025555F55
:1011B000A84200DA28000025655F8D4200DA290088
:1011C000A41C921C5B1EF1D14018C10F08184010DE
:1011D00002998B22520088520198401C019002987B
:1011E000801C0290039869460978490040180390D2
:1011F000019805998842C5DB68464078002833D0BD
:101200005148006804904B496A465278584B1B7805
:101210006C4623706B461B78002B0DD00B0004002E
:101220006D462D7826880788F61B94277F00DE53AD
:10123000A41C9B1C6D1EF5D116316B461B785C00FF
:101240000019521EE2D100203A492E4A049C1D008A
:1012500045436D00645B0C8014884C82401C921CDA
:10126000891C069CA042F1DB3D482121415C0029FC
:101270000DD0304A254B324C2468E8261D889584D1
:1012800025889553A41C9B1C921C491EF6D1222133
:10129000415C00290DD0274A2D4B1B681D4C52265E
:1012A0001D88158725889553A41C9B1C921C491EDC
:1012B000F6D12321415C00290ED01E4A264B1B6823
:1012C000164C15006C351E882E802688EE87A41CCF
:1012D0009B1C921C491EF4D12521405C002809D09A
:1012E0001449224A1268FC2413880B53921C891C4F
:1012F000401EF9D107B0F0BC70470000A80E0020D6
:10130000340B002014980008840E00205C9800081C
:10131000880E0020DC970008900E0020FC95000845
:10132000980E002044020020780E00203202002097
:101330007C0E00201C010020800E0020D0940008AC
:10134000700E002034950008740E0020709800087C
:101350008C0E0020B8960008940E00202C980008EF
:10136000580A0020780A0020FF7F00009C0E002011
:10137000790A0020F8B5664C2078002800D0C6E035
:101380006078002802D001283CD0F1BD00F020FE9A
:10139000002560490D7060490D77FFF77BFD00F077
:1013A00059FE6088C005C00D608020006C30458209
:1013B0000580656359480560A560256165615848E9
:1013C0008582C58257482C2285542D228554564942
:1013D0004D7600F05BFEA562A56665660120607033
:1013E00052498D85524853490185CA43C28541857A
:1013F0000286818542865048C562056345638563E0
:101400004E4805806C34E08C2085484D2020A8860D
:10141000494EF06A1E21715E4018F062316B202245
:10142000B25E89183163716B2222B25E89187163D2
:10143000B16B491CB163802911D3FFF790FDB081D6
:10144000306BB16BFFF78BFDF081706BB16BFFF709
:1014500086FD30820020F06230637063B063A88D37
:10146000801C81B2C929324936DA294B8A269B5F12
:101470002827CE5FB34200DA33000B85244A8A2343
:10148000D25E2E268B5F9A4200DD1A00CA85204B61
:101490008C269B5F2A27CE5FB34200DA33004B8550
:1014A0001B4A8C23D25E30268B5F9A4200DD1A00E5
:1014B0000A86174B8E241B5F2C268C5FA34200DA12
:1014C00023008B85124A8E23D25E32240B5F9A4210
:1014D00000DD1A004A8619E00120612288540020AC
:1014E0000A0062320B8DCC8D1B1B13804B8D0C8E32
:1014F0001B1B53808B8D4C8E1B1B93800D4A0A85C2
:10150000D343CB854A850B868A854B86A885F1BD5A
:10151000B8050020EB090020200C0020400E002020
:10152000FC0B002074090020340B0020300900203F
:101530006C0700200080FFFFEC080020680C0020F2
:10154000F8B53E4C2078012874D16078002806D088
:10155000012841D002285ED007286CD0F1BD6088F8
:101560003749014090200002084360800127210094
:101570006C314F8200F06EFD32490F77324D0026FC
:101580002E80324886834684A660666130490F808B
:1015900030488661304886836C22A65266632F49A4
:1015A000498801290AD1072161700821405EFFF7AF
:1015B00019FB000420612948468000E06770A88A72
:1015C000012802D1E88A012834D02548007A002871
:1015D00030D007206070F1BD1C4DA88B801CA88303
:1015E00000F0C0FD1F4E4C20305A062822D10220A8
:1015F000607001F0BBF80020F061306170617060D4
:10160000B06031004C310880A8833C22AA5C002ADB
:1016100010D14861F1BD0D48818B891C00222261E7
:101620000D4A928B6C23E2528AB2142A01DD072202
:1016300062708183F1BD00202061F1BDB8050020FA
:10164000FF910000200C00203C0700203009002002
:10165000680C002074090020CC0C0020380E0020FB
:10166000D40D0020F006002010B5224C207802286E
:101670003ED16078002804D0012817D007281FD059
:1016800010BD60881C490140B22000020843608000
:1016900002207E21605219480821405EFFF7A2FA1D
:1016A0000004206100206061012060700A20205E3B
:1016B000FFF798FAE821C900884201DB0720607033
:1016C0000F48007A002807D10E48008A002803D16D
:1016D0000D480078002803D00C4803681A0002E087
:1016E0000A48026C1300E168A068FFF762FBA06083
:1016F00010BD00BFB8050020FFB30000CC0C0020D7
:10170000D40D002000050020E8080020300900204A
:10171000F8B54A4C2078032800D08DE06078002886
:1017200004D0012813D0032863D0F1BD01206070DC
:101730000020434908606188424A0A40B6210902F4
:101740001143618003217E22A1523F4988833C4D91
:101750002F680A20205EFFF745FA3C4948433918B4
:1017600029608020C005814200DD2860384800885B
:1017700001280DD10220285E01F074F80C21695E69
:1017800041434E000220285E01F036F818210EE099
:10179000002810D10220285E01F064F80821695E5B
:1017A00041434E000220285E01F026F81621695EB2
:1017B0004143480000903000FFF714FA06000098FB
:1017C000FFF710FA0E21615E002901D541420800A1
:1017D000266160611C4803681A00E168A068FFF791
:1017E000E8FAA06028681B49884225DB0320607066
:1017F000F1BD00262661164F3888012802D1104815
:10180000008B03E0002803D10D48C08A6946488058
:10181000009860610C4D2A681300E168A068FFF72A
:10182000C8FAA060A88B401CA883298C80B288428B
:1018300002D3072060703E80F1BD00BFB8050020D4
:10184000CC0C0020FFB7000030090020999900005F
:10185000E00E00200000AA2A10B5214C20780428B0
:101860003CD16078002802D0012816D010BD6088D5
:101870001C490140BE2000020843608020006C30FB
:101880000421418218491C22895E0180080460639A
:101890000020E06360640120607014480021405E15
:1018A000012813D11248007A002807D11148008A74
:1018B000002803D110480078002803D00F4803689F
:1018C0001A0006E00D48026C130002E0A36C0B48FE
:1018D0004268E168A068FFF76CFAA06010BD00BF25
:1018E000B8050020FFBF0000CC0C0020680C0020D1
:1018F000D40D002000050020E80800203009002059
:10190000F8B584B0AB4C6078072800D995E102A106
:101910004000095A8F4400BF100086003402700254
:10192000B80252032203BC03A3488088A02801DB2D
:10193000012003E000210020A04AD184607025002E
:101940006C35688A05280AD000F042FB00209C4ACA
:1019500010709C490877FFF79DFA05206882974828
:101960000121302281546188C905C90D618000269A
:101970002E80666326616661A66386848661E88C34
:101980002885914D6E7691490E8001F0DFF86E82C8
:10199000AE82CC4886804680CB480680C683874886
:1019A00080690390667884488088642801DC00267A
:1019B0007DE0824FBD8CC548007869464870684616
:1019C00040780870F88C48803020385C002800D0BF
:1019D00082E00398801CB861B96B884205D300206F
:1019E0000025022601216A4611700390B88E6946CF
:1019F0008880B74988891E22895E6A469288821843
:101A0000914206DA6A469288801A884201DA0120F9
:101A100000E00020AE49C989AD4A2023D25E6B4662
:101A20009B88CB189A4206DA6B469B88C91A91426A
:101A300001DA012100E00021A54A128A6B461A81D1
:101A4000A34A578CDF80019A12141B896F46BF8806
:101A5000DB199A420ADA6A4612896B469B88D21AC7
:101A6000019B1B149A4201DA012200E0002201408E
:101A700011422FD0AD1C51483121415C00291BD0AF
:101A8000A9B2FA225200914208DB0021312281548E
:101A90000326AA4941840120694608704748858485
:101AA00069460978894A117069464988C184039852
:101AB000424988616670C0E0A8B2FA2149008842B4
:101AC000ECDB002000250226039068460078002801
:101AD000E4D1E0E70025E1E73B481421405EFFF751
:101AE00081F86428F88C01DD801C00E0001D694647
:101AF0004880934800780128684604D1408891497D
:101B000088421DDA09E0407800286846408802D102
:101B10006428C3DB14E0042812DC20006C3024218C
:101B2000405EFFF773F80100874801F02DF80100CF
:101B3000E020800501F028F8844901F07DF8ADD857
:101B400000203022B85469464880A7E701F062F9C6
:101B50006088C005C00D608000206C22A0526063C8
:101B6000A5490860A06020616061A4498882C8829C
:101B7000124948842E22895C002902D1A049088399
:101B800048610320607058E060889E490140618090
:101B90000020A060E08698490860206160610749E4
:101BA00088834B4AD0621063506390630422627052
:101BB000488442E0B8050020740900203009002064
:101BC000EB090020200C0020340B0020DA0E00204E
:101BD000A34D698C891C3E4EF06A1E22B25E8018AD
:101BE000326B2023F35ED2180392726B2223F35ED2
:101BF000D2180092B76B7F1C8AB2FA239B009A42DC
:101C000014DB052161703900FFF7A9F9B081039851
:101C10003900FFF7A4F9F08100983900FFF79FF928
:101C2000308200210020039100910027F062039888
:101C3000306300987063B7636984012080F3108873
:101C400087483021415C012948D186490A68864B82
:101C500013400B600A6880239A430A6083490A682C
:101C600003239A430A60002161E07D49488C801C6F
:101C700048847F490978002913D17E4960228A5A15
:101C8000012A0ED180B2FA22D200904206DA52081E
:101C90009042D2DB5A48C08A0028CED0012062226E
:101CA00088520025256174480188744A0A400280E0
:101CB00000F08EF972490D7072480577FFF7EAF867
:101CC000BBE700BF380E0020680C0020B1060020E2
:101CD000EC08002004202070002053E761490A68C6
:101CE000614B13400B60C28F002A09D10A68802320
:101CF00013430B605D490A6803239A430A600AE0B4
:101D0000022A0A680AD1802313430B6057490A68E4
:101D1000012313430B60C18F891C08E08023134308
:101D20000B6052490A68032313430B60C18FC187BC
:101D3000002080F3108805B0F0BD0000B80B000053
:101D4000A0090020204E000000C007440100D2433B
:101D50004D480178052948D14078002801D0012854
:101D600043D14A480078002836D1494881891E224B
:101D7000825E08002030824211DB01204549088044
:101D800044484188002923D10188012920D14249B2
:101D90000968C1608288022A08DD032207E0203931
:101DA0009142EDDB00203B49088011E0521C82800B
:101DB0008288032A05D182688A4207D2891A016182
:101DC00004E00F49CA8B60314A800A80C168816093
:101DD000304801884180704700202E49888008489B
:101DE000C18B603041800180704700202B49088002
:101DF0002849888070470000400E0020FC0B00201E
:101E00005C060020FF9100001F480178052900D0E2
:101E1000704730B54078002801D0012817D11D48FF
:101E20000169002913D01E4D2C0060341D48FFF7B6
:101E300096F80C21FFF793F820806020285AE98B50
:101E4000884204D26188081A8011081A60801448F8
:101E50006021415A002901D16030418030BD00002D
:101E60003009002014000050FFF8FFFF1404005058
:101E7000A1090020F0060020D60E0020F8FF000087
:101E8000EB090020200C0020B8050020600900208C
:101E9000EC080020FC0D002024000040BC060020BF
:101EA0005C0600200087930338B55E480168C20CC9
:101EB0000A4302605C4C2068802101432160206855
:101EC0006021014321606068F021090401436160E1
:101ED0000020A062C8210901E162616C4C220A4322
:101EE00062646063A063E063C6200001A0652069AE
:101EF00002218843206120690421884320612069F0
:101F000008218843206120691021884320612069CD
:101F1000464901402161206945490140216168200D
:101F2000A1690143A161A16902020A43A261E169B9
:101F30000843E061606D6C2101436165206A052101
:101F400001432162206A502101432162206AA021BD
:101F5000C90001432162206A8021490201432162B4
:101F6000606C80210902014361640125E068284317
:101F7000E06060692843606100F02AF8256331BDA4
:101F8000A020C00501682B4A0A4002600168AA220D
:101F900092030A430260016A802292050A430262A8
:101FA000416A254A0A434262244801680F2291434C
:101FB000016001680A220A430260016A22220A4380
:101FC00002621F480168802212020A4302607047C1
:101FD0001C480021016041608160C821C900C160C6
:101FE0000169194A0A400261A020C0054169174AE7
:101FF0000A40426111494A6903239A434A610268CF
:102000000C4B134003600268AA235B031343036075
:1020100008680F22904308600868052202430A609E
:102020007047000040100240002C0140FFFFFEFFFF
:10203000FFFFFDFFFF3FC0FF220200000004005031
:10204000442C0140342C0140FF7FFFFF7FF8FFFF4D
:102050007047FEE70B480021018041808180C180EC
:10206000018141818181C181018241828182C1825C
:1020700001834183044A118051809180018441840D
:10208000704700BFFC0B0020280E002030B4174D15
:1020900000232B60164C2C82A4206882A88215494C
:1020A0006983154AAA83EB822B83EB836B60AB6059
:1020B000EB60124D2B602C8242246C82A8826983D3
:1020C000AA83EB822B83EB836B60AB60EB600C4CE1
:1020D00023600C4D258245006582A0826183A28326
:1020E000E3822383E38330BC70470000AC0B002005
:1020F00066060000F57800000B87FFFF840B0020C8
:10210000D40B00203333000030B41A21415EC903E0
:102110004A42C38A048B1B1B03841BB21024045F36
:102120005C4344601225455F6B430568ED18A94286
:1021300003DB1100A94200DA29006218D413448499
:10214000C2600160836084842221415E1A22825E23
:102150008A4203DB1C22825E914200DA1100C183B5
:1021600030BC7047F0B587B0AD4C20006830082116
:10217000455E4220205A210068310622895E401ABD
:10218000DB49FEF7E9FE28186946088068460088A2
:1021900021004231C880608D218F401A4C38422185
:1021A000615A4843C8210901FEF7D9FE6946C88132
:1021B00020004230418901290FDDA06EF422520037
:1021C0005043400A6A46D28953009A18D2008018B8
:1021D000C84A1060FF30400A908020006830408973
:1021E0006A4650812200683292896B465A806A465C
:1021F000578862690592226904920D0022006832B4
:10220000128A1A81230042331E89B61C052900D97F
:10221000F1E002A349005B5A9F4400BF0C001C0080
:1022200064003201880108020026B3480661266076
:102230000496A6830125DEE0B0B2FF28D64811DC63
:102240001021405EFEF7CEFC0104AB4A13698811F1
:10225000400E4018C01118181061814200DB9CE04C
:1022600011619AE01021405EFEF7BCFC0004A24917
:102270000861002000260225C84F694688608CE06E
:10228000694649896B461980002A20D121006831AE
:102290008988884201D26846018068464088814228
:1022A00000D20F00C821B0B2FEF759FE89B2002952
:1022B0000DD168460088C01B6A461180B74F81B2B5
:1022C0000A2901DA0121118121006831C88168469B
:1022D000008869464881B0B29621890088422DDB8A
:1022E00069460989012929D121680091AC48262134
:1022F000405EFEF777FC00990818206020692100F5
:10230000683189884018049060684221615A4018F9
:10231000A18B491C6A46118069460988802905DB22
:102320000026032569460988FEF719FE60606846A5
:102330000088A0830020E06005905BE0C821C90010
:102340008842F7DB002502206B494870F2E7B0B203
:10235000642820DA90481221405EFEF743FC069084
:10236000014665480269019200918B481021405E48
:10237000FEF738FC0099081A00042D21FEF7ECFD49
:10238000019A11185C48016106980004884204DA39
:102390005949086101E0042500266846C0894002C9
:1023A000A06628E0B0B2322825DBE16800917C48C5
:1023B0002621405EFEF716FC00990818E06060696F
:1023C00021006831898840180590A0684221615A2F
:1023D0004018E18B491C6A461180694609888029AA
:1023E00005DB0525002669460988FEF7B8FDA060D3
:1023F00068460088E08305986061049820619D48E4
:10240000068145813B486946098901828781694681
:10241000498941816846C089208507B0F0BD00BF69
:10242000F0060020E068E18BFEF799FD694688819F
:10243000A58B20682900FEF792FD6946C880606977
:10244000E18BFEF78CFD6946888020692900FEF744
:1024500086FD69464880684640888988884200D35E
:1024600089E0084669464988401A6946098882B267
:10247000914202D269460988401A210042310882FD
:102480006846C08869468989884274D20846694688
:10249000C988401A6946088220004230008AFEF747
:1024A000A5FB7B4900F070FB7A4900F06DFB05004D
:1024B0006846008AFEF79AFB0100280000F036FD0E
:1024C000754900F033FDFEF7ADFB0004C00B03219E
:1024D000FEF742FD050080B2EB21490088420DDB8A
:1024E0006E4A8018F5225043FEF739FD143010E093
:1024F000C409000058070020B8050020081AF5227A
:102500005043FEF72CFD142802D21421081A00E0D3
:1025100000206946088025846846008A21004231EF
:10252000C8812000423045825D483D2140566946C1
:102530000988814203DA0846FEF758FB01E0FEF7FE
:1025400065FB58490861684605882846FEF74EFB3A
:10255000544908614748818A6A461288531A5B10B9
:10256000C918818280200002824200DB0025658438
:102570000020049005906846C088A0846846808941
:10258000E0843C4869464988418069468988818061
:10259000062500F058F82EE7CC0C0020FFFF0000C5
:1025A000B809002070B5404C207801284AD13F4D31
:1025B0003F4E3000FEF7EEF928813000FEF7EDF9CE
:1025C000E8803000FEF7ECF93A498A699223E35E2D
:1025D000D218394BCC6A86B2A41900269E5FA41982
:1025E000CC624C6BEE88A41902269E5FA4194C6342
:1025F000CC6B2E89A41904269B5FE318CB63402380
:10260000CB5A5B1C9CB2102C18DB40240B538A6104
:1026100012094223CA52CA6A52094A854A6B5209B0
:102620000A86CA6B52090A870024CC624C63CC63C9
:1026300000230022214E3485214C7485A8808A61B4
:1026400040200B5270BD1748002181608181704786
:1026500018485E21415A491C5E30018089B2FF2230
:102660002E32914203DB002101800121418070471D
:10267000000000003207002001200A4A907611492C
:1026800008804880222008820F48C88170470000D7
:1026900000C007440000C8423A923C412AFEFFFFB6
:1026A000EC080020EC0C0020B8050020B809002040
:1026B000002C0140F0060020200C002030090020F2
:1026C000BC7F0000500700201349000070B5404C4B
:1026D000A08B40490A880123D5091D422BD03E4BCF
:1026E0001D78002D04D0052D23D15B78052B20D13A
:1026F000238C9B1C394D3D26AD574B2D17DA801C82
:1027000085B2FA263601B54204DB35481040088010
:10271000002000239AB2334DAA4205DB0888304AD4
:1027200002400A80002000232384A08370BD002083
:10273000F0E70023F8E7294D3D26AD57552D13DB73
:10274000801C85B2FA26F600B542EEDB80201043ED
:102750000880254D2D202B540020A083FEF746FB3A
:10276000A08B3D21E980E0E70020DEE770B5194E3F
:1027700030880124010A214207D01C49498C7D2957
:1027800025DA1B490140318070BD184D688C8C28BA
:102790000ADBFEF72BFB308821020143318012480F
:1027A0003F21C1802D22845412483C21415C0129E3
:1027B00007D15621695A552909DA00213C22815452
:1027C00070BD5621695A5A2901DB3C21445470BD21
:1027D000440C0020D40E0020B8050020EC08002096
:1027E0007FFF00007017000074090020F006002031
:1027F000FFFE00003009002010B44104490C802283
:10280000D201914202DB414A511A09B20BB2C922EC
:1028100092015A4352004B435B001B1453245C4308
:10282000640012194B435B001B14394C5C43640079
:1028300012194B435B001B14364C5C434B4359004D
:102840000914354B4B43E11849005118C900334A6C
:10285000914200D31100012801DA48420100081416
:1028600010BC704780B58021C901401800B2FFF745
:10287000C3FF02BD30B42A480221415E0422835EB8
:10288000284A0024125F80242402121B1404A40D81
:10289000E2B2C025AD0025401FD080246400A542CF
:1028A00027D06400A54204D0C024A400A5420AD0C9
:1028B00028E01D4B5100595E544262009A18FF23D4
:1028C0005B00D35E1EE0184B514249005918FF24AB
:1028D0006400095F52009A5E09E0134B51005C5E90
:1028E0006142544262009A18FF235B00D25E534259
:1028F00008E00D4B514249005918FE340C5F61420B
:1029000052009B5E8380418030BC70470080FFFF97
:10291000CCAAFFFFB7080000CE1C0000FFFFFF7F1E
:10292000280E0020FC0B00208C7600087C487D4996
:1029300001807D494183704770B57C4C2078042824
:1029400056D12079002801D0012851D178488168DA
:102950007022A25E51434900802212022E23E35EC0
:10296000406858434000801800146E23E35E5843CB
:10297000C000236A5B1A1B1A9A1812147823E252B9
:102980006C4B586019607620205E010041431000B6
:1029900050430818400000F01BFB0600604D6868BB
:1029A00000214F22002300F04DFB5022002300F0B5
:1029B00062FB311489B2401868605021FEF7CFFAEB
:1029C00006000A20205EFEF70DF90021695E4843EB
:1029D0004000000C58494143880A28816E81B6B2F4
:1029E000864202D200F008F870BD00F037F870BDE2
:1029F00000204B49888370BD10B5494CA08B801CCA
:102A00004E49097A002907D14D49098A002903D185
:102A10004C49097800290ED081B24B4A91421BDB08
:102A2000A083FEF7E3F91F204C49C8800020012154
:102A30004B4A518010E081B24A4A91420CDBA0839C
:102A4000FEF7D4F91F204549C880002046490A886E
:102A50008023DB0013430B80A08310BD002030498E
:102A60008883704780B531480078042808D13B48F6
:102A7000408BC8214900884204DB00F008F801BD02
:102A800000F001F801BD3A4800218161704780B52E
:102A900026480079002801D0012825D13548018831
:102AA00033481C22825E8A4206DA018B891C01832C
:102AB000418B891C418305E01E22825E914201DA2E
:102AC000002181612949CA8A098E511AFF22F632F2
:102AD000914202DB008B284901E0408B2749884264
:102AE00004DB00F004F801BDFFF7CDFF01BD80B5A8
:102AF000FEF77CF91D480021C1821D4A9161202109
:102B0000164AD18008211E4A11705821415A40228C
:102B10000A435821425201201149088101BD000099
:102B2000AC0C0020C339000011110000B8050020D2
:102B30005C0B0020300E002066020000D40D002047
:102B400000050020E80800202103000000200D49B6
:102B50002423C8548885C880704700007409002069
:102B6000B00A0020A10F0000D40E00205C06002057
:102B70008C0C0020C207002010270000204E00000F
:102B8000EA0E0020280A002030B405004D40012242
:102B9000D20715404B180418240E2ED01B0E32D02D
:102BA000FF2C34D0FF2B3AD0E41800020902104366
:102BB0001143000A090A9446C2B24A43000AC3B24A
:102BC0004B43000A4843110A5B181A43D2B2190A50
:102BD000091801D44918641E080A7F3C23DBFE2C27
:102BE00008DAE40509061143634699416041284328
:102BF00030BC7047FF20C005F9E728001B0EFF2BF3
:102C0000F6D1D043F4E72800FF2CF1D1F9E74002D8
:102C1000F7D1FF2B01D14902F3D1E005E7E7D80551
:102C20004902E4D0EDE743020020641CDFD15B12CF
:102C30009B1CDCD9D805DAE70CB401221206031874
:102C4000DA4207D84B18DA4204D802000A43921835
:102C500002D281420CBC7047FCD088420CBC704749
:102C6000F8B5002463490C70634DFA20E88363488B
:102C700068846348634901853222AC54624E3482D1
:102C800062490A008432624B9381D3811382724B72
:102C90002B60724B2B642C8496235B004B65962330
:102CA0000B656F4B6B605B088B646E4B4361EB2372
:102CB00083616D4BC3616D4B036054833220508040
:102CC000052010803023EC546948908069480866DC
:102CD0002C856948688501206849087068488483A4
:102CE0006849018268494182684901814A008281BC
:102CF000418167480D2101606649416066498183D1
:102D0000664981606649C160664901616649416101
:102D1000664981616649C18349080184292181840A
:102D200064494C81644865494181C4828181C18183
:102D30000182BA2141823E228454614F3C81614824
:102D40002E22845460490186604981868B21890046
:102D5000C186D0005E4908805E490C705E485F49BC
:102D600048615F484C217052FFF76DFCFFF784FC0F
:102D70005C490C704020A886EC875B480C21B2238C
:102D8000C1545A4B19705A4A11706421C181FEF71F
:102D90009FF9FEF73BF9FFF7C9FD56485649818375
:102DA0005649C18330006630554901805549C1807C
:102DB0004900418180218181534901222123CA5444
:102DC000C2221201CA835149C181514800F0BBF9A6
:102DD000504800F0B8F9504800F0B5F96D204E2188
:102DE0007852300080300460848004828460C46043
:102DF000F1BD0000EA0E002030090020D6060000D8
:102E0000840A0020520800005C060020B80500205B
:102E10001349000010B400204049C8620A007A3209
:102E200010803F4C2080164B58608863C86308644C
:102E3000486410849084C8643A498860C860086116
:102E4000394AD0641065506590655C32106030225C
:102E5000885410BC70470000039D3600CF8B0000E3
:102E6000711B0D007F04000010270000CDCCCC3D6D
:102E70005B020000000C6BDFBC7F000040080020FC
:102E8000CC0C00204A100000261B00006E0500003C
:102E90005C0B0020751D0000AE070000AB100000A9
:102EA000957B010080E929418016D6BE006FDF3096
:102EB000294100001C0E0020EC0800206D020000DB
:102EC0009C08002074090020E25600004203000024
:102ED000D40700205A0B0020B22B0000F409002078
:102EE000DC050000CD070020000500209B0300202A
:102EF000980800208C0C0020743C0000453900002C
:102F000022220000DC0A0000200C00201E05000028
:102F10002C0D0020480D0020640D0020B805002075
:102F2000E00E002030090020E007002030B405004A
:102F30004D400122D20715404B180418240E25D00D
:102F40001B0E2CD0FF2C31D0FF2B34D0E41A000202
:102F500009021043114343084808D10D1B1A02D23D
:102F6000641EDB181B18DB18834200D31B1A49416F
:102F7000F9D37F3423DDFF2C05DAE40548086041EE
:102F8000284330BC7047FF20C005F9E728001B0E1E
:102F900003D0FF2BF5D14902F3D0D043F1E7FF2C4A
:102FA00001D14002F9D1FF20C005E9E74002F4D188
:102FB000FF2BF8D1F1E728004902E2D0EDE70B0240
:102FC00000202442DCD15B129B1CD9D9D805D7E75D
:102FD00000B580210903884202D2000340211EE08F
:102FE0008900884202D28002202118E089008842AC
:102FF00002D20002102112E08900884202D2800130
:1030000008210CE08900884202D20001042106E078
:103010008900884202D28000022100E00121020ED4
:10302000074B52009A1813885288D21A0002000ADD
:103030004243100E1818FDF792FF000400BD00BFB8
:103040006C90000830B4434351435D18010C0C00F0
:10305000130C5C432D1980B2434392B251430024B8
:10306000C918644124040B04090C09195043C01801
:10307000694130BC704712422DD0994231D970B5A8
:1030800000251B4209D00C00002112E01100FDF7C1
:1030900066FF0A000021002370BD0942F6D000241B
:1030A000012649186441944200D3A41A7641F8D30A
:1030B0003100012601E0764109D2001864416D41DA
:1030C000A41A9D41F7D2A4185D41B619F5D330007A
:1030D00022002B0070BD1B42CFD108B500F044F890
:1030E00008BD01D19042CAD202000B00002100208D
:1030F0007047FEE710B5040021800846A188884289
:1031000000D2A0806188814200D2608021690818C5
:103110002061A18A491CA182E38A8AB29A4211D312
:1031200089B2FDF71CFFA0816088A188401AE08069
:1031300060882081A08860810020A082608008498A
:10314000A180206110BD0749C18200218182044A0B
:1031500082804180018381810161C18070470000CC
:10316000FFFF0000881300007047FEE7F8B59A489B
:103170000088002800D0ECE0984C278A3800082806
:1031800064D802A1095C49008F4400BF050E707627
:103190007676767A7F00E08A218B884203D1A08AF6
:1031A000618A884252D00127E08A002801D108278D
:1031B0004CE08B4900228A5E012A5FD0628AA38A92
:1031C000934237D0238B002B34D065283EDA01237D
:1031D0000B80A2822083002A15D1FDF707FD8149CB
:1031E000FFF7D2FC8049FFF7A1FE8E21C905FFF74A
:1031F000CBFC7E49FFF79AFEFDF714FD7C49C881A0
:103200009049C88022E0FDF7F1FC7649FFF7BCFC4D
:103210007549FFF78BFE8E21C905FFF7B5FC734991
:10322000FFF784FEFDF7FEFC41427148C1818548ED
:10323000C1800BE06E480078052807D801A1095C21
:103240008F4400BF0614181C20240227278200F098
:10325000D9F800F083F8F1BD0327F7E70427F5E775
:103260000527F3E70627F1E70727EFE70020614985
:10327000C88001206049087000F084F80027E5E765
:103280005B4800780028E1D1DFE70125B14E2F210E
:10329000755400275948078054216754608A0028D4
:1032A0001DD15748007A002814D1E08AFDF79EFC12
:1032B00001004C48FFF768FC4B49FFF737FE01005F
:1032C0008E20C005FFF760FC4849FFF72FFEFDF791
:1032D000A9FC26E04648C5815A48C58025E001285A
:1032E00023D14748007A002819D1E08AFDF77EFCF7
:1032F00001003C48FFF748FC3B49FFF717FE01007F
:103300008E20C005FFF740FC3849FFF70FFEFDF7A0
:1033100089FC41423648C1814A48C18005E000200D
:10332000C0433349C8814749C8809A480088FF2173
:103330002C31884208D1FDF759FD02202D49C88063
:103340002F21775431203554608AA082E08A20836F
:103350007CE722480021C182018378E77D482E2145
:10336000415C012903D08C490978012909D11B4905
:103370004A8A8A82CA8A0A8300222E23C25454208F
:103380000A5470471548018B00290DD1818A428A61
:10339000914207D1018E65298941C943C90F542241
:1033A000815470470021FAE7C28A7C4B9A4201DBC4
:1033B0005A1E02E0322A01DA3222C282828A438A0B
:1033C0009A42EED1C28A914201D20121E7E78A42B4
:1033D000E7D20121E3E70000D40E00205C060020C4
:1033E000DA0E00200000C0410000F04200009643C9
:1033F000B8050020740900205E090020E00E0020BE
:10340000D40D002038B5664C5420205C012831D101
:10341000608A0028E08A17D1FDF7E8FB6149FFF7D1
:10342000B3FB6149FFF782FD8E21C905FFF7ACFBB5
:103430005E49FFF77BFDFDF7F5FB5D49C88101495A
:10344000C88017E0CC0C0020FDF7D0FB5549FFF7F2
:103450009BFB5549FFF76AFD8E21C905FFF794FBD9
:103460005249FFF763FDFDF7DDFB41425048C18142
:103470009B48C18037482E21415C012968D1994978
:103480008978012964D14A4D2978002908D0052975
:103490005ED1697805295BD1408C9349884257DB1E
:1034A000E08A002854D091490A88914B13400B8040
:1034B00090490A88904B134004221A430A80618A7B
:1034C000002921D18D4CFDF791FB3649FFF75CFBBC
:1034D0003549FFF72BFD8E21C905FFF755FB334911
:1034E000FFF724FD2100FFF74FFB9F4900F078F91B
:1034F0002100FFF71BFDFDF795FBE8817849C880A7
:103500009A48C882088331BD012921D17B4CFDF73F
:103510006DFB2449FFF738FB2349FFF707FD8E2198
:10352000C905FFF731FB2149FFF700FD2100FFF737
:103530002BFB8D4900F054F92100FFF7F7FCFDF754
:1035400071FB4142E9816648C1809749C18201838C
:1035500031BD00003009002094480178042917D1BA
:103560000E21415E0A0009D40A22825E13000DD4A6
:103570008A4209DB994209D1002108E00A22825ED1
:10358000130003DC9142F5DA012100E00221017110
:1035900070470000340B0020B0060020EF0200004E
:1035A0005C0600200000C0410000F042000096438D
:1035B000B805002070B57D4C2078052802D17C48E4
:1035C00000881EE04D4D2E20205EFDF70BFB010113
:1035D000081AC000FDF71AFB7649FFF7A7FC7649E9
:1035E000FFF7D2FAE0218905FFF7CEFA2900FFF7AD
:1035F000CBFA5D4900F0F4F82900FFF797FCFDF7DE
:1036000011FB6E4D288680B28100081840000A2107
:10361000FDF7A5FC6884394E0A20205EFDF7E2FA2A
:103620000101081AC000FDF7F1FA6249FFF77EFCBC
:103630006149FFF7A9FAE0218905FFF7A5FA3100F2
:10364000FFF7A2FA484900F0CBF83100FFF76EFC13
:10365000FDF7E8FAE8835A4D2F21695C012927D14B
:10366000584EF1881F2902D00021574A9184B18811
:10367000EB225200914206DBFDF7B8FB00202F2120
:1036800068540E2013E05149097A002903D080B212
:10369000C9280DDA02E080B23D2809DAFDF7A6FB61
:1036A00001203121685400202F2168540420F0802B
:1036B00047480021415E012904D12179012901D126
:1036C000444A11802179444A11800223D35E012BA0
:1036D00003D10B0001D100230380518070BD000095
:1036E000CC0C0020480E0020DC050000D80E002085
:1036F000FBFF0000D60E0020FCFF00000000204170
:1037000010B52E4C4420205A46216052608A002871
:1037100032480DD10421405E24493622895E81421F
:1037200001DB081A11E0802252028918081A0CE005
:103730000421405E1D493622895E814201DA081A61
:1037400003E0802252028018401AFDF74BFA80B243
:103750001C490A6812180A60216D08182065134870
:10376000C08E1E49888010BD0000A0406E0500007C
:1037700030B41248418CC26DFF23FE335A43520AC3
:103780004C006318D2181300FF335B0A80256D01CB
:10379000AB4200DB6B1E002901D100220023C26571
:1037A000C38530BC7047000092FAFFFFB8050020C7
:1037B000BE0600200000C041000096435C060020C9
:1037C0003009002074090020B00A0020D40D002028
:1037D000DA0E0020680C0020B80E0020400E0020F9
:1037E0000122D20703004B402ED4431A01D2C01A43
:1037F000C91830B44B180418240E1B0E22D0FF2C0D
:1038000020D0E31A182B1DDC09021143C40D641EDD
:103810000002104394461925ED1A0A00AA40D94027
:10382000451801D36D08A41CE405D209280A2D0609
:103830002A436546AA41604103181B0EFF2B01D3A2
:10384000C00DC00530BC7047514006E05140CCE788
:103850000122D20703004B40F8D4431A03D2C01A06
:10386000C9185040514030B44B1809021143041894
:10387000240E1B0E40D0FF2C3AD025009D410BD3C7
:103880001ED8C50D4002401A0BD3ED050100400AB9
:10389000C90591416841D5E7C50D40024918401A54
:1038A000D0D001214008491C0018FCD58C4204D31B
:1038B0006D1A000AED054019C4E7E8051040C1E79C
:1038C000182DBFDCAC1C0D00E140E5414D40012D41
:1038D0004941C40D00021043451A01D46D199543A6
:1038E000641EE405280A2D069541604130BC7047EE
:1038F000FF2BA7D1D843A5E72442A3D10020A1E7FD
:1039000070B5924C258A012D32D15225655B002D70
:103910002ED1049DE6897043E08230464143A18266
:1039200022832000523003758575A08B072822D88A
:1039300001A1095C8F4400BF080E141A20262C3206
:1039400000F01FF817E000F0D5F814E000F000F9DF
:1039500011E000F07EF90EE000F096F90BE000F0C7
:10396000D9F908E000F058FA05E000F09FFA02E00B
:1039700000206063A0835220205A002800D0608A73
:1039800070BDF8B5714CA08A60830020255E2C21A3
:10399000615E681AFDF726F987B2B848874202DBF4
:1039A000B748C71BBFB26088874208DA3800B22127
:1039B000615CFDF7D1FA0600E08D8019E085A585F0
:1039C0000420215E0620225E08007838824200DA58
:1039D0008FE07831914200DA8BE0606B801C60638D
:1039E0006088874203DA206FB6B280192067E06EE4
:1039F000250074351C21695E814200DAA883296A9A
:103A000008182862A98C491CA984226F80235B02B4
:103A10009A421CD327009A373A22AA5E560009B26E
:103A2000FDF79AFAB85300202862A884698F491CD0
:103A30006987210076317422A25C5200AB8B8B52D5
:103A40007421615C491C29702067B048A883606BB1
:103A5000AF494118FA22D20091420AD20820205ED2
:103A6000FDF7C0F8218C884241DBE18DE1832084A1
:103A70003DE0510088423AD31E20215E2E20225E76
:103A80000800C838824232DBC83191422FDB012066
:103A9000A0830026A6620020E0856663AE61220056
:103AA000763206E0A9690023D35EC918A961401CDB
:103AB000921C7421615C8842F4DBA869FDF74CFA22
:103AC000E8822E62002022009A3206E0296A002352
:103AD000D35EC9182962401C921C3A21695E884253
:103AE000F4DB286AFDF738FAA8872E626E8700207B
:103AF0006062F1BD70B5154CA06A80214902884210
:103B00000AD30220A083E08A608300206062A06262
:103B100020646064A064E0640020255E2C21615E66
:103B2000681AFDF75FF880B25449884202DB5449B5
:103B3000081A80B26188884206DAA66AB221615CFE
:103B4000FDF70AFA3018A062A58570BD00050020B7
:103B5000F8B54C4C0020255E2C21615E681AFDF7FB
:103B600041F880B24549884202DB4549081A80B2D3
:103B70006188884206DAA66AB221615CFDF7ECF939
:103B80003018A062A585A06A8021090288422CD342
:103B9000218B0904C44A8918814234D3606B801C8C
:103BA00060630820205E012820DB0A20255E2800B3
:103BB000FDF718F80C21615E4843FDF713F8060085
:103BC000206C616CF71736184F410C20205E45437E
:103BD0002800FDF707F80200A06CE16CD31712185B
:103BE0004B41A264E36426646764F1BD0A20205E51
:103BF0000C21615E4843FCF7F5FF226C636CC7172C
:103C000086185F41EFE7656BFA267600206C616CE1
:103C10002A000023FFF72FFA32000023FFF72BFAC8
:103C200020646164A06CE16C2A000023FFF723FA92
:103C300032000023FFF71FFAA064E164E08901016C
:103C4000081AC00060830320A08300206063A06284
:103C5000F1BDA548C18979224A430621415E8A42C5
:103C60000ADB00218162818541635423C152042211
:103C70008283C185C18301847047000001800000F8
:103C8000FFFF000000050020F8B5974C656BAD1CE8
:103C900065630020265E2C21615E701AFCF7A2FF8E
:103CA00080B29249884202DB9149081A80B2618849
:103CB000884206DAE78DB221615CFDF74DF93818CC
:103CC000E0858C4885421FD38B48854209D2082065
:103CD000205EFCF787FF218C884215DBE18DE183B4
:103CE00011E01E20215E2E20225E0800C83882428C
:103CF0000ADBC831914207DB0520A0830020A062C7
:103D0000E0856063E0832084A685F1BD0180FFFF2C
:103D100030F8FFFFFEB5744C676BBF1C6763002073
:103D2000265E2C21615E701AFCF75CFF80B26F4941
:103D3000884202DB6E49081A80B26188884206DA3E
:103D4000A56AB221615CFDF707F92818A062A06A94
:103D5000216B884247D3250054352000383003C8F2
:103D60003A000023FFF787F9FA2252000023FFF7F9
:103D700082F982B27D2050436421FDF7EDF828805E
:103D80005420225A0023206C616C8B4204D801D34A
:103D9000824201D2801A99410622FFF76CF96880AD
:103DA000E87C4000201858216A884252E87C400094
:103DB00022185C23206CD052E87C4000201860213F
:103DC0005422A25A4252E87C401CE8740020A062AF
:103DD0000021A18560632200383203C20620A0833F
:103DE000A08A608315E00A20205EFCF7FBFE21001C
:103DF00038310CC9009201930C21615E4843FCF7F5
:103E0000F1FEC117009A019B8018594122003832F7
:103E100003C2A68503B0F0BDF8B5334C2500563576
:103E2000287C022835D1A08A14300621615E8842A0
:103E300039DB687C022803DA30486063002031E017
:103E4000AF886E88F01BFCF7CDFE642818DBE8888D
:103E50002989401AFCF7C6FE00906889A989401A92
:103E6000FCF7C0FE009900B209B2884202DA288944
:103E7000E98801E0A8896989884206D23E0004E009
:103E80005620205A80190604760C2E800020687473
:103E900001E0012807D1A87C002802D001201849A0
:103EA00008800720A083F1BD0080FFFF0E490800B5
:103EB0005230827D002A08D0114A5288022A11D13C
:103EC00082884A8201210180704782884A820121CA
:103ED0000180408A002802D00549884200D15B2039
:103EE000074908837047000000050020018000009A
:103EF000FFFF000021030000D1070000B80B000005
:103F00000C03002038B50024804804600025ED43F0
:103F10007F4805607F4804607F4805607F480460F3
:103F20007F4805607F4804607F4805607F480480C3
:103F300044808D4804608D48056000F095FAC143C7
:103F40008B4A11608B4A14808B490C804C808C808A
:103F50000C81CC808C810022D3434B81CB818C821D
:103F60009249086000F00DFB00F0D2FB00F006F96A
:103F70008F4804608F4805608F480473C47231BD58
:103F8000644801688D4A914200D07047F8B5624993
:103F900009680024E44302685140A14200D0A9E02E
:103FA00000210160824D2868801C2860724E307D9F
:103FB000012801D00120307500F0C8FB307D0128B8
:103FC000FAD0F07D01280DD07B4E306802210143EC
:103FD0003160C920B549C88000F0F1FBB0884021AC
:103FE0000143B180734E3068801E306028681730FE
:103FF000286000F09DF8002803D130681738306041
:104000000EE06D4801688022D2000A430260D2218E
:10401000A64AD180818880220A43828000F0CFFBAB
:1040200028684930286000F039FB070001D00428D7
:1040300003D13068493830600FE05F480168802262
:1040400092010A430260D521984AD180818880225A
:1040500052000A43828000F0B2FB00F0D6FC00F070
:104060005DF9286831684140A14232D12B49096885
:104070002B4A12684A40A2422BD1042F12D18C4AFB
:10408000904207D148428B49884203D100202860E2
:10409000346017E0484801688022D2010A43026078
:1040A000D6200BE0401AFF21143188420AD0424842
:1040B0000168802212020A430260D7207B49C8802F
:1040C00000F07DFB286815490860306814490860D5
:1040D000F1BD394C20688021490201432160D8207C
:1040E0007249C88000F06BFBA088802189010143E0
:1040F000A180F1BD30480168802292020A4302602B
:10410000D9206A49C88000F05AFBF1BD8400002024
:10411000C400002088000020C80000208C0000207F
:10412000CC00002070000020B00000209C00002087
:1041300080B51F490A681D321C480068002805D157
:104140003D320A601B4909683D3909E00A608E4822
:1041500000680A21FCF703FF00F02BFA15490968F3
:104160001D39144A116002BD80000020C0000020EB
:10417000BC000020D80000204000002080B50120B5
:1041800000F091FC412000F066FC0128FAD19F4824
:1041900000F032FC032000F032FC272000F032FC5B
:1041A00000F033FC00F035FC01BD00007C00002075
:1041B0006C000020AC0000205C000020AAAAAAAA83
:1041C000F8B5934802680024E44392490B685340D1
:1041D000A34261D1521CD3430B608F4DEB885B1C13
:1041E0009EB2042E0BDDEB8001232B806B80AB8015
:1041F0002B892B82AB896B8200232B81AB810260E0
:10420000EB800A2A3ED3002606600C60834884496E
:104210000860C0438349086083480068C01D824924
:104220000860687D012801D00120687500F08EFAD1
:10423000687D0128FAD07D4F3868C01F3860A87D9E
:10424000012807D97A4801688022D2020A43026015
:1042500000F0B5FA7448006839684140A14212D1B3
:10426000A97D00290ED190218901884207D070488C
:104270000168802212030A43026000F0A0FA6A4833
:1042800006603C60F1BD6A480168802252030A431F
:10429000026000F094FAF1BD654801688022920343
:1042A0000A430260DD206349C880F2E774090020F8
:1042B000C14804004CB8FBFF884203D382428041CE
:1042C000C00F70470120704738B5534C208BC10098
:1042D0000A1A5200410009184900208AFFF7ECFF32
:1042E00005000E220621608AFFF7E6FF2818000667
:1042F00012D04F48C188491CC18081888022120198
:104300000A43828001688022D2030A430260DE20D1
:104310004849C88000F053FA31BD000010B5464C42
:10432000E08AA18A091A89104018E082E18843488E
:104330004843E18AFCF713FE2081414AA521090187
:104340002089FFF7B9FFC0B200281AD0384C207B73
:10435000401CC1B20A2914D100202073E088401CFF
:10436000E080A088802149010143A180206880214C
:10437000C90401432160E2202E49C88000F01FFAE1
:10438000207B2B49087310BDA000002070B52D487C
:10439000008E00280ED12648818800290AD0018984
:1043A000891C018189B2284A914203DB00210181E5
:1043B0000121C17218488189891C818189B2CA434F
:1043C000C28122480188891C018089B214291CDB22
:1043D000002101801E4C20681E4D296841400022AA
:1043E000D243914211D11C4E306000F03DF831684B
:1043F000CA431A4B1A60C2432A60884201D3184A42
:104400008918091A20601748016070BD55550000D1
:1044100084000020C400002040000020AAAAAAAA0C
:1044200088000020C800002070000020B00000209C
:104430005C00002074090020EC080020B80B00008C
:10444000780F00005C060020A10F0000D8000020BB
:1044500080000020C00000207C000020BC00002064
:10446000FF7F0000A00000203449486809687047B9
:1044700070B506000124324DCA206861532068617E
:1044800000F018F8012811D0A86840218843A860DE
:10449000A86831680143A960B0682860286871681D
:1044A00009040143296000F020F80024FF2068611E
:1044B000200070BD18B4002000904021214A1368EC
:1044C0000B4010D1C04310600C021068009B5B1CB5
:1044D0000093009BA34201D00840F6D0106841062B
:1044E000C90F0120484012BC70471648016880225D
:1044F00091430160704718B40020009011492022B8
:10450000CB68134018D1CA2088615320886108689D
:10451000A02398430860CC0B0868009B5B1C0093A9
:10452000009BA34201D01040F6D008688206D20F4B
:1045300001205040FF228A6112BC704704280040CD
:10454000102800400C28004010B4020007D5334A60
:1045500003071B0F083B9B089B00D21803E0304B5E
:10456000820892009A18C300182018401368FF248C
:104570008440A3438907090E81401943116010BC90
:10458000704780B50120C04300F0B7FA002000F06A
:10459000B4FAFA20400200F0ADFA03210020C04333
:1045A000FFF7D2FF012000F0BBFA012000F0A5FACE
:1045B00001BD10B401001B4A13681B4804683D3458
:1045C00004601A4800681A4C246844400020C04324
:1045D000844220D1174841431748814210D2180025
:1045E00080235B040343E020144CE0800520144C3E
:1045F000216014490C683D3C0C60136010BC70478E
:104600001148814205D3180080239B040343E12015
:10461000EAE70020EBE70620EBE700001CED00E0F6
:1046200000E400E05C0000206C000020740000202A
:10463000B400002048E80100808D5B007409002070
:1046400098000020AC0000208196980080B5354885
:104650000168C91D01600121080300F032FA3248E7
:10466000012141600021016030480168C91F0160DB
:1046700001BD000000BF2B4A13680D3313600029F1
:1046800005D002682A4B1A60001D491EF9D127483F
:1046900001680D39016026480068704738B5214827
:1046A000016847310160234C20680021C943224D35
:1046B0002B6843408B4224D1204B98420FD20100FB
:1046C0004031994201D30F2100E01021FFF7D2FFC2
:1046D000206840302060C1432960002412E0184C5B
:1046E0002068184A126842408A420AD100F041FA12
:1046F0002168884201D1042400E0032400F008F876
:1047000000E001240948016847390160200032BDFA
:1047100080B50D4807490860C14307480160FFF7AD
:1047200095FF01BD6C00002004300240AC00002069
:104730000030024090000020D0000020FDFE000864
:1047400094000020D4000020000000081148124905
:104750000860704711490868012202430A6002207C
:104760000A680240FCD00E490A68C30213430B607A
:104770004A68830313434B6007490A4A0A600A4A9E
:104780000A6048600A208860C8680028FCD1500090
:1047900008607047AAAA0000003000406010024084
:1047A00008580140CCCC000055550000BFF34F8F96
:1047B000814882490860BFF34F8F00BFFDE7804802
:1047C000818801220A438280C188491CC1807047C8
:1047D000F8B5012080F3108800F0DEF90020794957
:1047E0000860794C02272760784D0021C943296071
:1047F000734E7060B07230607549888200F072FA52
:10480000012805D0FFF7DBFFB0880743B78002E03F
:104810002868801E28602068401D206000F081F814
:104820002868401F286020680B30206000F061F885
:1048300028680B38286020681130206000F099F952
:1048400064490968884206D0FFF7B9FFB08808219B
:104850000143B18009E000F08CF9C0B2C143C8B295
:1048600000F08AF9286811382860206829684140DA
:104870000022D243914201D12D2801D0FFF79FFFA2
:1048800000F050FB002805D0FFF799FFB0881021F9
:104890000143B18000F073F9070000F06AF9C0B27B
:1048A0007840FF2807D14C4F00F063F93860C143CE
:1048B0004A48016001E0FFF782FF2068173020605E
:1048C00000F08CFB002805D0B08820210143B18086
:1048D000FFF775FF2E68173E206831004140002227
:1048E000D243914201D1F92801D0FFF768FF2E6031
:1048F000F1BD80B534480168C91D016038480168C0
:10490000820C0A43026000F01DF90020354908605E
:104910003549364800F01AF92C480168C91F016072
:1049200001BD80B5324801689C2212060A4014D0AD
:104930000168C022D2050A400FD12E4800F05CF871
:10494000002000F05CF8002000F05CF800F05DF85A
:1049500000F05FF800F078F8FEE78821C9050268EA
:104960000A408A4202D1016889001FD59021890539
:1049700002680A408A4210D1016849000DD4012121
:10498000C00C00F055F8002000F0F6FB402000F0CD
:10499000FAFB7F2000F008FCFEE7C821C90500688B
:1049A0000840884202D100F04FF801BD00F04CF8F9
:1049B000FFF7FCFE01BD00000400FA050CED00E06D
:1049C0005C000020201002406C000020AC000020A1
:1049D00040000020FCFE000894000020D4000020CD
:1049E0003810024004300240BF3F000000000008C1
:1049F000601002405555000008490860704708499A
:104A00000860704707490860704707480349086015
:104A100070470648014908607047000000300040B8
:104A20000430004008300040AAAA0000CCCC0000AE
:104A3000002904D029490A681043086070472749B3
:104A40000A6882430A607047254801688022120480
:104A50000A43026070470021420902D121490968D6
:104A600008E0012A02D11F49C96D03E0022A01D1E1
:104A70001C49096EC006C00EC140C807C00F704770
:104A800019490A68104308607047002805D0164885
:104A90000168802212020A4303E013480168134AA6
:104AA0000A4002607047002805D00D4801680122C5
:104AB0000A43026070470A4801680122914301607D
:104AC0007047002904D00A490A68104308607047FB
:104AD00007490A6882430A60704700003C100240A0
:104AE00060100240001002405C100240FF7FFFFF98
:104AF00038100240114908607047002802D110495F
:104B000088607047012805D10D48016801220A43D9
:104B1000026070470A4801680122914301607047B2
:104B2000002805D00648016802220A430260704747
:104B300003480168022291430160704714E000E0DD
:104B400010E000E0012010490860704710B40F4ADF
:104B5000002313600E4C05E09B00C35823601368CC
:104B60005B1C136013688B42F6D32046006810BCB0
:104B70007047074800687047064908607047054855
:104B80000068C0B27047000008300240BC0E002030
:104B900000300240043002401CB40020009001901C
:104BA000012080F3108845480168820D0A430260A5
:104BB0000168020D114001910099491C0091019971
:104BC000002904D10099A022D2019142F0D10168BC
:104BD0004A05D20F0192019901295CD10168384A36
:104BE0000A4002608021890402680A40FCD1022246
:104BF000C3681343C360C368324C1C40C460C368BD
:104C0000840C1C43C460C3687024A343C360C3689E
:104C100010241C43C460C368DB00DB08C360C368A6
:104C20000C011C43C460C368274C1C40C460C368AB
:104C30000B43C360C368254C1C40C460C368C024D8
:104C4000E4021C43C46003684C081C43046003680E
:104C50000B40FCD0C1681E4B0B43C3601D490B6861
:104C600013430B600B685B075B0F022BFAD1816863
:104C7000194B0B4083608168184B0B40836081683F
:104C800007239943816081680A43826081683822E2
:104C90000A40102AFAD1416D032291434165416DCA
:104CA00002220A434265416D0D4A0A404265416D48
:104CB00089008908416513BC704700BF001002409D
:104CC000FFFFFFFEFF80FFFFFFFFFFF1FFFFC1FFC0
:104CD0000000011100200240FF8FFFFFFFF0FFFFE7
:104CE000FFFFBFFFF0B40020C0B200307ED17DD402
:104CF00001387BD5023079D378D077D481480068E9
:104D0000001873D780480168C91C016000B502BC57
:104D10000846C043013086447C48026800688644E7
:104D200000B501BC904261D1C0430130864478484F
:104D300002680068864400B501BC904256D1C04369
:104D4000013086448E4471480168006888424DD124
:104D50006F4801680068884248D101216B480268A9
:104D60000068904242D16A480268006890423DD192
:104D70000222664803680068984237D16448036895
:104D80000068984232D10323604804680068A0425A
:104D90002CD15F4804680068A04227D104245B48F6
:104DA00005680068A84221D1594805680068A842F2
:104DB0001CD10525554806680068B04216D15448F4
:104DC00006680068B04211D106265048076800689E
:104DD000B8420BD14E4807680068B84206D1072791
:104DE0004A4800688046404500D101E000F084F860
:104DF0004748006880464045F8D10820804643482F
:104E0000006881464845F1D14148006881464845DF
:104E1000ECD1092081463D48006882465045E5D1E5
:104E20003B48006882465045E0D10A208246374818
:104E3000006883465845D9D13548006883465845AF
:104E4000D4D10B2083463148006884466045CDD1DB
:104E50002F48006884466045C8D10C2084462D4800
:104E60000129C3D1022AC1D1032BBFD1042CBDD14A
:104E7000052DBBD1062EB9D1072FB7D1082040454B
:104E8000B4D109204845B1D10A205045AED10B20FC
:104E90005845ABD10C206045A8D1EFF309801E49DD
:104EA000096881F30988EFF309828A429ED11B4980
:104EB000096881F30988EFF309828A4296D180F369
:104EC0000988EFF308801449096881F30888EFF333
:104ED00008828A428AD11149096881F30888EFF370
:104EE00008828A4282D180F308880D480168C91E71
:104EF0000160F0BC0120704709480168C91E0160CB
:104F0000002070478C9800086C00002084980008EE
:104F100088980008F14D00089098000894980008BF
:104F2000AC00002080B5802080052449086024481A
:104F30002449086000F044F9002002BD10B5224861
:104F4000038819018022920589180A000F325B1C20
:104F500003801B4B9A4203D3002404801A00448030
:104F6000184802601548016000F04BF910BD80B58B
:104F70001648C188491CC180802189008180016850
:104F8000802212040A430260DF201149C8800420F5
:104F90000D494880FFF713FC01BD10B50A4C0120F4
:104FA00060800C4801680B310160FFF7C7FF0A48B9
:104FB00001680B390160608810BD0000A40000206A
:104FC000FF1F0020A80000209C0000205C000020A3
:104FD0007409002070000020B000002070B5574810
:104FE00001681D31016000F03CF8002801D001206B
:104FF00032E000F05AF8002801D002202CE000F046
:1050000063F800F083F880256D024D4E306828402B
:10501000FCD04C4CFFF728FA206030682840FCD0C8
:10502000FFF722FA2168091AC843474A1060474A25
:105030004A43D043464B18604648824202D3464812
:10504000824201D3052000E000202160434B19601B
:1050500043490A6043490A6043490A681D3A0A60A5
:1050600070BD38B50124FA25AD00344801681F3100
:10507000016001210807FFF7DBFC012000F020F9A7
:105080000120FFF710FD6D1E4120FFF7E4FC002812
:1050900002D1002DF7D102E0002D00D000243248CB
:1050A00001681F390160200032BD244801682531A4
:1050B00001602E4800682C490A68253A0A604105BB
:1050C000C90F01204840704700B583B01B480168F4
:1050D0002931016080208000FFF7D2FC0120FFF71A
:1050E000D4FC23480168020D0A430260FFF703FA6B
:1050F0000020009001901F4802906846FFF7B8F921
:10510000194801682939016003B000BD80B50B481A
:1051100001682B310160042000F0E4F8FA2040021D
:10512000FFF7E8FC0020FFF7E8FC0120FFF7E5FCB3
:105130000D4801682B39016001BD00006C000020A2
:1051400010E000E0C00E0020B800002048E8010098
:10515000B4000020808D5B008196980078000020CC
:10516000C40E002074000020AC000020001002409B
:105170003C100240FF7F00000E490A680E4B1340AE
:1051800018430860704781B00021009109490A68FE
:105190007F239A430092009A4006400E10430090ED
:1051A0000098086001B07047802101430348016006
:1051B00070470000042C00407FFEFFFF002C0040E1
:1051C000FFB40000A4000020A800002072B63848F8
:1051D000384900680968384B384C0026026803607B
:1051E0000568AB4209D104600568AC4205D1026094
:1051F000001D8842F2D3FFBC704702600126FFBC4D
:105200007047F0B4A4000020A800002072B628481F
:1052100028490068096806460F46274B274C026854
:1052200003600568AB421AD104600568AC4216D130
:105230000260001D8842F2D338463146401C001FF0
:10524000026803600568AB4209D104600568AC429E
:1052500005D102608842F2D162B6F0BC70470260AC
:10526000FFF785FE62B6F0BC7047FFB4A4000020D3
:10527000A800002072B60E480E49006809680E4B5F
:105280000E4C0268036005686D1CAB420AD10460D5
:105290000568AC4206D10260001D8842F1D362B6B7
:1052A000FFBC70470260FFF762FE62B6FFBC70474A
:1052B000A4000020A800002055555555AAAAAAAA66
:1052C000002804D005480168820D0A4303E0034822
:1052D0000168034A0A400260704700BF0070004046
:1052E000FFFEFFFF042805D10548016804220A4398
:1052F00002607047024801680422914301607047D0
:1053000010E000E0F8B584B000F0CEF97A48C26948
:10531000036A446A866A808D7749C98D774D102764
:10532000ED5F774F3D60754D1227ED5F754F3D6026
:10533000714D6D78002D744D00D08DE02F78052FC4
:1053400003D16D78052D02D115E0002F0FD16F4AE2
:10535000127A002A07D16E4A128A002A03D16D4AB6
:105360001278002A35D06C4A6C4BC14C4AE0012FB0
:1053700001D0022F11D16548007A002807D1644876
:10538000008A002803D163480078002802D0B94879
:10539000D221D9E0B848C821D6E0032F05D0042F88
:1053A00000D0D1E02D79012D18D15848007A00287D
:1053B00007D15748008A002803D1564800780028B2
:1053C00005D0AC48D221544A544BA94C1AE0AA4803
:1053D000C821AA4AAA4BAB4CAB4EB5E0002D1AD15E
:1053E0004A48007A002807D14948008A002803D19A
:1053F00048480078002807D09E48D221A34AA44BF1
:10540000C8242401B54E9FE09B48C821B44AB54B3F
:10541000B54CB64E98E0022D02D0032D00D093E09B
:105420003A48007A002807D13948008A002803D179
:1054300038480078002807D08E48D221954A964BEC
:10544000964CFA2676017FE08B48C8218E4A944B11
:10545000FA24A400934E77E02D79002D1FD0022D61
:1054600037D002D3032D34D06EE02848007A0028CC
:1054700007D12748008A002803D126480078002851
:1054800006D01D48407841000D18ED00984E4DE0C3
:105490001948407841000D18ED00964E46E01B4833
:1054A000007A002807D11A48008A002803D1194839
:1054B0000078002806D01048407841000D18ED0013
:1054C0008D4E33E00C48407841000D18ED008B4EB6
:1054D0002CE00E48007A002807D10D48008A0028E9
:1054E00003D10C48007800281AD0034840784100C6
:1054F0000D18ED00824E19E0E0070020AC0B0020F3
:10550000AC0E0020B00E0020B8050020D40D002005
:1055100000050020E8080020D8590000801A060085
:10552000CA48407841000D18ED00AC4E7059311D4D
:10553000495932000832525933000C335B59340058
:105540001034645914367659C04DEA612B626C628E
:10555000AE62A885E9856020285C01280AD16878B8
:10556000002801D11E2001E09620400062216852EF
:1055700000F0C8F8A54C2078002853D1A88A01B2C1
:105580006A461180E98A0FB200B2908009B268467B
:1055900041809F4E6868FBF739FB01009D48FDF78D
:1055A000F3FA3100FDF7C2FCFBF73CFB0390A8685F
:1055B000400200F05FF998A20CCA00F065F90022E1
:1055C000974B00F061F90022994B00F01FFA00F0B0
:1055D0007FFA0290E868FBF719FB3100FDF7D4FA77
:1055E0009049FDF7A3FCFBF71DFB0600286900F0BE
:1055F00041F98DA20CCA00F047F900228C4B00F053
:1056000043F98CA20CCA00F001FA00F061FA00998B
:1056100009B2A182E7820299A160039961602061C9
:10562000E66010E0A08A01B26A461180E18A0FB2FA
:1056300000B2908009B268464180A068029060681C
:1056400003902069E6687D49009A12B20A824F826F
:105650007B49019A12B20A82009A12144A827A494C
:10566000039A4A60029A8A60CE60086105B0F0BD74
:10567000E40C0000432100008813000050460000A5
:1056800070820300A41F0000983A0000C05D000073
:1056900050A50500F055000010090500B80B0000EA
:1056A000400D0300701700006648C08B422801D2ED
:1056B00000200FE0C92801D201200BE0FF21923128
:1056C000884201D2022005E0C831884201D203207D
:1056D00000E004205D49487070470000F82A00008F
:1056E00074400000605B0300EC13000028230000FE
:1056F000009200086893000878920008E093000880
:10570000F092000838B5514C25004435A868E1698D
:10571000814205D06268904200D010006063A960A9
:105720006068884203D0626B00F05AF86060E868F5
:10573000216A814205D0A268904200D01000A06387
:10574000E960A068884203D0A26B00F049F8A0602D
:105750002869616A814205D0E268904200D0100059
:10576000E0632961E068884203D0E26B00F038F81A
:10577000E0606869A16A814205D02269904200D048
:105780001000206469612069884203D0226C00F017
:1057900027F82061288BA18D814205D0A28A9042F2
:1057A00000D0100028802983A08A884204D0442297
:1057B000A25A00F015F8A082688BE18D814205D0D5
:1057C000E28A904200D0100068806983E08A8842B3
:1057D00003D06A8800F004F8E08231BD58940008D4
:1057E00038B504000D00501BFBF7FCF91849098877
:1057F000884201DA012303E04908FBF7ADFB03000F
:1058000020001A002900FBF7D4FA32BD9C0D0020BD
:105810000000964300C007442C431CEBE2361A3FBD
:1058200000F880403A923C41FCA9F1D24D62603FC1
:1058300000C072400000004047922740AC0B00209F
:10584000840B00205C060020840A0020E007002072
:1058500042080020010042221201D21E004207D05D
:1058600002D4521E0018FCD5C10A40051205891841
:10587000704700000100EED54042F446FFF7EBFF11
:105880000122D20711436047F0B50E005E400125AA
:10589000ED072E40B446AE0ADF184C18F44208D289
:1058A000F7420ED2640D01D07F0D12D10020614667
:1058B000F0BD05D1F74201D87F0D05D10020C143CD
:1058C000F0BDFBD1640DF9D00020C1434905490862
:1058D0008FE0E419C902DB0229432B43DB0A460DA2
:1058E000C00231438E4630B487B295B27D432E0C50
:1058F000ADB2140C7C43A419260C240425439CB29D
:105900007C43A419190C7943270CC919A4B20F04BC
:105910003C43090C000C97B247432E0CBE1935438B
:10592000ADB2170C4743360CBF19A6B2BF193E04DF
:105930003543240C3E0C36199FB24743BF19BCB205
:105940003E0C89191F0C47437F183E043443390C21
:10595000704680B297B247432E0CBE193543ADB2A4
:10596000170C4743360CBF19A6B2BF193E04354386
:10597000240C3E0C36199FB24743BF19BCB23E0CF3
:1059800089191F0C47437F183E043443390C77466E
:105990003F0C90B278432E0C80190604ADB22E4312
:1059A000050CA0B22D18120C7A435019020C80B2CB
:1059B000240CA4189AB27A43121914042043120C2E
:1059C00089181B0C7B43C91830BCEF0A394203D13C
:1059D000B61940414941641E6F12BF0DE41B0BDB39
:1059E000FF19BC4211DA240500274208AE41784174
:1059F000614166463143F0BD641C05D1401C6141E4
:105A0000CF0201D34908F4E750E75DE7F0B40E0098
:105A10005E400125ED072E40B446AE0ADF184C1853
:105A2000F4423BD2F74241D2640D43D07F0D38D0CF
:105A3000E41BC902DB0229432B43CF0ADB0A060021
:105A4000B61A9F4104D2641EB6197F41B6185F4151
:105A50006812800D24180018844222DCE80C002112
:105A6000B6197F41B61A9F4102D2B6185F413F1C5A
:105A700040414941F4D3241C21DD2405B6197F415E
:105A8000B61A9F4105D33743C60737430026012F77
:105A90007041614166463143F0BC7047FCD1F7422A
:105AA00005D20020C14349054908F3E704D000208E
:105AB000C143F1E77F0DFAD000206146ECE72442B4
:105AC000FAD1401C61410F03F6D30020E2E7FEE764
:105AD000F4464A1805D200F00FF801D580174008A7
