S113000000080020714B0000E94B0000014C000087
S1130010194C0000314C0000494C00000000000065
S1130020000000000000000000000000D14B0000B0
S1130030D14B000000000000D14B00004D440000F3
S1130040D14B00008D440000D14B0000D14B000087
S1130050D14B0000D14B0000D14B0000D14B00002C
S11300605D440000D14B0000D14B0000D14B000097
S1130070D14B0000D14B0000D14B0000D14B00000C
S1130080D14B0000D14B0000D14B0000D14B0000FC
S1130090D14B0000D14B0000D14B0000D14B0000EC
S11300A0D14B0000D14B0000D14B0000D14B0000DC
S11300B0D14B0000D14B0000D14B0000D14B0000CC
S11300C0D14B0000D14B0000D14B0000D14B0000BC
S11300D0D14B0000D14B0000D14B0000D14B0000AC
S11300E06D440000D14B0000D14B0000D14B000007
S11300F0D14B0000D14B0000D14B0000D14B00008C
S1130100D14B0000D14B0000D14B0000D14B00007B
S1130110D14B0000D14B0000D14B0000D14B00006B
S1130120D14B0000D14B0000D14B0000D14B00005B
S1130130D14B0000D14B0000D14B0000D14B00004B
S11301407D440000D14B0000D14B0000D14B000096
S1130150D14B0000D14B0000D14B0000D14B00002B
S1130160D14B0000D14B0000D14B0000D14B00001B
S1130170D14B0000D14B0000844641EA000313F048
S1130180030349D1403A23D30B6803604B684360AF
S11301908B688360CB68C3600B6903614B694361FF
S11301A08B698361CB69C3610B6A03624B6A4362E7
S11301B08B6A8362CB6AC3620B6B03634B6B4363CF
S11301C08B6B8363CB6BC36340304031403ADBD2EB
S11301D030320BD30B6803604B6843608B688360D9
S11301E0CB68C36010301031103AF3D20C3205D30F
S11301F051F8043B40F8043B043AF9D2043208D0E5
S1130200D2071CBF11F8013B00F8013B01D30B8856
S113021003806046704700BF082A13D38B07B1D010
S113022010F00303AED0C3F10403D21ADB071CBFE2
S113023011F8013B00F8013BA4D331F8023B20F84C
S1130240023B9FE7043AD9D3013A11F8013B00F885
S1130250013BF9D20B7803704B7843708B78837031
S11302606046704770B54FF0FF0C4CF4E06C1CEA2C
S113027011541DBF1CEA135594EA0C0F95EA0C0F98
S113028000F0DEF82C4481EA030621EA4C5123EA0B
S11302904C5350EA013518BF52EA033541F480113A
S11302A043F4801338D0A0FB02CE4FF00005E1FBED
S11302B002E506F00042E0FB03E54FF00006E1FB37
S11302C003569CF0000F18BF4EF0010EA4F1FF047A
S11302D0B6F5007F64F5407404D25FEA4E0E6D41BA
S11302E046EB060642EAC62141EA55514FEAC520CB
S11302F040EA5E504FEACE2EB4F1FD0C88BFBCF547
S1130300E06F1ED8BEF1004F08BF5FEA500E50F1F7
S1130310000041EB045170BD06F0004646EA0101BD
S113032040EA020081EA0301B4EB5C04C2BFD4EBEF
S11303300C0541EA045170BD41F480114FF0000EE8
S1130340013C00F3AB8014F1360FDEBF002001F056
S1130350004170BDC4F10004203C35DA0C341BDCD0
S113036004F11404C4F1200500FA05F320FA04F0A2
S113037001FA05F240EA020001F0004221F00041D6
S113038010EBD37021FA04F642EB06015EEA430E49
S113039008BF20EAD37070BDC4F10C04C4F1200579
S11303A000FA04F320FA05F001FA04F240EA02002C
S11303B001F0004110EBD37041F100015EEA430EFD
S11303C008BF20EAD37070BDC4F1200500FA05F21D
S11303D04EEA020E20FA04F301FA05F243EA02039C
S11303E021FA04F001F0004121FA04F220EA0200AB
S11303F000EBD3705EEA430E08BF20EAD37070BDF1
S113040094F0000F0FD101F00046400041EB0101D0
S113041011F4801F08BF013CF7D041EA060195F0B2
S1130420000F18BF704703F00046520043EB03036C
S113043013F4801F08BF013DF7D043EA0603704759
S113044094EA0C0F0CEA135518BF95EA0C0F0CD064
S113045050EA410618BF52EA4306D1D181EA0301AA
S113046001F000414FF0000070BD50EA410606BFA4
S11304701046194652EA430619D094EA0C0F02D1E9
S113048050EA013613D195EA0C0F05D152EA03362E
S11304901CBF104619460AD181EA030101F000414C
S11304A041F0FE4141F470014FF0000070BD41F095
S11304B0FE4141F4780170BD81F0004102E000BFCB
S11304C083F0004330B54FEA41044FEA430594EA10
S11304D0050F08BF90EA020F1FBF54EA000C55EA4B
S11304E0020C7FEA645C7FEA655C00F0E2804FEA1C
S11304F05454D4EB5555B8BF6D420CDD2C4480EAFE
S1130500020281EA030382EA000083EA010180EA2D
S1130510020281EA0303362D88BF30BD11F0004F7B
S11305204FEA01314FF4801C4CEA113102D04042B1
S113053061EB410113F0004F4FEA03334CEA1333EC
S113054002D0524263EB430394EA050F00F0A78004
S1130550A4F10104D5F1200E0DDB02FA0EFC22FAFF
S113056005F2801841F1000103FA0EF2801843FAF3
S113057005F359410EE0A5F120050EF1200E012AE4
S113058003FA0EFC28BF4CF0020C43FA05F3C01822
S113059051EBE37101F0004507D54FF0000EDCF19B
S11305A0000C7EEB00006EEB0101B1F5801F1BD344
S11305B0B1F5001F0CD349085FEA30004FEA3C0C48
S11305C004F101044FEA445212F5800F80F09A803E
S11305D0BCF1004F08BF5FEA500C50F1000041EB42
S11305E0045141EA050130BD5FEA4C0C404141EB46
S11305F00101013C28BFB1F5801FE9D291F0000F41
S113060004BF01460020B1FA81F308BF2033A3F1EF
S11306100B03B3F120020CDA0C3208DD02F1140CE6
S1130620C2F10C0201FA0CF021FA02F10CE002F121
S11306301402D8BFC2F1200C01FA02F120FA0CFC1A
S1130640DCBF41EA0C019040E41AA2BF01EB045163
S1130650294330BD6FEA04041F3C1CDA0C340EDC61
S113066004F11404C4F1200220FA04F001FA02F3A4
S113067040EA030021FA04F345EA030130BDC4F162
S11306800C04C4F1200220FA02F001FA04F340EA57
S11306900300294630BD21FA04F0294630BD94F008
S11306A0000F83F4801306BF81F480110134013DEF
S11306B04EE77FEA645C18BF7FEA655C29D094EA60
S11306C0050F08BF90EA020F05D054EA000C04BFDE
S11306D01946104630BD91EA030F1EBF00210020C9
S11306E030BD5FEA545C05D14000494128BF41F068
S11306F0004130BD14F580043CBF01F5801130BDCC
S113070001F0004545F0FE4141F470014FF0000056
S113071030BD7FEA645C1ABF194610467FEA655C07
S11307201CBF0B46024650EA013406BF52EA0335A9
S113073091EA030F41F4002130BD00BF90F0000F97
S113074004BF0021704730B54FF4806404F13204D3
S11307504FF000054FF0000150E700BF90F0000F8C
S113076004BF0021704730B54FF4806404F13204B3
S113077010F0004548BF40424FF000013EE700BF83
S113078042004FEAE2014FEA31014FEA02701FBF13
S113079012F07F4393F07F4F81F06051704732F045
S11307A07F4208BF704793F07F4F04BF41F400219C
S11307B0704730B54FF4607401F0004521F00041FA
S11307C01CE700BF50EA010208BF704730B54FF084
S11307D000050AE050EA010208BF704730B511F085
S11307E0004502D5404261EB41014FF4806404F1BD
S11307F032045FEA915C3FF4D8AE4FF003025FEA43
S1130800DC0C18BF03325FEADC0C18BF033202EBC6
S1130810DC02C2F1200300FA03FC20FA02F001FA20
S113082003FE40EA0E0021FA02F11444BDE600BFC3
S11308304A0011D212F5001211D20DD56FF478735B
S1130840B3EB62520ED44FEAC12343F0004343EAB0
S1130850505323FA02F070474FF00000704750EAFB
S1130860013002D14FF0FF3070474FF00000704765
S113087080F0004002E000BF81F0004142001FBF51
S11308805FEA410392EA030F7FEA226C7FEA236C5A
S11308906AD04FEA1262D2EB1363C1BFD21841404F
S11308A048404140B8BF5B42192B88BF704710F0E5
S11308B0004F40F4000020F07F4018BF404211F088
S11308C0004F41F4000121F07F4118BF494292EAF0
S11308D0030F3FD0A2F1010241FA03FC10EB0C001C
S11308E0C3F1200301FA03F100F0004302D54942A9
S11308F060EB4000B0F5000F13D3B0F1807F06D356
S113090040084FEA310102F10102FE2A51D2B1F14D
S1130910004F40EBC25008BF20F0010040EA030042
S11309207047490040EB0000013A28BFB0F5000FC2
S1130930EDD2B0FA80FCACF1080CB2EB0C0200FA78
S11309400CF0AABF00EBC25052421843BCBFD040C7
S11309501843704792F0000F81F4000106BF80F441
S113096000000132013BB5E74FEA41037FEA226C04
S113097018BF7FEA236C21D092EA030F04D092F0CF
S1130980000F08BF0846704790EA010F1CBF002003
S1130990704712F07F4F04D1400028BF40F0004060
S11309A0704712F100723CBF00F50000704700F080
S11309B0004343F0FE4040F4000070477FEA2262A7
S11309C016BF08467FEA23630146420206BF5FEA78
S11309D0412390EA010F40F4800070474FF0000378
S11309E004E000BF10F0004348BF40425FEA000C3F
S11309F008BF704743F0964301464FF000001CE0E7
S1130A0050EA010208BF70474FF000030AE000BF3C
S1130A1050EA010208BF704711F0004302D540427A
S1130A2061EB41015FEA010C02BF844601460020EC
S1130A3043F0B64308BFA3F18053A3F50003BCFA07
S1130A408CF2083AA3EBC25310DB01FA02FC6344B4
S1130A5000FA02FCC2F12002BCF1004F20FA02F2BB
S1130A6043EB020008BF20F00100704702F12002AE
S1130A7001FA02FCC2F1200250EA4C0021FA02F20F
S1130A8043EB020008BF20EADC7070474FF0FF0C14
S1130A901CEAD0521EBF1CEAD15392EA0C0F93EA0F
S1130AA00C0F6FD01A4480EA010C400218BF5FEAB1
S1130AB041211ED04FF0006343EA501043EA511124
S1130AC0A0FB01310CF00040B1F5000F3EBF49001E
S1130AD041EAD3715B0040EA010062F17F02FD2A22
S1130AE01DD8B3F1004F40EBC25008BF20F0010005
S1130AF0704790F0000F0CF0004C08BF49024CEA1C
S1130B00502040EA51207F3AC2BFD2F1FF0340EAAD
S1130B10C250704740F400004FF00003013A5DDC1E
S1130B2012F1190FDCBF00F000407047C2F100025F
S1130B30410021FA02F1C2F1200200FA02FC5FEA4C
S1130B40310040F1000053EA4C0308BF20EADC7096
S1130B50704792F0000F00F0004C02BF400010F408
S1130B60000F013AF9D040EA0C0093F0000F01F0B5
S1130B70004C02BF490011F4000F013BF9D041EAD7
S1130B800C018FE70CEAD15392EA0C0F18BF93EAD9
S1130B900C0F0AD030F0004C18BF31F0004CD8D103
S1130BA080EA010000F00040704790F0000F17BF8A
S1130BB090F0004F084691F0000F91F0004F14D0D0
S1130BC092EA0C0F01D142020FD193EA0C0F03D128
S1130BD04B0218BF084608D180EA010000F000402B
S1130BE040F0FE4040F40000704740F0FE4040F406
S1130BF0400070474FF0FF0C1CEAD0521EBF1CEAA5
S1130C00D15392EA0C0F93EA0C0F69D0A2EB0302C2
S1130C1080EA010C49024FEA402037D04FF080535C
S1130C2043EA111143EA10130CF000408B4238BF21
S1130C305B0042F17D024FF4000C8B4224BF5B1A2F
S1130C4040EA0C00B3EB510F24BFA3EB510340EA7D
S1130C505C00B3EB910F24BFA3EB910340EA9C002B
S1130C60B3EBD10F24BFA3EBD10340EADC001B019B
S1130C7018BF5FEA1C1CE0D1FD2A3FF650AF8B423F
S1130C8040EBC25008BF20F0010070470CF0004C4C
S1130C904CEA50207F32C2BFD2F1FF0340EAC25077
S1130CA0704740F400004FF00003013A37E792F038
S1130CB0000F00F0004C02BF400010F4000F013A96
S1130CC0F9D040EA0C0093F0000F01F0004C02BF91
S1130CD0490011F4000F013BF9D041EA0C0195E7FA
S1130CE00CEAD15392EA0C0F08D142027FF47DAF93
S1130CF093EA0C0F7FF470AF084676E793EA0C0F83
S1130D0004D14B023FF44CAF08466EE730F0004C80
S1130D1018BF31F0004CCAD130F000427FF45CAF10
S1130D2031F000437FF43CAF5FE700BF42000ED2D6
S1130D30B2F1FE4F0BD34FF09E03B3EB126209D412
S1130D404FEA002343F0004323FA02F070474FF0C8
S1130D500000704712F1610F01D1420202D14FF03D
S1130D60FF3070474FF00000704700BF10B50446D5
S1130D7040F2DC51806802F06FFBA268054B1A60F8
S1130D80E268054B1A602269044B1A606269044BDD
S1130D901A6010BD980800208C08002090080020DC
S1130DA09C0800202D4A70B52D4E04461068336807
S1130DB02C4D400800EB53002B783060012B2AD0D7
S1130DC01BD9023B012B31D9274B1B78612B43D113
S1130DD0032004F09FFF01283ED1244B24211A68EC
S1130DE0234803F0BFFA2A783168224803F0BAFA9C
S1130DF0BDE87040204803F0B5BA204B186804449D
S1130E001C6041F287339C42DED900221B4B1A60DE
S1130E1001232B70D8E71A4B1B68002BD4D0194A36
S1130E20116898470028CFD00223F2E7144B1B68BF
S1130E30002BEAD0134A116898470028E5D00F4BDD
S1130E40114A18681268044494421C60BCD30022FE
S1130E501A602B780133DCE770BD00BFA0080020C6
S1130E608808002094080020010E0020281100208A
S1130E70B8630000C9630000DE630000A40800201A
S1130E809C0800208C0800209008002010B5074C16
S1130E900021206802F068FB206802F067FB2068EC
S1130EA00521BDE8104002F05FBB00BF9808002098
S1130EB038B5094D286802F063FB0446286802F03F
S1130EC001FBB4FBF0F4054B28681C600021BDE86D
S1130ED0384002F049BB00BF98080020A008002059
S1130EE070B5044610B3134D2B78052B20D8124E41
S1130EF081781A0106EB03139970C178D9700179CE
S1130F00197141795971002199600078B05462785F
S1130F105A70A1221A7302F08DF86178207802F0D9
S1130F2099F82B7806EB031401332B70204670BD1F
S1130F300024FBE709090020A808002028B1037B4E
S1130F40A12B01D1806870470020704770B5184DFF
S1130F50184C2B781A0104EB03135978A05C02F0A7
S1130F60BBF820B32B781A0104EB0313A05C597867
S1130F7002F0C2F82E78330104EB06167178E05CB7
S1130F8002F098F82B780C4A01331278DBB29A42BB
S1130F902B709CBF00232B702B78B0601A0104EBDC
S1130FA00313A05C5978BDE8704002F069B870BDC5
S1130FB008090020A80800200909002010B5124CD7
S1130FC0012001F03DFA23785BB1012B13D0247882
S1130FD000F051F92146BDE8104002460B4803F0E9
S1130FE0C1B9022001F044F900F045F93C28EED9DA
S1130FF001232370EBE7002001F03AF900F03BF9FC
S11310001D28E4D80023F4E70A090020E363000064
S11310102DE9F34105274FF00F0801230022CDE904
S113102000774E494E4803F071FA012300224D49DE
S11310304D480197CDF80080002403F067FA0A2692
S1131040012314251A46CDE900464849484803F0CF
S11310505DFA2246CDE9004501234649464803F09E
S113106055FA22460123CDE900464449444803F099
S11310704DFA2246CDE9004501234249424803F096
S113108045FA2246CDE9007501234049404803F062
S11310903DFA2246CDE9007501233E493E4803F05E
S11310A035FA22460123CDE900763C493C4803F059
S11310B02DFA2246CDE9006501233A493A4803F066
S11310C025FA2246CDE9006501233849384803F062
S11310D01DFA2246CDE9008501233649364803F03E
S11310E015FA4FF47A73224601950093334901238C
S11310F0334803F00BFA40F2DF730195642522466E
S1131100009330490123304803F000FA22460123BA
S1131110CDE900652D492E4803F0F8F92246012354
S1131120CDE900852B492C4803F0F0F94FF4FA730C
S11311302246CDE9004329490123294803F0E6F971
S11311404FF4FA632246CDE90033264901232648A9
S113115003F0DCF902B0BDE8F08100BF07640000D1
S1131160391400000B640000E95B00000F64000008
S1131170851D000013640000B11E00001764000008
S1131180C92900001B640000A50D00001E640000B6
S11311904D0F000022640000ED6100002664000091
S11311A0111600002A640000751A00002E64000065
S11311B07D26000031640000A11B0000356400009E
S11311C0E52A000038640000A53900003C640000F2
S11311D06D48000040640000413E0000446400008B
S11311E07160000047640000BD0F0000704708B53F
S11311F001F0E1F800F0D6FE00F05EFF01F058F8CF
S113120001F068F801F067F801F086F801F096F84B
S113121001F0D2F801F06CF901F08CF900F062FFF2
S113122001F04CF900F0D8FE00F0F4FE00F014FFD9
S113123000F08AFF00F0B4FF01F02CF900F03EFF4B
S113124000F0E0FF01F048F801F09EF801F008F921
S1131250BDE8084001F098B908B501F0EFF808BD01
S1131260002008B500F0D4FE002001F0E9F80020C9
S113127001F00EF9FEE701F057B9000010B50C4B70
S11312801A786AB901221A70FFF700FE202001F0D3
S1131290B5F803F077FABDE81040064B1B68184711
S11312A0012AF6D100221A70FFF702FE3020EEE781
S11312B00B090020680B002007B5064804F0E9FB81
S11312C08DF8070003209DF8073003B05DF804EBA8
S11312D004F022BE4001024007B5064804F0D9FBE1
S11312E08DF8070002209DF8073003B05DF804EB89
S11312F004F012BE0001024007B5064804F0C9FB21
S11313008DF8070001209DF8073003B05DF804EB69
S113131004F002BEC00002400521014803F042BAB5
S1131320BD45000008B500200A4902F02FFE012047
S1131330094902F02BFE0220084902F027FE03208F
S1131340074902F023FEBDE808400420054902F0E5
S11313501DBE00BF19130000F9120000D9120000CD
S1131360B91200007D120000014B1868704700BFDD
S113137010090020044B186818B14FF6FF73984207
S113138001D100F025BE70470C09002008B5044BBC
S1131390187802F029F80122024B1A7008BD00BF28
S11313A0180900202E09002013B5184B02790C46A9
S11313B01A70427932215A700022C3E90121144B78
S11313C08179197083788DF8063003788DF80430AC
S11313D043788DF80530C3788DF807300D4B1A70BB
S11313E00D4B1A70FFF7D2FF01A800F097FD9DF88E
S11313F007209DF805109DF8040000F0B6FD0122B9
S1131400064B1C60064B1A7002B010BD1C0900206C
S1131410180900202C0900202D090020140900209F
S11314202E09002008B9FFF7B1BF024B187801F06C
S1131430C3BF00BF180900202DE9F041544C86B009
S11314402578032D1BD0042D5FD0022D2DD100252E
S1131450504B51491D70514B1B681B681B684B60F6
S11314604F4B187801F054FF03230122042128462E
S1131470237000F07AFD0120FFF7D4FF15E00C255E
S1131480484B44491A6809781044444A1860126861
S1131490126805FB01225268904206D300220421FF
S11314A010461A60217000F060FD3F4B1B78622BE0
S11314B06BD1032004F02EFC012866D13B4B242180
S11314C01A683B4802F04EFF344A3A4E11680C2227
S11314D03678304B08681B7805964E795A43049643
S11314E009798518039169680291A9680191825864
S11314F021780092304A3148127802F033FF3048A4
S113150006B0BDE8F04102F02DBF4FF00C08254FA6
S113151020493B680A781844204B3860D3F800C04F
S1131520DCF800E008FB02E39B689842BDD3002688
S11315300132D3B2204A3E601078224A0B701268FE
S113154002EBC00212799A420FD908FB03F3124945
S11315505EF803304B60124B187801F0D9FE032378
S1131560012229463046237083E7124A0E7013780D
S11315709CF80510994204D8FFF708FF0123237053
S113158093E7013313700223F9E706B0BDE8F08155
S11315902E0900202C0900201C09002030090020FD
S11315A01809002034090020010E00202811002011
S11315B0B86300002D0900202F0900204B640000AF
S11315C0DE6300001409002002680A4B1A604268B6
S11315D0094B1A608268094B1A60C268084B1A608A
S11315E0027F084B1A704269074B1A608269074BE5
S11315F01A607047740900207C09002070090020DB
S1131600780900203C090020380900204009002006
S11316102DE9F043964C0546267897B0072E4FD80F
S1131620DFE816F0080021009400A100FA00880108
S11316304E0096011022AA2112A804F057FE8D4FE5
S1131640DFF8349212AD15F8018B0136414699F852
S11316500000F6B204F088FB102E07F8018BF2D1DB
S1131660012323702CE0844E307804F0C3FB01285E
S113167026D10022814D824B82491A602B78307822
S1131680194404F0EDFB421C1EBF2B78C0182870CF
S11316902B78062B14D900231A467A4911F8010B2A
S11316A00132BB28D2B218BF0123072AF6D1002B7E
S11316B04AD14FF0FF31744A2B701160022222701C
S11316C0724B1B78642B40F05B81032004F022FBF7
S11316D0012840F055816E4B24211A686D4802F0B0
S11316E041FE694B634A1B686B481193654B5979FA
S11316F0109119790F91D9780E9199780D915978A3
S11317000C911B780B93137B0A93D37A0993937AE6
S11317100893537A0793137A0693D37905939379AD
S113172004935379039313790293D3782178019323
S1131730937800935378127802F014FE574817B048
S1131740BDE8F04302F00EBE00238AE7544B554A2D
S113175018681268054495421D60B1D303222270B3
S113176000221A60ACE74E4B4F4F18680DF14B0640
S1131770284418600025A023CDE912558DF848307F
S11317804A4BCDE914551B788DF84930484B1B68FA
S113179098478DF84A00E8B23B6898470135042D14
S11317A006F8010BF7D1434B00261B689847424FBC
S11317B08DF84F00F5B228463B68984716AB03EB0B
S11317C0D50313F8082C05F00705A840013610438B
S11317D0372E03F8080CEDD112AE31460F23002248
S11317E011F8010B013B13F0FF030244F8D110255B
S11317F0204FDFF884908DF8572016F8018B99F864
S113180000004146013D04F0AFFA15F0FF0507F86A
S1131810018BF2D1042324E7214A174F13680344B0
S11318203878136004F0E6FA0128154A6BD10023D6
S1131830124E144D317838782944136004F010FBAB
S1131840431C1EBF3378C01830703378062B7FF6E4
S113185037AF2B78A02B01D0052302E7134A6B780E
S113186011788B422AD0052323700023337027E795
S113187048090020580900203C0900208009002064
S11318806C0900205109002068090020010E002085
S113189028110020B863000095640000DE63000096
S11318A04C090020380900207C090020810900200F
S11318B0740900207009002078090020FF2B0EBF56
S11318C000230133DBB2137006220023A8792E49CA
S11318D011F8017B013A12F0FF023B44F8D1DBB26C
S11318E09842C0D12B79E9781B0443EA0123A978F3
S11318F00B4326490B60264B697919700223237028
S1131900244B1A60B1E7244B10681B6805449D42C0
S11319101560FFF4D5AE00231360052222701F4A20
S11319201370194A137053709370D37013715371F9
S11319309371C5E61A4B174A18682844186013684F
S11319400133632B136001D906238AE6022388E658
S11319501022EE2112A804F0C9FC1025114FDFF863
S1131960489012AE16F8018B99F800004146013DEB
S113197004F0FAF915F0FF0507F8018BF2D19FE6A0
S113198017B0BDE8F08300BF5109002068090020AA
S1131990500900204409002040090020800900204B
S11319A04C090020580900203C09002000487047D9
S11319B06809002010B40E4A4301D45C02EB4011C4
S11319C0012C04D1013310BCD01801F047BC2CB158
S11319D0087BB0FA80F0400910BC70478B681A6825
S11319E001238340134023FA00F0C0B2F4E700BFA0
S11319F08409002070B5044670B31C4E3378042B60
S1131A0031D802781A4D5901012A05EB43136A545F
S1131A1024D140785870A1789970627B5A7300225F
S1131A2000F095FA3378217B05EB43121173002102
S1131A30918391779161226958010AB90122226147
S1131A40D4E90421914238BF626105442A61626984
S1131A502C4601336A613370204670BD002AE1D1FF
S1131A6082689A60DEE70024F6E700BF820900205E
S1131A70840900202DE9F84300264FF00208374678
S1131A80234CDFF8909099F80030B34201D8BDE8B8
S1131A90F88394F91C50012D15D0022D2CD06DB96A
S1131AA03046FFF787FF237B83420AD1A36922696B
S1131AB001339342A36101D30123237701362034F8
S1131AC0E1E7A561FAE73046FFF774FF237B834221
S1131AD00DD1A36962690133511CA361EED0934215
S1131AE0ECD384F81C8084F81D80A761E6E727778F
S1131AF0A761A5776577E1E73046FFF75BFF237BB6
S1131B0083420FBF25772777A761A577D6E700BF64
S1131B10840900208209002010B190F91C0070474C
S1131B204FF0FF307047000010B504461148237889
S1131B30E269037063784370E378C3700E4B1A60F4
S1131B4000F0E8F80D4B18600D4823790370237CEE
S1131B50037363794370A379837063690361A36931
S1131B604361FFF747FF0322064B1860064B1A70C8
S1131B7010BD00BF240A0020280A0020340A0020D7
S1131B80480A0020380A00200008002008B5034B4A
S1131B901868FFF7C1FFC0B208BD00BF380A0020B3
S1131BA02DE9F0470446FFF7F1FF4F4D4F4F2B78D7
S1131BB03860042B10D8DFE803F00B0611035C0037
S1131BC004232B7008E04A4B1B782BB90223F8E757
S1131BD0474B1B78012BF9D0BDE8F087DFF814815F
S1131BE00121D8F8000000F0C3F8414B1E78012E03
S1131BF027D1414B1A7B3B689A4213D14FF000091D
S1131C003E4F3F4B3868A3F800900444F92C3C60E5
S1131C10E2D94946D8F8000000F0AAF82E70C7F8B7
S1131C200090D9E7364B374A188812680444A4B2A6
S1131C3094421C80D0D300221A800122324B1A70A5
S1131C40CAE7002EC8D12C4B1A7B3B689A42E9D0D4
S1131C502E4F2B4B38681E800444B4F5487F3C60FB
S1131C60BAD33146D8F8000000F082F82E703E60F6
S1131C70B2E7DFF89C90DFF87C80D9F80030DFF819
S1131C8078A023440121D8F80000C9F8003000F0FE
S1131C906FF89AF80C203B681C4E9A4212D13460BB
S1131CA040F6B733D9F800209A4295D99AF80C2017
S1131CB03B689A4290D00021D8F8000000F058F810
S1131CC000237EE730680028EAD00444B4F5487F56
S1131CD03460E5D30021D8F8000000F049F800236F
S1131CE02B703360DCE700BF000800202C0A0020C2
S1131CF001080020340A0020480A0020400A00207D
S1131D00600A0020280A0020300A00203C0A002033
S1131D10440A002038B520B3134D2B780E2B21D85C
S1131D20124C017803EB8303E218517041780133BC
S1131D3091700121D170C178E018117100F0EEF8B2
S1131D402B7803EB830323441A795878997800F0AD
S1131D500CF9D0222B7803EB8300013322542B702F
S1131D60204438BD0020FCE7AD0A0020620A0020B0
S1131D7028B10378D02B02D10171002070474FF0B5
S1131D80FF3070472DE9FF410024CDE90044214F85
S1131D90DFF884800294CDF80B403B78E5B2AB4287
S1131DA019D81E4B1B786F2B31D1032003F0B2FFDF
S1131DB001282CD124211A4802F0D4FA0023194C0A
S1131DC0194D237023780E2B16D9184804B0BDE89A
S1131DD0F04102F0C7BA05EB850646443279B17882
S1131DE0707800F0C2F805F110030DEB03053379A8
S1131DF0013405F8103CD0E710336B4413F8101C81
S1131E00284602F0AFFA237801332370DAE704B0EE
S1131E10BDE8F081AD0A0020620A0020010E002016
S1131E200E650000000E00201D650000DE6300004A
S1131E30F8B5044658B3184D2A78012A29D81C2726
S1131E407A430168154EB150B31802791A71427978
S1131E505A7182799A71C279DA71C268DA600022A1
S1131E60C3E90422F1221A7600F0C4FC227A211D6F
S1131E70206800F0C1FC206800F0D9FC206805212E
S1131E8000F0D3FC2B7807FB036401332B7020464E
S1131E90F8BD0024FBE700BFE80A0020B00A0020D8
S1131EA028B1037EF12B01D10069704700207047EF
S1131EB02DE9F04781464FF00008DFF854A0154D96
S1131EC09AF800305FFA88F7BB4201D8BDE8F08782
S1131ED01C247C432E197269F3689A420FD3285943
S1131EE000F09DFC3061285900F09BFC285900F05B
S1131EF09AFC0521285900F098FC002373611C23E7
S1131F0003FB07535A6908F101084A445A61D7E7A9
S1131F10E80A0020B00A002001F07CB907B5037874
S1131F208DF8043043788DF8053083788DF80630C9
S1131F30C378012B84BF0023C370C17801A801F0CA
S1131F4088F901A801F067F903B05DF804FB07B54F
S1131F508DF804008DF8051001A811468DF80620AF
S1131F6001F080F903B05DF804FB07B58DF80400B7
S1131F708DF8051001A8114601F06BF903B05DF866
S1131F8004FB07B58DF8040001A88DF8051001F0D5
S1131F9065F903B05DF804FB884294BF002001207A
S1131FA0704700007FB5074B0293FFF7E3F9064B38
S1131FB003900493054B68460593FEF7D7FE07B0DC
S1131FC05DF804FB80010140E0930400991F0000C8
S1131FD04FF47A7070470000002307B504210122F2
S1131FE08DF800308DF803308DF8043008238DF817
S1131FF00110684605498DF802208DF805308DF8EA
S11320000620FFF7D1F903B05DF804FB7466000005
S1132010FFF708BA7FB541F20203ADF8003044F689
S11320202063059300230A4A8DF8033001928DF84A
S11320300C3040F20312642368460493ADF8082080
S113204000F0E2FA034B186007B05DF804FB00BF30
S113205040010140EC0A0020F0B54FF4E1330125C2
S11320603027082600248BB001A903200393CDE96F
S1132070054407970496ADF8245003F06FFD4FF420
S1132080965303932023284601A9CDE905430797D6
S11320900496ADF8245003F061FD4FF4165302206A
S11320A001A9CDE90544039307970496ADF824509C
S11320B003F054FD0BB0F0BD70470000032307B5D7
S11320C08DF8043002238DF80530002301A88DF823
S11320D00730FFF71FFE024B186003B05DF804FBE6
S11320E0F00A00207FB501238DF80C304FF0FF3348
S11320F0059340F20173ADF8003010238DF80230DF
S1132100042368460493FFF775FC024B186007B07C
S11321105DF804FBF40A0020014B185C704700BF13
S1132120F90A0020014B1878704700BF300B0020DB
S1132130014B185C704700BF02080020014B18785F
S1132140704700BFF80A00204FF48832142300B50A
S113215089B0CDE904234FF47A73069302238DF8F2
S11321601C300A4B68460093094B0393094B0193B7
S1132170094B0293FFF728FA2222084B1A705A706F
S11321809A70DA7009B05DF804FB00BF25210000E5
S113219019210000312100003D2100000208002027
S11321A0062307B58DF8043010238DF8053000237D
S11321B001A88DF80730FFF7ADFD024B186003B09E
S11321C05DF804FB340B002038B504460D46FEF7D9
S11321D02FFBB2280BD908A3D3E9002320462946B4
S11321E0FEF740F80022064BFEF76AF938BD0020DE
S11321F00021FBE7AFF3008082E2C798BB96A03FC3
S11322000000174040F6020310B58AB0ADF8003064
S1132210012300248DF80A300D4B684603930D4BBF
S11322208DF8034004930C4B019302F0C9FA0B4B55
S11322308DF81740186040F2022305A8ADF8143059
S11322408DF81E4002F0BCFA054B18600AB010BDB0
S1132250C92100000000C40901070910380B00203F
S11322603C0B0020014B186802F086BB380B0020A1
S113227010B5044658B90C4B2146186802F085FB8A
S11322800021BDE81040094B186802F07EBB01280C
S1132290F1D0022806D1044B0121186802F075FB25
S11322A00121EEE710BD00BF380B00203C0B0020DD
S11322B010B5012492B08DF800408DF80840FFF766
S11322C075FB9623019068461094119300F0CEFAA2
S11322D012B010BD7047704740F2054300B589B095
S11322E0ADF8003041F28833079300238DF81030A5
S11322F08DF8033040F2012301214FF0FF32ADF895
S1132300043040236846CDE905128DF80630FFF706
S11323100BFC09B05DF804FB07B56B46054A106871
S1132320516803C36946044803F0F6FB03B05DF843
S113233004FB00BF90630000C000014000230E486E
S11323400E4AC360012303740D4B40F21451C0E9DB
S11323500023022303720B4B436140F201130383F6
S11323601E23837640F6FC03C0E907134FF4FA6397
S1132370436200F073BB00BF400B002007800901DB
S113238008010740010720011FB501234FF4FA7229
S11323908DF800304FF47A73CDE9012315238DF8BD
S11323A00C30FEF7E1FFADF80E00684601F0DAFAF2
S11323B005B05DF804FB7047072307B58DF80030BE
S11323C002238DF8013000238DF802308DF803309C
S11323D001238DF804308DF8053030238DF8063054
S11323E0042368468DF8073003F0D8FE024B1860CA
S11323F003B05DF804FB00BF680B0020072307B59A
S11324008DF8003002238DF8013000238DF802305E
S11324108DF8033001238DF804308DF80530042342
S11324208DF8060068468DF8073003F0B7FE024BBE
S1132430186003B05DF804FB680B002003F050BF84
S113244010B50446024604210220FFF78EFD034B1B
S11324502146BDE810401868FFF78ABC6C0B0020C9
S1132460022313B58DF80430042300240DEB03007C
S11324708DF805308DF80740FFF74CFC034B1860CE
S11324802046FFF7DDFF02B010BD00BF6C0B00203B
S113249070470000022307B58DF8043020238DF81F
S11324A00530002301A88DF80730FFF733FC024BF9
S11324B0186003B05DF804FB700B00207FB50123A6
S11324C08DF80C304FF0FF33059340F20173ADF8F3
S11324D0003008238DF80230042368460493FFF784
S11324E089FA024B186007B05DF804FB740B0020F6
S11324F07FB5084B084A0393084B01A8CDE9042390
S1132500074B019301F062FC064B186007B05DF8BD
S113251004FB00BFD866000064000010F401010051
S113252001080920780B002008B5FFF79BFEFEF791
S11325307FF908BD00B5114B8BB001934FF4807344
S1132540ADF8083000238DF80C304FF4FA7304937F
S11325500B4B46F6605205930D238DF8183045F267
S11325604013CDE907230223064A01A81360099307
S113257003F044FD0BB05DF804FB00BF0000014014
S1132580080800207C0B002030B58023042500249B
S113259085B068468DF801308DF800508DF8034001
S11325A0FFF7B8FB144B8DF80740186002238DF831
S11325B0043001230DEB05008DF80530FFF7AAFB6D
S11325C00E4B8DF808501860202302A88DF80930AE
S11325D08DF80B40FFF79EFB094B8DF80C501860EB
S11325E0402303A88DF80D308DF80F40FFF792FBC0
S11325F0044B186005B030BD800B0020840B002014
S11326008C0B0020880B002070B5044686B050B3B4
S1132610174E337853BB40F20332164DAA804269F9
S11326202B73AA6003788DF8043043788DF8053055
S1132630C37801A88DF80730FFF76CFB6368286046
S11326400293238902A8ADF80C30237B8DF8103057
S113265023690593FFF7ECFB074B1860337805EB10
S1132660031401333370204606B070BD0024FAE72A
S1132670A40B0020940B0020900B0020534B2DE959
S1132680F74305461868FFF70BFC0A26504C4643EF
S11326906379042B14D8DFE803F033103703820086
S11326A02379012B04D1092E05D90423637107E092
S11326B033B9092EFAD90223F8E72379002BFAD08B
S11326C0444B1B78632B7DD1032003F023FB0128AB
S11326D078D1414B24211A68404801F043FE237B02
S11326E0092E0093227994BF0023012361793C4889
S11326F001F038FE3B4803B0BDE8F04301F032BEC0
S11327002379012BDCD1D6E701212068FFF730FBC8
S11327102779012F29D14FF00008334B092EC3F834
S11327200080324B14D9A3F8008041F66313DFF81C
S1132730C090D9F8000005449D42C9F80050BFD9A3
S113274041462068FFF714FB6771C9F80080B7E7BA
S113275018880544ADB21D80A3689D42B0D3002201
S1132760224B1A8001232373AAE7002FA8D1204B00
S1132770092E1F601D4BEBD8DFF86C801F80D8F842
S113278000000544B5F57A7FC8F8005098D339465F
S11327902068FFF7EDFA6771C8F8007090E701212F
S11327A02068FFF7E5FA092E8AD80F4B186805440C
S11327B0B5F57A7F1D6083D300212068FFF7D8FA2E
S11327C0002373E703B0BDE8F08300BF900B002043
S11327D0940B0020010E002028110020B863000093
S11327E0A2670000DE630000A80B0020B00B0020ED
S11327F0AC0B002000F028BE07B50B788DF8043030
S11328004B788DF805308B788DF80630CB7801A99C
S11328108DF8073000F076FE03B05DF804FB00F09D
S1132820AFBE00F0AABE00F0A1BE00F09DBE00F055
S113283099BE00000C4A1378022B05D1104490F87D
S11328402410807AFFF79DBB012B04D0107AB0FAD4
S113285080F040097047526883401268134023FA9D
S113286000F0C0B2704700BFBC0B00202DE9F0415E
S11328700378214D027A022B04462B702A7238D138
S113288090F823100122407AFFF761FB637A04F188
S11328900A066B7294F8233005F10A0785F8233091
S11328A004F1230816F8010B0022717EFFF74FFB99
S11328B016F8013C464507F8013B737E7B76F1D15F
S11328C0002201271146666C0C4B1960197159716D
S11328D09971206C00B927640132192A03F10803A5
S11328E0F3D1236C2864B3422CBF6B646E64BDE8DF
S11328F0F08143686B60E3E7BC0B0020040C00200C
S11329002DE9F0414FF000082B4C2C4F2C4E04EBDA
S1132910C00494F904505FFA88F0012D21D0022DEF
S113292039D0ADB9FFF786FF3B7A834208BF2568EB
S11329303B6C08BF0135AB42256009D80123214A0D
S11329402371637113680133136033680133336097
S113295008F10108B8F1190F04F10804D9D1BDE850
S1132960F081FFF767FF3B7A83420CD12368013380
S1132970236022687B6C9A42EAD302232371637139
S113298000232360E4E7002233682271013B3360B3
S11329902260A571EDE7FFF74DFF3B7A83421BBF31
S11329A000223368257103F1FF331FBF22713360A6
S11329B02260A571CCE700BF040C0020BC0B0020F2
S11329C0B80B0020B40B002038B50B4B1A7892B129
S11329D00A4C022A257809D1587A93F823101A7AD6
S11329E015B1B2FA82F25209FFF7BFFA2078FFF765
S11329F087FF0023237038BDBC0B0020B20B0020DE
S1132A00F7B50E460446144D1746287802F0A8F888
S1132A1044EA0600C043C0B202F028F89EB9F84365
S1132A20C0B202F023F8C443E4B22878B0FA80F0CC
S1132A30400902F095F800230193019BC72B08D9A4
S1132A40204603B0F0BD802E01D1FF20E9E7002429
S1132A50EBE7019B0133EFE7D40C002010B50446EB
S1132A60C36886B002680493037C01928DF8143025
S1132A704268037A01A802928DF80C3001F096FFA7
S1132A801048E37D8370637D0370A37D4370237ED0
S1132A90C370FFF743FA227D0B4B1A70A27E0B4BD7
S1132AA01A70627E0A4B1A70E2690A4B1A60226A33
S1132AB0094B1A60626A094B1A600122084B1A70AA
S1132AC006B010BDD00C0020D40C0020D80C00207F
S1132AD0D60C00200C0D0020100D0020140D002039
S1132AE0DE0C00202DE9F043914C0546237891B08B
S1132AF0013B092B23D8DFE813F00A00710085009D
S1132B0091009C00BA00D800F600D601E001894B80
S1132B10012218785978FFF728FA874B1868284457
S1132B201D2818600BD9022340220021182023708D
S1132B30FFF766FF802200211920FFF761FF7F4B1A
S1132B401B786D2B40F0CE81032003F0E3F80128BD
S1132B5040F0C8817A4B24211A687A4801F002FCBB
S1132B60794B7A4A1B687A480F937A4B1B680E9309
S1132B70794B1B680D93794B1B780C93784B1B781E
S1132B800B93784B1B780A93774B1B780993774BFD
S1132B901B780893764B1B780793764BB3F9041094
S1132BA00691B3F902100591B3F900300493724B06
S1132BB099680391596802911B680193B2F9043032
S1132BC00093B2F90230B2F90020217801F0CAFB77
S1132BD06A4811B0BDE8F04301F0C4BB142280215F
S1132BE00F20FFF70DFF5522054680210C20FFF72B
S1132BF007FF552840F05F81142D40F05C810323CA
S1132C0023709CE7022200211B20FFF7F9FEC0225B
S1132C1000211820FFF7F4FE0423F1E7584A136853
S1132C20132B02D80133136089E7002313600523B3
S1132C30E6E7544E307801F093FF792001F016FF57
S1132C40FF2001F013FF0546FF2001F00FFF45EAC6
S1132C50002530782DB2B0FA80F03C4B002DB8BF7F
S1132C606D421D80400901F07BFF0623C8E7454EF5
S1132C70307801F075FF772001F0F8FEFF2001F0B5
S1132C80F5FE0546FF2001F0F1FE45EA0025307807
S1132C902DB2B0FA80F02D4B002DB8BF6D425D808F
S1132CA0400901F05DFF0723AAE7364E307801F0B2
S1132CB057FF752001F0DAFEFF2001F0D7FE05462C
S1132CC0FF2001F0D3FE45EA002530782DB2B0FA9A
S1132CD080F01E4B002DB8BF6D429D80400901F06D
S1132CE03FFF08238CE7264D184B2E68B3F900E00C
S1132CF0B3F90200B3F904101F4B0F2E1A6845D81C
S1132D0001362E605D68724428449D68102E294463
S1132D101A60586099608AD11211001109111A6061
S1132D2058609960184B1A80588099807FE700BFDB
S1132D30DE0C0020D00C0020080D0020010E002025
S1132D4028110020B8630000140D0020EE0C0020B0
S1132D50C1670000100D00200C0D0020DA0C0020CB
S1132D60D60C0020DD0C0020DC0C0020DB0C002045
S1132D70D80C002072080020F80C0020DE6300004C
S1132D80CC0C0020D40C0020E60C0020574DDFF8BA
S1132D9060C1B5F900607645B5F90260B8BFA5F821
S1132DA000E08642B5F90460B8BF68808E42B8BFBF
S1132DB0A980504D504E2D682A4472454F4D0DDB6D
S1132DC04F4FD3F804803F684744B84206DC4D4F68
S1132DD0D3F808803F684744B9422DDD4A4F97F83D
S1132DE00080B8F1000F27D0484A49491378097880
S1132DF00133DBB2994213700CD8464B1B784BB1AC
S1132E00002301211370444A8CF8003033702B7076
S1132E1011703B7032789CF8003013442A781344C4
S1132E203E4ADBB213703E4A12789A423EBF0122F8
S1132E30354B1A700923E3E6DFF8E8809CF800704C
S1132E40B8F90090F14505DAA8F800E001378CF8EC
S1132E500070DFE7724501DA0237F8E7B8F90220BB
S1132E603778824204DAA8F8020001373770D1E7D4
S1132E70234AD3F804E012687244904201DD023719
S1132E80F4E7B8F904002A78884204DAA8F80410B0
S1132E9001322A70BEE71B489B68006803449942CC
S1132EA0B8DD0232F5E7552280210C20FFF7A8FD9A
S1132EB055283FF4BCAE0A23A2E61B4A136801332B
S1132EC0042B13604FF0010309D800222370174B21
S1132ED01A60174B59781878FFF747F82FE6154A08
S1132EE013702CE611B0BDE8F08300BF7208002017
S1132EF0DB0C00200C0D0020DC0C0020DD0C00207D
S1132F00100D0020140D0020E40C0020DA0C002029
S1132F10D60C002070080020D90C0020D50C00200D
S1132F20D80C0020E60C0020E00C0020080D002046
S1132F30D00C0020D70C002007B5FEF757F972B665
S1132F4003F05AF803F047F8FEF7E6FFFFF752FCE8
S1132F5001F00AF8FEF7E6F901F0A4FA052001F001
S1132F60A9FA274801F0C2FA002205232549CDE930
S1132F7000232548012301F0C9FAFEF738F9FEF7CA
S1132F8047F862B6214C204601F0B6FA0028FAD080
S1132F9003F030F839221E4D1E4C20212B6801927B
S1132FA01D484922009401F0DDF91C4801F0DAF9CA
S1132FB01B4801F0D7F93A222B682021CDE90042C1
S1132FC01548492201F0CEF900220121154801F0EB
S1132FD0C9F9134801F0C6F93B222B682021CDE939
S1132FE000420D48492201F0BDF90F4A0F4910482B
S1132FF001F0B8F90A4801F0B5F901F053FBFEE716
S1133000611200005D680000F15F000059120000C9
S113301028110020F0680000616800008368000047
S1133020DE630000A1680000BD680000C9680000FC
S1133030D268000010B4054B054C0322012814BFCC
S113304020461846482110BC01F009BF0002034085
S11330500000034010B5084B084C41F080020128E1
S113306008BF1C460021204601F034FF2046BDE87D
S1133070104001F0F7BE00BF00020340000003400F
S113308010B50A4B0A4C41F08002012808BF1C46C7
S11330900021204601F01EFF204601F0E3FE2046F9
S11330A0BDE81040002101F0EABE00BF0002034069
S11330B00000034008B5064A064B0021012814BF4E
S11330C01046184601F0F6FEC0F30B1008BD00BF11
S11330D0000003400002034008B5054A054B0021E7
S11330E0012814BF1046184601F0D8FE08BD00BFE1
S11330F00000034000020340704708B5012001F0BE
S11331009BFF68B94FF4FA7101F03CFF01F04AFFEC
S113311001F050FF0128FBD1BDE8084001F06CBF6D
S113312008BD08B5002001F0DFFE002001F0F8FE24
S1133130002001F00BFF0121002001F04FFFBDE84A
S11331400840FFF7DABF000010B50446407901F0EB
S1133150E5FF00216278207802F0C2FA012261784A
S1133160207802F0F5F90122A178607901F078FF66
S113317063790F2B0ED8DFE803F0080E1114171A29
S11331801D23262A2E32363D414501221F4BC3F80A
S113319080211A6010BD02221C4BF8E704221B4B4D
S11331A0F5E70822194BF2E71022184BEFE720222B
S11331B0164BECE74022154BC3F884215A60E9E72B
S11331C08022124BF8E74FF08062104BF4E74FF087
S11331D000620E4BF0E74FF080520C4BECE74FF0DF
S11331E000520A4BE8E74FF48062084BC3F8882189
S11331F09A60CFE74FF40062044BF7E74FF4805234
S1133200024BF3E74FF40052004BEFE700E100E01C
S113321001F084BF704738B58578044615B1012D97
S113322010D038BD4178007802F092F829466278CF
S1133230207802F0C7FA627820780121BDE838408E
S113324002F0C0BA4178007801F0F4FF00216278FE
S1133250EEE70A464178007801F09EBF4178007895
S113326001F062BF10B50B460446007861786BB17B
S1133270012B0ED062782078002102F0A3FA627844
S113328020780121BDE8104002F09CBA02F060F8F9
S1133290F0E701F0CFFFEDE710B50446032936D877
S11332A0DFE801F00213192442780021007802F0CB
S11332B089FA01216278207802F084FA6278207811
S11332C00221BDE8104002F07DBA42780021007866
S11332D002F006FAEDE742780021007802F072FA73
S11332E001216278207802F0FBF9E7E742780021B7
S11332F0007802F067FA62782078012102F062FA1D
S1133300627820780221BDE8104002F0E9B910BDCE
S11333102DE9F0410C4690B0254E08AD07460FCE7E
S11333200FC596E80F00234E85E80F006368A56873
S1133330B6FBF3F60A235E43642375436178207871
S1133340B5FBF3F501F076FF7B1F012B94BF012140
S113335000216278207802F0C3F961782078012294
S113336002F05CF94FF001080223CDE903830193D5
S11333700C230422029310AB03EB870757F8204C6D
S1133380751B2046CDE90562079502F0A3FA204695
S113339003A902F0A6FA204601A902F0B1FA00221C
S11333A04146204602F0B4FA10B0BDE8F08100BFF7
S11333B09863000040420F0070B489B06C46094D18
S11333C006460FCD0FC495E80F0084E80F000521D1
S11333D008AB03EB860656F8200C09B070BC02F06B
S11333E07EBA00BF9863000070B489B06C46094D82
S11333F006460FCD0FC495E80F0084E80F000021A6
S113340008AB03EB860656F8200C09B070BC02F03A
S113341066BA00BF98630000084B58430138B0F106
S1133420807F0AD24FF0E023E021054A586182F8F8
S1133430231000229A6107221A6170478038010024
S113344000ED00E07047000040F6C412014B1A6022
S1133450704700BF180D002040F2666370B59942B2
S113346005460C4686B025D941F23232A1F2676393
S1133470934295BF082020200226032601230193AE
S1133480FDF7ACFA01460D48FDF7B4FB0C49FDF716
S1133490B1FBFDF74BFC042344432846CDE9043437
S11334A0CDE9026402F016FA284601A902F019FADD
S11334B006B070BD02200126E0E700BF8096984C5C
S11334C00024744908B5C36803F00303012B11D029
S11334D0022B11D0032B14BF02202020FDF77EFA0B
S11334E001460648FDF786FB0549FDF783FBFDF71A
S11334F01DFC08BD0220F1E70820EFE78096984CF8
S113350000247449F0B5002604460D4687B01746DA
S1133510CDE90166CDE90366059602F0DBF9314693
S1133520204602F0DCF96978287801F011FF0C4B91
S11335309C4202D040339C4210D102212846FFF71E
S1133540ABFE204601A902F0CCF93A460021204600
S113355002F0ECF90323236107B0F0BD0121EDE78C
S11335604001014002F0B6B902F0B9B943694369B8
S113357082B00193019B02B07047002102F0AFB901
S113358008B502F0C2F908BD30B50C46054687B04F
S1133590002830D101220420114601F077FF0122D6
S11335A02946042002F09CF802222946042002F055
S11335B097F801220221042001F0CAFF94F8203078
S11335C0012B02BF40223B4B1A603B4D284602F0C0
S11335D0B9F9A36869460093E3682846019323690F
S11335E0029363690393A36904930023059302F090
S11335F0BBF907B030BD01281DD1024620210020AF
S113360001F044FF00212022084602F069F800215D
S11336104022084602F064F82A464021002001F0C6
S113362097FF94F82030012B03D14FF48072214B83
S11336301A60224DCAE702281DD10122202103204D
S113364001F024FF20220021032002F049F8402247
S11336500021032002F044F801224021032001F05C
S113366077FF94F82030012B03D14FF48072114B73
S11336705A60134DAAE70328A7D101220821052087
S113368001F004FF08220121052002F029F810228C
S11336900121052002F024F801221021052001F067
S11336A057FF94F82030012B01D1024A9360054D55
S11336B08CE700BF00E100E080000240C00002404F
S11336C000010240400102400328F8B50D4615D818
S11336D00B4C0C4E0C4F04EB80144021204602F09E
S11336E036F928B933680133BB423360F5D9306009
S11336F029462046BDE8F84002F0C0B9F8BD00BF35
S113370080000240240D00208038010070B5431E63
S11337100B4C022B0B4D0C4E98BF04EB8014202154
S1133720204602F014F930B92B6801332B602B6862
S1133730B342F4D92860204602F098F9C0B270BDB3
S113374080000240200D00208038010013B50124C0
S1133750037868460093019402F0C0F9204602F011
S1133760B5F902F0C5F902B010BD02F0CFB902F00C
S1133770C4B930B50022044641F221054FF6FF706A
S1133780A35C80EA0320082310F4004F03F1FF3305
S11337904FEA400018BF684013F0FF0380B2F3D132
S11337A0013293B29942EBD830BD0000034610B504
S11337B01446A5220C2B084622701FD8012B01D8D1
S11337C0002063E09A1E0A2AFAD801A151F822F0D7
S11337D065380000C1370000C137000037390000E8
S11337E0C1370000C1370000C1370000AB3800000A
S11337F0C1370000AB380000E1380000A3F1190222
S1133800D1B21429DCD8142ADAD801A151F822F053
S11338103D3900004939000051390000C13700002A
S1133820C1370000C1370000C1370000C1370000B4
S1133830C1370000C1370000C1370000C1370000A4
S1133840C1370000C137000037390000C13700001C
S113385037390000C137000037390000373900001C
S11338603739000040F6F6013C4A0520D389A3F518
S1133870E1639BB28B4284BF0023D3810223637034
S1133880137BA370D3891A0AE2702371C0F10B026F
S11338900021D2B2204402F029FD0A212046FFF77C
S11338A068FF030AA372E07210BD0028EED0828A7A
S11338B0B2F52F7F84BF4FF42F728282642263702B
S11338C0838A1B0AA370838AE370038AB3FBF2F32F
S11338D01B0A2371038A0620B3FBF2F36371D5E755
S11338E00028D3D0838AB3F52F7F84BF4FF42F737E
S11338F083820C236370838A1B0AA370838AE37018
S11339006423028AB2FBF3F22271428AB2FBF3F21D
S113391062710268B2FBF3F2A2714268B2FBF3F285
S1133920E2718268B2FBF3F22272C2680A20B2FB2F
S1133930F3F36372AAE702206370A7E719236370A5
S113394001230320A370A1E7192363700023F8E780
S11339501B236370024B1B78F3E700BF780D002034
S1133960300D002010B500240A4B02781C700A4B5D
S113397021461A7042685A6082689A60027B1A7300
S1133980C2890520DA81054AFFF710FF044B1C7039
S113399010BD00BFA00D0020780D0020390D0020BF
S11339A0760D00202DE9F047914D04462A78914B7D
S11339B0914E94B0DAB142F20F711A6802448A420D
S11339C00CD81A603378062B2FD8DFE813F01E00CA
S11339D0B400CA00E800FB0039010B0000221A60A1
S11339E0062333704FF0FF32844B1A605DE11A6096
S11339F0834A5378052BE5D1B2F803307F495BBA8B
S1133A009BB20B6093782B70DCE77E4A0021022086
S1133A10FFF7CCFE7A4B5A78022A06D10122B3F87A
S1133A2003303270784A5BBA1380784A784F13684F
S1133A30796823448B42136080F04D81387802F01A
S1133A40D9F90128DFF8CC8140F090810023DFF818
S1133A50C891724C99F8001038782144C8F80030A5
S1133A6002F0FEF9431C1EBF99F80030C01889F813
S1133A70000099F80030132B40F26E810023C8F83F
S1133A80003089F80030664B1B786E2B39D1032047
S1133A9002F040F9012834D1624B24211A686248AB
S1133AA000F060FC2B786148129333781193E37C27
S1133AB01093A37C0F93637C0E93237C0D93E37B81
S1133AC00C93A37B0B93637B0A93237B0993E37A85
S1133AD00893A37A0793637A0693237A0593E37989
S1133AE00493A37903936379029323790193E3788D
S1133AF00093A3786278217800F034FC4C4800F0FD
S1133B0031FC237BA52B40F02C813E4A637B527809
S1133B109A4202D0052B40F02281464E06213046BF
S1133B20FFF727FE638A5BBA9BB2834200F00F81E2
S1133B3085232B7010E1334A00212920FFF736FE3C
S1133B402F4B5A78292A7FF470AF9A78D9781B7949
S1133B500A43134302D10223337066E701232B7017
S1133B6063E70122344B00211A701B20254AFFF71A
S1133B701DFE234A53781B2B7FF457AF9378D178DB
S1133B8012790B431343E9D12C490A682244B2F554
S1133B907A7F01D20A6048E70B600323DCE7002741
S1133BA0254B184A39461B201F70FFF7FFFD234A97
S1133BB013682344B3F57A7F01D2136035E70423F5
S1133BC01760C9E7002129200E4AFFF7EFFD0C4BCF
S1133BD05B78292B02D0052B7FF427AF174A136893
S1133BE02344B3F57A7FE8D3002313600523B3E7B6
S1133BF0760D00202C0D0020A00D0020AC0D00201F
S1133C00310D0020650D0020740D0020A80D00204A
S1133C10780D0020A40D0020B20D0020510D0020CD
S1133C20010E002028110020B8630000F568000090
S1133C30DE6300005D0D0020300D0020B40D002077
S1133C40554B564A56491878FFF7B0FD554B5A78EC
S1133C5002F0DF01092920D0A2F10B01C9B21C290D
S1133C6016D92C2A7FF4E1AE9A784F484F492A702E
S1133C70FAB9B3F803205B7952BA03EB830303EB7D
S1133C80830302809B0000220B80494B1A60CCE620
S1133C90484820FA01F1C90711D5B3F80320444973
S1133CA09B7852BA92B20A602B700022424B1A706F
S1133CB0BBE600232B704FF6FF730380E3E7193A4A
S1133CC0012A3FF6B2AE59793B4A9B781170002124
S1133CD0374A116043E700231360384A13702F4AB0
S1133CE05378A3F1190102291CD92C2B1AD00C23C7
S1133CF0334911F801CB12F8010B844512D1013B71
S1133D009BB2002BF5D14FF00C08DFF8B89019F8EE
S1133D10011B387808F1FF3802F026F818F0FF0884
S1133D20F5D18BE64FF00C08DFF87090DFF890A027
S1133D3099F80010387802F017F808F1FF3819F8EC
S1133D40013B18F0FF080AF8013BF1D176E6154A69
S1133D50E36813607368536014B0BDE8F08783238D
S1133D60E7E65A2B0CBF82238123E2E6D8F8000051
S1133D70BB6804449C42C8F80040EDD38123002171
S1133D8014222B7010480D4BC8F80010197014B091
S1133D90BDE8F04702F0AABA7A080020650D0020B9
S1133DA0880D0020310D0020B00D0020720D002080
S1133DB0AC0D002007000510280D0020B20D0020D6
S1133DC0450D0020390D0020510D00202DE9F04152
S1133DD0054678B3846854B3848944B3164F97F87E
S1133DE00080B8F1000F25D1FDF77AF82C233E7836
S1133DF0AA687343DFF844C041464CF80320AA89FB
S1133E000CEB0304A2806A8A10336281EA89CCF83D
S1133E102800E2802A8A0CEB030022811E2284F807
S1133E202480E2600136142202F060FA3E702046DB
S1133E30BDE8F0810024FAE7E40D0020B80D00206D
S1133E402DE9F843444F3B78A3B34FF02C09434E7C
S1133E50434C357809FB05F904EB0908D8F8280028
S1133E60FDF76CF8162198F8243082B201FB053175
S1133E7054F80900083124F811200188914254D8DB
S1133E80B8F804C00CF10041013930F81110914226
S1133E904BD398F80E10092947D80133DBB2092B0C
S1133EA088BF00232F4A88F824301378092B03D8BD
S1133EB001331370BDE8F8832C220A23002196F8FD
S1133EC000E002FB0E42103232F8028B013B13F089
S1133ED0FF034144F8D10A224FF02C08B1FBF2F160
S1133EE008FB054889B29AB294450ED83A780EF187
S1133EF00103DBB29A4233709CBF002333702C233E
S1133F0003FB05440023A373D4E730F8029B8945DF
S1133F1009D8B0F80090894522BFB8F80A9009FB87
S1133F2002F2A8F80C200133DDE72C2303FB054340
S1133F30997B0A2903D94FF48072DA81BAE7188988
S1133F40904202D8DB889342B4D22C2303FB05446D
S1133F500131A173AEE700BFE40D0020E50D0020A0
S1133F60B80D0020E60D002008B5FFF7DAF8054B80
S1133F701A68054B9A4204D0BDE80840022000F0BC
S1133F8009BC08BD8008002000B4C404014B43F8F8
S1133F9020107047E80D0020012A38B504460D466C
S1133FA003D10320C9B201F0DFFE04B1257038BD8E
S1133FB0F8B505460C461E468F18BC4200D1F8BD24
S1133FC02868324614F8011B28B1FFF7E5FF2B6877
S1133FD001332B60F1E7FFF7DFFFEEE7F8B50546A5
S1133FE00E4614461F46013C00D2F8BD28683A46E6
S1133FF0314628B1FFF7D0FF2B6801332B60F2E77D
S1134000FFF7CAFFEFE72DE9F0431F464B6806466A
S11340100D4685B0002B46D1302309248DF80D3090
S113402013E0B3FBF2F002FB1033013CE4B2D9B26B
S1134030092B04F110036B4494BF3031573103F85A
S11340400C1C68606B68002BEBD1AB7801AA02EB07
S11340500408C4F10A0943B36A7812F0010F14BFCB
S1134060302120214B45C5BF0A3BE4180024E4B2AB
S1134070920704D43B4622463046FFF7AFFF3B4647
S11340804A4641463046FFF793FFAB7843B16B781D
S11340909B0705D53B46224620213046FFF79EFF6D
S11340A005B0BDE8F0830A24CCE73B464A464146C6
S11340B03046FFF77DFFF3E72DE9F04F0E461D462E
S11340C01446002785B0DFF8948201903178324697
S11340D00136002900F03C8125290CD14FF000095C
S11340E0FF23CA468DF80830CE4649464B46CC4697
S11340F0ADF80A7009E0019808B1431C01932A46FF
S1134100FFF74AFFE2E7134632465078561C2E2842
S113411000F08D8026D823286CD02D2800F08A80CA
S1134120C0B34FF0010C6FF0010037E0A0F1700C48
S1134130BCF1080FF5D80FF2080B5BF82CF000BFA8
S113414095410000234100002341000095410000F7
S11341502341000095410000234100002341000059
S11341609541000039280DD82F28DAD013F0200FFC
S113417002D012782D2A44D1302842D143F00103D1
S1134180DBB23BE07828CCD86F28CFD864282ED86F
S11341906228C6D94FF0010C961C40B243F02002AD
S11341A0B0F1FF3FD2B2AED08DF80920BCF1000FC0
S11341B001D08DF80800BEF1000F01D08DF80B106E
S11341C0B9F1000F01D08DF80AA06F2835DC6428FE
S11341D000F09880692800F0958063287FF476AF1A
S11341E054F8041B01988DF80C10C9B284E76928AF
S11341F0D0D096E743F00803DBB2961C4FF0FF30B3
S1134200CCE75A0709D501EB810100EB4100A0F18D
S113421030014FF0010EC9B2F0E70AEB8A0A00EB55
S11342204A0030384FF001095FFA80FAE6E743F0BC
S11342300403A5E743F00203A2E7703808283FF619
S113424045AF01A252F820F039430000CD400000F0
S1134250CD4000006D420000CD400000334300001B
S1134260CD400000CD4000004543000054F8040B4D
S11342703B499DF80A20002818BF014603907AB9EB
S113428001F1FF3919F8011F00293FF41FAF01980C
S11342902A46A0B3FFF780FE019B01330193F1E7A7
S11342A08A4611F8019BB9F1000FF9D1AAEB000A73
S11342B05FFA8AFA524584BFA2EB0A025FFA82F9D6
S11342C09A0705D42B464A46202101A8FFF786FE0B
S11342D02B465246039901A8FFF76AFE9DF80A305F
S11342E0002B3FF4F3AE9DF809309B077FF5EEAE4B
S11342F02B464A46202101A8FFF770FEE6E6FFF7A9
S11343004BFEBFE754F8043B002B03930ADA0198F1
S113431008B1431C01932A462D21FFF73DFE039B60
S11343205B4203932B460A2202A901A8FFF76BFE06
S1134330CCE654F8043BF4E72B460222414601A89C
S1134340FFF736FE54F8043B102203932B46EBE7A9
S11343500846019B197005B0BDE8F08F566900004E
S11343604F6900000FB407B504AA52F8041B0123D7
S113437000200192FFF7A0FE03B05DF804EB04B047
S1134380704700004FF085430022DA61B122A3F1A7
S11343901F735A6050B10178294801F06FFB284C13
S11343A04021204601F0D3FA0028F9D0254B244CB3
S11343B09D6A4021204601F0CAFA0028F9D07821EC
S11343C01F4801F05BFB1E4C4021204601F0BFFA60
S11343D00028F9D020241A4E05F00101304641F09E
S11343E0300101F04BFB6D084021304601F0AFFA7B
S11343F00028F9D0013C14F0FF04EDD10A21104843
S113440001F03CFB0E4C4021204601F0A0FA0028AC
S1134410F9D00D210A4801F031FB094C4021204616
S113442001F095FA0028F9D0BFF34F8F0549064BE8
S1134430CA6802F4E0621343CB60BFF34F8FFEE718
S11344404001024000ED00E00400FA05024B1B6845
S113445003B11847704700BFE80D0020024B5B68AA
S113446003B11847704700BFE80D0020024B9B685A
S113447003B11847704700BFE80D0020024BDB680A
S113448003B11847704700BFE80D0020024B1B69B9
S113449003B11847704700BFE80D0020FEF7BCBF0A
S11344A0FEF7D0BF0022024B1A601A71704700BF9A
S11344B0040E002000210B46094A0631B429C2E942
S11344C0023313611360536102F11802F5D1054AF6
S11344D0C2E90233136113605361034B18607047E0
S11344E0500E0020380E0020200E0020014B1860D2
S11344F0704700BF340E002008B520B18047003853
S113450018BF012008BD0120FCE70000F0B5DDE97B
S113451005652AB1012A31D00122234B1A7028E003
S11345204FF0180EDFF884C00EFB02F454F80C7040
S113453007BB04344F1E644401F1030E17F8011F36
S113454019B1774504F8011BF8D1182100244A4316
S11345506B430CEB02014CF80200154A4B611368E3
S1134560C1E9026501330C611360124A1378013307
S11345701370F0BD01321E2AD6D1CDE70E4B1A6856
S1134580002AC9D14A1E1F1D033112F8014F1CB164
S11345908A4207F8014BF8D10022C3E902651A6187
S11345A018605D61E1E700BF280E0020500E002076
S11345B0180E00202A0E0020380E0020F7B52A4AD3
S11345C02A4C137821780133137000221546284BA6
S11345D01F68284B1E68284BBA4214D105B12170BC
S11345E0264B274D1B78274E274C13B3274B1B789C
S11345F02B70274B1B68336023680133032B236024
S11346001CD803B0F0BD1E2AE8D0186870B19868B1
S113461040B9C72984BF01250146D8689860186944
S113462001301861986808B1801B98600132183312
S1134630D2E7FF2233602A702360E2E74FF49D73D0
S1134640452200931F21134B1348FFF78BFE336859
S11346502A7821681148FFF785FE114803B0BDE8A8
S1134660F040FFF77FBE00BF290E00202411002078
S1134670180E0020200E0020500E0020300E0020C6
S11346807C0800202C0E00201C0E00207B0800203B
S1134690240E00209B69000059690000786900001D
S11346A0DE6300002C4B2DE9F047186800F078F821
S11346B0FFF784FF294D2A4E72B62B78003B18BFB2
S11346C0012362B6DFF89C807BB30027264CDFF819
S11346D09C9019E054F8042CA2B1E36893B1013B17
S11346E0E3600123DFF888A020698AF80030317084
S11346F0C9F8004090470023FF228AF80030327046
S1134700C9F8003001371834D8F80030F9B2BB4288
S113471001D91E2FDED172B62B78013BDBB22B7090
S1134720003B18BF012362B6CEE7124B93F9003069
S1134730012BC1D1104B93F90030002BBCD10F4B8E
S11347401B6898470028B7D00D4B1B680BB19847DE
S1134750B2E7BDE8F08700BF200E0020290E00203C
S11347607B080020180E0020540E0020240E002088
S1134770300E0020140E00207D080020201100209F
S1134780340E0020024A13680BB150691847704771
S1134790380E0020014B1870704700BF280E00200F
S11347A0FFF77CBE38B50C460546FFF779FEA847EF
S11347B0024A13682344136038BD00BF2811002047
S11347C0F0B5044685B000283DD0234D2E78012E47
S11347D03FD80378214F8DF8043043788DF80530A5
S11347E0C37801A88DF8073001238DF80630FDF752
S11347F091FA18225643B851A37A012B1DD12B7874
S113480002A802FB0373E2685A60228A1A81628A50
S11348105A8123798DF8083063798DF80930E3796A
S11348208DF80B30A3798DF80A30FCF759FB0C4B4B
S11348300C4A186013680133136018242B7804FBA6
S1134840037401332B7001222046074B1A7005B004
S1134850F0BD0024F7E700BF6811002038110020E4
S11348603411002030110020691100202DE9F34794
S1134870344D2B78022B4FD0032B54D0012B24D151
S113488002232B7021E03868FCF758FB18212E4ACC
S1134890C8F8000001FB04242289904239D36289BC
S11348A0904236D8294AD4F804A01060BAF1000F17
S11348B004D0FBF743FFD047C4E9040109F101091F
S11348C033685FFA89F4A342DDD8214B1B78702B3F
S11348D034D1032001F01EFA01282FD11D4B2421CD
S11348E01A681D48FFF73EFD174B2C78D3E90401E5
S11348F0FBF79EFF154B194A009021461B6812686E
S11349001748FFF72FFD174802B0BDE8F047FFF73F
S113491029BD03232B70D1E74FF00009124E134F2A
S1134920DFF83880CCE7124A13780133DBB2052B69
S11349301370A5D901220F4B1A70C6E702B0BDE867
S1134940F08700BF69110020381100207011002089
S1134950010E002028110020B86300006C11002013
S1134960B4690000DE63000030110020341100201F
S11349702C1100206A11002020B100F11001D1E9AE
S11349800001704700200021704710B10068FDF756
S1134990EFB97047002382B001930193019B1D2B53
S11349A001D902B07047019B0133F6E738B50546DB
S11349B003782B4CE97823704378807863702B79E3
S11349C0A07023716B79E1706371AB79A371EB799A
S11349D0E3712B7A23722B7A032B0FD8DFE803F0D1
S11349E00208383E00231F4A13701F4A137005E063
S11349F000221C4B1A7001221B4B1A700122FDF776
S1134A00A6FA002261792079FDF7A1FA01226178E2
S1134A102078FDF79CFA0122E179A079FDF797FA55
S1134A200122E178A078FDF7A0FA0022E179A079CB
S1134A30FDF79BFA237A6178012B94BF00220122AF
S1134A402078FDF792FAEB68E3602B7C237438BD81
S1134A500122044B1A700022034BCEE70123C2E764
S1134A607411002089110020881100200023F0B562
S1134A70394C85B0CDE90233237C012B1BD1C3090A
S1134A80420143EAC01302F040021343C20002F0A1
S1134A9020021343420002F010021343421002F0BA
S1134AA008021343C21002F004024011134300F041
S1134AB002001843C0B2002302A940FA03F20133F2
S1134AC002F00102082B01F8012BF6D10026234B3A
S1134AD001961D78019B072B02D9304605B0F0BD25
S1134AE0237A03F0FD03012B09D1B5FA85F56D098D
S1134AF02A4661782078FDF738FAFFF74BFFB5FABC
S1134B0085F7019BE17810336B4413F8082CA078E7
S1134B107F09FDF72AFA3A4661782078FDF725FAED
S1134B20FFF738FF61792079FDF72BFA237A40EA01
S1134B30460613F0FD0FF6B209D12F1E18BF012748
S1134B4061783A462078FDF710FAFFF723FF019BBE
S1134B503D4601330193BDE7741100208911002003
S1134B60024B0246D9799879FDF7FFB974110020F8
S1134B7000F010F9104B1148DA1C121AC11E22F071
S1134B800302994288BF00220D49FBF7F5FA0D4B49
S1134B900D48DA1C121AC11E22F00302994288BF82
S1134BA00022002101F0A2FBFEF7C6F972B6012132
S1134BB00648FFF7E7FB00BF880800200008002034
S1134BC0046B00003C15002088080020EB690000FD
S1134BD0034B1B6883F3088801210248FFF7D2FBCB
S1134BE000080020F9690000034B1B6883F3088860
S1134BF001210248FFF7C6FB00080020016A0000FB
S1134C00034B1B6883F3088801210248FFF7BAFBB2
S1134C1000080020056A0000034B72B69D4601217E
S1134C200248FFF7AFFB00BF000800200F6A000036
S1134C30034B1B6883F3088801210248FFF7A2FB9A
S1134C4000080020196A0000034B1B6883F30888DE
S1134C5001210248FFF796FB00080020226A0000A9
S1134C60024B012259781878FDF771B9941100208C
S1134C702DE9F0410E46194D194C80466978287883
S1134C8017460122FDF771F9617820780122FDF7BA
S1134C906CF9337828462B70B3786B700123EB7072
S1134CA0AB707278A3702270F2780E4E62700E4A66
S1134CB0E370974294BF072702273760FDF72EF968
S1134CC02046FDF72BF9FFF7CBFF404600F08EF8A6
S1134CD040463168BDE8F04100F08EB894110020E0
S1134CE0901100208C110020A08601001F4AD2F8E8
S1134CF00432ABB9D2F880011D491E4BD8B1D2F8A9
S1134D008820C2B10A6802F00702013A062A05D8CF
S1134D10DFE802F0070707090B0D0F00164A1A60B7
S1134D2070470022FBE7154AF9E7154AF7E7154AE9
S1134D30F5E7154AF3E70A6802F00702013A062A82
S1134D40F5D801A151F822F0234D0000234D0000B5
S1134D50234D0000334D0000654D0000694D0000F7
S1134D60234D0000094ADAE7094AD8E700408042A7
S1134D70000204408008002000B4C404005A620207
S1134D80002D310180969800404B4C00A025260050
S1134D90D01213000022114B1A604FF08542D269E1
S1134DA00AB9B1225A604FF480320D4B1A600D4A91
S1134DB05A6040F203129A600B4AD2F8881031B15B
S1134DC00121C2F88010D2F884100029FBD14AF2E4
S1134DD03F12DA6000221A61704700BF00000440ED
S1134DE0000204400401DE0700408042014B1860C9
S1134DF0FEF72ABB9811002070B50D46044688B909
S1134E000F4E01463068FEF7AFFB3068FEF7AEFB8D
S1134E1029463068FEF720FB05213068BDE8704064
S1134E20FEF7A2BB0021FEF79FFB2046FEF79EFB88
S1134E3029462046FEF710FB05212046EEE700BF79
S1134E409811002010B5FF2401F003010368C90084
S1134E508C4023EA04038A401A43026010BD0A43CB
S1134E600260704702234360836803F0010343F048
S1134E70800383604FF48C63C0F8D430704731B939
S1134E80436803F0020343F00103436070478368FF
S1134E9003F0800343F0010383607047C06829B9BD
S1134EA000F00200B0FA80F04009704700F0010001
S1134EB0F8E70000044B98420CBF044B044B53F832
S1134EC02130186880B2704700000340306A000047
S1134ED0606A0000072902D9C430FFF7B3BF032971
S1134EE08CBFC030BC30F8E7411E032988BF0020C6
S1134EF0044A98BF0330136823F007031843106073
S1134F00704700BF00020440034B044A1B6803F0CF
S1134F100703D05C704700BF00020440906A0000A1
S1134F20034A136823F4805343EA00331360704741
S1134F3000020440034B044A1B68C3F30033D05CF3
S1134F40704700BF00020440986A000038B50C4D59
S1134F5004462968FFF7EEFF012806D1002021F45A
S1134F60E06141EA0421296038BDFFF7CDFF0A283A
S1134F7004D0A04202D8241A052CEFD90120F3E76B
S1134F8000020440064A536823F07F4323F470036D
S1134F9023F4404323F0090343EA01535360704769
S1134FA0000204400122024BC3F88020704700BF76
S1134FB000408042034BD3F88400B0FA80F04009EB
S1134FC0704700BF00408042034BD3F88800431E63
S1134FD058425841704700BF0040804238B9054BE1
S1134FE001290CBFC3F8A010C3F8A000704701202A
S1134FF0704700BF00408042094A08B5D2F8A0308B
S1135000012B01D0012008BD10B9C2F88001FAE7D4
S1135010FFF7DAFF0128F5D1C2F880010020F2E79A
S113502000408042034BD3F88001431E584258414C
S1135030704700BF00408042012808B504D1074BE7
S1135040C3F88800002008BDFFF7ECFF18B9034B34
S1135050C3F88800F7E70120F5E700BF004080426D
S11350601FB500F003038008032816D8DFE800F01A
S113507002172C40284C1033206A6B44009013F81C
S1135080100C20F07100014303F8101C0098114328
S1135090206203F8101C009B236204B010BD1E4C58
S11350A01033606A6B44019013F80C0C20F071000B
S11350B0084303F80C0C0199616240EA020103F809
S11350C00C1C019B6362E8E7134C1033A06A6B4429
S11350D0029013F8080C20F07100014303F8081C37
S11350E002981143A06203F8081C029BA362D4E750
S11350F009481033C46A6B44039413F8044C24F035
S11351007104214303F8041C039C1143C46203F893
S1135110041C039BC362C0E700020440014B5861B6
S1135120704700BF000204400B282ED8DFE800F0CF
S1135130060F13181D1F21232527292B4FF0804309
S11351401B68DBB20B4214BF0120002070474FF0F4
S113515080431B6CF5E74FF08043D3F88030F0E7D1
S11351604FF08043D3F8C030EBE7094BE8E7084B36
S1135170EFE7074BF1E7064BF4E7064BE0E7054B97
S1135180E7E7044BE9E7034BECE70023DAE700BF6A
S113519000010040000200400B282AD8DFE800F09C
S11351A0060E16202A2C2E3032373C414FF0804018
S11351B00368DBB242B31943016070474FF080408B
S11351C0036CDBB22AB31943016470474FF080408B
S11351D0D0F88030DBB20AB31943C0F880107047AE
S11351E04FF08040D0F8C030DBB2E2B11943C0F8D0
S11351F0C01070470D48DBE70C48E1E70B48E7E7D0
S11352000A48EFE70A48D3E723EA0101D4E708484C
S1135210D6E723EA0101D7E70548D9E723EA0101E4
S1135220DBE70348DEE723EA0101E0E70001004091
S113523000020040FF2905D1C31EDBB2072B9CBF2F
S1135240404AD15C0A2833D8DFE800F006171F3340
S11352504C4E61636C7779004FF08043CA43986881
S1135260D2B210409860D8681040D860986B024061
S11352709A635A681143596070474FF08043CA4398
S1135280986CD2B2104098643AE04FF08043CA431D
S1135290D3F88800D2B21040C3F88800D3F8B8001D
S11352A00240C3F8B820D3F884201143C3F8841013
S11352B070474FF08043CA43D3F8C800D2B21040BD
S11352C0C3F8C800D3F8CC001040C3F8CC00D3F81E
S11352D0F8000240C3F8F820D3F8C4201143C3F8FF
S11352E0C4107047184BB9E7CA43174BD2B2986C35
S11352F010409864D86C1040D864186D104018653C
S1135300986F02409A675A6C1143596470470E4B68
S1135310BDE7CA430C4BD2B2D3F8C8001040C3F85F
S1135320C800D4E7094A936B23EA010303F0FF039F
S113533093635368194351607047044B9FE7034BD1
S1135340A5E700BFA46A000000010040000200407D
S1135350FF2905D1C31EDBB2082B9CBF484AD15C90
S11353600B2800F28B80DFE800F006171F334C4E49
S113537061636C77797B4FF08043CA439868D2B2FB
S113538010409860D8681040D860586802405A604D
S11353909A6B1143996370474FF08043CA43986CEA
S11353A0D2B2104098643AE04FF08043CA43D3F835
S11353B08800D2B21040C3F88800D3F884000240B9
S11353C0C3F88420D3F8B8201143C3F8B810704749
S11353D04FF08043CA43D3F8C800D2B21040C3F898
S11353E0C800D3F8CC001040C3F8CC00D3F8C400F4
S11353F00240C3F8C420D3F8F8201143C3F8F810CE
S11354007047204BB9E7CA431E4BD2B2986C104088
S11354109864D86C1040D864186D10401865586CA6
S113542002405A649A6F114399677047154BBDE760
S1135430CA43144BD2B2D3F8C8001040C3F8C80012
S1135440D4E7114A536823EA010303F0FF035360CE
S1135450936B1943916370470B4B9FE70A4BA5E786
S1135460094AD2F8C83023EA010303F0FF03C2F863
S1135470C830D2F8F8301943C2F8F810704700BFAA
S1135480AC6A00000001004000020040FF2905D181
S1135490C31EDBB2072B9CBF2A49C95C0A282DD83E
S11354A0DFE800F006131F2D3B3E4144474A4D0000
S11354B0012A4FF08042536801D1194303E023EAE3
S11354C0010101F0FF0151607047012A4FF0804251
S11354D0536C16BF23EA0101194301F0FF01516423
S11354E07047012A4FF08042D2F8843016BF23EA75
S11354F00101194301F0FF01C2F884107047012A29
S11355004FF08042D2F8C43016BF23EA0101194398
S113551001F0FF01C2F8C4107047012A0A4ACAE721
S1135520012A094AD4E7012A074ADDE7012A064A83
S1135530E8E7012A054ABEE7012A044AC8E7012A26
S1135540024AD1E7A46A00000001004000020040C2
S1135550FF2905D1C31EDBB2082B9CBF2C49C95CB3
S11355600B283CD8DFE800F00613202E3C3F4245D0
S1135570484B4E51012A4FF08042936B01D119439D
S113558003E023EA010101F0FF0191637047012A5E
S11355904FF08042936F01D1194303E023EA0101E4
S11355A001F0FF0191677047012A4FF08042D2F861
S11355B0B83016BF23EA0101194301F0FF01C2F814
S11355C0B8107047012A4FF08042D2F8F83016BF65
S11355D023EA0101194301F0FF01C2F8F8107047F2
S11355E0012A0C4AC9E7012A0A4AD3E7012A094ACF
S11355F0DDE7012A074AE8E7012A074ABDE7012A4D
S1135600054AC7E7012A044AD1E7012A024ADCE72E
S1135610AC6A00000001004000020040FF2905D1EF
S1135620431EDBB2092B9CBF2A49C95C0A282DD82A
S1135630DFE800F006131F2D3B3E4144474A4D006E
S1135640012A4FF08042D36A01D1194303E023EACF
S1135650010101F0FF01D1627047012A4FF080423D
S1135660D36E16BF23EA0101194301F0FF01D1668D
S11356707047012A4FF08042D2F8AC3016BF23EABB
S11356800101194301F0FF01C2F8AC107047012A6F
S11356904FF08042D2F8EC3016BF23EA01011943DF
S11356A001F0FF01C2F8EC107047012A0A4ACAE768
S11356B0012A094AD4E7012A074ADDE7012A064AF2
S11356C0E8E7012A054ABEE7012A044AC8E7012A95
S11356D0024AD1E79A6A000000010040000200403B
S11356E00B2869D8DFE800F006161E283C445558FC
S11356F0685B5E6111B1012906D070474FF08041AB
S11357008B681A438A6070474FF08041CB681A4314
S1135710CA60704700294FD14FF080418B6C1A4307
S11357208A647047002947D14FF08041D1F888300E
S11357301A43C1F88820704711B1012908D0704775
S11357404FF08041D1F8C8301A43C1F8C8207047DF
S11357504FF08041D1F8CC301A43C1F8CC207047C7
S113576011B1012902D070471449C9E71349CDE7A3
S1135770012904D0022907D0F1B91049CEE70F4915
S1135780CB6C1A43CA6470470C490B6D1A430A6503
S1135790704789B90949C9E771B90849D2E759B9C4
S11357A00749BBE741B90649C0E729B9044BD3F817
S11357B0C8100A43C3F8C820704700BF0001004066
S11357C0000200400B2841D8DFE800F0061C263216
S11357D04C546C704074787C11B1012909D0704725
S11357E04FF080418B6823EA020202F0FF028A60D4
S11357F070474FF08041CB6823EA020202F0FF02B7
S1135800CA60704711BB4FF080418B6C23EA0202DF
S113581002F0FF028A647047C1B94FF08041D1F8A9
S1135820883023EA020202F0FF02C1F888207047A0
S113583011B101290BD070474FF08041D1F8C83025
S113584023EA020202F0FF02C1F8C82070474FF0B9
S11358508041D1F8CC3023EA020202F0FF02C1F801
S1135860CC20704711B1012902D070471749B9E71C
S11358701649C0E7012905D002290BD00029E5D13A
S11358801249C2E71149CB6C23EA020202F0FF027B
S1135890CA6470470D490B6D23EA020202F0FF024D
S11358A00A6570470029D1D10849B8E70029CDD14C
S11358B00649C3E70029C9D10549A6E70029C5D18E
S11358C00349ACE70029C1D10149B7E70001004011
S11358D000020040036843F08003036070474160A6
S11358E07047C3680A6823F007030AB14A68134380
S11358F0CA681343C3600B6903628B6843627047D1
S1135900D1E90032134303617047C06980B2704724
S1135910836801290CBF43F0800323F08003836074
S1135920C36823F040031A43C260704783680129A7
S11359300CBF43F0010323F0010323F0620313437C
S113594083607047036843F0010303607047C069D4
S11359502029C0B203D0402904D1C0097047C0F344
S11359608010704700207047F8B50D46C2684B6838
S1135970496902F0B0020B43134343F00103C360CF
S1135980C369AA6803F0EF03134343F00403C3613C
S11359908368EA6803F09F03134383600446FFF7B8
S11359A0A5F9304B304A1B681268C3F30223DA406E
S11359B064230021022012095A43D5F800C000FBD9
S11359C00CF3B2FBF3F3A3F1C807B7F5AF6F01F122
S11359D0010635D86420B3FBF0F67043226998427F
S11359E04FEA01110CBF22F0400242F0400201F0E4
S11359F0300106F00F06314302F040020A43984298
S1135A0022610DD0C3F1640303441B01632B8ABFDD
S1135A1064220123B3FBF2F303F00F0362696361B1
S1135A202A69A369102A13D0202AE26842F02002CE
S1135A30E26014D103F0EF0303F0FE03A361F8BDA9
S1135A4026B17F2800D880003146B8E70220FBE762
S1135A50E26843F0100302F0DF02E260ECE743F097
S1135A601003E9E7000204408008002083684068CE
S1135A705B0003F48073C0B218437047C2684B08DC
S1135A8002F07F0203F080031343C9B2C360416094
S1135A907047806800F01C00082807D0102807D041
S1135AA0042807D0002818BF04207047022070473C
S1135AB00120704703207047034A136803F08603EC
S1135AC003431360704700BF0000044001284FF0F7
S1135AD0854316BF002298609A607047014608B556
S1135AE00068FFF7E9FF4FF085434A685A6008BD34
S1135AF04FF085430122DA6170474FF0854300225D
S1135B00DA61B122A3F11F735A6070474E22014B30
S1135B105A6070470000044007B50B88054AADF889
S1135B2000304B886946ADF80230FFF7A1F803B0A6
S1135B305DF804FBE093040038B5064C25681D2D80
S1135B4007D80320FDF7E2FD034B585523680133C2
S1135B50236038BDA0140020D811002003282DE9AB
S1135B60F04706460F4631D0DFF86C801B4D98F89D
S1135B70004091F8219004EB8403EA184FEA840A68
S1135B80E8545470B9F1000F1ED08868FAF726FF64
S1135B9001461348FBF72EF8FBF7C8F809F1010991
S1135BA04844C0B20023A2445544EB700123042EA0
S1135BB01C44A8702B7188F800400BD0394630463D
S1135BC0BDE8F047FDF7E0BC0120EBE70122054BFF
S1135BD01A70F3E7BDE8F087BC140020BD14002060
S1135BE000401C46840800202DE9F8433B4C3C4E01
S1135BF02368326805469A420AD93A4A0320D15C9E
S1135C00FDF762FD0022236801332360364B1A70CE
S1135C10326823689A4205D100230122236033604D
S1135C20314B1A70314B32491A680868314C904232
S1135C3004BF00221A604FF000032F4F2F4E08BFFD
S1135C400A60237023783A789A4201D8BDE8F88331
S1135C5003EB830E06EB0E01CA7888782A44D2B28D
S1135C609042CA702FD80020DFF89480254A58F853
S1135C70239052F823C0C870CC4528D916F80E00DA
S1135C80042807D01E21204A01FB032313F809101E
S1135C90FDF71AFD237858F82320013248F8232011
S1135CA0002203EB830333441A7123781748184AFC
S1135CB050F823C052F823108C4502BF002140F84D
S1135CC0231042F82310237801332370BAE748F8ED
S1135CD0230042F8230001230B71E6E7B4140020EB
S1135CE0B81400203212002084080020A0140020E0
S1135CF09C140020C7140020BC140020BD140020F4
