S113000000080020754D0000ED4D0000054E000075
S11300101D4E0000354E00004D4E00000000000053
S1130020000000000000000000000000D54D0000AA
S1130030D54D000000000000D54D0000A146000091
S1130040D54D0000E1460000D54D0000D54D00001F
S1130050D54D0000D54D0000D54D0000D54D000014
S1130060B1460000D54D0000D54D0000D54D00002F
S1130070D54D0000D54D0000D54D0000D54D0000F4
S1130080D54D0000D54D0000D54D0000D54D0000E4
S1130090D54D0000D54D0000D54D0000D54D0000D4
S11300A0D54D0000D54D0000D54D0000D54D0000C4
S11300B0D54D0000D54D0000D54D0000D54D0000B4
S11300C0D54D0000D54D0000D54D0000D54D0000A4
S11300D0D54D0000D54D0000D54D0000D54D000094
S11300E0C1460000D54D0000D54D0000D54D00009F
S11300F0D54D0000D54D0000D54D0000D54D000074
S1130100D54D0000D54D0000D54D0000D54D000063
S1130110D54D0000D54D0000D54D0000D54D000053
S1130120D54D0000D54D0000D54D0000D54D000043
S1130130D54D0000D54D0000D54D0000D54D000033
S1130140D1460000D54D0000D54D0000D54D00002E
S1130150D54D0000D54D0000D54D0000D54D000013
S1130160D54D0000D54D0000D54D0000D54D000003
S1130170D54D0000D54D0000844641EA000313F03C
S1130180030349D1403A23D30B6803604B684360AF
S11301908B688360CB68C3600B6903614B694361FF
S11301A08B698361CB69C3610B6A03624B6A4362E7
S11301B08B6A8362CB6AC3620B6B03634B6B4363CF
S11301C08B6B8363CB6BC36340304031403ADBD2EB
S11301D030320BD30B6803604B6843608B688360D9
S11301E0CB68C36010301031103AF3D20C3205D30F
S11301F051F8043B40F8043B043AF9D2043208D0E5
S1130200D2071CBF11F8013B00F8013B01D30B8856
S113021003806046704700BF082A13D38B07B1D010
S113022010F00303AED0C3F10403D21ADB071CBFE2
S113023011F8013B00F8013BA4D331F8023B20F84C
S1130240023B9FE7043AD9D3013A11F8013B00F885
S1130250013BF9D20B7803704B7843708B78837031
S11302606046704770B54FF0FF0C4CF4E06C1CEA2C
S113027011541DBF1CEA135594EA0C0F95EA0C0F98
S113028000F0DEF82C4481EA030621EA4C5123EA0B
S11302904C5350EA013518BF52EA033541F480113A
S11302A043F4801338D0A0FB02CE4FF00005E1FBED
S11302B002E506F00042E0FB03E54FF00006E1FB37
S11302C003569CF0000F18BF4EF0010EA4F1FF047A
S11302D0B6F5007F64F5407404D25FEA4E0E6D41BA
S11302E046EB060642EAC62141EA55514FEAC520CB
S11302F040EA5E504FEACE2EB4F1FD0C88BFBCF547
S1130300E06F1ED8BEF1004F08BF5FEA500E50F1F7
S1130310000041EB045170BD06F0004646EA0101BD
S113032040EA020081EA0301B4EB5C04C2BFD4EBEF
S11303300C0541EA045170BD41F480114FF0000EE8
S1130340013C00F3AB8014F1360FDEBF002001F056
S1130350004170BDC4F10004203C35DA0C341BDCD0
S113036004F11404C4F1200500FA05F320FA04F0A2
S113037001FA05F240EA020001F0004221F00041D6
S113038010EBD37021FA04F642EB06015EEA430E49
S113039008BF20EAD37070BDC4F10C04C4F1200579
S11303A000FA04F320FA05F001FA04F240EA02002C
S11303B001F0004110EBD37041F100015EEA430EFD
S11303C008BF20EAD37070BDC4F1200500FA05F21D
S11303D04EEA020E20FA04F301FA05F243EA02039C
S11303E021FA04F001F0004121FA04F220EA0200AB
S11303F000EBD3705EEA430E08BF20EAD37070BDF1
S113040094F0000F0FD101F00046400041EB0101D0
S113041011F4801F08BF013CF7D041EA060195F0B2
S1130420000F18BF704703F00046520043EB03036C
S113043013F4801F08BF013DF7D043EA0603704759
S113044094EA0C0F0CEA135518BF95EA0C0F0CD064
S113045050EA410618BF52EA4306D1D181EA0301AA
S113046001F000414FF0000070BD50EA410606BFA4
S11304701046194652EA430619D094EA0C0F02D1E9
S113048050EA013613D195EA0C0F05D152EA03362E
S11304901CBF104619460AD181EA030101F000414C
S11304A041F0FE4141F470014FF0000070BD41F095
S11304B0FE4141F4780170BD81F0004102E000BFCB
S11304C083F0004330B54FEA41044FEA430594EA10
S11304D0050F08BF90EA020F1FBF54EA000C55EA4B
S11304E0020C7FEA645C7FEA655C00F0E2804FEA1C
S11304F05454D4EB5555B8BF6D420CDD2C4480EAFE
S1130500020281EA030382EA000083EA010180EA2D
S1130510020281EA0303362D88BF30BD11F0004F7B
S11305204FEA01314FF4801C4CEA113102D04042B1
S113053061EB410113F0004F4FEA03334CEA1333EC
S113054002D0524263EB430394EA050F00F0A78004
S1130550A4F10104D5F1200E0DDB02FA0EFC22FAFF
S113056005F2801841F1000103FA0EF2801843FAF3
S113057005F359410EE0A5F120050EF1200E012AE4
S113058003FA0EFC28BF4CF0020C43FA05F3C01822
S113059051EBE37101F0004507D54FF0000EDCF19B
S11305A0000C7EEB00006EEB0101B1F5801F1BD344
S11305B0B1F5001F0CD349085FEA30004FEA3C0C48
S11305C004F101044FEA445212F5800F80F09A803E
S11305D0BCF1004F08BF5FEA500C50F1000041EB42
S11305E0045141EA050130BD5FEA4C0C404141EB46
S11305F00101013C28BFB1F5801FE9D291F0000F41
S113060004BF01460020B1FA81F308BF2033A3F1EF
S11306100B03B3F120020CDA0C3208DD02F1140CE6
S1130620C2F10C0201FA0CF021FA02F10CE002F121
S11306301402D8BFC2F1200C01FA02F120FA0CFC1A
S1130640DCBF41EA0C019040E41AA2BF01EB045163
S1130650294330BD6FEA04041F3C1CDA0C340EDC61
S113066004F11404C4F1200220FA04F001FA02F3A4
S113067040EA030021FA04F345EA030130BDC4F162
S11306800C04C4F1200220FA02F001FA04F340EA57
S11306900300294630BD21FA04F0294630BD94F008
S11306A0000F83F4801306BF81F480110134013DEF
S11306B04EE77FEA645C18BF7FEA655C29D094EA60
S11306C0050F08BF90EA020F05D054EA000C04BFDE
S11306D01946104630BD91EA030F1EBF00210020C9
S11306E030BD5FEA545C05D14000494128BF41F068
S11306F0004130BD14F580043CBF01F5801130BDCC
S113070001F0004545F0FE4141F470014FF0000056
S113071030BD7FEA645C1ABF194610467FEA655C07
S11307201CBF0B46024650EA013406BF52EA0335A9
S113073091EA030F41F4002130BD00BF90F0000F97
S113074004BF0021704730B54FF4806404F13204D3
S11307504FF000054FF0000150E700BF90F0000F8C
S113076004BF0021704730B54FF4806404F13204B3
S113077010F0004548BF40424FF000013EE700BF83
S113078042004FEAE2014FEA31014FEA02701FBF13
S113079012F07F4393F07F4F81F06051704732F045
S11307A07F4208BF704793F07F4F04BF41F400219C
S11307B0704730B54FF4607401F0004521F00041FA
S11307C01CE700BF50EA010208BF704730B54FF084
S11307D000050AE050EA010208BF704730B511F085
S11307E0004502D5404261EB41014FF4806404F1BD
S11307F032045FEA915C3FF4D8AE4FF003025FEA43
S1130800DC0C18BF03325FEADC0C18BF033202EBC6
S1130810DC02C2F1200300FA03FC20FA02F001FA20
S113082003FE40EA0E0021FA02F11444BDE600BFC3
S11308304A0011D212F5001211D20DD56FF478735B
S1130840B3EB62520ED44FEAC12343F0004343EAB0
S1130850505323FA02F070474FF00000704750EAFB
S1130860013002D14FF0FF3070474FF00000704765
S113087080F0004002E000BF81F0004142001FBF51
S11308805FEA410392EA030F7FEA226C7FEA236C5A
S11308906AD04FEA1262D2EB1363C1BFD21841404F
S11308A048404140B8BF5B42192B88BF704710F0E5
S11308B0004F40F4000020F07F4018BF404211F088
S11308C0004F41F4000121F07F4118BF494292EAF0
S11308D0030F3FD0A2F1010241FA03FC10EB0C001C
S11308E0C3F1200301FA03F100F0004302D54942A9
S11308F060EB4000B0F5000F13D3B0F1807F06D356
S113090040084FEA310102F10102FE2A51D2B1F14D
S1130910004F40EBC25008BF20F0010040EA030042
S11309207047490040EB0000013A28BFB0F5000FC2
S1130930EDD2B0FA80FCACF1080CB2EB0C0200FA78
S11309400CF0AABF00EBC25052421843BCBFD040C7
S11309501843704792F0000F81F4000106BF80F441
S113096000000132013BB5E74FEA41037FEA226C04
S113097018BF7FEA236C21D092EA030F04D092F0CF
S1130980000F08BF0846704790EA010F1CBF002003
S1130990704712F07F4F04D1400028BF40F0004060
S11309A0704712F100723CBF00F50000704700F080
S11309B0004343F0FE4040F4000070477FEA2262A7
S11309C016BF08467FEA23630146420206BF5FEA78
S11309D0412390EA010F40F4800070474FF0000378
S11309E004E000BF10F0004348BF40425FEA000C3F
S11309F008BF704743F0964301464FF000001CE0E7
S1130A0050EA010208BF70474FF000030AE000BF3C
S1130A1050EA010208BF704711F0004302D540427A
S1130A2061EB41015FEA010C02BF844601460020EC
S1130A3043F0B64308BFA3F18053A3F50003BCFA07
S1130A408CF2083AA3EBC25310DB01FA02FC6344B4
S1130A5000FA02FCC2F12002BCF1004F20FA02F2BB
S1130A6043EB020008BF20F00100704702F12002AE
S1130A7001FA02FCC2F1200250EA4C0021FA02F20F
S1130A8043EB020008BF20EADC7070474FF0FF0C14
S1130A901CEAD0521EBF1CEAD15392EA0C0F93EA0F
S1130AA00C0F6FD01A4480EA010C400218BF5FEAB1
S1130AB041211ED04FF0006343EA501043EA511124
S1130AC0A0FB01310CF00040B1F5000F3EBF49001E
S1130AD041EAD3715B0040EA010062F17F02FD2A22
S1130AE01DD8B3F1004F40EBC25008BF20F0010005
S1130AF0704790F0000F0CF0004C08BF49024CEA1C
S1130B00502040EA51207F3AC2BFD2F1FF0340EAAD
S1130B10C250704740F400004FF00003013A5DDC1E
S1130B2012F1190FDCBF00F000407047C2F100025F
S1130B30410021FA02F1C2F1200200FA02FC5FEA4C
S1130B40310040F1000053EA4C0308BF20EADC7096
S1130B50704792F0000F00F0004C02BF400010F408
S1130B60000F013AF9D040EA0C0093F0000F01F0B5
S1130B70004C02BF490011F4000F013BF9D041EAD7
S1130B800C018FE70CEAD15392EA0C0F18BF93EAD9
S1130B900C0F0AD030F0004C18BF31F0004CD8D103
S1130BA080EA010000F00040704790F0000F17BF8A
S1130BB090F0004F084691F0000F91F0004F14D0D0
S1130BC092EA0C0F01D142020FD193EA0C0F03D128
S1130BD04B0218BF084608D180EA010000F000402B
S1130BE040F0FE4040F40000704740F0FE4040F406
S1130BF0400070474FF0FF0C1CEAD0521EBF1CEAA5
S1130C00D15392EA0C0F93EA0C0F69D0A2EB0302C2
S1130C1080EA010C49024FEA402037D04FF080535C
S1130C2043EA111143EA10130CF000408B4238BF21
S1130C305B0042F17D024FF4000C8B4224BF5B1A2F
S1130C4040EA0C00B3EB510F24BFA3EB510340EA7D
S1130C505C00B3EB910F24BFA3EB910340EA9C002B
S1130C60B3EBD10F24BFA3EBD10340EADC001B019B
S1130C7018BF5FEA1C1CE0D1FD2A3FF650AF8B423F
S1130C8040EBC25008BF20F0010070470CF0004C4C
S1130C904CEA50207F32C2BFD2F1FF0340EAC25077
S1130CA0704740F400004FF00003013A37E792F038
S1130CB0000F00F0004C02BF400010F4000F013A96
S1130CC0F9D040EA0C0093F0000F01F0004C02BF91
S1130CD0490011F4000F013BF9D041EA0C0195E7FA
S1130CE00CEAD15392EA0C0F08D142027FF47DAF93
S1130CF093EA0C0F7FF470AF084676E793EA0C0F83
S1130D0004D14B023FF44CAF08466EE730F0004C80
S1130D1018BF31F0004CCAD130F000427FF45CAF10
S1130D2031F000437FF43CAF5FE700BF42000ED2D6
S1130D30B2F1FE4F0BD34FF09E03B3EB126209D412
S1130D404FEA002343F0004323FA02F070474FF0C8
S1130D500000704712F1610F01D1420202D14FF03D
S1130D60FF3070474FF00000704700BF10B50446D5
S1130D7040F2DC51806802F08DFCA268054B1A60D9
S1130D80E268054B1A602269044B1A606269044BDD
S1130D901A6010BD980800208C08002090080020DC
S1130DA09C0800202D4A70B52D4E04461068336807
S1130DB02C4D400800EB53002B783060012B2AD0D7
S1130DC01BD9023B012B31D9274B1B78612B43D113
S1130DD0032005F0A1F801283ED1244B24211A68F0
S1130DE0234803F0E9FB2A783168224803F0E4FB46
S1130DF0BDE87040204803F0DFBB204B1868044472
S1130E001C6041F287339C42DED900221B4B1A60DE
S1130E1001232B70D8E71A4B1B68002BD4D0194A36
S1130E20116898470028CFD00223F2E7144B1B68BF
S1130E30002BEAD0134A116898470028E5D00F4BDD
S1130E40114A18681268044494421C60BCD30022FE
S1130E501A602B780133DCE770BD00BFA0080020C6
S1130E608808002094080020F10E0020641500205A
S1130E709C650000AD650000C2650000A408002068
S1130E809C0800208C0800209008002010B5074C16
S1130E900021206802F086FC206802F085FC2068AE
S1130EA00521BDE8104002F07DBC00BF9808002079
S1130EB038B5094D286802F081FC0446286802F020
S1130EC01FFCB4FBF0F4054B28681C600021BDE84E
S1130ED0384002F067BC00BF98080020A00800203A
S1130EE070B5044610B3134D2B78052B20D8124E41
S1130EF081781A0106EB03139970C178D9700179CE
S1130F00197141795971002199600078B05462785F
S1130F105A70A1221A7302F0E1F96178207802F084
S1130F20EDF92B7806EB031401332B70204670BDCA
S1130F300024FBE709090020A808002028B1037B4E
S1130F40A12B01D1806870470020704770B5184DFF
S1130F50184C2B781A0104EB03135978A05C02F0A7
S1130F600FFA20B32B781A0104EB0313A05C597811
S1130F7002F016FA2E78330104EB06167178E05C61
S1130F8002F0ECF92B780C4A01331278DBB29A4266
S1130F902B709CBF00232B702B78B0601A0104EBDC
S1130FA00313A05C5978BDE8704002F0BDB970BD70
S1130FB008090020A80800200909002008B502201B
S1130FC000F030F9BDE8084000F032B9F7B500246C
S1130FD005262246CDE9004601234C494C4803F03E
S1130FE0BFFB2246CDE9006601234A494A4803F083
S1130FF0B7FB0A27012314251A46CDE900474749C0
S1131000474803F0ADFB2246CDE90045012345499D
S1131010454803F0A5FB2246CDE900450123434999
S1131020434803F09DFB2246CDE900450123414995
S1131030414803F095FBCDE90065224601233F4971
S11310403F4803F08DFBCDE90065224601233D496D
S11310503D4803F085FBCDE900650F2622460123B8
S11310603A493B4803F07CFB2246CDE90075012355
S11310703849394803F074FB2246CDE90075012351
S11310803649374803F06CFB224601950123354964
S11310903548009603F064FB4FF47A7322460195B9
S11310A0009332490123324803F05AFB40F2DF73C4
S11310B001956425224600932E4901232E4803F00E
S11310C04FFB22460123CDE900752C492C4803F03F
S11310D047FB22460123CDE900652A492A4803F04B
S11310E03FFB4FF4FA732246CDE90043274901231D
S11310F0274803F035FB01232246CDE90045254965
S1131100254803F02DFB03B0F0BD00BFC765000008
S1131110D5130000CB650000ED5D0000CF65000035
S11311204D1A0000D3650000791B0000D76500004C
S1131130912C0000DB650000A50D0000DE650000B9
S11311404D0F0000E2650000F1630000E665000059
S113115041150000EA65000029190000EE65000051
S113116009280000F1650000C5290000F5650000AC
S1131170AD2D0000F8650000013C0000FC65000096
S1131180E14A00000066000095400000046600008B
S11311907562000007660000BD0F0000704708B5C7
S11311A000F064FD00F0E2FD01F02AF901F041F9DC
S11311B001F055F901F076F901F086F901F0C2F970
S11311C001F05CFA01F07CFA00F0FAFD01F03CFA5F
S11311D000F062FD00F078FD00F098FD01F056F893
S11311E001F084F801F01CFA00F0D6FD01F0B2F829
S11311F001F036F901F08EF901F0F8F9BDE8084084
S113120001F088BA08B501F0DFF908BD002008B57F
S113121000F058FD002001F0D9F9002001F0FEF99A
S1131220FEE70000014B187001F0CAB80A0900205B
S113123001F040BA10B50C4B1A786AB901221A7041
S1131240FFF724FE202001F09FF903F0D5FBBDE851
S11312501040064B1B681847012AF6D100221A7069
S1131260FFF726FE3020EEE70B090020F00A0020ED
S113127007B5064804F00FFD8DF8070003209DF81C
S1131280073003B05DF804EB04F048BF40010240AE
S113129007B5064804F0FFFC8DF8070002209DF80E
S11312A0073003B05DF804EB04F038BF00010240DE
S11312B007B5064804F0EFFC8DF8070001209DF8FF
S11312C0073003B05DF804EB04F028BFC00002400F
S11312D00521014803F0A0BB1148000008B5002017
S11312E00A4902F07DFF0120094902F079FF02203A
S11312F0084902F075FF0320074902F071FFBDE8B9
S113130008400420054902F06BBF00BFD112000061
S1131310B112000091120000711200003512000099
S1131320014B1868704700BF0C09002008B5044B36
S1131330186802F08CF90122024B1A7008BD00BF34
S1131340140900202E09002013B5174A83880C467F
S1131350138032210023C2E901318168134A1160EC
S113136082788DF8062002788DF8042042788DF872
S11313700520C2788DF807200D4A13700D4A1370AA
S1131380FFF7D4FF01A800F02DFC9DF807209DF87D
S113139005109DF8040000F04CFC0122064B1C6073
S11313A0064B1A7002B010BD180900201409002061
S11313B02C0900202D090020100900202E090020EE
S11313C008B9FFF7B3BF024B186802F03DB900BF7C
S11313D014090020F8B5354C2178032933D00429A9
S11313E019D002295CD10025314B32491D70324B92
S11313F01B681B681B684B60304B186802F0DCF8F4
S1131400042128460122217000F013FCBDE8F840B5
S11314100120FFF7D5BF0C26294B254D1A682D78DE
S11314201044254A18601268126806FB05225268A7
S1131430904235D300221A60032310462370BDE87E
S1131440F84000F0F6BB0C271D4ADFF864C01368AF
S11314501844194B106019689CF800300E6807FB9B
S11314600365AD68A8421BD300251560154A0133F6
S11314701078154ADBB212688CF8003002EBC00217
S113148012799A4203D97B430A49F358B3E70F4AC6
S113149049791378994204D8FFF748FF0123237050
S11314A0F8BD013313700223F9E700BF2E090020B1
S11314B02C090020180900203009002014090020FC
S11314C0340900202F090020100900202D090020D4
S11314D00168134A10B511604168124A124C116038
S11314E08168124A124B1160C168124A1160027C71
S11314F0017F2270427C6270827CA270C27CE270A6
S11315000D4A117041690D4A1160826920461A60C2
S113151001F0D5FF2046BDE81040012101F0EDBFE8
S1131520780900208009002048090020740900205F
S1131530400900207C0900203C09002038090020D3
S11315402DE9F043A34C0546237897B0072B22D806
S1131550DFE813F008000F0015006500BE00270146
S11315602100380101219C4801F0C7FF01232370A9
S113157011E00021984801F0C0FF0323F7E7974BDF
S1131580974A18681268054495421D6003D30322E4
S1131590227000221A60934B1B78642B40F0178151
S11315A0032004F0B9FC012840F011818E4B242162
S11315B01A688E4803F000F88D4B8E4A1B688E48DB
S11315C011938E4B5979109119790F91D9780E9105
S11315D099780D9159780C911B780B93137B0A938E
S11315E0D37A0993937A0893537A0793137A0693D9
S11315F0D3790593937904935379039313790293DD
S1131600D37821780193937800935378127802F079
S1131610D3FF7B4817B0BDE8F04302F0CDBF6F4B5A
S1131620784F18680DF14B06284418600025A02354
S1131630CDE912558DF84830734BCDE914551B781C
S11316408DF84930714B1B6898478DF84A00E8B211
S11316503B6898470135042D06F8010BF7D16C4B14
S113166000261B6898476B4F8DF84F00F5B228464B
S11316703B68984716AB03EBD50313F8082C05F029
S11316800705A84001361043372E03F8080CEDD1A6
S1131690002212AE31461346013311F8010BDBB2BE
S11316A00F2B0244F8D10025524FDFF86C918DF8CE
S11316B0572016F8018B0135414699F80000EDB228
S11316C004F054FC102D07F8018BF2D104234EE7EB
S11316D0424ADFF844811368034498F80000136019
S11316E004F08AFC01284D4A44D100274C4E434D56
S11316F0317898F800002944176004F0B3FC33787B
S11317001844C0B2062830707FF645AF2B78A02B62
S113171001D005232BE73C496A780B789A4204D020
S1131720052323700023337035E7FF2A0EBF3B46A1
S1131730531CDBB20B7006220023A8792F4911F841
S1131740017B013A12F0FF023B44F8D1DBB298422C
S1131750E6D12B79E9781B0443EA0123A9780B43EA
S113176023490B602F4B69791970022323702E4B88
S11317701A60D7E72D4B10681B6805449D4215601D
S1131780FFF409AF0023136005222270244A13706A
S11317901A4A137053709370D37013715371937109
S11317A0F9E60E4B204A1868284418601368013380
S11317B0772B136001D90623D9E6632B7FF6DDAEC0
S11317C00023D4E60121044801F097FEE3E617B0B4
S11317D0BDE8F0834C09002048090020500900208E
S11317E038090020F10E0020641500209C650000DB
S11317F06C0900205C0900200B66000055090020DC
S1131800C2650000800900208509002078090020B5
S1131810740900207C0900203C0900207009002084
S113182084090020540900204409002040090020B4
S1131830004870476C0900200346F0B5094F1E1A92
S1131840B1424FEA12254FEA022402DC52BA90B2A6
S1131850F0BD13F8012B554037F81520624092B2C1
S1131860EDE700BF8466000010B40E4A4301D45C67
S113187002EB4011012C04D1013310BCD01801F04B
S113188041BE2CB1087BB0FA80F0400910BC70470F
S11318908B681A6801238340134023FA00F0C0B216
S11318A0F4E700BF8809002070B5044670B31C4EED
S11318B03378022B31D802781A4D5901012A05EBED
S11318C043136A5424D140785870A1789970627B8C
S11318D05A73002200F09FF93378217B05EB431201
S11318E011730021918391779161226958010AB99A
S11318F001222261D4E90421914238BF6261054486
S11319002A6162692C4601336A613370204670BDD6
S1131910002AE1D182689A60DEE70024F6E700BF7E
S113192086090020880900202DE9F84300264FF09D
S113193002083746234CDFF8909099F80030B34200
S113194001D8BDE8F88394F91C50012D15D0022D5F
S11319502CD06DB93046FFF787FF237B83420AD131
S1131960A369226901339342A36101D3012323773D
S113197001362034E1E7A561FAE73046FFF774FF4A
S1131980237B83420DD1A36962690133511CA36196
S1131990EED09342ECD384F81C8084F81D80A761B8
S11319A0E6E72777A761A5776577E1E73046FFF794
S11319B05BFF237B83420FBF25772777A761A5773A
S11319C0D6E700BF880900208609002010B190F9ED
S11319D01C0070474FF0FF307047000038B520B34B
S11319E0134D2B780E2B21D8124C017803EB830373
S11319F0E21851704178013391700121D170C1789E
S1131A00E018117100F0EEF82B7803EB8303234404
S1131A101A795878997800F00CF9D0222B7803EBD6
S1131A208300013322542B70204438BD0020FCE78E
S1131A30330A0020E809002028B10378D02B02D112
S1131A400171002070474FF0FF3070472DE9FF41CE
S1131A500024CDE90044214FDFF884800294CDF8BE
S1131A600B403B78E5B2AB4219D81E4B1B786F2B69
S1131A7031D1032004F050FA01282CD124211A4832
S1131A8002F09AFD0023194C194D237023780E2B74
S1131A9016D9184804B0BDE8F04102F08DBD05EB3D
S1131AA0850646443279B178707800F0C2F805F1C1
S1131AB010030DEB03053379013405F8103CD0E72E
S1131AC010336B4413F8101C284602F075FD23787C
S1131AD001332370DAE704B0BDE8F081330A002053
S1131AE0E8090020F10E002084680000F00E0020B8
S1131AF093680000C2650000F8B5044658B3184D59
S1131B002A78012A29D81C277A430168154EB15036
S1131B10B31802791A7142795A7182799A71C27929
S1131B20DA71C268DA600022C3E90422F1221A766B
S1131B3000F0F4FE227A211D206800F0F1FE2068F6
S1131B4000F009FF2068052100F003FF2B7807FB54
S1131B50036401332B702046F8BD0024FBE700BF6B
S1131B606C0A0020340A002028B1037EF12B01D135
S1131B7000697047002070472DE9F04781464FF017
S1131B800008DFF854A0154D9AF800305FFA88F782
S1131B90BB4201D8BDE8F0871C247C432E1972692E
S1131BA0F3689A420FD3285900F0CDFE30612859CA
S1131BB000F0CBFE285900F0CAFE0521285900F098
S1131BC0C8FE002373611C2303FB07535A6908F101
S1131BD001084A445A61D7E76C0A0020340A0020FD
S1131BE001F06CBC07B503788DF8043043788DF8A8
S1131BF0053083788DF80630C378012B84BF002329
S1131C00C370C17801A801F078FC01A801F057FC69
S1131C1003B05DF804FB07B58DF804008DF80510DA
S1131C2001A811468DF8062001F070FC03B05DF8A0
S1131C3004FB07B58DF804008DF8051001A81146C2
S1131C4001F05BFC03B05DF804FB07B58DF80400FC
S1131C5001A88DF8051001F055FC03B05DF804FBF4
S1131C60884294BF00200120704700007FB54FF4E4
S1131C707A73064A6846CDE90223054B0493054B63
S1131C800593FFF773F807B05DF804FB800101408A
S1131C90E0930400611C00001FB54FF482330193EC
S1131CA04FF40063ADF80830044B054901A80393D1
S1131CB0FFF74AFB05B05DF804FB00BF400001409C
S1131CC0E8690000FFF77CBB7FB541F20203ADF881
S1131CD0003044F62063059300230A4A8DF803304C
S1131CE001928DF80C3040F2032264236846049379
S1131CF0ADF8082000F04EFD034B186007B05DF806
S1131D0004FB00BF40010140700A0020F0B54FF40D
S1131D10E13301253027082600248BB001A90320D4
S1131D200393CDE9054407970496ADF8245004F0D5
S1131D3017F84FF4965303932023284601A9CDE9BD
S1131D40054307970496ADF8245004F009F84FF4BE
S1131D501653022001A9CDE905440393079704967D
S1131D60ADF8245003F0FCFF0BB0F0BD41F60F5268
S1131D7008B500200549FFF75FFD054BB3F8FE30B9
S1131D8083421EBF0122034B1A7008BDFEEF0200FE
S1131D9000EF0200740A0020032307B58DF8043015
S1131DA001238DF80530002301A88DF80730FFF7D3
S1131DB015FE024B186003B05DF804FB780A00209E
S1131DC07FB501238DF80C304FF0FF33059340F2BB
S1131DD00173ADF8003010238DF8023004236846F7
S1131DE00493FFF761FD024B186007B05DF804FB34
S1131DF07C0A0020014B185C704700BF810A002058
S1131E00014B1878704700BFB80A0020014B185CDA
S1131E10704700BF00080020014B1878704700BFCE
S1131E20800A0020232800F2AB81DFE810F02B00A9
S1131E30320055017B0139006500A9019A006C004C
S1131E407300880091007A008100A100A901A90112
S1131E508201AA012400A901A901B301BC01A901BD
S1131E60C501CC01D301DC01E501F701EE0100025B
S1131E70090212021F02AA4B09B99976704701227E
S1131E809A767047A64B09B9D97570470122DA755D
S1131E907047A34B09B99975704701229A75704729
S1131EA09F4B29B959749974D97419755975704728
S1131EB0012906D1002259749A74DA741A755A7574
S1131EC070478A1E012A04D801225A749A74002287
S1131ED0F3E70A1F012A05D801225A749A74DA74A6
S1131EE00022EBE70122063901295A749A74DA7444
S1131EF01A75E4D80022E2E7894B09B919747047CE
S1131F0001221A747047864B09B959767047012229
S1131F105A767047824B09B91976704701221A76AE
S1131F2070477F4B09B9D97770470122DA77704738
S1131F307B4B09B99977704701229A777047784BA0
S1131F4011B983F823107047012283F823207047C6
S1131F50734B11B983F822107047012283F82220B1
S1131F6070476F4B09B9D97670470122DA7670470A
S1131F7069B96B4B1972997219709971D972997008
S1131F80D971D970597059725971197170470529ED
S1131F900FD10022624B1A729A721A709A71DA7215
S1131FA09A70DA71DA705A705A725A7101221A717F
S1131FB0704702290ED100220121594B1A729A72DC
S1131FC01A709A71DA729A70DA71DA7059705A72F8
S1131FD05A71ECE703290CD100220121504B1A72EB
S1131FE09A721A709A71DA729970DA71DA705A7098
S1131FF0EDE7012908D10022494B1A729A7219702F
S11320009A71DA729A70F0E706290ED10022012142
S1132010434B1A729A721A709A71DA729A70DA7160
S1132020DA705A705A725971C1E704290BD100222F
S113203001213B4B1A729A721A709A71DA729A7071
S1132040DA71D970D3E70C2908D100220121344B6D
S11320501A729A721A709A71D972D3E70B2906D13F
S1132060002201212E4B1A7299721A70C8E70A29AC
S11320700DD1002201212A4B1A729A721A709A7198
S1132080DA729A70DA71DA705A705972A0E7082914
S11320900AD100220121224B1A729A721A709A7183
S11320A0DA729A70D971A1E7072907D100220121B8
S11320B01B4B1A729A721A709971A2E7092905D1F9
S11320C00122174B1A7200229A72CEE7FF2957D1C8
S11320D00122134B1A72F7E721B9114B5973997303
S11320E0D9737047012904D100220D4B59739A7397
S11320F006E0022906D100220121094B5A73997383
S1132100DA737047032905D10022054B5A739A7379
S11321100122F5E7FF2933D10122014B5A73E6E787
S1132120810A0020584B09B91973704701221A73A8
S1132130704741B90022544B83F8272083F82820A4
S113214083F829207047012904D14F4B002283F8DA
S11321502710F3E7022907D1002201214A4B83F813
S1132160272083F82810EBE7032907D10022464BE8
S113217083F8272083F828200122E1E7FF29D9D01A
S11321807047414B11B983F826107047012283F838
S1132190262070473C4B11B983F825107047012263
S11321A083F825207047384B11B983F82410704701
S11321B0012283F824207047334B09B959777047BB
S11321C001225A777047304B09B9197770470122B9
S11321D01A7770472C4B11B983F8211070470122EC
S11321E083F821207047284B11B983F820107047D9
S11321F0012283F820207047234B11B983F82A1059
S11322007047012283F82A2070471F4B11B983F8C5
S11322102B107047012283F82B2070471A4B11B9F9
S113222083F82C107047012283F82C207047164B3A
S113223011B983F82D107047012283F82D207047BF
S1132240114B11B983F82E107047012283F82E2008
S113225070470D4B21B983F8301083F82F10704765
S1132260012283F8302083F82F207047064B21B9D0
S113227083F8321083F831107047012283F832203A
S113228083F831207CE700BF810A00204FF48832B4
S11322903C2300B589B0CDE904234FF47A73069347
S11322A002238DF81C300C4B684600930B4B0393B0
S11322B00B4B01930B4B0293FFF70AF922220A4BB3
S11322C0012123201A705A709A70DA70FFF7AAFD60
S11322D009B05DF804FB00BF011E0000F51D0000FD
S11322E00D1E0000191E000000080020062307B57B
S11322F08DF8043010238DF80530002301A88DF8E3
S11323000730FFF76BFB024B186003B05DF804FB6A
S1132310BC0A00200000000038B504460D46FEF754
S113232087FAB2280BD908A3D3E90023204629460B
S1132330FDF798FF0022064BFEF7C2F838BD0020D7
S11323400021FBE7AFF3008082E2C798BB96A03F71
S11323500000174040F6020310B58AB0ADF8003013
S113236001238DF80A300F4B002403934FF0C86308
S113237004930D4B684601938DF8034002F05AFB19
S11323800A4B8DF81740186040F2022305A8ADF8F7
S113239014308DF81E4002F04DFB054B18600AB056
S11323A010BD00BF1923000001070910C00A002056
S11323B0C40A0020014B186802F0E0BBC00A0020E8
S11323C010B5044658B90C4B2146186802F0DFFBDF
S11323D00021BDE81040094B186802F0D8BB012861
S11323E0F1D0022806D1044B0121186802F0CFFB7A
S11323F00121EEE710BD00BFC00A0020C40A00207E
S113240010B50124D4B08DF804408DF80C40FFF7CA
S11324100FFA20239621029014AA013B42F8044BA0
S113242013F0FF03D167F8D101A800F069FB54B0A1
S113243010BD7FB501238DF80C304FF0FF330593A9
S113244040F60113ADF8003008238DF80230042360
S113245068460493FFF728FA07B05DF804FB704759
S113246040F2054300B589B0ADF8003041F288333D
S11324700793002301228DF810304FF0FF33CDE98C
S1132480052303238DF8033040F20123ADF8043013
S1132490402368468DF8063000F060FA09B05DF814
S11324A004FB000007B56B46054A1068516803C376
S11324B06946044803F032FC03B05DF804FB00BF36
S11324C094650000C000014000230E480E4AC3601A
S11324D0012303740D4B40F21451C0E9002302237D
S11324E003720B4B436140F2011303831E23837673
S11324F040F6FC03C0E907134FF4FA63436200F0AB
S113250011BC00BFC80A0020078009010801074068
S1132510010720011FB501234FF4FA728DF8003032
S11325204FF47A73CDE9012311238DF80C30FEF7B3
S1132530F7FEADF80E00684601F042FB05B05DF809
S113254004FB0000072307B58DF8003002238DF843
S1132550013000238DF802308DF8033001238DF80B
S113256004308DF8053030238DF806300423684696
S11325708DF8073003F014FF024B186003B05DF8C8
S113258004FB00BFF00A0020072307B58DF80030D4
S113259002238DF8013000238DF802308DF80330CA
S11325A001238DF804308DF8053004238DF80600DE
S11325B068468DF8073003F0F3FE024B186003B051
S11325C05DF804FBF00A002003F08CBF10B504464C
S11325D0024604210220FFF72CFB034B2146BDE8F1
S11325E010401868FFF728BAF40A0020022313B534
S11325F08DF80430042300240DEB03008DF805301E
S11326008DF80740FFF7EAF9034B18602046FFF7FF
S1132610DDFF02B010BD00BFF40A002070470000C7
S1132620022307B58DF8043020238DF805300023EC
S113263001A88DF80730FFF7D1F9024B186003B0F9
S11326405DF804FBF80A00207FB501238DF80C30F7
S11326504FF0FF33059340F20173ADF800300823C7
S11326608DF80230042368460493FFF71DF9024BEA
S1132670186007B05DF804FBFC0A00207FB5084B26
S1132680084A0393084B01A8CDE90423074B01939F
S113269001F0C6FC064B186007B05DF804FB00BFF0
S11326A04C6A000064000010F401010001080920D4
S11326B0000B002008B5FFF77DFEFEF7B9F808BD52
S11326C000B5114B8BB001934FF48073ADF8083013
S11326D000238DF80C304FF4FA7304930B4B46F639
S11326E0605205930D238DF8183045F24013CDE95F
S11326F007230223064A01A81360099303F080FD0F
S11327000BB05DF804FB00BF00000140040800208A
S1132710040B002030B580230425002485B06846CE
S11327208DF801308DF800508DF80340FFF756F90D
S1132730144B8DF80740186002238DF804300123F0
S11327400DEB05008DF80530FFF748F90E4B8DF8B9
S113275008501860202302A88DF809308DF80B402A
S1132760FFF73CF9094B8DF80C501860402303A87F
S11327708DF80D308DF80F40FFF730F9044B1860D9
S113278005B030BD080B00200C0B0020140B0020FA
S1132790100B002070B5044686B050B3174E337842
S11327A053BB40F20332164DAA8042692B73AA60D0
S11327B003788DF8043043788DF80530C37801A888
S11327C08DF80730FFF70AF96368286002932389BC
S11327D002A8ADF80C30237B8DF8103023690593E3
S11327E0FFF78AF9074B1860337805EB03140133BC
S11327F03370204606B070BD0024FAE72C0B00208D
S11328001C0B0020180B00203F4B2DE9F04105461E
S11328101868FFF7A9F90A273C4C47436379042B4E
S113282014D8DFE803F0151019035D002379012B98
S113283004D1092F05D90423637107E033B9092FA3
S1132840FAD90223F8E72379002BFAD0BDE8F08106
S11328502379012BFAD1F4E701212068FFF7ECF882
S11328602679012E26D14FF00008294B092FC3F8F1
S11328700080284B11D9A3F8008041F66313264F3A
S1132880386805449D423D60E0D941462068FFF721
S1132890D3F86671C7F80080D8E718880544ADB24C
S11328A01D80A3689D42D1D300221A4B1A800123B4
S11328B02373CBE7002EC9D1174B092F1E60154B8C
S11328C0EBD8134F1E8038680544B5F57A7F3D6018
S11328D0BCD331462068FFF7AFF866713E60B5E7B8
S11328E001212068FFF7A8F8092FAFD8084B186812
S11328F00544B5F57A7F1D60A8D300212068FFF751
S11329009BF8002398E700BF180B00201C0B002045
S1132910300B0020380B0020340B002000F0B2BE36
S113292007B50B788DF804304B788DF805308B782B
S11329308DF80630CB7801A98DF8073000F000FF40
S113294003B05DF804FB00F039BF00F034BF00F0C1
S11329502BBF00F027BF00F023BF000013B503789E
S113296004468DF8043043788DF80530C37801A807
S11329708DF80730FFF732F80A4B18600A482379BC
S11329800370237C037363794370A3798370636951
S11329900361A3694361FEF787FF044B186002B02B
S11329A010BD00BF400B00204C0B0020440B002046
S11329B008B5034B1868FFF709F8C0B208BD00BF9B
S11329C0440B002038B5394C0546FFF7F1FF237856
S11329D0042B0FD8DFE803F0033711222B00344B0C
S11329E01B7B984207D1334B01211868FFF724F869
S11329F00423237038BD0323FBE72F4B1B78032BE1
S1132A0003D02B4B1B7B9842F4D004232370294B17
S1132A1001211868BDE83840FFF70EB8264B1B7833
S1132A20022BF2D0224B1B7B9842E3D1EDE7214BE2
S1132A3000211868FFF700F801234FF4FA622370AD
S1132A401E4B1A60D6E71C4B1A78194B1B7B984215
S1132A501B4B0DD0032A1FD12270002217490A6094
S1132A601A801B88052BC5D90122164B1A70C1E7A1
S1132A70032A09D1114A1068451B15600DB90222B9
S1132A8022701A880132EBE7022AEAD1227000226E
S1132A900A491A800A60ADE7022AE2D1074A10689F
S1132AA0451B1560002DECD10322E9E73D0B002006
S1132AB04C0B0020400B00203E0B0020480B002054
S1132AC03A0B00203C0B00200C4A1378022B05D152
S1132AD0104490F82B10807AFFF7B7B8012B04D07C
S1132AE0107AB0FA80F04009704752688340126847
S1132AF0134023FA00F0C0B2704700BF700B0020EF
S1132B00F8B50378244D027A022B04462B702A72FE
S1132B103ED190F82A100122407AFFF77CF8637ABC
S1132B2004F10A066B7294F82A300A3585F82030CD
S1132B3004F12A0716F8010B002296F82010FFF77B
S1132B406AF816F8013CBE4205F8013B96F82030BD
S1132B5085F82030EED100210126104B104804F1F5
S1132B604C02CC34196019715971997152F8045B93
S1132B7040F8045B0DB942F8046CD76F52F8045C5A
S1132B800833AF422CBFC767C567A242EAD1F8BD7C
S1132B9043686B60DFE700BF700B0020BC0C0020B3
S1132BA0BC0B00202DE9F84F00274FF00209344CEC
S1132BB0DFF8D080DFF8D0B0DFF8D0A004EBC00499
S1132BC008EB800694F90450F8B2012D25D0022DAB
S1132BD042D0CDB9FFF778FF98F80830834208BF98
S1132BE02568F36C08BF0135AB4225600CD801237E
S1132BF023716371DAF800300133CAF80030DBF86E
S1132C0000300133CBF800300137202F04F10804E1
S1132C1006F10406D6D1BDE8F88FFFF755FF98F802
S1132C20083083420ED12368013323602268D6F82A
S1132C30CC309A42E8D3002384F8049084F80590B9
S1132C402360E1E70022DBF800302271013BCBF87E
S1132C5000302260A571E9E7FFF736FF98F80830E5
S1132C6083421BBF0022DBF80030257103F1FF33E0
S1132C701FBF2271CBF800302260A571C4E700BFEA
S1132C80BC0C0020700B00206C0B0020680B002093
S1132C9038B50B4B1A7892B10A4C022A257809D11F
S1132CA0587A93F82A101A7A15B1B2FA82F25209B4
S1132CB0FEF7BFFF2078FFF775FF0023237038BDB0
S1132CC0700B0020640B0020F7B50E460446144D2B
S1132CD01746287802F046F844EA0600C043C0B21A
S1132CE001F0C6FF9EB9F843C0B201F0C1FFC4436E
S1132CF0E4B22878B0FA80F0400902F033F80023F7
S1132D000193019BC72B08D9204603B0F0BD802E48
S1132D1001D1FF20E9E70024EBE7019B0133EFE752
S1132D20C40D002010B50446C36886B0026804933D
S1132D30037C01928DF814304268037A01A8029250
S1132D408DF80C3001F034FF1048E37D8370637D0F
S1132D500370A37D4370237EC370FEF743FF227D7F
S1132D600B4B1A70A27E0B4B1A70627E0A4B1A70C0
S1132D70E2690A4B1A60226A094B1A60626A094BBB
S1132D801A600122084B1A7006B010BDC00D002055
S1132D90C40D0020C80D0020C60D0020FC0D00202D
S1132DA0000E0020040E0020CE0D00202DE9F0437B
S1132DB08C4C054623788FB0013B092B23D8DFE8E0
S1132DC013F00A0068007C0088009300B100CF0073
S1132DD0ED00C601D001844B012218785978FEF722
S1132DE028FF824B186828441D2818600BD9022339
S1132DF04022002118202370FFF766FF8022002163
S1132E001920FFF761FF7A4B1B786D2B40F0BE81D0
S1132E10032003F081F8012840F0B881754B242188
S1132E201A68754801F0C8FB744B754A1B787548DD
S1132E300C93754B1B780B93744B1B780A93744B50
S1132E401B780993734B1B780893734B1B78079378
S1132E50724BB3F904100691B3F902100591B3F95A
S1132E60003004936E4B99680391596802911B6872
S1132E7021780193B2F904300093B2F90230B2F927
S1132E80002001F099FB67480FB0BDE8F04301F062
S1132E9093BB142280210F20FFF716FF552205460D
S1132EA080210C20FFF710FF552840F05881142D85
S1132EB040F0558103232370A5E7022200211B2043
S1132EC0FFF702FFC02200211820FFF7FDFE0423B4
S1132ED0F1E7554A1368132B02D80133136092E7C4
S1132EE0002313600523E6E7504E307801F03AFFE3
S1132EF0792001F0BDFEFF2001F0BAFE0546FF2057
S1132F0001F0B6FE45EA002530782DB2B0FA80F023
S1132F103B4B002DB8BF6D421D80400901F022FFDC
S1132F200623C8E7414E307801F01CFF772001F0FA
S1132F309FFEFF2001F09CFE0546FF2001F098FE55
S1132F4045EA002530782DB2B0FA80F02C4B002DE4
S1132F50B8BF6D425D80400901F004FF0723AAE772
S1132F60324E307801F0FEFE752001F081FEFF2024
S1132F7001F07EFE0546FF2001F07AFE45EA0025B9
S1132F8030782DB2B0FA80F01D4B002DB8BF6D42E1
S1132F909D80400901F0E6FE08238CE7224D184B82
S1132FA02E68B3F900E0B3F90200B3F904101C4B26
S1132FB00F2E1A683ED801362E605D68724428448C
S1132FC09D68102E29441A60586099608AD11211A4
S1132FD0001109111A6058609960154B1A805880C5
S1132FE099807FE7CE0D0020C00D0020F80D002051
S1132FF0F10E0020641500209C650000CA0D00201D
S1133000DE0D0020166B0000C60D0020CD0D002043
S1133010CC0D0020CB0D0020C80D00206E08002030
S1133020E80D0020C2650000BC0D0020C40D002086
S1133030D60D0020574DDFF860C1B5F90060764524
S1133040B5F90260B8BFA5F800E08642B5F904609E
S1133050B8BF68808E42B8BFA980504D504E2D68CD
S11330602A4472454F4D0DDB4F4FD3F804803F681F
S11330704744B84206DC4D4FD3F808803F684744C4
S1133080B9422DDD4A4F97F80080B8F1000F27D0E0
S1133090484A4949137809780133DBB299421370DD
S11330A00CD8464B1B784BB1002301211370444AC2
S11330B08CF8003033702B7011703B7032789CF8B0
S11330C0003013442A7813443E4ADBB213703E4A5C
S11330D012789A423EBF0122354B1A700923EAE660
S11330E0DFF8E8809CF80070B8F90090F14505DA43
S11330F0A8F800E001378CF80070DFE7724501DAC8
S11331000237F8E7B8F902203778824204DAA8F8DF
S1133110020001373770D1E7234AD3F804E012687C
S11331207244904201DD0237F4E7B8F904002A78CA
S1133130884204DAA8F8041001322A70BEE71B485A
S11331409B68006803449942B8DD0232F5E75522D2
S113315080210C20FFF7B8FD55283FF4C3AE0A23A5
S1133160A9E61B4A13680133042B13604FF00103D3
S113317009D800222370174B1A60174B5978187816
S1133180FEF757FD3FE6154A13703CE60FB0BDE865
S1133190F08300BF6E080020CB0D0020FC0D002042
S11331A0CC0D0020CD0D0020000E0020040E0020C8
S11331B0D40D0020CA0D0020C60D00206C0800208C
S11331C0C90D0020C50D0020C80D0020D60D00201B
S11331D0D00D0020F80D0020C00D0020C70D0020E8
S11331E007B5FDF7DBFF72B603F008F802F0F5FF50
S11331F0FEF7F6FCFFF792FB00F0E0FFFEF76EF837
S113320001F07AFA052001F07FFA274801F098FAD4
S1133210002205232549CDE900232548012301F097
S11332209FFAFDF7BCFFFDF7D1FE62B6214C2046A4
S113323001F08CFA0028FAD002F0DEFF39221E4D8C
S11332401E4C20212B6801921D484922009401F054
S1133250B3F91C4801F0B0F91B4801F0ADF93A226A
S11332602B682021CDE900421548492201F0A4F938
S113327006220021154801F09FF9134801F09CF93A
S11332803B222B682021CDE900420D48492201F060
S113329093F90F4A0F49104801F08EF90A4801F0DA
S11332A08BF901F039FBFEE70D120000A66B00005C
S11332B0F56100000512000064150020396C00005F
S11332C0AA6B0000CC6B0000C2650000EA6B000032
S11332D0066C0000126C00001B6C000010B4054B5F
S11332E0054C0322012814BF20461846482110BC6F
S11332F001F0B7BE000203400000034010B5084BC4
S1133300084C41F08002012808BF1C4600212046D9
S113331001F0E2FE2046BDE8104001F0A5BE00BF6A
S1133320000203400000034010B50A4B0A4C41F070
S11333308002012808BF1C460021204601F0CCFE73
S1133340204601F091FE2046BDE81040002101F026
S113335098BE00BF000203400000034008B5064ABF
S1133360064B0021012814BF1046184601F0A4FEA4
S1133370C0F30B1008BD00BF00000340000203406F
S113338008B5054A054B0021012814BF104618460C
S113339001F086FE08BD00BF0000034000020340A8
S11333A0704708B5012001F049FF68B94FF4FA717C
S11333B001F0EAFE01F0F8FE01F0FEFE0128FBD167
S11333C0BDE8084001F01ABF08BD08B5002001F0AF
S11333D08DFE002001F0A6FE002001F0B9FE0121BF
S11333E0002001F0FDFEBDE80840FFF7DABF000051
S11333F010B50446407901F093FF002162782078EB
S113340002F070FA01226178207802F0A3F9012217
S1133410A178607901F026FF63790F2B0ED8DFE8DD
S113342003F0080E1114171A1D23262A2E32363DD6
S1133430414501221F4BC3F880211A6010BD0222AE
S11334401C4BF8E704221B4BF5E70822194BF2E763
S11334501022184BEFE72022164BECE74022154BC5
S1133460C3F884215A60E9E78022124BF8E74FF051
S11334708062104BF4E74FF000620E4BF0E74FF020
S113348080520C4BECE74FF000520A4BE8E74FF444
S11334908062084BC3F888219A60CFE74FF400623A
S11334A0044BF7E74FF48052024BF3E74FF400521A
S11334B0004BEFE700E100E001F032BF704738B5A0
S11334C08578044615B1012D10D038BD41780078B7
S11334D002F040F829466278207802F075FA6278A2
S11334E020780121BDE8384002F06EBA41780078B6
S11334F001F0A2FF00216278EEE70A4641780078E5
S113350001F04CBF4178007801F010BF10B50B46B4
S11335100446007861786BB1012B0ED06278207874
S1133520002102F051FA627820780121BDE81040B0
S113353002F04ABA02F00EF8F0E701F07DFFEDE781
S113354010B50446032936D8DFE801F00213192424
S113355042780021007802F037FA0121627820785D
S113356002F032FA627820780221BDE8104002F0BD
S11335702BBA42780021007802F0B4F9EDE74278E2
S11335800021007802F020FA01216278207802F00C
S1133590A9F9E7E742780021007802F015FA627889
S11335A02078012102F010FA627820780221BDE827
S11335B0104002F097B910BDF0B54B68204F8E68EB
S11335C0B7FBF3F70A235F4364230C467E430546A7
S11335D0B6FBF3F62078497889B001F02DFF194B3A
S11335E062789D422078A7EB060602D040339D42C4
S11335F024D1012102F076F961782078012202F0C9
S11336000FF9012402230422CDE9034301930C237F
S11336102846CDE905720293079602F05DFA284622
S113362003A902F060FA284601A902F06BFA00220D
S11336302146284602F06EFA09B0F0BD0021D9E710
S113364040420F0040010140052102F04ABA002126
S113365002F047BA084B58430138B0F1807F0AD2D0
S11336604FF0E023E021054A586182F8231000223C
S11336709A6107221A6170478038010000ED00E06A
S11336807047000040F6C412014B1A60704700BF37
S1133690080E002040F2666370B5994205460C4658
S11336A086B025D941F23232A1F26763934295BFC5
S11336B0082020200226032601230193FDF78EF91A
S11336C001460D48FDF796FA0C49FDF793FAFDF70C
S11336D02DFB042344432846CDE90434CDE9026498
S11336E002F0FAF9284601A902F0FDF906B070BD0E
S11336F002200126E0E700BF8096984C002474491C
S113370008B5C36803F00303012B11D0022B11D0B9
S1133710032B14BF02202020FDF760F90146064860
S1133720FDF768FA0549FDF765FAFDF7FFFA08BDEC
S11337300220F1E70820EFE78096984C00247449B2
S1133740F0B5002604460D4687B01746CDE901665C
S1133750CDE90366059602F0BFF93146204602F032
S1133760C0F96978287801F0F5FE0C4B9C4202D030
S113377040339C4210D102212846FFF7E1FE204647
S113378001A902F0B0F93A460021204602F0D0F92E
S11337900323236107B0F0BD0121EDE7400101409F
S11337A002F09AB902F09DB94369436982B001936A
S11337B0019B02B07047002102F093B908B502F0F2
S11337C0A6F908BD30B50C46054687B0002830D1AF
S11337D001220420114601F05BFF01222946042046
S11337E002F080F802222946042002F07BF801222C
S11337F00221042001F0AEFF94F82030012B02BF17
S113380040223B4B1A603B4D284602F09DF9A368C9
S113381069460093E3682846019323690293636928
S11338200393A36904930023059302F09FF907B05F
S113383030BD01281DD102462021002001F028FFBF
S113384000212022084602F04DF8002140220846BB
S113385002F048F82A464021002001F07BFF94F84A
S11338602030012B03D14FF48072214B1A60224D7A
S1133870CAE702281DD101222021032001F008FFFC
S113388020220021032002F02DF8402200210320F1
S113389002F028F801224021032001F05BFF94F894
S11338A02030012B03D14FF48072114B5A60134D19
S11338B0AAE70328A7D101220821052001F0E8FE88
S11338C008220121052002F00DF810220121052013
S11338D002F008F801221021052001F03BFF94F8C2
S11338E02030012B01D1024A9360054D8CE700BFC3
S11338F000E100E080000240C000024000010240FC
S1133900400102400328F8B50D4615D80B4C0C4E67
S11339100C4F04EB80144021204602F01AF928B918
S113392033680133BB423360F5D930602946204601
S1133930BDE8F84002F0A4B9F8BD00BF8000024021
S1133940140E00208038010070B5431E0B4C022B6E
S11339500B4D0C4E98BF04EB80142021204602F03E
S1133960F8F830B92B6801332B602B68B342F4D9D3
S11339702860204602F07CF9C0B270BD800002408D
S1133980100E00208038010013B501240378684626
S11339900093019402F0A4F9204602F099F902F090
S11339A0A9F902B010BD02F0B3B902F0A8B930B55C
S11339B00022044641F221054FF6FF70A35C80EA21
S11339C00320082310F4004F03F1FF334FEA4000B3
S11339D018BF684013F0FF0380B2F3D1013293B2F1
S11339E09942EBD830BD000038B51546A5220C2805
S11339F003460C462A701FD8012801D8002463E02E
S1133A00821E0A2AFAD801A151F822F0A13A000034
S1133A10FD390000FD3900008D3B0000FD39000038
S1133A20FD390000FD390000E73A0000FD390000CF
S1133A30E73A00001D3B0000A0F11902D1B214299D
S1133A40DCD8142ADAD801A151F822F0933B000003
S1133A509F3B0000A73B0000FD390000FD3900003A
S1133A60FD390000FD390000FD390000FD3900007A
S1133A70FD390000FD390000FD390000FD3900006A
S1133A80FD3900008D3B0000FD3900008D3B000036
S1133A90FD3900008D3B00008D3B00008D3B000094
S1133AA040F6F601444A0524D389A3F5E1639BB2A9
S1133AB08B4284BF0023D38102236B70137BAB70D2
S1133AC0D3891A0AEA702B71C4F10B020021D2B215
S1133AD0281902F00DFD0A212846FFF768FF030AA2
S1133AE0AB72E87238BD002CEED0A28AB2F52F7FFB
S1133AF084BF4FF42F72A28264226870A38A1B0AC7
S1133B00AB70A38AEB70238AB3FBF2F31B0A2B710D
S1133B10238A0624B3FBF2F36B71D5E7002CD3D0D0
S1133B20A08AFCF71BFE22A3D3E90023FCF79AFB2F
S1133B30FCF77EFE80B2B0F52F7F84BF4FF42F7365
S1133B40A3824FF00C0398BFA0826B70A38A1B0A58
S1133B50AB70A38AEB706423228AB2FBF3F22A715E
S1133B60628AB2FBF3F26A712268B2FBF3F2AA71C1
S1133B706268B2FBF3F2EA71A268B2FBF3F22A7252
S1133B80E2680A24B2FBF3F36B729DE702246B70C4
S1133B909AE719236B7001230324AB7094E719236C
S1133BA06B700023F8E71B236B70044B1B78F3E75F
S1133BB052B81E85EB511540680E0020200E0020DF
S1133BC010B500240A4B02781C700A4B21461A7067
S1133BD042685A6082689A60027B1A73C28905201F
S1133BE0DA81054AFFF700FF044B1C7010BD00BFCB
S1133BF0900E0020680E0020290E0020670E002081
S1133C002DE9F0478F4D04462A788F4B8F4E92B0A2
S1133C10DAB142F20F711A6802448A420CD81A606F
S1133C203378062B2FD8DFE813F01E00B000C6004F
S1133C30E400F70035010B0000221A6006233370FC
S1133C404FF0FF32824B1A6059E11A60814A53786F
S1133C50052BE5D1B2F803307D495BBA9BB20B600A
S1133C6093782B70DCE77C4A00210220FFF7BCFE2E
S1133C70784B5A78022A06D10122B3F80330327005
S1133C80764A5BBA1380764A764F13687968234480
S1133C908B42136080F04981387802F0ADF9012835
S1133CA0DFF8C48140F08C810023DFF8C091704CB0
S1133CB099F8001038782144C8F8003002F0D2F99D
S1133CC0431C1EBF99F80030C01889F8000099F809
S1133CD00030132B40F26A810023C8F8003089F8C1
S1133CE00030644B1B786E2B35D1032002F014F99D
S1133CF0012830D1604B24211A68604800F05CFC34
S1133D002B785F48109333780F93637C0E93237C56
S1133D100D93E37B0C93A37B0B93637B0A93237B2D
S1133D200993E37A0893A37A0793637A0693237A31
S1133D300593E3790493A379039363790293237935
S1133D400193E3780093A3786278217800F034FC3F
S1133D504C4800F031FC237BA52B40F02C813E4ADB
S1133D60637B52789A4202D0052B40F02281464E62
S1133D7006213046FFF71BFE638A5BBA9BB283427F
S1133D8000F00F8185232B7010E1334A0021292094
S1133D90FFF72AFE2F4B5A78292A7FF474AF9A78BA
S1133DA0D9781B790A43134302D1022333706AE79B
S1133DB001232B7067E70122344B00211A701B206A
S1133DC0254AFFF711FE234A53781B2B7FF45BAF80
S1133DD09378D17812790B431343E9D12C490A68BB
S1133DE02244B2F57A7F01D20A604CE70B600323C8
S1133DF0DCE70027254B184A39461B201F70FFF7C4
S1133E00F3FD234A13682344B3F57A7F01D2136088
S1133E1039E704231760C9E7002129200E4AFFF778
S1133E20E3FD0C4B5B78292B02D0052B7FF42BAFE1
S1133E30174A13682344B3F57A7FE8D30023136049
S1133E400523B3E7670E00201C0E0020900E00200F
S1133E509C0E0020210E0020550E0020640E002030
S1133E60980E0020680E0020940E0020A20E002060
S1133E70410E0020F10E0020641500209C65000016
S1133E803E6C0000C26500004D0E0020200E002094
S1133E90A40E0020554B564A56491878FFF7A4FD46
S1133EA0554B5A7802F0DF01092920D0A2F10B0109
S1133EB0C9B21C2916D92C2A7FF4E5AE9A784F484A
S1133EC04F492A70FAB9B3F803205B7952BA03EB6D
S1133ED0830303EB830302809B0000220B80494B86
S1133EE01A60D0E6484820FA01F1C90711D5B3F8A1
S1133EF0032044499B7852BA92B20A602B70002284
S1133F00424B1A70BFE600232B704FF6FF730380F9
S1133F10E3E7193A012A3FF6B6AE59793B4A9B7852
S1133F2011700021374A116043E700231360384AB7
S1133F3013702F4A5378A3F1190102291CD92C2B91
S1133F401AD00C23334911F801CB12F8010B844524
S1133F5012D1013B9BB2002BF5D14FF00C08DFF8D6
S1133F60B89019F8011B387808F1FF3801F0FEFF0A
S1133F7018F0FF08F5D18FE64FF00C08DFF87090C9
S1133F80DFF890A099F80010387801F0EFFF08F1FD
S1133F90FF3819F8013B18F0FF080AF8013BF1D18A
S1133FA07AE6154AE36813607368536012B0BDE89B
S1133FB0F0878323E7E65A2B0CBF82238123E2E6B2
S1133FC0D8F80000BB6804449C42C8F80040EDD314
S1133FD08123002114222B7010480D4BC8F80010C7
S1133FE0197012B0BDE8F04702F082BA660E0020E4
S1133FF0550E0020780E0020210E0020A00E002077
S1134000620E00209C0E002007000510180E0020F0
S1134010A20E0020350E0020290E0020410E0020A3
S11340202DE9F041054678B3846854B3848944B3D8
S1134030164F97F80080B8F1000F25D1FCF750FF18
S11340402C233E78AA687343DFF844C041464CF8F9
S11340500320AA890CEB0304A2806A8A10336281CC
S1134060EA89CCF82800E2802A8A0CEB030022813A
S11340701E2284F82480E2600136142202F038FA09
S11340803E702046BDE8F0810024FAE7D40E0020FB
S1134090A80E00202DE9F843444F3B78A3B34FF01A
S11340A02C09434E434C357809FB05F904EB090808
S11340B0D8F82800FCF742FF162198F8243082B281
S11340C001FB053154F80900083124F81120018856
S11340D0914254D8B8F804C00CF10041013930F8C9
S11340E0111091424BD398F80E10092947D8013387
S11340F0DBB2092B88BF00232F4A88F824301378B9
S1134100092B03D801331370BDE8F8832C220A234A
S1134110002196F800E002FB0E42103232F8028BC6
S1134120013B13F0FF034144F8D10A224FF02C085D
S1134130B1FBF2F108FB054889B29AB294450ED856
S11341403A780EF10103DBB29A4233709CBF00232C
S113415033702C2303FB05440023A373D4E730F806
S1134160029B894509D8B0F80090894522BFB8F868
S11341700A9009FB02F2A8F80C200133DDE72C2396
S113418003FB0543997B0A2903D94FF48072DA8132
S1134190BAE71889904202D8DB889342B4D22C2320
S11341A003FB05440131A173AEE700BFD40E002028
S11341B0D50E0020A80E0020D60E002008B5FFF76B
S11341C004F9054B1A68054B9A4204D0BDE808402F
S11341D0022000F019BC08BD7C08002000B4C4040F
S11341E0014B43F820107047D80E0020012A38B53F
S11341F004460D4603D10320C9B201F0B7FE04B151
S1134200257038BDF8B505460C461E468F18BC42CD
S113421000D1F8BD2868324614F8011B28B1FFF715
S1134220E5FF2B6801332B60F1E7FFF7DFFFEEE7D3
S1134230F8B505460E4614461F46013C00D2F8BDAB
S113424028683A46314628B1FFF7D0FF2B6801337E
S11342502B60F2E7FFF7CAFFEFE72DE9F0431F46B3
S11342604B6806460D4685B0002B46D13023092401
S11342708DF80D3013E0B3FBF2F002FB1033013C78
S1134280E4B2D9B2092B04F110036B4494BF30316A
S1134290573103F80C1C68606B68002BEBD1AB78CA
S11342A001AA02EB0408C4F10A0943B36A7812F0C4
S11342B0010F14BF302120214B45C5BF0A3BE41830
S11342C00024E4B2920704D43B4622463046FFF76A
S11342D0AFFF3B464A4641463046FFF793FFAB7873
S11342E043B16B789B0705D53B46224620213046D7
S11342F0FFF79EFF05B0BDE8F0830A24CCE73B46F8
S11343004A4641463046FFF77DFFF3E72DE9F04F7B
S11343100E461D461446002785B0DFF894820190AE
S1134320317832460136002900F03C8125290CD130
S11343304FF00009FF23CA468DF80830CE4649469F
S11343404B46CC46ADF80A7009E0019808B1431C0D
S113435001932A46FFF74AFFE2E7134632465078B4
S1134360561C2E2800F08D8026D823286CD02D28AA
S113437000F08A80C0B34FF0010C6FF0010037E009
S1134380A0F1700CBCF1080FF5D80FF2080B5BF824
S11343902CF000BFE943000077430000774300009E
S11343A0E943000077430000E9430000774300003D
S11343B077430000E943000039280DD82F28DAD0CC
S11343C013F0200F02D012782D2A44D1302842D184
S11343D043F00103DBB23BE07828CCD86F28CFD878
S11343E064282ED86228C6D94FF0010C961C40B21E
S11343F043F02002B0F1FF3FD2B2AED08DF80920D5
S1134400BCF1000F01D08DF80800BEF1000F01D0FF
S11344108DF80B10B9F1000F01D08DF80AA06F28A8
S113442035DC642800F09880692800F095806328C2
S11344307FF476AF54F8041B01988DF80C10C9B2C0
S113444084E76928D0D096E743F00803DBB2961CD2
S11344504FF0FF30CCE75A0709D501EB810100EB9F
S11344604100A0F130014FF0010EC9B2F0E70AEBB0
S11344708A0A00EB4A0030384FF001095FFA80FAEB
S1134480E6E743F00403A5E743F00203A2E770382C
S113449008283FF645AF01A252F820F08D450000F0
S11344A02143000021430000C144000021430000D7
S11344B08745000021430000214300009945000086
S11344C054F8040B3B499DF80A20002818BF014604
S11344D003907AB901F1FF3919F8011F00293FF45B
S11344E01FAF01982A46A0B3FFF780FE019B01335A
S11344F00193F1E78A4611F8019BB9F1000FF9D154
S1134500AAEB000A5FFA8AFA524584BFA2EB0A02B8
S11345105FFA82F99A0705D42B464A46202101A85E
S1134520FFF786FE2B465246039901A8FFF76AFE61
S11345309DF80A30002B3FF4F3AE9DF809309B0739
S11345407FF5EEAE2B464A46202101A8FFF770FE08
S1134550E6E6FFF74BFEBFE754F8043B002B03935A
S11345600ADA019808B1431C01932A462D21FFF76A
S11345703DFE039B5B4203932B460A2202A901A83A
S1134580FFF76BFECCE654F8043BF4E72B4602221B
S1134590414601A8FFF736FE54F8043B102203936A
S11345A02B46EBE70846019B197005B0BDE8F08F78
S11345B0B66C0000AF6C00000FB407B504AA52F843
S11345C0041B012300200192FFF7A0FE03B05DF855
S11345D004EB04B0704700004FF085430022DA6119
S11345E0B122A3F11F735A6050B10178294801F038
S11345F047FB284C4021204601F0ABFA0028F9D0B3
S1134600254B244C9D6A4021204601F0A2FA002843
S1134610F9D078211F4801F033FB1E4C402120467D
S113462001F097FA0028F9D020241A4E05F0010170
S1134630304641F0300101F023FB6D084021304643
S113464001F087FA0028F9D0013C14F0FF04EDD101
S11346500A21104801F014FB0E4C4021204601F0C1
S113466078FA0028F9D00D210A4801F009FB094C19
S11346704021204601F06DFA0028F9D0BFF34F8F96
S11346800549064BCA6802F4E0621343CB60BFF3EA
S11346904F8FFEE74001024000ED00E00400FA0500
S11346A0024B1B6803B11847704700BFD80E0020A7
S11346B0024B5B6803B11847704700BFD80E002057
S11346C0024B9B6803B11847704700BFD80E002007
S11346D0024BDB6803B11847704700BFD80E0020B7
S11346E0024B1B6903B11847704700BFD80E002066
S11346F0FEF7B0BFFEF7C4BF0022024B1A601A7166
S1134700704700BFF40E002000210B46094A063111
S1134710B429C2E9023313611360536102F1180230
S1134720F5D1054AC2E90233136113605361034BA7
S113473018607047400F0020280F0020100F002041
S1134740014B1860704700BF240F002008B520B14A
S11347508047003818BF012008BD0120FCE7000095
S1134760F0B5DDE905652AB1012A31D00122234BD8
S11347701A7028E04FF0180EDFF884C00EFB02F424
S113478054F80C7007BB04344F1E644401F1030E4B
S113479017F8011F19B1774504F8011BF8D1182146
S11347A000244A436B430CEB02014CF80200154A07
S11347B04B611368C1E9026501330C611360124A4D
S11347C0137801331370F0BD01321E2AD6D1CDE720
S11347D00E4B1A68002AC9D14A1E1F1D033112F854
S11347E0014F1CB18A4207F8014BF8D10022C3E9FA
S11347F002651A6118605D61E1E700BF180F0020CF
S1134800400F0020080F00201A0F0020280F00205E
S1134810F7B500210D46304A304E1378304C013341
S11348201370D6F8483322780133C6F848332D4B39
S1134830D3F800C02C4B1F682C4B614514D105B133
S113484022702B4B2B4D1B782B4E2C4C53B32C4BE3
S11348501B782B702B4B1B68336023680133032BAD
S1134860236024D803B0F0BD1E29E8D053F8040C0B
S1134870A8B1586878B9501C46F822309A68C0B27A
S11348805A60DA68C82802F10102DA604FF00105C3
S113489034BF02460022586808B1C01B5860013179
S11348A01833CAE7FF2233602A702360DAE74FF433
S11348B09873452200931F21134B1448FFF77CFE85
S11348C033682A7821681248FFF776FE114803B04E
S11348D0BDE8F040FFF770BE190F0020141200204D
S11348E060150020080F0020100F0020440F002046
S11348F0200F0020770800201C0F00200C0F002040
S113490076080020140F0020FB6C0000B96C000036
S1134910D86C0000C26500002C4B2DE9F0471868E4
S113492000F078F8FFF774FF294D2A4E72B62B7801
S1134930003B18BF012362B6DFF89C807BB30027DD
S1134940264CDFF89C9019E054F8042CA2B1E368DB
S113495093B1013BE3600123DFF888A020698AF862
S113496000303170C9F8004090470023FF228AF8D4
S113497000303270C9F8003001371834D8F80030EC
S1134980F9B2BB4201D91E2FDED172B62B78013B9E
S1134990DBB22B70003B18BF012362B6CEE7124B8B
S11349A093F90030012BC1D1104B93F90030002B47
S11349B0BCD10F4B1B6898470028B7D00D4B1B6820
S11349C00BB19847B2E7BDE8F08700BF100F002095
S11349D0190F002076080020080F0020440F002043
S11349E0140F0020200F0020040F0020780800205E
S11349F010120020240F0020024A13680BB15069E2
S1134A0018477047280F0020014B1870704700BFEB
S1134A10180F0020FFF76CBE38B50C460546FFF7AB
S1134A2069FEA847024A13682344136038BD00BFD7
S1134A3064150020F0B5044685B000283DD0234D10
S1134A402E78012E3FD80378214F8DF80430437817
S1134A508DF80530C37801A88DF8073001238DF84F
S1134A600630FCF7BBFF18225643B851A37A012B3A
S1134A701DD12B7802A802FB0373E2685A60228AD4
S1134A801A81628A5A8123798DF8083063798DF806
S1134A900930E3798DF80B30A3798DF80A30FCF7EF
S1134AA01FFA0C4B0C4A1860136801331360182466
S1134AB02B7804FB037401332B7001222046074B2F
S1134AC01A7005B0F0BD0024F7E700BFA815002058
S1134AD078150020701500206C150020A915002001
S1134AE02DE9F0471F4D2B78022B28D0032B2DD016
S1134AF0012B1FD102232B701CE03868FCF71EFA2F
S1134B00182202FB04842289904215D362899042C0
S1134B1012D8D4F804A0BAF1000F04D0FBF70EFEAB
S1134B20D047C4E9040109F1010933685FFA89F443
S1134B30A342E2D8BDE8F08703232B70F3E74FF0DC
S1134B400009094E094FDFF82880EEE7094A137877
S1134B500133DBB2052B1370CCD90122064B1A703A
S1134B60E8E700BFA91500206C150020701500208F
S1134B707815002068150020AA15002020B100F146
S1134B801001D1E90001704700200021704710B1E5
S1134B900068FCF751BF7047002382B00193019372
S1134BA0019B1D2B01D902B07047019B0133F6E72D
S1134BB038B5054603782B4CE97823704378807820
S1134BC063702B79A07023716B79E1706371AB7999
S1134BD0A371EB79E3712B7A23722B7A032B0FD811
S1134BE0DFE803F00208383E00231F4A13701F4A0F
S1134BF0137005E000221C4B1A7001221B4B1A7023
S1134C000122FDF708F8002261792079FDF703F805
S1134C10012261782078FCF7FEFF0122E179A07976
S1134C20FCF7F9FF0122E178A078FDF702F80022F1
S1134C30E179A079FCF7FDFF237A6178012B94BF19
S1134C40002201222078FCF7F4FFEB68E3602B7C60
S1134C50237438BD0122044B1A700022034BCEE7A3
S1134C600123C2E7AC150020C1150020C0150020A7
S1134C700023F0B5394C85B0CDE90233237C012BF8
S1134C801BD1C309420143EAC01302F0400213439B
S1134C90C20002F020021343420002F01002134348
S1134CA0421002F008021343C21002F00402401141
S1134CB0134300F002001843C0B2002302A940FAD3
S1134CC003F2013302F00102082B01F8012BF6D1A3
S1134CD00026234B01961D78019B072B02D93046F1
S1134CE005B0F0BD237A03F0FD03012B09D1B5FA19
S1134CF085F56D092A4661782078FCF79AFFFFF75D
S1134D004BFFB5FA85F7019BE17810336B4413F838
S1134D10082CA0787F09FCF78CFF3A46617820784C
S1134D20FCF787FFFFF738FF61792079FCF78DFFE7
S1134D30237A40EA460613F0FD0FF6B209D12F1E7E
S1134D4018BF012761783A462078FCF772FFFFF715
S1134D5023FF019B3D4601330193BDE7AC150020C1
S1134D60C1150020024B0246D9799879FCF761BF3E
S1134D70AC15002000F010F9104B1148DA1C121A7F
S1134D80C11E22F00302994288BF00220D49FBF79D
S1134D90F3F90D4B0D48DA1C121AC11E22F003025E
S1134DA0994288BF0022002101F0A2FBFEF718FA05
S1134DB072B601210648FFF70FFC00BF84080020EB
S1134DC0000800202C6E00007419002088080020C0
S1134DD0146D0000034B1B6883F30888012102480B
S1134DE0FFF7FAFB00080020226D0000034B1B684C
S1134DF083F3088801210248FFF7EEFB0008002036
S1134E002A6D0000034B1B6883F3088801210248C4
S1134E10FFF7E2FB000800202E6D0000034B72B682
S1134E209D4601210248FFF7D7FB00BF0008002080
S1134E30386D0000034B1B6883F308880121024886
S1134E40FFF7CAFB00080020426D0000034B1B68FB
S1134E5083F3088801210248FFF7BEFB0008002005
S1134E604B6D0000024B012259781878FCF7D3BE31
S1134E70CC1500202DE9F0410E46194D194C804601
S1134E806978287817460122FCF7D3FE61782078E8
S1134E900122FCF7CEFE337828462B70B3786B7072
S1134EA00123EB70AB707278A3702270F2780E4E0F
S1134EB062700E4AE370974294BF07270227376057
S1134EC0FCF790FE2046FCF78DFEFFF7CBFF404633
S1134ED000F08EF840463168BDE8F04100F08EB82D
S1134EE0CC150020C8150020C4150020A0860100A0
S1134EF01F4AD2F80432ABB9D2F880011D491E4BC7
S1134F00D8B1D2F88820C2B10A6802F00702013A87
S1134F10062A05D8DFE802F0070707090B0D0F0082
S1134F20164A1A6070470022FBE7154AF9E7154A4A
S1134F30F7E7154AF5E7154AF3E70A6802F00702AE
S1134F40013A062AF5D801A151F822F0274F0000B2
S1134F50274F0000274F0000374F0000694F000023
S1134F606D4F0000274F0000094ADAE7094AD8E7E5
S1134F7000408042000204407C08002000B4C404C5
S1134F80005A6202002D310180969800404B4C007B
S1134F90A0252600D01213000022114B1A604FF0F6
S1134FA08542D2690AB9B1225A604FF480320D4B5E
S1134FB01A600D4A5A6040F203129A600B4AD2F802
S1134FC0881031B10121C2F88010D2F88410002970
S1134FD0FBD14AF23F12DA6000221A61704700BF27
S1134FE000000440000204400401DE070040804247
S1134FF0014B1860FEF746BBD015002070B50D4676
S1135000044688B90F4E01463068FEF7CBFB306882
S1135010FEF7CAFB29463068FEF73CFB05213068E1
S1135020BDE87040FEF7BEBB0021FEF7BBFB204687
S1135030FEF7BAFB29462046FEF72CFB0521204645
S1135040EEE700BFD015002010B5FF2401F00301E6
S11350500368C9008C4023EA04038A401A430260AF
S113506010BD0A430260704702234360836803F063
S1135070010343F0800383604FF48C63C0F8D430A1
S1135080704731B9436803F0020343F001034360FE
S11350907047836803F0800343F001038360704723
S11350A0C06829B900F00200B0FA80F040097047E6
S11350B000F00100F8E70000044B98420CBF044BD9
S11350C0044B53F82130186880B270470000034045
S11350D0586D0000886D0000072902D9C430FFF71D
S11350E0B3BF03298CBFC030BC30F8E7411E03298D
S11350F088BF0020044A98BF0330136823F00703D5
S113510018431060704700BF00020440034B044A78
S11351101B6803F00703D05C704700BF0002044023
S1135120B86D0000034A136823F4805343EA003344
S11351301360704700020440034B044A1B68C3F326
S11351400033D05C704700BF00020440C06D000013
S113515038B50C4D04462968FFF7EEFF012806D147
S1135160002021F4E06141EA0421296038BDFFF701
S1135170CDFF0A2804D0A04202D8241A052CEFD966
S11351800120F3E700020440064A536823F07F43FA
S113519023F4700323F4404323F0090343EA015347
S11351A053607047000204400122024BC3F8802080
S11351B0704700BF00408042034BD3F88400B0FA2C
S11351C080F04009704700BF00408042034BD3F891
S11351D08800431E58425841704700BF0040804237
S11351E038B9054B01290CBFC3F8A010C3F8A000BF
S11351F070470120704700BF00408042094A08B54B
S1135200D2F8A030012B01D0012008BD10B9C2F89A
S11352108001FAE7FFF7DAFF0128F5D1C2F880012F
S11352200020F2E700408042034BD3F88001431E84
S113523058425841704700BF00408042012808B5D9
S113524004D1074BC3F88800002008BDFFF7ECFF2A
S113525018B9034BC3F88800F7E70120F5E700BF4E
S1135260004080421FB500F003038008032816D8CD
S1135270DFE800F002172C40284C1033206A6B44FE
S1135280009013F8100C20F07100014303F8101C77
S113529000981143206203F8101C009B236204B0A1
S11352A010BD1E4C1033606A6B44019013F80C0C53
S11352B020F07100084303F80C0C0199616240EA84
S11352C0020103F80C1C019B6362E8E7134C1033E2
S11352D0A06A6B44029013F8080C20F0710001439B
S11352E003F8081C02981143A06203F8081C029BEF
S11352F0A362D4E709481033C46A6B44039413F8D7
S1135300044C24F07104214303F8041C039C11434E
S1135310C46203F8041C039BC362C0E70002044098
S1135320014B5861704700BF000204400B282ED87F
S1135330DFE800F0060F13181D1F21232527292B52
S11353404FF080431B68DBB20B4214BF01200020E6
S113535070474FF080431B6CF5E74FF08043D3F860
S11353608030F0E74FF08043D3F8C030EBE7094BCF
S1135370E8E7084BEFE7074BF1E7064BF4E7064B8A
S1135380E0E7054BE7E7044BE9E7034BECE70023D1
S1135390DAE700BF00010040000200400B282AD8D1
S11353A0DFE800F0060E16202A2C2E3032373C415E
S11353B04FF080400368DBB242B319430160704789
S11353C04FF08040036CDBB22AB319430164704789
S11353D04FF08040D0F88030DBB20AB31943C0F8F4
S11353E0801070474FF08040D0F8C030DBB2E2B19B
S11353F01943C0F8C01070470D48DBE70C48E1E7DB
S11354000B48E7E70A48EFE70A48D3E723EA010134
S1135410D4E70848D6E723EA0101D7E70548D9E7E6
S113542023EA0101DBE70348DEE723EA0101E0E7C1
S11354300001004000020040FF2905D1C31EDBB279
S1135440072B9CBF404AD15C0A2833D8DFE800F020
S113545006171F334C4E61636C7779004FF080431D
S1135460CA439868D2B210409860D8681040D86097
S1135470986B02409A635A681143596070474FF021
S11354808043CA43986CD2B2104098643AE04FF01B
S11354908043CA43D3F88800D2B21040C3F88800CE
S11354A0D3F8B8000240C3F8B820D3F884201143DD
S11354B0C3F8841070474FF08043CA43D3F8C80040
S11354C0D2B21040C3F8C800D3F8CC001040C3F8DF
S11354D0CC00D3F8F8000240C3F8F820D3F8C42075
S11354E01143C3F8C4107047184BB9E7CA43174BAC
S11354F0D2B2986C10409864D86C1040D864186D7F
S113550010401865986F02409A675A6C11435964A9
S113551070470E4BBDE7CA430C4BD2B2D3F8C80058
S11355201040C3F8C800D4E7094A936B23EA010387
S113553003F0FF0393635368194351607047044BAE
S11355409FE7034BA5E700BFCC6D000000010040BE
S113555000020040FF2905D1C31EDBB2082B9CBF0B
S1135560484AD15C0B2800F28B80DFE800F0061774
S11355701F334C4E61636C77797B4FF08043CA4391
S11355809868D2B210409860D8681040D8605868C3
S113559002405A609A6B1143996370474FF08043FD
S11355A0CA43986CD2B2104098643AE04FF08043FA
S11355B0CA43D3F88800D2B21040C3F88800D3F8A5
S11355C084000240C3F88420D3F8B8201143C3F800
S11355D0B81070474FF08043CA43D3F8C800D2B222
S11355E01040C3F8C800D3F8CC001040C3F8CC0076
S11355F0D3F8C4000240C3F8C420D3F8F820114300
S1135600C3F8F8107047204BB9E7CA431E4BD2B217
S1135610986C10409864D86C1040D864186D104091
S11356201865586C02405A649A6F11439967704721
S1135630154BBDE7CA43144BD2B2D3F8C80010408F
S1135640C3F8C800D4E7114A536823EA010303F0FE
S1135650FF035360936B1943916370470B4B9FE7B0
S11356600A4BA5E7094AD2F8C83023EA010303F03C
S1135670FF03C2F8C830D2F8F8301943C2F8F81062
S1135680704700BFD46D00000001004000020040DC
S1135690FF2905D1C31EDBB2072B9CBF2A49C95C75
S11356A00A282DD8DFE800F006131F2D3B3E4144A5
S11356B0474A4D00012A4FF08042536801D11943F3
S11356C003E023EA010101F0FF0151607047012A60
S11356D04FF08042536C16BF23EA0101194301F0D5
S11356E0FF0151647047012A4FF08042D2F88430A0
S11356F016BF23EA0101194301F0FF01C2F8841027
S11357007047012A4FF08042D2F8C43016BF23EA12
S11357100101194301F0FF01C2F8C4107047012AC6
S11357200A4ACAE7012A094AD4E7012A074ADDE7F7
S1135730012A064AE8E7012A054ABEE7012A044A83
S1135740C8E7012A024AD1E7CC6D000000010040FD
S113575000020040FF2905D1C31EDBB2082B9CBF09
S11357602C49C95C0B283CD8DFE800F00613202E36
S11357703C3F4245484B4E51012A4FF08042936BC7
S113578001D1194303E023EA010101F0FF01916310
S11357907047012A4FF08042936F01D1194303E00F
S11357A023EA010101F0FF0191677047012A4FF0DC
S11357B08042D2F8B83016BF23EA0101194301F040
S11357C0FF01C2F8B8107047012A4FF08042D2F8A6
S11357D0F83016BF23EA0101194301F0FF01C2F8B2
S11357E0F8107047012A0C4AC9E7012A0A4AD3E78C
S11357F0012A094ADDE7012A074AE8E7012A074A9C
S1135800BDE7012A054AC7E7012A044AD1E7012A6C
S1135810024ADCE7D46D00000001004000020040B1
S1135820FF2905D1431EDBB2092B9CBF2A49C95C61
S11358300A282DD8DFE800F006131F2D3B3E414413
S1135840474A4D00012A4FF08042D36A01D11943DF
S113585003E023EA010101F0FF01D1627047012A4C
S11358604FF08042D36E16BF23EA0101194301F0C1
S1135870FF01D1667047012A4FF08042D2F8AC3064
S113588016BF23EA0101194301F0FF01C2F8AC106D
S11358907047012A4FF08042D2F8EC3016BF23EA59
S11358A00101194301F0FF01C2F8EC107047012A0D
S11358B00A4ACAE7012A094AD4E7012A074ADDE766
S11358C0012A064AE8E7012A054ABEE7012A044AF2
S11358D0C8E7012A024AD1E7C26D00000001004076
S11358E0000200400B2869D8DFE800F006161E28E5
S11358F03C445558685B5E6111B1012906D070477C
S11359004FF080418B681A438A6070474FF08041A2
S1135910CB681A43CA60704700294FD14FF08041C9
S11359208B6C1A438A647047002947D14FF0804139
S1135930D1F888301A43C1F88820704711B1012981
S113594008D070474FF08041D1F8C8301A43C1F8ED
S1135950C82070474FF08041D1F8CC301A43C1F8C9
S1135960CC20704711B1012902D070471449C9E70E
S11359701349CDE7012904D0022907D0F1B9104910
S1135980CEE70F49CB6C1A43CA6470470C490B6DC0
S11359901A430A65704789B90949C9E771B90849C1
S11359A0D2E759B90749BBE741B90649C0E729B964
S11359B0044BD3F8C8100A43C3F8C820704700BF8B
S11359C000010040000200400B2841D8DFE800F04D
S11359D0061C26324C546C704074787C11B1012939
S11359E009D070474FF080418B6823EA020202F02D
S11359F0FF028A6070474FF08041CB6823EA0202BD
S1135A0002F0FF02CA60704711BB4FF080418B6CFB
S1135A1023EA020202F0FF028A647047C1B94FF020
S1135A208041D1F8883023EA020202F0FF02C1F873
S1135A308820704711B101290BD070474FF0804185
S1135A40D1F8C83023EA020202F0FF02C1F8C820EC
S1135A5070474FF08041D1F8CC3023EA020202F0C3
S1135A60FF02C1F8CC20704711B1012902D0704760
S1135A701749B9E71649C0E7012905D002290BD017
S1135A800029E5D11249C2E71149CB6C23EA02028D
S1135A9002F0FF02CA6470470D490B6D23EA02024B
S1135AA002F0FF020A6570470029D1D10849B8E71E
S1135AB00029CDD10649C3E70029C9D10549A6E784
S1135AC00029C5D10349ACE70029C1D10149B7E791
S1135AD00001004000020040036843F080030360BB
S1135AE0704741607047C3680A6823F007030AB12E
S1135AF04A681343CA681343C3600B6903628B6823
S1135B0043627047D1E90032134303617047C069AF
S1135B1080B27047836801290CBF43F0800323F0EF
S1135B2080038360C36823F040031A43C260704754
S1135B30836801290CBF43F0010323F0010323F020
S1135B406203134383607047036843F001030360F7
S1135B507047C0692029C0B203D0402904D1C009CC
S1135B607047C0F38010704700207047F8B50D46A9
S1135B70C2684B68496902F0B0020B43134343F017
S1135B800103C360C369AA6803F0EF03134343F03E
S1135B900403C3618368EA6803F09F0313438360CB
S1135BA00446FFF7A5F9304B304A1B681268C3F36B
S1135BB00223DA4064230021022012095A43D5F853
S1135BC000C000FB0CF3B2FBF3F3A3F1C807B7F575
S1135BD0AF6F01F1010635D86420B3FBF0F67043D2
S1135BE0226998424FEA01110CBF22F0400242F0B0
S1135BF0400201F0300106F00F06314302F040028A
S1135C000A43984222610DD0C3F1640303441B018B
S1135C10632B8ABF64220123B3FBF2F303F00F0367
S1135C20626963612A69A369102A13D0202AE26891
S1135C3042F02002E26014D103F0EF0303F0FE030C
S1135C40A361F8BD26B17F2800D880003146B8E7AB
S1135C500220FBE7E26843F0100302F0DF02E26097
S1135C60ECE743F01003E9E7000204407C0800205D
S1135C70836840685B0003F48073C0B218437047C4
S1135C80C2684B0802F07F0203F080031343C9B2D9
S1135C90C36041607047806800F01C00082807D08A
S1135CA0102807D0042807D0002818BF0420704704
S1135CB0022070470120704703207047034A13688D
S1135CC003F0860303431360704700BF00000440E1
S1135CD001284FF0854316BF002298609A607047F0
S1135CE0014608B50068FFF7E9FF4FF085434A68AD
S1135CF05A6008BD4FF085430122DA6170474FF0C6
