S00C00006F7263612E7372656373
S1130000402300204DAE020093620000837500007F
S11300101F8C00009B9100003B9700000000000033
S1130020000000000000000000000000139E00001B
S113003053B900000000000093BA00006593020069
S113004049AE0200A593020049AE020049AE020087
S113005049AE020049AE0200357602003D76020048
S1130060759302004576020049AE020049AE0200D3
S113007049AE020049AE020049AE020049AE020098
S11300804B76020049AE020049AE020049AE0200BE
S113009049AE020049AE020049AE020049AE020078
S11300A049AE020049AE020049AE020049AE020068
S11300B049AE020049AE020049AE020049AE020058
S11300C049AE020049AE020049AE020049AE020048
S11300D049AE020049AE020049AE020049AE020038
S11300E0859302004776020049AE020049AE020041
S11300F049AE020049AE020049AE020049AE020018
S113010049AE020049AE020049AE020049AE020007
S113011049AE020049AE020049AE020049AE0200F7
S113012049AE020049AE020049AE020049AE0200E7
S113013049AE020049AE020049AE020049AE0200D7
S1130140959302004976020049AE020049AE0200CE
S1130150B593020049AE020049AE020049AE020066
S113016049AE020049AE020049AE020049AE0200A7
S113017049AE020049AE02002DE9F84F02F036FF05
S1130180DFF820970020A9F80000DFF81C87002082
S1130190A8F80000DFF8140700210180DFF8101729
S11301A045F2CF424A6000230B6000238B60DFF8E6
S11301B004174A6000220A6000228A60DFF8F816F9
S11301C080224A6000220A6000228A60DFF8EC166E
S11301D040F2C3524A6040F2AB220A60DFF8E036D4
S11301E08B60DFF8E0160A60B9F8001051F00201E4
S11301F0A9F80010B8F8001051F00201A8F8001096
S1130200018851F00201018002F0FCFD002002F09F
S11302102BFEDFF8B40640F25B31016040F29761D7
S1130220416040F2F7128260DFF8A00640F2A23289
S1130230026041604FF4E8718160DFF89466002445
S1130240DFF890565FF0300ADFF88CB6DFF88C7672
S11302509BF800000AFB00F03844406A5FF08741D5
S113026002F0CCFF03F036F8DFF87426DFF87436BA
S113027003F054F8DFF87026DFF8703603F040F925
S113028022002B0003F060FA03F086FB30609BF839
S113029000000AFB00F03844806A03F01BF8DFF822
S11302A05026DFF8BC3903F039F80022DFF8B439FE
S11302B003F034F8DFF82826DFF8283603F02EF8A8
S11302C0DFF82426DFF8243603F01AF922002B0085
S11302D003F03AFA03F060FB70609BF800000AFB3D
S11302E000F03844C06A9BF800100AFB01FA07EBDF
S11302F00A01896A02F082FF02F0ECFFDFF8F025C0
S1130300DFF85C3903F00AF80022DFF8583903F00B
S113031005F822002B0003F017FA03F03DFBB06050
S11303200020F0600020F061DFF83C0940F2D73192
S113033001601021416000218160DFF83019C16043
S11303400021016102F076FEDFF82449200003F069
S113035088FB002803D0200003F078FC0BE0B9F8F8
S1130360000050F00100A9F80000B8F8000050F0B7
S11303700100A8F800000020DFF8F818088002F057
S113038028FEC0B202F01AFE0100DFF8EC4820009B
S113039003F0DAFDDFF8E40821680160A1688160F8
S11303A0616841600020DFF8D81808600020DFF899
S11303B0D41808600020DFF8D01808600520DFF8A2
S11303C0CC1808705FF0FF320021DFF8700B03F0E7
S11303D059FD00F0C1FD01220121062004F048FC72
S11303E002F012FE05F022FABDE8F18F2DE9F84F74
S11303F090B0DFF89C4820880090DFF8445B2878B0
S1130400C00703D5009850F480700090DFF884781A
S11304106A463900009880B203F00BFEDFF87818C2
S11304200880DFF8980481684268009B8668B3EB13
S1130430E63303FB02118160009901608068C013F8
S1130440DFF880140860DFF8546838683060796831
S1130450B868091A44F6E7104143C913716002F001
S1130460B8FDC0B202F0AAFD0100DFF80C0803F0E9
S113047089FDDFF80888DFF800080068C8F8000084
S1130480DFF8F4078068C8F80800DFF8EC07406874
S1130490C8F80400DFF8E007C068DFF8E417086074
S11304A03168D8F808207368D8F80400434302FB85
S11304B00131C913019131684942D8F804207368A5
S11304C0D8F80800434302FB0131C9130291DFF855
S11304D0E00381684268019B8768B3EBE73303FB61
S11304E00211816001990160DFF8B4778068C0135C
S11304F03860DFF8C00381684268029BD0F808C006
S1130500B3EBEC3303FB0211816002990160806854
S1130510C0137860DFF8880A00688047287880076D
S113052069D5DFF8A003006844F2356101FB00F1EE
S1130530C91343F69750814201DB43F69651DFF825
S1130540040A0068091A00290AD5DFF8340702688A
S1130550DFF8F40940684243012A01DA494289106C
S1130560DFF8E899DFF800B7584603F01BFCC9F838
S11305700000287840073ED5DFF8C0A9504603F0B4
S11305808EFC2878000705D50020C9F8000000205B
S1130590CBF81000D9F80010002000FB01F0401344
S11305A010F50050DFF828B34043D9F80020D9F8FB
S11305B0001001FB120003F04DFBCBF81400DBF834
S11305C014004042CBF81800DAF80410DFF8B00643
S11305D00068091A584603F006FC009001A9009827
S11305E003F08EFCD9F8001001984118C9F80010E6
S11305F00298C9F804002878C00658D5DFF88006A8
S11306000068796801FB00F1C9137FF49D40414300
S1130610DFF8B4020913C160DFF8641609683A68A8
S113062002FB01F2D21344F679014A43DFF8501673
S11306300B6840F61C1101FB03221213DFF88C1225
S1130640CA60DFF88012096844F6E71B0BFB01FB64
S11306505FEAEB3BC0F814B0DBF100018161DFF825
S1130660EC98DFF8E4A8D9F800103A68891A03F086
S1130670BAFBCAF800000BFB0BFBDAF80010DAF83F
S1130680000000FB11BB584603F0E4FADFF83C120B
S113069048614042DFF834128861D9F80410786860
S11306A0091ADFF8280203F09EFBCAF80400DFF8F9
S11306B09898D9F80010D8F808004143D9F80420D4
S11306C0D8F8040000FB1211C9130191D9F80010E5
S11306D0D8F80420D9F80430D8F80800434302FBC2
S11306E00131C9130291DFF8780901990160029A76
S11306F046F6DA614A43D2130199B2EB61024260D1
S1130700026841688A18524282602978490605D5F0
S11307105FF0FF3103F0B0FD20800CE0297809067A
S113072004D5002103F0A8FD208004E06549096890
S113073003F0A2FD2080DFF8380503F06CF90028EF
S113074004D1DFF820090168491C0160DFF828059D
S11307500068DFF8141908802878C0060ED55B49B4
S1130760594A106912690B6909694B4302FB00304D
S113077003F070FADFF8CC1708600FE0D9F8000036
S1130780D9F80020D9F80430D9F804104B4302FBFF
S1130790003003F05FFADFF8AC170860D9F80410F2
S11307A0D9F8000003F0B1FADFF8C018086038681F
S11307B03A687B6879684B4302FB003003F04AFADD
S11307C0DFF8A8190860DFF848190A6833684C682C
S11307D07068444303FB0242121300923648826855
S11307E04368009C8568B4EBE53404FB0322826013
S11307F0009A02608068C013DFF81829106001981D
S1130800086002984860DFF810090168491C01601B
S113081000F070F801F0FAFEDFF854793888411CD2
S1130820398080B203283AD100260024DFF84459E5
S1130830DFF84C04006805F0FDF822002B0002F0FC
S11308406DFD0022DFF81C3402F05AFE03F0A4F818
S113085003002C223100C9B203A805F027F90600D1
S1130860DFF8D806406805F0E5F822002B0002F016
S113087055FD0022DFF8EC3302F042FE03F08CF861
S113088003000A223100C9B203A805F00FF9C0B26F
S1130890010003A805F068F838800020388011B002
S11308A0BDE8F08F321C0020341C0020361C0020D0
S11308B048170020541700206C17002060170020F0
S11308C000805501781A0020AC130020CC130020BE
S11308D08C1300200000E03FFC1C0020B40E00201C
S11308E0FB200D9FDB8F67405839B4C876BE554056
S11308F0FCA9F1D238B5DFF880180888002829D07F
S11309000888401E08800888002843D1DFF86C1846
S11309100A884FF6FF6002400A80DFF85443200043
S113092003F09FF8002803D0200003F08FF931E092
S1130930DFF84C08018851F001010180DFF8440818
S1130940018851F0010101800020CA49088000F0AB
S113095003FB1FE0DFF828482078C0071AD5C44DF0
S1130960280003F07EF8002811D0C2480188491CF1
S11309700180008814280DDB280003F067F9218822
S11309804FF6FE700140218000F0E6FA02E00020FC
S1130990B8490880DFF8E8472078C0060CD5B64887
S11309A0806AB0F5804F19DA21884FF6EF70014064
S11309B0218000F0D1FA11E0AF48806A47F20101CA
S11309C088420BDB208850F010002080DFF8B40749
S11309D0018851F01001018000F0BEFA2078000770
S11309E01DD5DFF88807006840F68631884211DAA1
S11309F0DFF894170868401C08600868142848DB6E
S1130A0022884FF6F770024022800020086000F030
S1130A10A3FA3EE00020DFF87017086039E0DFF841
S1130A204C07016841F6343291422ADB006843F6F0
S1130A309B11884206DBDFF85007016811F57A61E3
S1130A40016009E0DFF8F8040078400704D5DFF816
S1130A5038070168491C0160DFF82C170868B0F5F5
S1130A607A4F16DB208850F008002080DFF8140746
S1130A70028852F0080202800020086000F06CFA3C
S1130A8007E0DFF804170868002802D00868401E51
S1130A900860207810F0060F48D0207880070ED523
S1130AA0DFF83C0B006846F6010188421ADB02209D
S1130AB0218860F34201218000F04EFA12E0DFF851
S1130AC0200B006843F2555188420BDADFF8AC067C
S1130AD00088800506D40120218860F3420121802A
S1130AE000F03AFADFF8F80A0168DFF8F80A41186A
S1130AF043F60140814214D2DFF8EC0A0188491C14
S1130B0001800088B0F5166F4ADB5D4800685C28F8
S1130B1046DA21884FF6F9700140218000F01CFA72
S1130B203EE00020DFF8C01A088039E0DFF8B00AA0
S1130B30016847F60102914214DB208850F004005A
S1130B402080DFF84006017811F0060F03D10188F8
S1130B5051F00401018000F0FFF90020DFF8881A49
S1130B6008801DE0006842F25551884218DADFF827
S1130B700C060088800513D4208850F002002080E1
S1130B80DFF80006017811F0060F03D1018851F057
S1130B900201018000F0E0F90020DFF84C1A08801F
S1130BA0DFF8FC030068DFF8141B884257D1DFF834
S1130BB090030078400725D5DFF88003406830496A
S1130BC00968401A04F0A8FF42F28F31884211DB11
S1130BD0DFF8EC0A0188891C01800088B0F5A05F69
S1130BE010DBDFF8A005018851F48051018000F08A
S1130BF0B3F934E0DFF8C81A0888002802D008885E
S1130C00401E0880DFF8340341681D4800684143F2
S1130C1001291CDA0020DFF8AC0A002104F080FF6F
S1130C2001D2002001E004F08FFFDFF8701D0A8874
S1130C30921D0A80098880B2814210D3DFF84405EE
S1130C40018851F40051018000F086F907E0DFF8D3
S1130C504C1D0888002802D00888401E088031BD39
S1130C604D62103F0000E040F415002000E0FFFF5B
S1130C7000040540401C0020081100203C170020FF
S1130C807C1A00205C1A0020601A0020FA1C002044
S1130C902C1C0020241700202E1C0020B817002034
S1130CA0D817002070B5DFF8204A00202070DFF844
S1130CB0D4542888002800F0408172B62888400562
S1130CC016D529884FF6FF3001402980DFF8FC094A
S1130CD00178052900F083800078042800F07F80E3
S1130CE000220021052001F0CFFB0420207076E0D3
S1130CF02888000514D529884FF2FF700140298007
S1130D00DFF8C8090178052969D00078042866D07D
S1130D1000220021052001F0B7FB012020705EE0D5
S1130D202888800414D529884DF6FF700140298055
S1130D30DFF898090178052951D0007804284ED0AD
S1130D4000220021052001F09FFB0220207046E0D4
S1130D502888C00414D529884EF6FF7001402980E4
S1130D60DFF868090178052939D00078042836D0DD
S1130D7000220021052001F087FB052020702EE0D1
S1130D802878800614D529884FF6DF700140298021
S1130D90DFF838090178052921D0007804281ED00D
S1130DA000220021052001F06FFB0620207016E0D0
S1130DB02888400413D529884BF6FF700140298008
S1130DC0DFF808090178052909D00078042806D03D
S1130DD000220021052001F057FB0720207028780D
S1130DE0C0072AD52078002827D1DFF8906330780F
S1130DF0C00713D4DFF8D4080178052909D0007896
S1130E00042806D00820207000220021052001F0CB
S1130E103BFB308850F0010030800EE0DFF86003C7
S1130E200078C00709D429884FF6FE700140298054
S1130E3031884FF6FE70014031802878C00628D5ED
S1130E402078002825D1CD4E3078C00613D4DFF8A1
S1130E507C080178052909D00078042806D00320ED
S1130E60207000220021052001F00EFB308850F094
S1130E70100030800DE0C2480078C00609D42988EB
S1130E804FF6EF700140298031884FF6EF70014032
S1130E9031802878000720D5207800281DD1B74E4E
S1130EA0307800070BD40620207000220021052092
S1130EB001F0EAFA308850F0080030800DE0B048C4
S1130EC00078000709D429884FF6F770014029807B
S1130ED031884FF6F77001403180287810F0060F02
S1130EE02AD02078002827D1A44E307810F0060F9D
S1130EF013D12878800702D50A20207001E0092048
S1130F00207000220021052001F0BEFA30882978E3
S1130F1011F00601084330800EE09948007810F083
S1130F20060F09D129884FF6F970014029803188CC
S1130F304FF6F9700140318062B670BD7C16002016
S1130F40301C0020841A0020C8170020C01700207D
S1130F5080B5FFF7A7FE01BD80B50FF24900104927
S1130F600A6803009A4218D008601020DFF8101BAA
S1130F7008800020DFF80C1B08805FF0FF3200219E
S1130F803B4802F07FFFDFF8000B002101600021E5
S1130F9041600020DFF8F41A086000F003F801BD96
S1130FA0681A002010B40021DFF8E42A0020108021
S1130FB0734B188800280DD0187810F0030F04D054
S1130FC0108850F04000108045E0108850F08000F8
S1130FD0108040E0DFF8BC0A0068002807D1DFF881
S1130FE0A03A1C884FF6EF7004401C8005E0DFF83F
S1130FF0900A038853F010030380DFF8843A1888BA
S1131000002812D1DFF8900A0088800504D51888DA
S113101050F00100188003E0108850F001001080A7
S1131020108850F04000108015E0DFF8A00600782A
S1131030042804D1108850F0400010800BE0187888
S1131040C00604D5108850F08000108003E010889A
S113105050F080001080DFF8340A416010BC704703
S113106030170020941A00205C1C0020801A0020F5
S11310707C16002080B50FF2A500DFF8201A0A685C
S113108003009A4239D01022DFF8F4391A8008603C
S11310904FF44870DFF8081A0880DFF8F809006890
S11310A004F03AFD43F698214843401210F57A4083
S11310B0DFF8F01908600021DFF8EC0902F0EBFE1C
S11310C0DFF8C4090021016000214160DFF8BC0998
S11310D000210160002141600020DFF8B41908807C
S11310E0DFF8B4090078800707D52648018851F451
S11310F080410180FFF730FF09E0DFF8B0090268A2
S1131100DFF8AC090168DFF8A00902F0BBFE01BDFD
S1131110D01700208C1A0020901A002080B5DFF828
S113112074090068002816D0DFF8741908880028AC
S113113002D00888401E0880DFF868190868421E3B
S11311400A60002811D10F48018851F480610180A0
S1131150FFF702FF09E0DFF8480901884A1E028010
S113116089B2002901D100F011F801BD881A0020CC
S11311705E1C002000209C40421C0020361C0020E5
S1131180321C0020341C0020641A00202DE9FE4F7C
S1131190DFF818090268DFF818090168DFF80809A0
S11311A002F070FE0FF24540DFF8F0180A68030001
S11311B09A4200F0138208603024DFF8F858DFF810
S11311C0F86828786043305802F084F8DFF8EC2897
S11311D0DFF8EC3802F094F902F0DEFBDFF8C01817
S11311E008800020DFF8DC1808800020DFF8901861
S11311F00880DFF8D4080068DFF8D01808605FF0D2
S11312000008DFF8CC98287860433044806802F006
S113121061F842464B4602F081F80022DFF8B43808
S113122002F06EF90022002304F0A2FC1CD22878FC
S113123060433044806802F04DF842464B4602F069
S11312406DF80022DFF88C3802F05AF90022DFF83A
S1131250883802F063F80022DFF8803802F074FA6C
S113126002F09AFB01001BE0287860433044806858
S113127002F030F842464B4602F050F80022DFF804
S1131280543802F03DF90022DFF84C3802F046F8F9
S11312900022DFF84C3802F057FA02F07DFB01001F
S11312A05FF0FF32DFF83C0802F0ECFD5FF0000A6B
S11312B0DFF834B8DFF80488DFF80498287860434E
S11312C03044806829786143715804F06BFC02F063
S11312D001F842464B4602F021F852465B4602F0C2
S11312E01DF80022DFF8EC3702F00AF9002200238F
S11312F004F03EFC25D22878604330448068297885
S11313006143715804F04EFC01F0E4FF42464B4641
S113131002F004F852465B4602F000F80022DFF8BF
S1131320B43702F0EDF80022DFF8AC3701F0F6FF35
S11313300022DFF8A83702F007FA02F02DFB0700BD
S113134024E02878604330448068297861437158E8
S113135004F028FC01F0BEFF42464B4601F0DEFFDC
S113136052465B4601F0DAFF0022DFF8683702F0EC
S1131370C7F80022DFF8603701F0D0FF0022DFF861
S1131380603702F0E1F902F007FB070028786043B8
S11313903044806801F09EFF0022DFF8383702F005
S11313A0AFF80022002304F0E3FB17D2287860434F
S11313B03044806801F08EFF0022DFF8183702F015
S11313C09FF80022DFF8103701F0A8FF0022DFF8B1
S11313D00C3702F0B9F902F0DFFA16E0287860431E
S11313E03044806801F076FF0022DFF8E83602F02E
S11313F087F80022DFF8E03601F090FF0022DFF8E2
S1131400E03602F0A1F902F0C7FA3A000100DFF871
S1131410D40602F037FD5FF0000ADFF818BB287825
S11314206043305801F056FF02000B00DFF8080B50
S1131430DFF8081B02F064F842464B4601F06EFFE9
S1131440CDE9000128786043305801F043FF0200E1
S11314500B00DFF8E40ADFF8E41A02F051F8424620
S11314604B4601F05BFF52465B4602F06DF9020009
S11314700B00DDE9000102F043F80022002304F030
S113148077FB3BD228786043305801F023FF0200F9
S11314900B00DFF8A40ADFF8A41A02F031F8424680
S11314A04B4601F03BFFCDE90001287804FB00F432
S11314B0305901F00FFF02000B00DFF87C0ADFF85F
S11314C07C1A02F01DF842464B4601F027FF5246B3
S11314D05B4602F039F902000B00DDE9000102F07D
S11314E00FF80022DFF8F03501F018FF0022DFF8D2
S11314F0EC3502F029F902F04FFA3AE0287860431B
S1131500305801F0E7FE02000B00DFF82C0ADFF888
S11315102C1A01F0F5FF42464B4601F0FFFECDE9DF
S11315200001287804FB00F4305901F0D3FE0200D6
S11315300B00DFF8040ADFF8041A01F0E1FF424669
S11315404B4601F0EBFE52465B4602F0FDF802000A
S11315500B00DDE9000101F0D3FF0022DFF878354C
S113156001F0DCFE0022DFF8783502F0EDF802F03D
S113157013FADFF8CC194860002008600020886066
S1131580DFF8040500210160002141603020DFF80C
S113159000150880DFF8AC0940F25B31016040F2CD
S11315A09761416040F2F71282600022C26100221A
S11315B00261DFF8940940F2A232026041604FF404
S11315C0E87181600021C16100210161DFF8580CDC
S11315D0402141600021016000218160BDE8F78F56
S11315E0781A0020ABCAFFFF3E1C002070B5DFF85C
S11315F0D844DFF8D8040168200002F014FCDFF8B6
S11316004C19DFF84C291368A5685668606846438E
S113161005FB0363DB130B6013685B426568526868
S1131620A068424305FB0323DB134B60DFF8B404DB
S1131630DFF80C198A684B6844688D68B4EBE534AC
S113164004FB03228A6042680A60DFF83C2489684C
S1131650C91311600021516002F021FCDFF840142D
S11316600888002802D00888401E0880DFF8240477
S11316700068002813D0DFF80C040188491C01809D
S11316800088082808DBDFF8CC08018851F4806161
S11316900180FFF761FC10E0FFF7ECFC0DE0002097
S11316A0DFF8202410800888002806D1DFF8D00352
S11316B00088002801D100F00BF870BD591F00000C
S11316C03A1C002000009647FB1C0020FA1C002056
S11316D02DE9F0470FF2C920DFF8C0130A680300B0
S11316E09A4200F03F8108603024DFF8C853DFF8E5
S11316F0C863287860433044406801F0EBFDDFF8AC
S1131700BC23DFF8BC3301F0FBFE02F045F9DFF83F
S113171090130880DFF894030268DFF894030168EB
S1131720DFF8840302F0AEFBDFF87C0300680028D6
S113173001D4012701E05FF0FF372878604330448B
S1131740C06801F0C7FD0022DFF8883301F0D8FE3D
S11317500022002304F00CFA17D2287860433044A6
S1131760C06801F0B7FD0022DFF8683301F0C8FE5D
S11317700022DFF8643301F0D1FD0022DFF85C338E
S113178001F0E2FF02F008F913E0287860433044E6
S1131790C06801F09FFD0022CE4B01F0B1FE002293
S11317A0CD4B01F0BBFD0022CD4B01F0CDFF02F08B
S11317B0F3F8DFF830A35FF0FF3200FB07F001001D
S11317C0504602F05FFBDFF8F482DFF8F4922878E9
S11317D0604330440069297861433144C96804F0A6
S11317E0DDFA297861433144496804F0DBF901F0FA
S11317F071FD42464B4601F091FD0022BA4B01F0C7
S11318008DFD0022B34B01F07BFE0022002304F087
S1131810AFF929D2287860433044006929786143BC
S11318203144C96804F0BAFA2978614331444968FB
S113183004F0B8F901F04EFD42464B4601F06EFD4E
S11318400022A94B01F06AFD0022A24B01F058FED0
S11318500022A14B01F062FD0022A04B01F074FFB5
S113186002F09AF8804628E0287860433044006902
S1131870297861433144C96804F090FA29786143B6
S11318803144496804F08EF901F024FD42464B4688
S113189001F044FD0022944B01F040FD00228D4BE9
S11318A001F02EFE00228C4B01F038FD00228C4BFF
S11318B001F04AFF02F070F880467B480068002877
S11318C001D4012701E05FF0FF37287860433044FA
S11318D0006901F0FFFC00227E4B01F011FE0022A2
S11318E0002304F045F916D2287804FB00F406EB33
S11318F00400006901F0EEFC0022764B01F000FECA
S11319000022754B01F00AFD0022744B01F01CFF0C
S113191002F042F815E0287804FB00F406EB04001A
S1131920006901F0D7FC00226A4B01F0E9FD0022B6
S1131930694B01F0F3FC0022694B01F005FF02F052
S11319402BF8424600FB07F00100504602F09AFAD9
S11319504D4800210160DAF80410416030204C4900
S1131960088019E052490868002801D4012201E0E6
S11319705FF0FF324C480368002B01D4012301E0DF
S11319805FF0FF339A4202D0FFF774FB04E0474A4A
S11319901268096802F076FABDE8F0873C1C002062
S11319A070B53F4C4449434802783020424301EB30
S11319B00200406801F08EFC0022DFF8C83A01F012
S11319C09FFD3E4A3E4B01F09BFD01F0E5FF21885F
S11319D080B281421AD234480168012903DB2D49BF
S11319E00968012909DB0068002803D52948006833
S11319F0002802D52088002808D1DFF8580501887E
S1131A0051F400610180FFF7A7FA37E02088401EF7
S1131A102080344C1C49606802F072FA200002F005
S1131A203EFA1C4D204C2968200002F034FA286844
S1131A30002801D4012001E05FF0FF302168002973
S1131A4001D4012101E05FF0FF31884216D12868FA
S1131A5004F062F80600206804F05EF8864206DBB3
S1131A602168200002F017FA00F040F806E0286828
S1131A7004F052F86D2801DB00F038F870BD000066
S1131A80461C0020381C0020C0170020C817002066
S1131A90301C00207C1A00202E1C0020681A002014
S1131AA0441C0020701A00207C160020601A0020BC
S1131AB05C1A0020FC1C0020B40E0020FCA9F1D20A
S1131AC04D62103F481C00203C1700206C1A002077
S1131AD00000D03F000044400000E0400000E0BFB0
S1131AE00000E03F6C1600200000C0402DE9FE4FCE
S1131AF0DFF8A40A0468DFF8A46A0168320091429E
S1131B0035D006600020DFF8AC1A08800020DFF82A
S1131B10901A0880DFF8A00A40F2D7310160102142
S1131B20416000218160DFF87C1AC16000210161FD
S1131B30DFF8740A0021C1602100DFF8702A9142A5
S1131B4005D1DFF8781A4968C903C16101E00021B1
S1131B50C161DFF85C0A0078800708D5DFF8F40378
S1131B60018851F480410180FFF7F6F9E0E1DFF8E4
S1131B70505A2878C00623D4DFF8C80340F25B31FA
S1131B80016040F29761416040F2F71282600022E6
S1131B90C26100220261DFF8B00340F2A2320260A7
S1131BA041604FF4E87181600021C161002101614D
S1131BB0DFF874064021416000210160002181604A
S1131BC0DFF8001A0878002840F04581DFF8F809AA
S1131BD00168002914D4DFF8F4190A68012A04DB27
S1131BE0DFF8EC291268002A07D40968002907D510
S1131BF0DFF8DC190968012902DBFFF73BFA97E1FA
S1131C00DFF8CC790268DFF8C4090168380002F013
S1131C1039F9B44227D12878800710D42878C0062F
S1131C2007D5DFF898090068C003DFF88C1908614C
S1131C3005E0C6480068C003DFF87C19086128780D
S1131C40400710D42878C00607D5DFF8700940682B
S1131C50C003DFF85419C86105E0BC484068C003FC
S1131C60DFF84419C86136202880786803F054FFEF
S1131C70B0F5B67F76DA5FF00008DFF858993027C0
S1131C80DFF85469DFF82049DFF850090078784319
S1131C90304480695FF0874101F0B0FA01F01AFB2B
S1131CA0DFF83C29DFF83C3901F038FBDFF838294C
S1131CB0DFF8383901F024FC42464B4601F044FD7C
S1131CC001F06AFE2060DFF828A9DFF828B9DFF800
S1131CD00C09007878433044C06901F0FBFA52469D
S1131CE05B4601F01BFB0022DFF80C3901F016FB08
S1131CF0DFF8EC28DFF8EC3801F010FBDFF8E82817
S1131D00DFF8E83801F0FCFB42464B4601F01CFDCD
S1131D1001F042FE6060DFF8C40800787843304484
S1131D20006ADFF8B818097807FB01F706EB07012A
S1131D30C96901F063FA01F0CDFA52465B4601F03D
S1131D40EDFA0022DFF8B03801F0E8FA42464B46DB
S1131D5001F0FAFC01F020FEA060288850F0080091
S1131D60288077E00024DFF86C58DFF86C78DFF81F
S1131D703868DFF8680801783020414307EB010038
S1131D80406A5FF0874101F039FA01F0A3FADFF805
S1131D905028DFF8503801F0C1FADFF84C28DFF89A
S1131DA04C3801F0ADFB22002B0001F0CDFC01F01A
S1131DB0F3FD30605FF0000ADFF83CB8DFF83088EC
S1131DC0DFF83098DFF8140801783020414307EB3E
S1131DD00100806A01F07EFA42464B4601F09EFA09
S1131DE052465B4601F09AFADFF8F427DFF8F4373D
S1131DF001F094FADFF8F027DFF8F03701F080FB08
S1131E0022002B0001F0A0FC01F0C6FD7060DFF899
S1131E10CC0701783020414307EB0100C06ADFF8AA
S1131E20BC170A7830214A4307EB0201896A01F0A2
S1131E30E5F901F04FFA42464B4601F06FFA52467B
S1131E405B4601F06BFA22002B0001F07DFC01F0EF
S1131E50A3FDB0606CE0087802282DD1DFF86C0790
S1131E600168684601F0DFFFDFF89007006844F678
S1131E70E71101FB00F1C913DFF84C070268914236
S1131E8005DB0268CA4201DA494200E00168DFF872
S1131E907007029A4A43D2130260019A01FB02F1CD
S1131EA0C91341602949DFF814074A684260096888
S1131EB00160002028802EE0087801281CD1DFF87A
S1131EC0FC06DFF8081709684160B44211D129788B
S1131ED089070ED42978C90605D50068C003DFF840
S1131EE0D816086105E019480068C003DFF8C81671
S1131EF00861322028800EE0087803280BD1DFF82F
S1131F00BC06DFF8C81609680160DFF8BC1609686A
S1131F104160302028800020DFF8981608805FF0A8
S1131F20FF32DFF8E0060168DFF8A40601F0AAFF3B
S1131F30BDE8F78F0000F03FA4D666297A6A3F40D7
S1131F4084170020AC130020CC130020D8170020E5
S1131F50B8170020341C00202DE9FE4FDFF864463A
S1131F602078002840F02581DFF86456286800288E
S1131F700BD1DFF89006006803F0CEFDDB2804DA0D
S1131F8005202070FEF7E8FF4BE1DFF83406007807
S1131F90000740F18880686803F0BEFD40F27B11C1
S1131FA08842C0F23E81DFF800660024DFF8245640
S1131FB0DFF82476DFF8240601783020414307EB6C
S1131FC00100406A5FF0874101F018F901F082F9DD
S1131FD0DFF80C26DFF80C3601F0A0F9DFF808264C
S1131FE0DFF8083601F08CFA22002B0001F0ACFB7C
S1131FF001F0D2FC30605FF0000ADFF8FCB5DFF8D6
S1132000F085DFF8F095DFF8D405017830204143FE
S113201007EB0100806A01F05DF942464B4601F08E
S11320207DF952465B4601F079F9DFF8B425DFF813
S1132030B43501F073F9DFF8B025DFF8B03501F0FD
S11320405FFA22002B0001F07FFB01F0A5FC706019
S1132050DFF8880501783020414307EB0100C06AAE
S1132060DFF878150A7830214A4307EB0201896AC0
S113207001F0C4F801F02EF942464B4601F04EF946
S113208052465B4601F04AF922002B0001F05CFB4A
S113209001F082FCB060DFF828150A884FF6F7706B
S11320A002400A80BDE0686803F036FDB0F5AF7FFA
S11320B080F2B780DFF8F0640024DFF81855DFF809
S11320C01875DFF8180501783020414307EB01004B
S11320D080695FF0874101F091F801F0FBF8DFF8C7
S11320E00025DFF8003501F019F9DFF8FC24DFF8EA
S11320F0FC3401F005FA22002B0001F025FB01F06D
S11321004BFC30605FF0000ADFF8ECB4DFF8E084E9
S1132110DFF8E094DFF8C40401783020414307EB92
S11321200100C06901F0D6F842464B4601F0F6F8CA
S113213052465B4601F0F2F8DFF8A424DFF8A43439
S113214001F0ECF8DFF8A024DFF8A03401F0D8F9AE
S113215022002B0001F0F8FA01F01EFC7060DFF899
S11321607C0401783020414307EB0100006ADFF86A
S11321706C140A7830214A4307EB0201C96901F063
S11321803DF801F0A7F842464B4601F0C7F8524625
S11321905B4601F0C3F822002B0001F0D5FA01F0F0
S11321A0FBFBB060DFF81804018851F008010180DE
S11321B037E0207802282BD1DFF810040168684644
S11321C001F031FEDFF83404016844F6E71000FB47
S11321D001F0C013DFF8F0130A68904205DB0A68C7
S11321E0C24201DA404200E00868DFF81414029A9F
S11321F04243D2130A60019A00FB02F0C013486004
S1132200DFF8B803DFF8BC194A6842600968016066
S11322105FF0FF32DFF8EC030168DFF8B40301F08C
S113222031FEBDE8F78F00007817002070B50FF27B
S11322305910DFF864130A6803009A4222D0086038
S1132240DFF8F80900210160DFF8F4490168C913D7
S1132250200001F0E8FDDFF86C19DFF8E8291368C5
S1132260A56856686068464305FB0363DB130B608F
S113227013685B4265685268A068424305FB032308
S1132280DB134B60DFF83C03017806292FD1DFF81C
S11322906C03016844F6E71000FB01F0C013DFF89B
S11322A028130A68904205DB0A68C24201DA4042F8
S11322B000E00868DFF84813086000204860DFF891
S11322C0FC020021016000214160DFF800435FF05F
S11322D0FF322168DFF8F80201F0D4FD2068DFF84E
S11322E0241308600020DFF8D81208804BE000783F
S11322F007283BD1DFF8C8522878C00623D4DFF87A
S1132300B40940F25B31016040F29761416040F2F0
S1132310F71282600022C26100220261DFF898098C
S113232040F2A232026041604FF4E8718160002102
S1132330C16100210161DFF8D00240214160002128
S11323400160002181609D489F4909680160002166
S113235041609E4C5FF0FF3221689D4801F092FD80
S11323602068A8490860302028800CE0A448002197
S11323700160002141609148002101600021416019
S113238000208F49088070BDF8B58E480178062971
S113239041D1DFF8A8281168C9138C4C136825684B
S11323A040F2C35000FB05331360DFF8945809B2C0
S11323B0280001F038FDDFF80C18DFF888281368CE
S11323C0AE6857686868474306FB0373DB130B600A
S11323D013685B426E685268A868424306FB032395
S11323E0DB134B602068874908608448016844F621
S11323F0E71000FB01F0C01373490A68904205DB43
S11324000A68C24201DA404200E008687C49086078
S11324100020486034E00078072831D1DFF81C2818
S11324201168C913694C1368256840F2C35000FB56
S113243005331360DFF8085809B2280001F0F3FCF3
S1132440DFF88017DFF8FC271368AE685768686800
S1132450474306FB0373DB130B6013685B426E6830
S11324605268A868424306FB0323DB134B602068D1
S11324706449086051485449096801600021416079
S1132480F1BD000000000840F8B505000E0017007B
S1132490002003F0CBFC04004A490D704B4A16603F
S11324A0494B1F60DFF834592888002808D0DFF82A
S11324B030190A88288882430A80FEF74DFD67E0B8
S11324C0087800283ED11868002802D5FFF70EFBD3
S11324D05EE0106800280CD12F4800682F4A904213
S11324E004D005200870FEF737FD51E0FFF7FEFA2F
S11324F04EE029480168DFF8FC28914209D00168C0
S1132500DFF8F428914204D00168DFF8F028914202
S113251002D1FEF7AFFD3BE00168DFF8E428914209
S113252002D1FEF733FE33E00168204A914202D122
S1132530FFF7CEF82CE000681849884228D1FFF74D
S1132540D5FA25E00878022802D1FFF7CFFA1FE078
S11325500878012802D1FFF7C9FA19E0087803289E
S113256002D1FFF7C3FA13E00878062802D00878EE
S1132570072802D1FFF75AFE0AE0DFF8F4080088C2
S1132580002803D00021002000F083FAFEF7E4FCC9
S1132590200003F04FFCF1BD681A0020591F000011
S11325A03C1C002000E0FFFF8C130020A119000058
S11325B02E1C00203A1C0020F4150020C017002017
S11325C0301C0020FA1C0020601A00205C1A002035
S11325D07C1600200000E03FB40E0020FC1C00200C
S11325E0FB200D9FDB8F67405839B4C876BE554039
S11325F0FCA9F1D24D62103F0000E040781A00209F
S1132600C81700207C1A0020781700202DE9F84311
S1132610DFF82C06026812F500526FF30D02DFF8A2
S11326205438100000B2B3F90010401A00280CD03E
S1132630DFF84408B0F900101C88141B24B211EB15
S1132640A43101801A80012200E00022DFF8204832
S11326502078C00740F16481DFF820180B68DFF8A8
S113266064054068C3180B60DFF8140803685B1C3A
S1132670036012B2012A04D00268B2F5486FC0F2B6
S11326804F810A68036892FBF3F300220A60002179
S11326900160DFF8F0572A68A86803FB00226E681F
S11326A0E86803FB0066686980FB0201800B40EA6E
S11326B08140891386192E602E69A86980FB020166
S11326C0800B40EA8140891303FB06036B6092137D
S11326D0DFF8B4572B68686802FB0033AE68E8681B
S11326E080FB0301C00B40EA4140C91302FB06060C
S11326F02E60DB135B4302FB0232100001F0AAFAE6
S1132700DFF88827936855689168B0EBE13101FBE5
S11327100533936010609068C013002804D500202E
S1132720DFF86C17088002E0DFF864170880DFF830
S11327306457288850F0010028802078C00639D5D5
S1132740DFF8780501684068814209D07FF05F00B6
S1132750DFF8441708600020DFF840170860DFE066
S1132760DFF834170868401C086008680128C0F2C4
S1132770D780DFF828271368DFF81407B0F90000C2
S1132780C31813600868DFF818371B689842C0F252
S1132790C78010680B6890FBF3F0DFF808371880E7
S11327A0288850F0100028807FF05F000860002027
S11327B01060B5E02078000733D5DFF8DC663068B8
S11327C0401C306030683028C0F2AA80DFF8CC7634
S11327D0DFF8D40601683868091A3960DFF8CC8656
S11327E0D8F8000003F098F98146DFF8B4060068D1
S11327F003F092F9B9EB00093868400190FBF9F055
S1132800DFF8A01608805FF0FF32D8F8001000202F
S1132810FFF73AFE288850F0080028800020306036
S11328207EE0207880067BD5DFF870160A68DFF832
S11328306006B0F9000082180A60DFF85C261068B0
S1132840401C1060106830284CDB0868136890FB4B
S1132850F3F30020106000200860DFF854669BB298
S11328603788072000FB0733DB10DFF848060768CA
S1132870002F18D41F00B6F806C0BFB2674503D3B3
S113288007687F1C076026E00768042F07DBDFF872
S11328902876B7F800C05CF0010CA7F800C05FF020
S11328A0FF37076017E0F7889C461FFA8CFC6745E2
S11328B003D307687F1E07600DE0076817F1030F55
S11328C007DADFF8F475B7F800C05CF0100CA7F86D
S11328D000C001270760B088F0807088B08030881D
S11328E070803380DFF8D0351878C00718D5DFF84A
S11328F0C405DFF8AC65366876420768BE420FDB74
S11329000126DFF8A0753E802E8856F020062E8022
S11329100025056000201880002010600020086059
S1132920207810F0060F00F0B280DFF89055296887
S1132930A448406841182960DFF884653068401C69
S113294030603068B0F5C86FC0F2A1802868316883
S113295090FBF1F028602078800752D5DFF8647589
S113296038781430282804DB97F800C0BCF1140C24
S113297003E097F800C01CF1140CDFF84C25DFF8D5
S11329804C150B682868C31832F91CC07FF001008D
S113299000FB0C33387832F91000C3180B60286838
S11329A03B7822F81300DFF814034068002801D4B0
S11329B0012001E05FF0FF300A68002A01D40122FF
S11329C001E05FF0FF32904209D1086803F0A4F8F7
S11329D0142190FBF1F0DFF8F814088003E00020E4
S11329E0DFF8EC1408803878401C387038782828D0
S11329F001DB00203870DFF89C04018851F00201EB
S1132A000180207840073ED5DFF8C844DFF8C824A9
S1132A10DFF8C8140B68207832F910001B1A2868F4
S1132A20C3180B602868237822F81300A348406871
S1132A30002801D4012001E05FF0FF300A68002A79
S1132A4001D4012201E05FF0FF32904209D108680D
S1132A5003F062F81E2190FBF1F0DFF88414088083
S1132A6003E00020DFF8781408802078401C2070F0
S1132A7020781E2801DB00202070DFF8180401886C
S1132A8051F0040101800020286000203060BDE87E
S1132A90F183F8B50C00DFF84C140880DFF8481413
S1132AA00A78042A02D00978052901D100250FE00B
S1132AB010F00705010702D555F0090508E0C10625
S1132AC002D555F0110503E0800601D555F0210526
S1132AD0DFF89C733E886E40F00703D515F00100C3
S1132AE000F014F8B00703D515F0020000F06CF8FC
S1132AF0700703D515F0040000F0A6F8210015F0C6
S1132B003805280000F0DCF83888F2BD70B4DFF82E
S1132B10602313884FF6FE710B401380C0B2002867
S1132B2043D00020DFF8541308600020DFF850136E
S1132B300860DFF8501340F2665088600020C860D7
S1132B40DFF8A803086147F233404861DFF8A003C7
S1132B5088611C4B5C680D69886945196C434C603D
S1132B604C685D68CE684869861906FB05440C60AC
S1132B70DFF8141347F246004860DFF878038860F2
S1132B804868C8605B688C68C868241A63430B6033
S1132B90DFF8F80240F20E4141600021016000219B
S1132BA08160108850F0010010800020DFF8E012EE
S1132BB00880DFF8E0120A884FF6FE7002400A80AF
S1132BC070BC7047D8170020DFF8A42213884FF692
S1132BD0FD710B401380C0B2002828D00020DFF81C
S1132BE0E41208700020DFF8E41208600020DFF827
S1132BF0E0120880002007E0DFF8FC124968DFF8E3
S1132C00C82222F81010401C2828F5DB98480178C7
S1132C1011F0060F07D10021DFF8A0221160002176
S1132C20DFF89C221160018851F00201018099496A
S1132C300A884FF6FD7002400A807047701A00201F
S1132C403C170020B8170020894A13884FF6FB71FF
S1132C500B401380C0B2002824D0DFF89C124A68CD
S1132C601E2042439D48026000209A4A1070486822
S1132C709B4A1080002004E04A68974B23F81020F8
S1132C80401C1E28F8DB7A48017811F0060F05D1A4
S1132C9000218A4A11600021894A1160018851F09B
S1132CA0040101807B490A884FF6FB7002400A80C8
S1132CB070470000AC130020CC1300207C160020C9
S1132CC038B5040008006A4D2A884FF6C7710A40D7
S1132CD02A80704A13884FF6C7710B401380210075
S1132CE089B2002964D06D4900220A6000226A4B2F
S1132CF01A6000226F4B1A6000226F4B1A80220068
S1132D0092B2082A04D0102A1AD0202A2DD04CE0DE
S1132D10664A1268624B1A60634A12680A6002F0DB
S1132D20FBFE76490968002901D4012201E05FF025
S1132D30FF3202FB00F200210320FFF7A5FB34E081
S1132D406E490A684FF461614A4312F50042121455
S1132D5012B250433021484302F0DEFE4FF41671A4
S1132D6090FBF1F04E4908601FE064490A684FF493
S1132D7061614A4312F50042121412B2504302F048
S1132D80CBFE4FF4167190FBF1F15FF0FF3041433D
S1132D904348016046483E490A88C2800A888280C6
S1132DA00A88428009880180FFE7288804432C8030
S1132DB031BD5348006870473C480068704751482B
S1132DC0006870473248B0F90000704710B504003D
S1132DD008224949200003F031F810BD321C0020BC
S1132DE0361C002010B5040001224749200003F0DE
S1132DF025F810BDA50F00001D1100008923000057
S1132E00ED150000414842490160424941605FF0CC
S1132E107F5181604049C16040490161404A42613B
S1132E20404A8261404AC261404A0262404B436266
S1132E30404B8362C2625FF07C5202633E4A42634B
S1132E405FF0804282633D4AC26301643C4941644D
S1132E503C4981643C49C1643C4901653C4A426542
S1132E603C4A8265C16570473B4908707047000061
S1132E70501C00204A1C00204E1C0020981A0020E0
S1132E809C1A0020601400208C160020901700204B
S1132E90541C0020521C0020B41A0020B01A002038
S1132EA0741A00205A1C0020901A00207C1A00205A
S1132EB0E0170020B81A0020601C0020A01A00208F
S1132EC0A41A0020FD1C0020140F0020AC1A0020BE
S1132ED0561C0020FE1C002044110020A81A0020CB
S1132EE0581C00204C1C0020FA1C00209AFAFFFFFA
S1132EF0CDCAFFFF0080FFFFD81700207C160020FA
S1132F00781A00208C1A0020FB1C0020B40E00202C
S1132F109A99193E9A99993F9A99993E000040408E
S1132F20CDCC4C3DBCC3903EC34C5A3EE9C3294171
S1132F30FB04413E8288113ECDCC2C4033331340F8
S1132F40CDCCCC3DBCC3103FC34CDA3EE9C3A94051
S1132F50FB04C13E8288913EFC1C0020012210F03B
S1132F601F018A409D4940B2400941F82020704722
S1132F70012210F01F018A40994940B2400941F8EA
S1132F8020207047012210F01F018A40954940B269
S1132F90400941F820207047020052B2002A08D5A7
S1132FA04901914A40B210F00F00104400F8041C8B
S1132FB003E049018D4A40B21154704701000020DA
S1132FC00A00D2B2042A03DA8948C9B250F82100AF
S1132FD0704780B5032001F0F9F90100480010F0B2
S1132FE00200C1F340010843C0B202BD80B50C2009
S1132FF0FFF7BEFF1020FFF7BBFF1220FFF7B8FF5B
S11330003E20FFF7B5FF01BD80B502211020FFF778
S1133010C3FF1020FFF7B6FF1020FFF79FFF022128
S11330200C20FFF7B9FF0C20FFF7ACFF0C20FFF7D3
S113303095FF01BD10B588B0012248216D4802F00A
S11330405AFF00F08EFD6C4C200000F0C4FC002000
S113305001900120029000200390002004900120A0
S1133060059040F6C41006900020079001A92000A6
S113307000F0B6FC0F21200000F0F8FC0023002231
S11330800021200000F0F4FC01220121200000F0C6
S1133090C7FC01220021200000F0C2FC0321200013
S11330A000F0CFFC00F09CFD200000F0D1FC0C20CF
S11330B0FFF768FF4FF40C6000904FF41663002292
S11330C00021200000F013FD02220021200000F066
S11330D016FD01220121200000F011FD022202212F
S11330E0200000F00CFD02220321200000F007FD67
S11330F00121200000F028FD0021200000F06EFCDA
S1133100200000F065FC01220021022002F04EF9AB
S113311002220021022002F049F9042200210220A7
S113312002F044F908220021022002F03FF91022A3
S11331300021022002F03AF920220021022002F0AC
S113314035F901220121022001F092FD0122022120
S1133150022001F08DFD01220421022001F088FDEE
S113316001220821022001F083FD01221021022006
S113317001F07EFD01222021022001F079FD0122CF
S11331804021022001F08EFE01224021022001F0A4
S1133190EDFF40220021022002F008F90122002163
S11331A0032002F003F902220021032002F0FEF8BA
S11331B001220021032002F0DCF902220021032075
S11331C002F0D7F901220121032001F06BFE012254
S11331D00221032001F066FE08B010BD00E100E00A
S11331E080E100E080E200E018ED00E000E400E0AF
S11331F0D0B702000000034000040540FF2212EA99
S1133200D05C1DBF12EAD153944593422BE09C44F9
S1133210D30780EA010243EA002043EA01211A406D
S1133220A1FB0030C04238BF00187CF17F010BDBEA
S1133230FE294ADA5B0842EAC15153EA006373F19A
S1133240004C51EB10207047D1F1080CDCF1200147
S11332502FDB5B0810FA01F10B4320FA0CF073F139
S113326000415041704794451CBF02EAD153934238
S113327080EA010202F000421DD0400019D049004A
S113328017D05BB9634514D00902B1FA81F39940B0
S1133290BCEB030CC00140F00040C1E70002B0FAEF
S11332A080FC10FA0CF0B3EB0C0CC90141F00041A6
S11332B0B6E71000704740000AD0490008D010F16A
S11332C0807F94BF11F1807F02E042F0FF4070479D
S11332D0D0437047C0F3C75181B1FF2906D0C11054
S11332E0400721F0E04101F16051704741020CBFF9
S11332F040F4E0016FF000410020704700F000410D
S113330000020AD0B0FA80FC00FA0CF001F160511E
S1133310A1EB0C5101EBD0214005704730B540F2D0
S1133320FF7C1CEA11541DBF1CEA13556445654516
S11333303FE0641981EA030C6FF35F530CF0004C17
S113334043F48013C90241F0004141EA505EC502D2
S11333501100A5FB020200284FF00000EEFB012043
S11333604FF00001E3FB052118BF42F001024018B1
S113337000214941E3FB0E01A4F580640D0302D250
S113338092184041494154F1010470DD450872F13D
S1133390004250F1000051EB0451A1F5801102D418
S11333A041EA0C0130BD40F2FF7E4CEA0E51002090
S11333B030BD0CEA1355644518BF654581EA030C1A
S11333C00CF0004C41D050EA410E1CBF52EA430EAF
S11333D002E06146002030BD24422C441BD15FEA48
S11333E0050EF6D0090302BF01460020AEF1140E0B
S11333F0B1FA81F5AEEB050401FA05FE0C35C5F111
S1133400200100FA05F5C8404EEA000E6FF35F5341
S113341043F480139CE733F00043B3FA83F504BF0D
S1133420B2FA82FE75440B3D641BB5F1200E2FBF2A
S113343002FA0EF3AB40C5F1200E22FA0EFE38BF9D
S113344043EA0E03AA40641C7CE750EA410E14BF11
S113345052EA430E6FF000014FF4001515EB430FD1
S11334608EBF194615EB410F9DE7B4D830BDD4F19A
S11334700104B4F120050FDAC4F12005520828BF75
S113348042F0010210FA05FE01FA05F57244E2BFAA
S1133490E0402843E1400FE0352C9ADCC5F12004DC
S11334A052EA400220FA05F218BF42F0010231FA52
S11334B005F0A1400A43002172F1004250F10000DE
S11334C051EB0C0130BD30B5016884684218416885
S11334D002EB5103C90703D54C4401E0491C08D150
S11334E09A4218BF12F9011B01D10C3030BD12F8F9
S11334F0015B002904F8015BF0D4491EF7D5EFE71E
S1133500F0B540F2FF7581EA030C0CF0004C15EAAB
S113351011541DBF15EA1357AC42AF42E5E0BC415C
S1133520C1F31301C3F31303801A994143F48013C5
S113353004D2641E0018494180185941C90241EA65
S11335405051B1FBF3F603FB1611A2FB0675D7EB42
S1133550C020A94102D2761E80185941C90241EA0D
S11335605051B1FBF3FE03FB1E11A2FB0E75D7EB0A
S1133570C020A94103D2AEF1010E8018594189023D
S113358041EA9051760546EA8E2EB1FBF3F603FB31
S11335901611A2FB0675D7EB8020A94102D2761E34
S11335A080185941C90241EA50514EEA060EB1FB56
S11335B0F3F603FB1611A2FB0675D7EBC020A94155
S11335C002D2761E80185941C90241EA5051B1FB1A
S11335D0F3F703FB1711A2FB0735D3EBC020A94176
S11335E067F100070CBF004247F0010766F3D527D7
S11335F04FEA1E31B80814F5806412DDBD0775F179
S1133600004250EB0E5051EB045111F5801F5CBF8A
S113361041EA0C01F0BD4CF07F6141F0E041002033
S1133620F0BDBD076D0840EA0E5041F48011D4F19D
S11336300104B4F120060ADAC4F120060200E040D5
S113364001FA06F3E1401843B24015430EE0342C6E
S113365013DCC6F1200445EA40056D0820FA06F2A1
S1133660154321FA06F0A1400D43002175F10042F3
S113367050F1000051EB0C01F0BD00205FEA0C0199
S1133680F0BDCFB992185B41B3FA83F704BFB2FA25
S113369082F6BF190B3FB7F120062FBF02FA06F3DB
S11336A0BB40C7F1200622FA06F638BF3343BA40BE
S11336B01CB1E419641E33E77F4231F00041B1FAD2
S11336C081F404BFB0FA80F6A4190B3CB4F12006CF
S11336D02FBF00FA06F1A140C4F1200620FA06F635
S11336E038BF3143A0403C1B1AE7AC421ABF05EA7D
S11336F01357AF4212E050EA41061CBF52EA430698
S1133700BFE750EA4107304661461CBF41EA055114
S1133710F0BD52EA430C08BFC143F0BD00204FF492
S1133720001616EB410F98BF16EB430F08BF16EBBC
S1133730410F24BFC14305E016EB430F0CBF6146A4
S11337404CEA0551F0BD704770B491EA030F4FF095
S1133750004540F1B7806B40841A71EB030604D234
S11337606E40001BB141121973414FF4001C1CEB55
S1133770410F34BF7CEB430683E00C0DA4EB1356DE
S1133780362E00F37C80012E45EAC32341DC43EA54
S1133790525312BFD20292025B08240545EAC121AA
S11337A041EA5051D2EBC020994125D407D1B0FA57
S11337B080F610FA06F162D00020203608E0B1FA53
S11337C081F6B140C6F1200220FA02F21143B04062
S11337D04FEAF474B4EB465434F001064FEA74042F
S11337E00AD8D6F50016760D04F00044F04061FACC
S11337F006F25040F1404840C00A40EA415021F0EE
S1133800004128BF5FEA500550F1000044EBD1218C
S113381035E0DB0A45EAC121C90AB6F120050EDD0F
S113382042EA0242120CC5F1200603FA06F6EB4006
S113383042EA06056D42984161F100010DE062FA29
S113384006F5F240554063FA06FC82EA0C02F340A6
S11338505A406D42904161EB030111F4801F05D180
S1133860641E620502D06D004041494121F480117B
S1133870430875F1004350F1000041EB045170BC62
S113388070471CEB410F15D223F0004352EA430664
S11338900BD04FEA4C0CBCEB410F04D80C0D661E48
S11338A0342EB7DDEBE7801A994150EA410608BF90
S11338B00021E4E708BF1CEB430F28BF6FF00001B1
S11338C0DDE70000841A71EB030603D2001BB1414B
S11338D0121973414FF4001C1CEB410F34BF7CEBF5
S11338E0430442E00C0DA4EB1356352E4FDC45EA9D
S11338F0C323DB0A45EAC121C912B6F120050DDD57
S113390063FA05F6EB4086EA0305124218BF45F058
S11339100105C01851F100010CD213E062FA06F55A
S1133920F2405540F3415A40B340F3405A408018A6
S1133930594107D349085FEA30005FEA350528BFDB
S113394045F0010501F58011420875F1004250F17E
S1133950000041EB04514E0016F5001F70BC38BF47
S113396070470020090D090570471CEB410F10D268
S113397052EA43060BD0BCEB410F05D80C0DAB4308
S1133980661E342EB6DD02E0AB438018594170BC8C
S1133990704770BC70477047C1F30A5340F21E422F
S11339A0D31A0CDDCA0283F3070342EA505242F0F1
S11339B00042DA4002EBE17282EAE17070476FEA9A
S11339C0E17203F2E13008B182F0004070477047C1
S11339D00121016070470021016070474160704718
S11339E00022836813F020030A6913430A69012A39
S11339F002D18A6853EAC2030A6853EA82134A6806
S1133A0053EA0213CA6853EA420383604A69426173
S1133A108969416270470021C06810F00100704755
S1133A200023012906D1C16A31F0080151EAC2011B
S1133A30C16205E0C16A31F0040151EA8201C16248
S1133A4070470022C26A920892001143C162704713
S1133A505A210163A5210163416B4908490041636F
S1133A6070470021806B10F002007047416470477A
S1133A708161C36102627047F0B401230024002411
S1133A8000240024C46AA40814F003041500EDB251
S1133A90AD08876A5B4E56F821603E402700FFB2AE
S1133AA0032F03D02700FFB2002F1CD1E4B2640817
S1133AB0554BE4B203EBC403D2B29A5C2D02032942
S1133AC009D152EA820151EA0211294351EA45011E
S1133AD051EA850105E08D404900354312FA01F1B0
S1133AE02943816200231800C0B2F0BC704710B4AF
S1133AF0019C8164C2640365446510BC7047002363
S1133B00002905D0022910D008D3032914D01AE0C3
S1133B10816DC908C9000A43826514E0816D31F0E2
S1133B20700151EA021181650DE0816D31F4E061AB
S1133B3051EA0221816506E0816D31F4E04151EAE8
S1133B4002318165FFE77047C9B2012904D1C16D13
S1133B5051F00101C16503E0C16D49084900C16527
S1133B60704703202949086003202949086003207D
S1133B702849086082202849086083202749086072
S1133B8000202749086000202649086001202649B2
S1133B9008600020254908602548264908605FF030
S1133BA00240254908604FF4AC60244908600220B3
S1133BB023490860802023490860704710B5224CCF
S1133BC0072200212000FFF757FF072201212000D0
S1133BD0FFF752FF072202212000FFF74DFF10BD1F
S1133BE010B5194C002200212000FFF745FF0022E8
S1133BF001212000FFF740FF002202212000FFF7EF
S1133C003BFF10BD04010020F40000200004034029
S1133C100804034010040340580003405C000340C0
S1133C208000034084000340880003408C0003406C
S1133C308E8D8C00A0000340A4000340D4000340F8
S1133C4004000340080003400004054040F63B71B3
S1133C5041637047B0F5801F1AD20011DFF8342792
S1133C60010089B2491232F8111003009BB25B12B1
S1133C7002EB43025288521A92B280B2C005C00DC0
S1133C8000FB02F0400A89B280B2401840113AE0C9
S1133C90B0F1806F1AD28012DFF8F826010089B2E1
S1133CA0491232F8111003009BB25B1202EB43027B
S1133CB05288521A92B280B2C005C00D00FB02F0C5
S1133CC0400A89B280B2401880101CE0B0F1804FE5
S1133CD017D28013DFF8BC26010089B2491232F8EA
S1133CE0111003009BB25B1202EB43025288521A7A
S1133CF092B280B2C005C00D00FB02F0400A401829
S1133D0001E047F6FF7080B2704710B4020051EA38
S1133D100200002801D1002042E0012907DB012A2A
S1133D2003DA52424FF480400AE0002008E049429E
S1133D30012A02DB4FF4404002E052424FF40040BB
S1133D40914209DA430401D510F500504FF4804341
S1133D505943B1FBF2F208E0430401D410F50050DA
S1133D604FF480435A43B2FBF1F2DFF82C361100D2
S1133D7089B2C91133F811101400A4B2E41103EB91
S1133D8044035B885B1A9BB292B212F07F025343E6
S1133D90DB095B18810401D5D3F50053181800B270
S1133DA010BC70470369426802FB01330361036975
S1133DB0026802FB0131C91382688A4207DA81680A
S1133DC0CA0303699A420CDACA03026109E0C268B1
S1133DD0914206DAC1680269B2EBC13F01DACA0353
S1133DE002610800704710B40200D369506800FBF8
S1133DF001331C00E4131068414314EB2124D06800
S1133E00041920005169814201DA506903E0916983
S1133E10884200DA90691461041B916801FB043440
S1133E20D46110BC704770B40A0012B2026011F081
S1133E307F0489B2C909DFF864550A0092B255F8C3
S1133E4022200B009BB205EB83035B689B1A2600C0
S1133E50B6B203FB06F3DB119A1842608031C90540
S1133E60C90D0A0092B255F8222089B205EB8101EE
S1133E704968891AA4B201FB04F1C9118A18826045
S1133E8070BC70470160002A03D541604903C160DA
S1133E9000E08260704741604903C1607047416837
S1133EA0026891422BD08168002905D501684160E0
S1133EB001684903C16022E04168026891420EDA58
S1133EC0C26881688A18C260C16849130268914255
S1133ED014DB0168416001684903C1600FE0C268F6
S1133EE08168521AC260C168491302688A4205DBBC
S1133EF00168416001684903C16000E041607047A6
S1133F00F8B506000C0006FB06F543F25207DFF88D
S1133F10900410EB6500FFF79DFE3F1A27602068B0
S1133F20012801DB00202060002E01D4012601E0DD
S1133F305FF0FF362168206800FB11552800FFF769
S1133F4089FE46436660F1BD38B504000D00E562A4
S1133F5029002000FFF767FFED03A5610020206121
S1133F600020606140F2772020620020E0610020A0
S1133F7060620020A0628020606300202063002033
S1133F80A06331BD70B504000D00E06A2D1A28004D
S1133F9000B201F0C1FDA16B626BA36BB0EBE33027
S1133FA000FB0210A063280000B201F0B5FD2063FD
S1133FB0A06BC013A06221692A0012B27FF0050031
S1133FC000FB021121612169C91300226369E069C0
S1133FD002FB00337FF00E0000FB01312B001BB20B
S1133FE0052000FB031161616169C913636A266AD4
S1133FF0606AB1EBE03000FB06336362E161606A42
S1134000C013E060A36940F2C35000FB01332DB23A
S11340109A2000FB0535A561A069C01300B2E062D7
S1134020A06902FB0101C91309B22000FFF7FBFEDE
S113403070BD2DE9F84F81460E001700DFF8648348
S11340400021404601F08EFF04006408022140462E
S113405001F088FF05006D080121404601F082FF50
S113406082465FEA5A0A5FEAC9507AD54FF6FF6082
S113407010EA0909DFF830B3BBF80000C00508D422
S1134080BBF8000050F48070ABF800000020C74972
S11340900860C6480168042908D10021C44A116097
S11340A00021C44A11600021C34A1160C0490A6852
S11340B0A2180A60BF4A1368EB181360BE4BD3F80A
S11340C000C01AEB0C0CC3F800C0D0F800C01CF1FF
S11340D0010CC0F800C0D0F800C042F2040EF44550
S11340E037D3DFF8D8C209684913CCF80010116837
S11340F04913B34A116019684913B24A1160002187
S11341000160DCF80000B0F5804001F005FD40F2EC
S11341106761884218DAAA480068B0F5804001F067
S1134120FBFC40F2676188420EDAA6480068B0F5ED
S1134130804001F0F1FC40F26761884204DA40F209
S11341400120ABF8000012E040F20220ABF80000BE
S11341500DE0BBF800104FF6FF500140ABF8001023
S113416005E091490A884FF6FF4002400A801FFA91
S113417089F9B9F1010F08D0B9F1020F1DD0B9F1D5
S1134180030F1AD0B9F1060F2FD148F25E508C49B3
S113419009684D1B4543ED1375608A490968B1EB05
S11341A00A0A00FB0AFA5FEAEA3AC6F808A071684C
S11341B0B0684118494231602AE048F25E508149B2
S11341C00968B1EB0A0A00FB0AFA5FEAEA3AC6F8A0
S11341D008A07A4909680C1B4443E4133460B168AD
S11341E0306841184942716012E048F25E507349E8
S11341F009680C1B4443E4133460714909684D1B7E
S11342004543ED1375603168706841184942B160E7
S11342100321404601F0A6FE400848F20611484337
S1134220C013386060480088BDE8F28F30B4029C47
S113423040F6C415C91A6943B1FBF4F10160D21AFE
S11342406A43B2FBF4F1416000218160016840F6E9
S1134250C512914206DB416869430268B1FBF2F181
S113426041600560416840F68502914202DB40F6F8
S11342708401416030BC70477FB506000C00012CFE
S113428014DA002C03D1FFF799FC002502E0FFF7B4
S1134290A7FC08250023002200214B48FFF7E8FB78
S11342A0002003904FF4DC7002906EE0FFF786FC70
S11342B070683168884234DAB068716888420EDA0E
S11342C001250094B3687268316801A8FFF7AEFF56
S11342D0039B029A01993C48FFF7CAFB55E0B0687A
S11342E0316888420EDA062500947368B268316832
S11342F001A8FFF79BFF029B039A01993248FFF73D
S1134300B7FB42E00525009473683268B16801A8E0
S1134310FFF78CFF019B039A02992B48FFF7A8FB38
S113432033E0B068316888420EDA02250094B3683D
S11343303268716801A8FFF779FF039B019A02991B
S11343402148FFF795FB20E0B068716888420EDAD7
S1134350032500943368B268716801A8FFF766FF0B
S1134360029B019A03991848FFF782FB0DE004258C
S1134370009433687268B16801A8FFF757FF019B86
S1134380029A03991048FFF773FB280080B204B027
S113439070BD00006877020064760200ECDD010065
S11343A044DA1E0900000340681C0020781B00202A
S11343B07C1B0020801B0020841B0020E0000020C8
S11343C0E4000020E8000020000405400100002073
S11343D0C9B2002911D0022917D012D304291CD044
S11343E017D3062921D01CD3082926D021D30A2982
S11343F02BD026D30B292CD02FE05FF0804000680F
S11344002BE0DFF84C05006827E0DFF8480500687A
S113441023E0DFF8440500681FE0DFF8400500688A
S11344201BE0DFF83408006817E0DFF830080068A4
S113443013E0DFF82C0800680FE0DFF828080068B4
S11344400BE0DFF82408006807E0DFF820080068C4
S113445003E0DFF84C0A0068FFE7C0B270470022AF
S113446000220023C0B2002811D0022817D012D392
S113447004281CD017D3062821D01CD3082826D002
S113448021D30A282BD026D30B282CD02FE05FF081
S1134490804002682BE0DFF8B804026827E0DFF808
S11344A0B404026823E0DFF8B00402681FE0DFF818
S11344B0AC0402681BE0DFF8A007026817E0DFF82D
S11344C09C07026813E0DFF8980702680FE0DFF842
S11344D0940702680BE0DFF89007026807E0DFF852
S11344E08C07026803E0DFF8B8090268FFE71140AF
S11344F0C9B2002901D0012000E00020C0B27047F9
S11345000023C0B2002814D002282ED01FD30428C0
S113451047D038D3062860D051D3082879D06AD33D
S11345200A2800F09280C0F082800B2800F09B8063
S1134530A7E05FF080431868D2B2002A01D001439B
S113454002E0C9B2C9430140C9B2196099E0DFF879
S113455000341868D2B2002A01D0014302E0C9B283
S1134560C9430140C9B219608BE0DFF8E833186829
S1134570D2B2002A01D0014302E0C9B2C9430140CA
S1134580C9B219607DE0DFF8D0331868D2B2002ACE
S113459001D0014302E0C9B2C9430140C9B2196064
S11345A06FE0DFF8B8331868D2B2002A01D00143B3
S11345B002E0C9B2C9430140C9B2196061E0DFF841
S11345C098361868D2B2002A01D0014302E0C9B279
S11345D0C9430140C9B2196053E0DFF88036186856
S11345E0D2B2002A01D0014302E0C9B2C94301405A
S11345F0C9B2196045E0DFF868361868D2B2002AFB
S113460001D0014302E0C9B2C9430140C9B21960F3
S113461037E0DFF850361868D2B2002A01D00143DF
S113462002E0C9B2C9430140C9B2196029E0DFF808
S113463038361868D2B2002A01D0014302E0C9B268
S1134640C9430140C9B219601BE0DFF8203618687D
S1134650D2B2002A01D0014302E0C9B2C9430140E9
S1134660C9B219600DE0DFF838381868D2B2002AF0
S113467001D0014302E0C9B2C9430140C9B2196083
S1134680FFE7704710B400220A00D2B2FF2A29D1F2
S11346900200D2B2002A0FD0022A11D00ED3042A6B
S11346A012D00FD3062A13D010D3082A14D011D352
S11346B00A2A15D012D315E0FF2113E0FF2111E0DF
S11346C0FF210FE07F210DE0FF210BE01F2109E016
S11346D0FF2107E0FF2105E00F2103E0FF2101E0B6
S11346E00321FFE7C0B2002815D0022848D030D3F8
S11346F004287AD05BD3062800F0BA80C0F09380F7
S1134700082800F0E380C0F0CA800A2800F0058180
S1134710C0F0EC8018E10A00D2B2D243DFF8BC3911
S11347201C681000C0B204401C60DFF8B4391C6877
S11347301000C0B204401C60DFF8A8090368D2B2BC
S11347401A400260DFF8A0090268C9B2114301608F
S1134750FAE00A00D2B2D243DFF890391C681000A4
S1134760C0B204401C60DFF888090368D2B21A4062
S11347700260DFF880090268C9B211430160E3E016
S11347800A00D2B2D243DFF870391C681000C0B2FC
S113479004401C60DFF864090368D2B21A40026066
S11347A0DFF85C090268C9B211430160CCE00A0079
S11347B0D2B2D243DFF84C391C681000C0B20440B6
S11347C01C60DFF844391C681000C0B204401C604F
S11347D0DFF838090368D2B21A400260DFF8300902
S11347E00268C9B211430160AEE00A00D2B2D243FA
S11347F0DFF820391C681000C0B204401C60DFF8E8
S113480018391C681000C0B204401C60DFF80C09A1
S11348100368D2B21A400260DFF804090268C9B220
S11348201143016090E00A00D2B2D243DFF8F438B9
S11348301C681000C0B204401C60DFF8EC381C682F
S11348401000C0B204401C60DFF8E0381C6810009F
S1134850C0B204401C60DFF8D8080368D2B21A4022
S11348600260DFF8D0080268C9B2114301606BE04E
S11348700A00D2B2D243DFF8C0381C681000C0B2BC
S113488004401C60DFF8B4080368D2B21A40026026
S1134890DFF8AC080268C9B21143016054E00A00B1
S11348A0D2B2D243DFF89C381C681000C0B2044076
S11348B01C60DFF894080368D2B21A400260DFF883
S11348C08C080268C9B2114301603DE00800C0B21F
S11348D0C043DFF87C281368C0B218401060DFF8CA
S11348E074080268C9B2114301602DE00A00D2B213
S11348F0D243DFF864381C681000C0B204401C6066
S1134900DFF858080368D2B21A400260DFF8500892
S11349100268C9B21143016016E00A00D2B2D24360
S1134920DFF840381C681000C0B204401C60DFF897
S113493038080368D2B21A400260DFF8600A0268DD
S1134940C9B211430160FFE710BC704700000000CA
S11349504000004080000040C000004000010040D2
S113496010B400220A00D2B2FF2A2DD10200D2B222
S1134970002A11D0022A13D010D3042A14D011D340
S1134980062A15D012D3082A16D013D30A2A17D010
S113499014D30B2A16D017E0FF2115E0FF2113E0F2
S11349A0FF2111E07F210FE0FF210DE01F210BE02B
S11349B0FF2109E0FF2107E00F2105E0FF2103E0CB
S11349C0032101E00321FFE7C0B2002818D0022828
S11349D04BD033D304287DD05ED3062800F0BD80AD
S11349E0C0F09680082800F0E680C0F0CD800A2848
S11349F000F00881C0F0EF800B2800F01A8128E154
S1134A000A00D2B2D243DFF8D4361C681000C0B218
S1134A1004401C60DFF8C8361C681000C0B20440B3
S1134A201C60DFF8C4060368D2B21A400260DFF8E3
S1134A30B4060268C9B2114301600AE10A00D2B2A5
S1134A40D243DFF8A8361C681000C0B204401C60D2
S1134A50DFF8A0060368D2B21A400260DFF89006BD
S1134A600268C9B211430160F3E00A00D2B2D24332
S1134A70DFF884361C681000C0B204401C60DFF804
S1134A8080060368D2B21A400260DFF8700602683A
S1134A90C9B211430160DCE00A00D2B2D243DFF8AC
S1134AA064361C681000C0B204401C60DFF858363D
S1134AB01C681000C0B204401C60DFF85406036890
S1134AC0D2B21A400260DFF844060268C9B2114348
S1134AD00160BEE00A00D2B2D243DFF838361C6867
S1134AE01000C0B204401C60DFF82C361C681000B3
S1134AF0C0B204401C60DFF828060368D2B21A4032
S1134B000260DFF818060268C9B211430160A0E030
S1134B100A00D2B2D243DFF80C361C681000C0B2CF
S1134B2004401C60DFF800361C681000C0B204406A
S1134B301C60DFF8F8351C681000C0B204401C602B
S1134B40DFF8F0050368D2B21A400260DFF8E0052E
S1134B500268C9B2114301607BE00A00D2B2D243B9
S1134B60DFF8D4351C681000C0B204401C60DFF8C4
S1134B70D0050368D2B21A400260DFF8C0050268AB
S1134B80C9B21143016064E00A00D2B2D243DFF833
S1134B90B4351C681000C0B204401C60DFF8AC05DA
S1134BA00368D2B21A400260DFF89C050268C9B2F9
S1134BB0114301604DE00800C0B2C043DFF8942502
S1134BC01368C0B218401060DFF884050268C9B2E7
S1134BD0114301603DE00A00D2B2D243DFF87835D8
S1134BE01C681000C0B204401C60DFF87405036840
S1134BF0D2B21A400260DFF864050268C9B21143F8
S1134C00016026E00A00D2B2D243DFF858351C68AE
S1134C101000C0B204401C60DFF880070368D2B201
S1134C201A400260DFF840050268C9B2114301600E
S1134C300FE00800C0B2C043DFF864271368C0B2B5
S1134C4018401060DFF85C070268C9B211430160C4
S1134C50FFE710BC704700004001004080010040A5
S1134C60C0010040000200404002004080020040B9
S1134C7000230B00DBB2FF2B29D10300DBB2002B96
S1134C800FD0022B11D00ED3042B12D00FD3062B2E
S1134C9013D010D3082B14D011D30A2B15D012D350
S1134CA015E0FF2113E0FF2111E0FF210FE07F2138
S1134CB00DE0FF210BE01F2109E0FF2107E0FF21A8
S1134CC005E00F2103E0FF2101E00321FFE7C0B26B
S1134CD0002813D0022837D023D304285AD046D32F
S1134CE006287DD069D3082800F0A080C0F08B800E
S1134CF00A2800F0C180C0F0AC80D0E0D2B2012A12
S1134D0006D1DFF8E4030268C9B21143016007E089
S1134D10C9B2C943DFF8D0030268C9B211400160C7
S1134D20BDE0D2B2012A06D1DFF8C8030268C9B2D5
S1134D301143016007E0C9B2C943DFF8B803026850
S1134D40C9B211400160AAE0D2B2012A06D1DFF84B
S1134D50B0030268C9B21143016007E0C9B2C94394
S1134D60DFF89C030268C9B21140016097E0D2B237
S1134D70012A06D1DFF898030268C9B21143016021
S1134D8007E0C9B2C943DFF888030268C9B2114019
S1134D90016084E0D2B2012A06D1DFF884030268FC
S1134DA0C9B21143016007E0C9B2C943DFF8700317
S1134DB00268C9B21140016071E0D2B2012A06D181
S1134DC0DFF870030268C9B21143016007E0C9B299
S1134DD0C943DFF860030268C9B2114001605EE0B4
S1134DE0D2B2012A06D1DFF858030268C9B21143CE
S1134DF0016007E0C9B2C943DFF844030268C9B2DD
S1134E00114001604BE0D2B2012A06D1DFF83C0325
S1134E100268C9B21143016007E0C9B2C943DFF8AF
S1134E202C030268C9B21140016038E0D2B2012AF1
S1134E3006D1DFF820030268C9B21143016007E01C
S1134E40C9B2C943DFF80C030268C9B2114001605A
S1134E5025E0D2B2012A06D1DFF804030268C9B200
S1134E601143016007E0C9B2C943DFF8F4020268E4
S1134E70C9B21140016012E0D2B2012A06D1DFF8B2
S1134E8028050268C9B21143016007E0C9B2C943E9
S1134E90DFF814050268C9B211400160FFE77047EA
S1134EA0C002004000230B00DBB2FF2B2DD1030016
S1134EB0DBB2002B11D0022B13D010D3042B14D04F
S1134EC011D3062B15D012D3082B16D013D30A2BCB
S1134ED017D014D30B2B16D017E0FF2115E0FF21B8
S1134EE013E0FF2111E07F210FE0FF210DE01F21DE
S1134EF00BE0FF2109E0FF2107E00F2105E0FF217E
S1134F0003E0032101E00321FFE7C0B2002816D02B
S1134F10022836D024D3042855D043D3062874D08D
S1134F2062D3082800F09380C0F080800A2800F043
S1134F30B080C0F09D800B2800F0BC80CDE0D2B2E0
S1134F40012A05D167480268C9B21143016006E02D
S1134F50C9B2C94363480268C9B211400160BCE0E8
S1134F60D2B2012A05D162480268C9B21143016074
S1134F7006E0C9B2C9435E480268C9B21140016083
S1134F80ABE0D2B2012A05D15C480268C9B2114330
S1134F90016006E0C9B2C94358480268C9B2114069
S1134FA001609AE0D2B2012A05D158480268C9B218
S1134FB01143016006E0C9B2C94354480268C9B24A
S1134FC01140016089E0D2B2012A05D15348026838
S1134FD0C9B21143016006E0C9B2C9434F4802682F
S1134FE0C9B21140016078E0D2B2012A05D150481B
S1134FF00268C9B21143016006E0C9B2C9434C4812
S11350000268C9B21140016067E0D2B2012A05D139
S11350104A480268C9B21143016006E0C9B2C943F3
S113502046480268C9B21140016056E0D2B2012A72
S113503005D145480268C9B21143016006E0C9B20E
S1135040C94341480268C9B21140016045E0D2B287
S1135050012A05D13E480268C9B21143016006E045
S1135060C9B2C9433A480268C9B21140016034E088
S1135070D2B2012A05D139480268C9B2114301608C
S113508006E0C9B2C94335480268C9B2114001609B
S113509023E0D2B2012A05D133480268C9B21143D0
S11350A0016006E0C9B2C9432F480268C9B2114081
S11350B0016012E0D2B2012A06D1DFF8E8020268E8
S11350C0C9B21143016007E0C9B2C943DFF8D40291
S11350D00268C9B211400160FFE770470800004050
S11350E00C0000403800004004000040480000402C
S11350F0780000404400004088000040B8000040B0
S113510084000040C8000040CC000040F80000408B
S1135110C4000040080100400C0100403801004078
S113512004010040480100404C010040500100408F
S1135130780100404401004088010040B80100406B
S113514084010040C8010040F8010040C40100404F
S11351503802004004020040480200407802004047
S11351604402004088020040B802004000230B00C3
S1135170DBB2FF2B29D10300DBB2002B0FD0022BB3
S113518011D00ED3042B12D00FD3062B13D010D36F
S1135190082B14D011D30A2B15D012D315E0FF21FC
S11351A013E0EF2111E0FF210FE07F210DE0FF214B
S11351B00BE01F2109E0FF2107E0FF2105E00F219B
S11351C003E0FF2101E00321FFE7C0B2002813D070
S11351D0022837D023D304285AD046D306287DD0BA
S11351E069D3082800F0A080C0F08B800A2800F062
S11351F0C180C0F0AC80D0E0D2B2012A06D1DFF881
S113520060050268C9B21143016007E0C9B2C9432D
S1135210DFF84C050268C9B211400160BDE0D2B2AA
S1135220012A06D1DFF83C050268C9B211430160C6
S113523007E0C9B2C943DFF82C050268C9B21140BE
S11352400160AAE0D2B2012A06D1DFF81C05026887
S1135250C9B21143016007E0C9B2C943DFF80805C8
S11352600268C9B21140016097E0D2B2012A06D1A6
S1135270DFF8F8040268C9B21143016007E0C9B25B
S1135280C943DFF8E8040268C9B21140016084E050
S1135290D2B2012A06D1DFF8D8040268C9B2114398
S11352A0016007E0C9B2C943DFF8C4040268C9B2A7
S11352B01140016071E0D2B2012A06D1DFF8B404D2
S11352C00268C9B21143016007E0C9B2C943DFF8FB
S11352D0A4040268C9B2114001605EE0D2B2012A9E
S11352E006D1DFF894040268C9B21143016007E0F3
S11352F0C9B2C943DFF880040268C9B21140016031
S11353004BE0D2B2012A06D1DFF870040268C9B2B8
S11353101143016007E0C9B2C943DFF860040268C1
S1135320C9B21140016038E0D2B2012A06D1DFF8D7
S113533050040268C9B21143016007E0C9B2C9430D
S1135340DFF83C040268C9B21140016025E0D2B222
S1135350012A06D1DFF82C040268C9B211430160A6
S113536007E0C9B2C943DFF81C040268C9B211409E
S1135370016012E0D2B2012A06D1DFF80C040268FF
S1135380C9B21143016007E0C9B2C943DFF8F803A9
S11353900268C9B211400160FFE77047840200400F
S11353A0C8020040F802004084020040C0B2002855
S11353B019D001282CD0022839D0032846D004283B
S11353C059D005286CD0062800F08780072800F003
S11353D09380092800F09F800A2800F0AB800B28F6
S11353E000F0B780C4E0C9B2002902D0012907D077
S11353F00DE0DFF898030168D2B20A43026006E0C8
S1135400DFF88C030168D2B20A430260FFE7AFE021
S1135410C9B2002902D0012907D007E0DFF87403DC
S11354200168D2B20A43026000E0FFE7A0E0C9B21B
S1135430002902D0012907D007E0DFF85C030168E6
S1135440D2B20A43026000E0FFE791E0C9B200294A
S113545002D0012907D00DE0DFF840030168D2B281
S11354600A43026006E0DFF838030168D2B20A4357
S11354700260FFE77CE0C9B2002902D0012907D00D
S11354800DE0DFF820030168D2B20A43026006E0AF
S1135490DFF814030168D2B20A430260FFE767E051
S11354A0C9B2002903D002290FD007D314E0DFF8D2
S11354B0FC020168D2B20A4302600DE0DFF8F00298
S11354C00168D2B20A43026006E0DFF8E80201682C
S11354D0D2B20A430260FFE74AE0C9B2002902D00F
S11354E0012907D007E0DFF8D0020168D2B20A43ED
S11354F0026000E0FFE73BE0C9B2002902D00129C5
S113550007D007E0DFF8B4020168D2B20A430260B0
S113551000E0FFE72CE0C9B2002902D0012907D03E
S113552007E0DFF89C020168D2B20A43026000E09F
S1135530FFE71DE0C9B2002902D0012907D007E026
S1135540DFF880020168D2B20A43026000E0FFE79C
S11355500EE0C9B2002902D0012907D007E0DFF824
S113556068020168D2B20A43026000E0FFE7FFE785
S113557070470023C0B2002819D0012830D0022877
S11355803ED003284CD0042861D0052876D00628C4
S113559000F09480072800F0A180092800F0AE8074
S11355A00A2800F0BB800B2800F0C880D6E0C9B2FE
S11355B0002902D0012909D011E0D2B2D243DFF888
S11355C0CC010168D2B20A40026008E0D2B2D243F0
S11355D0DFF8BC010168D2B20A400260FFE7BDE017
S11355E0C9B2002902D0012908D008E0D2B2D243BE
S11355F068480168D2B20A40026000E0FFE7ADE00B
S1135600C9B2002902D0012908D008E0D2B2D2439D
S113561061480168D2B20A40026000E0FFE79DE001
S1135620C9B2002902D0012908D00FE0D2B2D24376
S11356305A480168D2B20A40026007E0D2B2D243AB
S113564057480168D2B20A400260FFE786E0C9B257
S1135650002902D0012908D00FE0D2B2D243514828
S11356600168D2B20A40026007E0D2B2D2434E4887
S11356700168D2B20A400260FFE76FE0C9B20029B4
S113568003D0022911D008D317E0D2B2D24347483D
S11356900168D2B20A4002600FE0D2B2D243444859
S11356A00168D2B20A40026007E0D2B2D243414854
S11356B00168D2B20A400260FFE74FE0C9B2002994
S11356C002D0012908D008E0D2B2D2433A48016896
S11356D0D2B20A40026000E0FFE73FE0C9B200290D
S11356E002D0012908D008E0D2B2D243334801687D
S11356F0D2B20A40026000E0FFE72FE0C9B20029FD
S113570002D0012908D008E0D2B2D2432C48016863
S1135710D2B20A40026000E0FFE71FE0C9B20029EC
S113572002D0012908D008E0D2B2D243254801684A
S1135730D2B20A40026000E0FFE70FE0C9B20029DC
S113574002D0012908D008E0D2B2D2431E48016831
S1135750D2B20A40026000E0FFE7FFE770470000B2
S11357602C0000406C000040AC000040EC00004005
S11357702C0100406C010040AC010040EC010040F1
S11357802C0200406C020040AC02004008000040C3
S11357900C0000404800004088000040C800004061
S11357A0CC000040080100400C01004048010040CA
S11357B04C0100405001004088010040C8010040F5
S11357C04802004088020040C8020040012210F054
S11357D01F018A40874940B2400941F820207047A0
S11357E0012210F01F018A40834940B2400941F868
S11357F020207047012210F01F018A407F4940B2E7
S1135800400941F820207047020052B2002A08D50E
S113581049017B4A40B210F00F00104400F8041C08
S113582003E04901774A40B21154704780B500F053
S113583047F801BD10B586B00620FFF7D1FF072059
S1135840FFF7CEFF704C200000F0C4FB0020039053
S113585000200590082001906021200000F0BFFC8A
S1135860002002906948009030200490694620008E
S113587000F0CAFB0021200000F0A2FC10200490DC
S1135880012200210420FFF791FD022200210420BF
S1135890FFF78CFD012201210420FFF7E9F9012221
S11358A002210420FFF7E4F905210720FFF7ACFFEC
S11358B00720FFF79FFF0720FFF788FF06B010BD02
S11358C080B5002052490860002052490860002039
S11358D0514908600020514908600020504908607F
S11358E000205049086000204F490880FFF7A2FFBC
S11358F001BD80B5484A1068002817D045484B4977
S11359000368C95C03685B1C0360402B01D300235C
S113591003601068401E10604348028852F0010280
S11359200280C9B2384800F024FC05E03E490A88E8
S11359304FF6FE7002400A8001BD10B5324800F0F7
S11359400DFC38490A68402A0DD2344A384B146891
S113595018551068401C1060402801D300201060C6
S11359600868401C086010BDF8B507000D00002051
S11359702C0000F05BFA060012E025483A782B4B25
S1135980D0F800C003F80C200268521C0260402AC0
S113599001D3002202600868401C08607F1C641E5A
S11359A0002C03D01C4908684028E6D32D1B1E4B4D
S11359B01888C00719D4184A1068002815D015484B
S11359C01A490468095D0468641C0460402C01D30E
S11359D0002404601068401E1060188850F0010014
S11359E01880C9B2084800F0C4FB300000F022FA65
S11359F02800F2BD00E100E080E100E080E200E088
S1135A0018ED00E000E400E080000240D012130032
S1135A10BC1A0020C01A0020C41A0020C81A002092
S1135A20CC1A0020D01A0020621C0020881000200C
S1135A30C810002010F0004160B148BF4042B0FAE5
S1135A4080F29040D21CC2F5846241EA025202EB19
S1135A50D0214005704730B4020000200123002407
S1135A6011782D290BD15FF0FF33641C07E00A2560
S1135A702100C9B2515C05FB00103038641C2100C0
S1135A80C9B2515C0029F2D15BB200FB03F030BC17
S1135A907047814203D3904201D3012000E00020EB
S1135AA070470100C9174840401A7047F8B505000F
S1135AB00E00170018000400002806D5FFF7F1FFB8
S1135AC02D213200D2B2A954761C002809D13021EC
S1135AD03200D2B2A954761C03E00A2194FBF1F4FB
S1135AE0761C002CF9D13100C9B26F54761C3100F8
S1135AF0B21E0CE00A2390FBF3F403FB14030A2404
S1135B0090FBF4F030331400E4B22B55521E0028FD
S1135B10F0D10800C0B2F2BD002848BF404270472F
S1135B2040EA010C1CEB0C0F4FF0807C07D305D02E
S1135B301CEB400F9CBF1CEB410F814270471CEBD8
S1135B40410F98BF88427047C0F3C751D1F19E01FD
S1135B5008DD020242F00042CA4002EBE07282EA2F
S1135B60E07070477FEAE07080F000407047704753
S1135B7041EA030C50EA4C0C52EA0C0C4FF4001CA2
S1135B8009D307D01CEB410F9CBF1CEB430F8B4286
S1135B9008BF824270471CEB430FFBD8994208BFF1
S1135BA0904270474FF0FF0C1CEAD0531DBF1CEA13
S1135BB0D1526345624543E09B1A5FEACC7280EAA6
S1135BC0010C42EA01211CEA020C42EA0020421ABA
S1135BD038BF01EB420253F17E034FEA1121B2FBBD
S1135BE0F1F001FB102260F3D63C4FEA0222B2FB33
S1135BF0F1F001FB102260F3CE1C4FEA0222B2FB4B
S1135C00F1F006DDFF2B29DA5CEA500040EBC350CB
S1135C107047C3F1020301FB1022192B40EA4C0127
S1135C200CF0004C41F0807121DC21FA03F0C3F147
S1135C3020039940114371F1004250EB0C0070476E
S1135C4063451ABF0CEAD152624512E080EA010CA6
S1135C5000180CF0004C06D049181AD10CF0004C76
S1135C604CF0FF407047C94208BF6FEA020C60461F
S1135C707047634506D1B2EB0C02F5D001F0004148
S1135C80484070474A0212BF0846484000F00040AE
S1135C9070474AB90902B1FA81F2914043B19B18A5
S1135CA0C00140F0004092E7C90141F00041524276
S1135CB00002B0FA80F39840D31A88E790EA010F03
S1135CC040F1728081F00041431A4FF000423EBF20
S1135CD05340C01AC918D3095FEAD05C13EB400FD4
S1135CE034BFB3EB410F40E07CEBD1530CD342EA19
